{
	"contracts/Lektion3/MappingLibrary.sol": {
		"MappingLibrary": {
			"abi": [
				{
					"inputs": [
						{
							"internalType": "string",
							"name": "bookAuthor",
							"type": "string"
						},
						{
							"internalType": "string",
							"name": "bookTitle",
							"type": "string"
						},
						{
							"internalType": "uint16",
							"name": "publicationYear",
							"type": "uint16"
						}
					],
					"name": "addBook",
					"outputs": [],
					"stateMutability": "nonpayable",
					"type": "function"
				},
				{
					"inputs": [
						{
							"internalType": "string",
							"name": "",
							"type": "string"
						},
						{
							"internalType": "string",
							"name": "",
							"type": "string"
						}
					],
					"name": "authorBooks",
					"outputs": [
						{
							"internalType": "string",
							"name": "title",
							"type": "string"
						},
						{
							"internalType": "uint16",
							"name": "year",
							"type": "uint16"
						},
						{
							"internalType": "bool",
							"name": "exist",
							"type": "bool"
						}
					],
					"stateMutability": "view",
					"type": "function"
				},
				{
					"inputs": [
						{
							"internalType": "string",
							"name": "",
							"type": "string"
						},
						{
							"internalType": "uint256",
							"name": "",
							"type": "uint256"
						}
					],
					"name": "authorBooksTitles",
					"outputs": [
						{
							"internalType": "string",
							"name": "",
							"type": "string"
						}
					],
					"stateMutability": "view",
					"type": "function"
				},
				{
					"inputs": [
						{
							"internalType": "string",
							"name": "bookAuthor",
							"type": "string"
						},
						{
							"internalType": "string",
							"name": "bookTitle",
							"type": "string"
						}
					],
					"name": "deleteBook",
					"outputs": [],
					"stateMutability": "nonpayable",
					"type": "function"
				},
				{
					"inputs": [
						{
							"internalType": "string",
							"name": "bookAuthor",
							"type": "string"
						}
					],
					"name": "getBookCountByAuthor",
					"outputs": [
						{
							"internalType": "uint256",
							"name": "",
							"type": "uint256"
						}
					],
					"stateMutability": "view",
					"type": "function"
				},
				{
					"inputs": [
						{
							"internalType": "string",
							"name": "bookAuthor",
							"type": "string"
						}
					],
					"name": "getTitlesAndYears",
					"outputs": [
						{
							"internalType": "string[]",
							"name": "bookTitles",
							"type": "string[]"
						},
						{
							"internalType": "uint256[]",
							"name": "publicationYears",
							"type": "uint256[]"
						}
					],
					"stateMutability": "view",
					"type": "function"
				},
				{
					"inputs": [
						{
							"internalType": "string",
							"name": "bookAuthor",
							"type": "string"
						}
					],
					"name": "getTitlesByAuthor",
					"outputs": [
						{
							"internalType": "string[]",
							"name": "",
							"type": "string[]"
						}
					],
					"stateMutability": "view",
					"type": "function"
				},
				{
					"inputs": [
						{
							"internalType": "string",
							"name": "bookAuthor",
							"type": "string"
						},
						{
							"internalType": "string",
							"name": "oldTitle",
							"type": "string"
						},
						{
							"internalType": "string",
							"name": "newTitle",
							"type": "string"
						},
						{
							"internalType": "uint16",
							"name": "publicationYear",
							"type": "uint16"
						}
					],
					"name": "updateBook",
					"outputs": [],
					"stateMutability": "nonpayable",
					"type": "function"
				}
			],
			"devdoc": {
				"kind": "dev",
				"methods": {},
				"version": 1
			},
			"evm": {
				"assembly": "    /* \"contracts/Lektion3/MappingLibrary.sol\":60:3575  contract MappingLibrary {... */\n  mstore(0x40, 0x80)\n  callvalue\n  dup1\n  iszero\n  tag_1\n  jumpi\n  revert(0x00, 0x00)\ntag_1:\n  pop\n  dataSize(sub_0)\n  dup1\n  dataOffset(sub_0)\n  0x00\n  codecopy\n  0x00\n  return\nstop\n\nsub_0: assembly {\n        /* \"contracts/Lektion3/MappingLibrary.sol\":60:3575  contract MappingLibrary {... */\n      mstore(0x40, 0x80)\n      callvalue\n      dup1\n      iszero\n      tag_1\n      jumpi\n      revert(0x00, 0x00)\n    tag_1:\n      pop\n      jumpi(tag_2, lt(calldatasize, 0x04))\n      shr(0xe0, calldataload(0x00))\n      dup1\n      0xa673c0b6\n      gt\n      tag_11\n      jumpi\n      dup1\n      0xa673c0b6\n      eq\n      tag_7\n      jumpi\n      dup1\n      0xb622fb02\n      eq\n      tag_8\n      jumpi\n      dup1\n      0xc95b6ec0\n      eq\n      tag_9\n      jumpi\n      dup1\n      0xcd80723a\n      eq\n      tag_10\n      jumpi\n      jump(tag_2)\n    tag_11:\n      dup1\n      0x12b2f1ad\n      eq\n      tag_3\n      jumpi\n      dup1\n      0x5bbd93c5\n      eq\n      tag_4\n      jumpi\n      dup1\n      0x7032185b\n      eq\n      tag_5\n      jumpi\n      dup1\n      0x8c031312\n      eq\n      tag_6\n      jumpi\n    tag_2:\n      revert(0x00, 0x00)\n        /* \"contracts/Lektion3/MappingLibrary.sol\":318:379  mapping(string => mapping(string => Book)) public authorBooks */\n    tag_3:\n      tag_12\n      0x04\n      dup1\n      calldatasize\n      sub\n      dup2\n      add\n      swap1\n      tag_13\n      swap2\n      swap1\n      tag_14\n      jump\t// in\n    tag_13:\n      tag_15\n      jump\t// in\n    tag_12:\n      mload(0x40)\n      tag_16\n      swap4\n      swap3\n      swap2\n      swap1\n      tag_17\n      jump\t// in\n    tag_16:\n      mload(0x40)\n      dup1\n      swap2\n      sub\n      swap1\n      return\n        /* \"contracts/Lektion3/MappingLibrary.sol\":1009:1153  function getBookCountByAuthor(string memory bookAuthor) public view returns(uint) {... */\n    tag_4:\n      tag_18\n      0x04\n      dup1\n      calldatasize\n      sub\n      dup2\n      add\n      swap1\n      tag_19\n      swap2\n      swap1\n      tag_20\n      jump\t// in\n    tag_19:\n      tag_21\n      jump\t// in\n    tag_18:\n      mload(0x40)\n      tag_22\n      swap2\n      swap1\n      tag_23\n      jump\t// in\n    tag_22:\n      mload(0x40)\n      dup1\n      swap2\n      sub\n      swap1\n      return\n        /* \"contracts/Lektion3/MappingLibrary.sol\":2750:2895  function getTitlesByAuthor(string memory bookAuthor) public view returns(string[] memory) {... */\n    tag_5:\n      tag_24\n      0x04\n      dup1\n      calldatasize\n      sub\n      dup2\n      add\n      swap1\n      tag_25\n      swap2\n      swap1\n      tag_20\n      jump\t// in\n    tag_25:\n      tag_26\n      jump\t// in\n    tag_24:\n      mload(0x40)\n      tag_27\n      swap2\n      swap1\n      tag_28\n      jump\t// in\n    tag_27:\n      mload(0x40)\n      dup1\n      swap2\n      sub\n      swap1\n      return\n        /* \"contracts/Lektion3/MappingLibrary.sol\":2903:3572  function getTitlesAndYears(string memory bookAuthor) public view returns(string[] memory bookTitles, uint[] memory publicationYears) {... */\n    tag_6:\n      tag_29\n      0x04\n      dup1\n      calldatasize\n      sub\n      dup2\n      add\n      swap1\n      tag_30\n      swap2\n      swap1\n      tag_20\n      jump\t// in\n    tag_30:\n      tag_31\n      jump\t// in\n    tag_29:\n      mload(0x40)\n      tag_32\n      swap3\n      swap2\n      swap1\n      tag_33\n      jump\t// in\n    tag_32:\n      mload(0x40)\n      dup1\n      swap2\n      sub\n      swap1\n      return\n        /* \"contracts/Lektion3/MappingLibrary.sol\":484:536  mapping(string => string[]) public authorBooksTitles */\n    tag_7:\n      tag_34\n      0x04\n      dup1\n      calldatasize\n      sub\n      dup2\n      add\n      swap1\n      tag_35\n      swap2\n      swap1\n      tag_36\n      jump\t// in\n    tag_35:\n      tag_37\n      jump\t// in\n    tag_34:\n      mload(0x40)\n      tag_38\n      swap2\n      swap1\n      tag_39\n      jump\t// in\n    tag_38:\n      mload(0x40)\n      dup1\n      swap2\n      sub\n      swap1\n      return\n        /* \"contracts/Lektion3/MappingLibrary.sol\":1161:2099  function updateBook(string memory bookAuthor, string memory oldTitle, string memory newTitle, uint16 publicationYear) public {... */\n    tag_8:\n      tag_40\n      0x04\n      dup1\n      calldatasize\n      sub\n      dup2\n      add\n      swap1\n      tag_41\n      swap2\n      swap1\n      tag_42\n      jump\t// in\n    tag_41:\n      tag_43\n      jump\t// in\n    tag_40:\n      stop\n        /* \"contracts/Lektion3/MappingLibrary.sol\":2107:2742  function deleteBook(string memory bookAuthor, string memory bookTitle) public {... */\n    tag_9:\n      tag_44\n      0x04\n      dup1\n      calldatasize\n      sub\n      dup2\n      add\n      swap1\n      tag_45\n      swap2\n      swap1\n      tag_14\n      jump\t// in\n    tag_45:\n      tag_46\n      jump\t// in\n    tag_44:\n      stop\n        /* \"contracts/Lektion3/MappingLibrary.sol\":590:925  function addBook(string memory bookAuthor, string memory bookTitle, uint16 publicationYear) public {... */\n    tag_10:\n      tag_47\n      0x04\n      dup1\n      calldatasize\n      sub\n      dup2\n      add\n      swap1\n      tag_48\n      swap2\n      swap1\n      tag_49\n      jump\t// in\n    tag_48:\n      tag_50\n      jump\t// in\n    tag_47:\n      stop\n        /* \"contracts/Lektion3/MappingLibrary.sol\":318:379  mapping(string => mapping(string => Book)) public authorBooks */\n    tag_15:\n      0x00\n      dup3\n      dup1\n      mload\n      0x20\n      dup2\n      add\n      dup3\n      add\n      dup1\n      mload\n      dup5\n      dup3\n      mstore\n      0x20\n      dup4\n      add\n      0x20\n      dup6\n      add\n      keccak256\n      dup2\n      dup4\n      mstore\n      dup1\n      swap6\n      pop\n      pop\n      pop\n      pop\n      pop\n      pop\n      dup2\n      dup1\n      mload\n      0x20\n      dup2\n      add\n      dup3\n      add\n      dup1\n      mload\n      dup5\n      dup3\n      mstore\n      0x20\n      dup4\n      add\n      0x20\n      dup6\n      add\n      keccak256\n      dup2\n      dup4\n      mstore\n      dup1\n      swap6\n      pop\n      pop\n      pop\n      pop\n      pop\n      pop\n      0x00\n      swap2\n      pop\n      swap2\n      pop\n      pop\n      dup1\n      0x00\n      add\n      dup1\n      sload\n      tag_51\n      swap1\n      tag_52\n      jump\t// in\n    tag_51:\n      dup1\n      0x1f\n      add\n      0x20\n      dup1\n      swap2\n      div\n      mul\n      0x20\n      add\n      mload(0x40)\n      swap1\n      dup2\n      add\n      0x40\n      mstore\n      dup1\n      swap3\n      swap2\n      swap1\n      dup2\n      dup2\n      mstore\n      0x20\n      add\n      dup3\n      dup1\n      sload\n      tag_53\n      swap1\n      tag_52\n      jump\t// in\n    tag_53:\n      dup1\n      iszero\n      tag_54\n      jumpi\n      dup1\n      0x1f\n      lt\n      tag_55\n      jumpi\n      0x0100\n      dup1\n      dup4\n      sload\n      div\n      mul\n      dup4\n      mstore\n      swap2\n      0x20\n      add\n      swap2\n      jump(tag_54)\n    tag_55:\n      dup3\n      add\n      swap2\n      swap1\n      0x00\n      mstore\n      keccak256(0x00, 0x20)\n      swap1\n    tag_56:\n      dup2\n      sload\n      dup2\n      mstore\n      swap1\n      0x01\n      add\n      swap1\n      0x20\n      add\n      dup1\n      dup4\n      gt\n      tag_56\n      jumpi\n      dup3\n      swap1\n      sub\n      0x1f\n      and\n      dup3\n      add\n      swap2\n    tag_54:\n      pop\n      pop\n      pop\n      pop\n      pop\n      swap1\n      dup1\n      0x01\n      add\n      0x00\n      swap1\n      sload\n      swap1\n      0x0100\n      exp\n      swap1\n      div\n      0xffff\n      and\n      swap1\n      dup1\n      0x01\n      add\n      0x02\n      swap1\n      sload\n      swap1\n      0x0100\n      exp\n      swap1\n      div\n      0xff\n      and\n      swap1\n      pop\n      dup4\n      jump\t// out\n        /* \"contracts/Lektion3/MappingLibrary.sol\":1009:1153  function getBookCountByAuthor(string memory bookAuthor) public view returns(uint) {... */\n    tag_21:\n        /* \"contracts/Lektion3/MappingLibrary.sol\":1085:1089  uint */\n      0x00\n        /* \"contracts/Lektion3/MappingLibrary.sol\":1109:1126  authorBooksTitles */\n      0x01\n        /* \"contracts/Lektion3/MappingLibrary.sol\":1127:1137  bookAuthor */\n      dup3\n        /* \"contracts/Lektion3/MappingLibrary.sol\":1109:1138  authorBooksTitles[bookAuthor] */\n      mload(0x40)\n      tag_58\n      swap2\n      swap1\n      tag_59\n      jump\t// in\n    tag_58:\n      swap1\n      dup2\n      mstore\n      0x20\n      add\n      mload(0x40)\n      dup1\n      swap2\n      sub\n      swap1\n      keccak256\n        /* \"contracts/Lektion3/MappingLibrary.sol\":1109:1145  authorBooksTitles[bookAuthor].length */\n      dup1\n      sload\n      swap1\n      pop\n        /* \"contracts/Lektion3/MappingLibrary.sol\":1102:1145  return authorBooksTitles[bookAuthor].length */\n      swap1\n      pop\n        /* \"contracts/Lektion3/MappingLibrary.sol\":1009:1153  function getBookCountByAuthor(string memory bookAuthor) public view returns(uint) {... */\n      swap2\n      swap1\n      pop\n      jump\t// out\n        /* \"contracts/Lektion3/MappingLibrary.sol\":2750:2895  function getTitlesByAuthor(string memory bookAuthor) public view returns(string[] memory) {... */\n    tag_26:\n        /* \"contracts/Lektion3/MappingLibrary.sol\":2823:2838  string[] memory */\n      0x60\n        /* \"contracts/Lektion3/MappingLibrary.sol\":2858:2875  authorBooksTitles */\n      0x01\n        /* \"contracts/Lektion3/MappingLibrary.sol\":2876:2886  bookAuthor */\n      dup3\n        /* \"contracts/Lektion3/MappingLibrary.sol\":2858:2887  authorBooksTitles[bookAuthor] */\n      mload(0x40)\n      tag_61\n      swap2\n      swap1\n      tag_59\n      jump\t// in\n    tag_61:\n      swap1\n      dup2\n      mstore\n      0x20\n      add\n      mload(0x40)\n      dup1\n      swap2\n      sub\n      swap1\n      keccak256\n        /* \"contracts/Lektion3/MappingLibrary.sol\":2851:2887  return authorBooksTitles[bookAuthor] */\n      dup1\n      sload\n      dup1\n      0x20\n      mul\n      0x20\n      add\n      mload(0x40)\n      swap1\n      dup2\n      add\n      0x40\n      mstore\n      dup1\n      swap3\n      swap2\n      swap1\n      dup2\n      dup2\n      mstore\n      0x20\n      add\n      0x00\n      swap1\n    tag_62:\n      dup3\n      dup3\n      lt\n      iszero\n      tag_63\n      jumpi\n      dup4\n      dup3\n      swap1\n      0x00\n      mstore\n      keccak256(0x00, 0x20)\n      add\n      dup1\n      sload\n      tag_65\n      swap1\n      tag_52\n      jump\t// in\n    tag_65:\n      dup1\n      0x1f\n      add\n      0x20\n      dup1\n      swap2\n      div\n      mul\n      0x20\n      add\n      mload(0x40)\n      swap1\n      dup2\n      add\n      0x40\n      mstore\n      dup1\n      swap3\n      swap2\n      swap1\n      dup2\n      dup2\n      mstore\n      0x20\n      add\n      dup3\n      dup1\n      sload\n      tag_66\n      swap1\n      tag_52\n      jump\t// in\n    tag_66:\n      dup1\n      iszero\n      tag_67\n      jumpi\n      dup1\n      0x1f\n      lt\n      tag_68\n      jumpi\n      0x0100\n      dup1\n      dup4\n      sload\n      div\n      mul\n      dup4\n      mstore\n      swap2\n      0x20\n      add\n      swap2\n      jump(tag_67)\n    tag_68:\n      dup3\n      add\n      swap2\n      swap1\n      0x00\n      mstore\n      keccak256(0x00, 0x20)\n      swap1\n    tag_69:\n      dup2\n      sload\n      dup2\n      mstore\n      swap1\n      0x01\n      add\n      swap1\n      0x20\n      add\n      dup1\n      dup4\n      gt\n      tag_69\n      jumpi\n      dup3\n      swap1\n      sub\n      0x1f\n      and\n      dup3\n      add\n      swap2\n    tag_67:\n      pop\n      pop\n      pop\n      pop\n      pop\n      dup2\n      mstore\n      0x20\n      add\n      swap1\n      0x01\n      add\n      swap1\n      jump(tag_62)\n    tag_63:\n      pop\n      pop\n      pop\n      pop\n      swap1\n      pop\n        /* \"contracts/Lektion3/MappingLibrary.sol\":2750:2895  function getTitlesByAuthor(string memory bookAuthor) public view returns(string[] memory) {... */\n      swap2\n      swap1\n      pop\n      jump\t// out\n        /* \"contracts/Lektion3/MappingLibrary.sol\":2903:3572  function getTitlesAndYears(string memory bookAuthor) public view returns(string[] memory bookTitles, uint[] memory publicationYears) {... */\n    tag_31:\n        /* \"contracts/Lektion3/MappingLibrary.sol\":2976:3002  string[] memory bookTitles */\n      0x60\n        /* \"contracts/Lektion3/MappingLibrary.sol\":3004:3034  uint[] memory publicationYears */\n      dup1\n        /* \"contracts/Lektion3/MappingLibrary.sol\":3114:3128  uint bookCount */\n      0x00\n        /* \"contracts/Lektion3/MappingLibrary.sol\":3131:3163  getBookCountByAuthor(bookAuthor) */\n      tag_71\n        /* \"contracts/Lektion3/MappingLibrary.sol\":3152:3162  bookAuthor */\n      dup5\n        /* \"contracts/Lektion3/MappingLibrary.sol\":3131:3151  getBookCountByAuthor */\n      tag_21\n        /* \"contracts/Lektion3/MappingLibrary.sol\":3131:3163  getBookCountByAuthor(bookAuthor) */\n      jump\t// in\n    tag_71:\n        /* \"contracts/Lektion3/MappingLibrary.sol\":3114:3163  uint bookCount = getBookCountByAuthor(bookAuthor) */\n      swap1\n      pop\n        /* \"contracts/Lektion3/MappingLibrary.sol\":3202:3211  bookCount */\n      dup1\n        /* \"contracts/Lektion3/MappingLibrary.sol\":3189:3212  new string[](bookCount) */\n      0xffffffffffffffff\n      dup2\n      gt\n      iszero\n      tag_72\n      jumpi\n      tag_73\n      tag_74\n      jump\t// in\n    tag_73:\n    tag_72:\n      mload(0x40)\n      swap1\n      dup1\n      dup3\n      mstore\n      dup1\n      0x20\n      mul\n      0x20\n      add\n      dup3\n      add\n      0x40\n      mstore\n      dup1\n      iszero\n      tag_75\n      jumpi\n      dup2\n      0x20\n      add\n    tag_76:\n      0x60\n      dup2\n      mstore\n      0x20\n      add\n      swap1\n      0x01\n      swap1\n      sub\n      swap1\n      dup2\n      tag_76\n      jumpi\n      swap1\n      pop\n    tag_75:\n      pop\n        /* \"contracts/Lektion3/MappingLibrary.sol\":3176:3212  bookTitles = new string[](bookCount) */\n      swap3\n      pop\n        /* \"contracts/Lektion3/MappingLibrary.sol\":3253:3262  bookCount */\n      dup1\n        /* \"contracts/Lektion3/MappingLibrary.sol\":3242:3263  new uint[](bookCount) */\n      0xffffffffffffffff\n      dup2\n      gt\n      iszero\n      tag_77\n      jumpi\n      tag_78\n      tag_74\n      jump\t// in\n    tag_78:\n    tag_77:\n      mload(0x40)\n      swap1\n      dup1\n      dup3\n      mstore\n      dup1\n      0x20\n      mul\n      0x20\n      add\n      dup3\n      add\n      0x40\n      mstore\n      dup1\n      iszero\n      tag_79\n      jumpi\n      dup2\n      0x20\n      add\n      0x20\n      dup3\n      mul\n      dup1\n      calldatasize\n      dup4\n      calldatacopy\n      dup1\n      dup3\n      add\n      swap2\n      pop\n      pop\n      swap1\n      pop\n    tag_79:\n      pop\n        /* \"contracts/Lektion3/MappingLibrary.sol\":3223:3263  publicationYears = new uint[](bookCount) */\n      swap2\n      pop\n        /* \"contracts/Lektion3/MappingLibrary.sol\":3281:3287  uint i */\n      0x00\n        /* \"contracts/Lektion3/MappingLibrary.sol\":3290:3291  0 */\n      0x00\n        /* \"contracts/Lektion3/MappingLibrary.sol\":3281:3291  uint i = 0 */\n      swap1\n      pop\n        /* \"contracts/Lektion3/MappingLibrary.sol\":3276:3516  for (uint i = 0; i < bookCount; i++) {... */\n    tag_80:\n        /* \"contracts/Lektion3/MappingLibrary.sol\":3297:3306  bookCount */\n      dup2\n        /* \"contracts/Lektion3/MappingLibrary.sol\":3293:3294  i */\n      dup2\n        /* \"contracts/Lektion3/MappingLibrary.sol\":3293:3306  i < bookCount */\n      lt\n        /* \"contracts/Lektion3/MappingLibrary.sol\":3276:3516  for (uint i = 0; i < bookCount; i++) {... */\n      iszero\n      tag_81\n      jumpi\n        /* \"contracts/Lektion3/MappingLibrary.sol\":3328:3347  string memory title */\n      0x00\n        /* \"contracts/Lektion3/MappingLibrary.sol\":3350:3367  authorBooksTitles */\n      0x01\n        /* \"contracts/Lektion3/MappingLibrary.sol\":3368:3378  bookAuthor */\n      dup7\n        /* \"contracts/Lektion3/MappingLibrary.sol\":3350:3379  authorBooksTitles[bookAuthor] */\n      mload(0x40)\n      tag_83\n      swap2\n      swap1\n      tag_59\n      jump\t// in\n    tag_83:\n      swap1\n      dup2\n      mstore\n      0x20\n      add\n      mload(0x40)\n      dup1\n      swap2\n      sub\n      swap1\n      keccak256\n        /* \"contracts/Lektion3/MappingLibrary.sol\":3380:3381  i */\n      dup3\n        /* \"contracts/Lektion3/MappingLibrary.sol\":3350:3382  authorBooksTitles[bookAuthor][i] */\n      dup2\n      sload\n      dup2\n      lt\n      tag_84\n      jumpi\n      tag_85\n      tag_86\n      jump\t// in\n    tag_85:\n    tag_84:\n      swap1\n      0x00\n      mstore\n      keccak256(0x00, 0x20)\n      add\n        /* \"contracts/Lektion3/MappingLibrary.sol\":3328:3382  string memory title = authorBooksTitles[bookAuthor][i] */\n      dup1\n      sload\n      tag_88\n      swap1\n      tag_52\n      jump\t// in\n    tag_88:\n      dup1\n      0x1f\n      add\n      0x20\n      dup1\n      swap2\n      div\n      mul\n      0x20\n      add\n      mload(0x40)\n      swap1\n      dup2\n      add\n      0x40\n      mstore\n      dup1\n      swap3\n      swap2\n      swap1\n      dup2\n      dup2\n      mstore\n      0x20\n      add\n      dup3\n      dup1\n      sload\n      tag_89\n      swap1\n      tag_52\n      jump\t// in\n    tag_89:\n      dup1\n      iszero\n      tag_90\n      jumpi\n      dup1\n      0x1f\n      lt\n      tag_91\n      jumpi\n      0x0100\n      dup1\n      dup4\n      sload\n      div\n      mul\n      dup4\n      mstore\n      swap2\n      0x20\n      add\n      swap2\n      jump(tag_90)\n    tag_91:\n      dup3\n      add\n      swap2\n      swap1\n      0x00\n      mstore\n      keccak256(0x00, 0x20)\n      swap1\n    tag_92:\n      dup2\n      sload\n      dup2\n      mstore\n      swap1\n      0x01\n      add\n      swap1\n      0x20\n      add\n      dup1\n      dup4\n      gt\n      tag_92\n      jumpi\n      dup3\n      swap1\n      sub\n      0x1f\n      and\n      dup3\n      add\n      swap2\n    tag_90:\n      pop\n      pop\n      pop\n      pop\n      pop\n      swap1\n      pop\n        /* \"contracts/Lektion3/MappingLibrary.sol\":3427:3432  title */\n      dup1\n        /* \"contracts/Lektion3/MappingLibrary.sol\":3411:3421  bookTitles */\n      dup6\n        /* \"contracts/Lektion3/MappingLibrary.sol\":3422:3423  i */\n      dup4\n        /* \"contracts/Lektion3/MappingLibrary.sol\":3411:3424  bookTitles[i] */\n      dup2\n      mload\n      dup2\n      lt\n      tag_93\n      jumpi\n      tag_94\n      tag_86\n      jump\t// in\n    tag_94:\n    tag_93:\n      0x20\n      mul\n      0x20\n      add\n      add\n        /* \"contracts/Lektion3/MappingLibrary.sol\":3411:3432  bookTitles[i] = title */\n      dup2\n      swap1\n      mstore\n      pop\n        /* \"contracts/Lektion3/MappingLibrary.sol\":3469:3480  authorBooks */\n      0x00\n        /* \"contracts/Lektion3/MappingLibrary.sol\":3481:3491  bookAuthor */\n      dup7\n        /* \"contracts/Lektion3/MappingLibrary.sol\":3469:3492  authorBooks[bookAuthor] */\n      mload(0x40)\n      tag_95\n      swap2\n      swap1\n      tag_59\n      jump\t// in\n    tag_95:\n      swap1\n      dup2\n      mstore\n      0x20\n      add\n      mload(0x40)\n      dup1\n      swap2\n      sub\n      swap1\n      keccak256\n        /* \"contracts/Lektion3/MappingLibrary.sol\":3493:3498  title */\n      dup2\n        /* \"contracts/Lektion3/MappingLibrary.sol\":3469:3499  authorBooks[bookAuthor][title] */\n      mload(0x40)\n      tag_96\n      swap2\n      swap1\n      tag_59\n      jump\t// in\n    tag_96:\n      swap1\n      dup2\n      mstore\n      0x20\n      add\n      mload(0x40)\n      dup1\n      swap2\n      sub\n      swap1\n      keccak256\n        /* \"contracts/Lektion3/MappingLibrary.sol\":3469:3504  authorBooks[bookAuthor][title].year */\n      0x01\n      add\n      0x00\n      swap1\n      sload\n      swap1\n      0x0100\n      exp\n      swap1\n      div\n      0xffff\n      and\n        /* \"contracts/Lektion3/MappingLibrary.sol\":3447:3504  publicationYears[i] = authorBooks[bookAuthor][title].year */\n      0xffff\n      and\n        /* \"contracts/Lektion3/MappingLibrary.sol\":3447:3463  publicationYears */\n      dup5\n        /* \"contracts/Lektion3/MappingLibrary.sol\":3464:3465  i */\n      dup4\n        /* \"contracts/Lektion3/MappingLibrary.sol\":3447:3466  publicationYears[i] */\n      dup2\n      mload\n      dup2\n      lt\n      tag_97\n      jumpi\n      tag_98\n      tag_86\n      jump\t// in\n    tag_98:\n    tag_97:\n      0x20\n      mul\n      0x20\n      add\n      add\n        /* \"contracts/Lektion3/MappingLibrary.sol\":3447:3504  publicationYears[i] = authorBooks[bookAuthor][title].year */\n      dup2\n      dup2\n      mstore\n      pop\n      pop\n        /* \"contracts/Lektion3/MappingLibrary.sol\":3313:3516  {... */\n      pop\n        /* \"contracts/Lektion3/MappingLibrary.sol\":3308:3311  i++ */\n      dup1\n      dup1\n      0x01\n      add\n      swap2\n      pop\n      pop\n        /* \"contracts/Lektion3/MappingLibrary.sol\":3276:3516  for (uint i = 0; i < bookCount; i++) {... */\n      jump(tag_80)\n    tag_81:\n      pop\n        /* \"contracts/Lektion3/MappingLibrary.sol\":3528:3564  return(bookTitles, publicationYears) */\n      pop\n        /* \"contracts/Lektion3/MappingLibrary.sol\":2903:3572  function getTitlesAndYears(string memory bookAuthor) public view returns(string[] memory bookTitles, uint[] memory publicationYears) {... */\n      swap2\n      pop\n      swap2\n      jump\t// out\n        /* \"contracts/Lektion3/MappingLibrary.sol\":484:536  mapping(string => string[]) public authorBooksTitles */\n    tag_37:\n      0x01\n      dup3\n      dup1\n      mload\n      0x20\n      dup2\n      add\n      dup3\n      add\n      dup1\n      mload\n      dup5\n      dup3\n      mstore\n      0x20\n      dup4\n      add\n      0x20\n      dup6\n      add\n      keccak256\n      dup2\n      dup4\n      mstore\n      dup1\n      swap6\n      pop\n      pop\n      pop\n      pop\n      pop\n      pop\n      dup2\n      dup2\n      sload\n      dup2\n      lt\n      tag_99\n      jumpi\n      0x00\n      dup1\n      revert\n    tag_99:\n      swap1\n      0x00\n      mstore\n      keccak256(0x00, 0x20)\n      add\n      0x00\n      swap2\n      pop\n      swap2\n      pop\n      pop\n      dup1\n      sload\n      tag_101\n      swap1\n      tag_52\n      jump\t// in\n    tag_101:\n      dup1\n      0x1f\n      add\n      0x20\n      dup1\n      swap2\n      div\n      mul\n      0x20\n      add\n      mload(0x40)\n      swap1\n      dup2\n      add\n      0x40\n      mstore\n      dup1\n      swap3\n      swap2\n      swap1\n      dup2\n      dup2\n      mstore\n      0x20\n      add\n      dup3\n      dup1\n      sload\n      tag_102\n      swap1\n      tag_52\n      jump\t// in\n    tag_102:\n      dup1\n      iszero\n      tag_103\n      jumpi\n      dup1\n      0x1f\n      lt\n      tag_104\n      jumpi\n      0x0100\n      dup1\n      dup4\n      sload\n      div\n      mul\n      dup4\n      mstore\n      swap2\n      0x20\n      add\n      swap2\n      jump(tag_103)\n    tag_104:\n      dup3\n      add\n      swap2\n      swap1\n      0x00\n      mstore\n      keccak256(0x00, 0x20)\n      swap1\n    tag_105:\n      dup2\n      sload\n      dup2\n      mstore\n      swap1\n      0x01\n      add\n      swap1\n      0x20\n      add\n      dup1\n      dup4\n      gt\n      tag_105\n      jumpi\n      dup3\n      swap1\n      sub\n      0x1f\n      and\n      dup3\n      add\n      swap2\n    tag_103:\n      pop\n      pop\n      pop\n      pop\n      pop\n      dup2\n      jump\t// out\n        /* \"contracts/Lektion3/MappingLibrary.sol\":1161:2099  function updateBook(string memory bookAuthor, string memory oldTitle, string memory newTitle, uint16 publicationYear) public {... */\n    tag_43:\n        /* \"contracts/Lektion3/MappingLibrary.sol\":1305:1316  authorBooks */\n      0x00\n        /* \"contracts/Lektion3/MappingLibrary.sol\":1317:1327  bookAuthor */\n      dup5\n        /* \"contracts/Lektion3/MappingLibrary.sol\":1305:1328  authorBooks[bookAuthor] */\n      mload(0x40)\n      tag_107\n      swap2\n      swap1\n      tag_59\n      jump\t// in\n    tag_107:\n      swap1\n      dup2\n      mstore\n      0x20\n      add\n      mload(0x40)\n      dup1\n      swap2\n      sub\n      swap1\n      keccak256\n        /* \"contracts/Lektion3/MappingLibrary.sol\":1329:1337  oldTitle */\n      dup4\n        /* \"contracts/Lektion3/MappingLibrary.sol\":1305:1338  authorBooks[bookAuthor][oldTitle] */\n      mload(0x40)\n      tag_108\n      swap2\n      swap1\n      tag_59\n      jump\t// in\n    tag_108:\n      swap1\n      dup2\n      mstore\n      0x20\n      add\n      mload(0x40)\n      dup1\n      swap2\n      sub\n      swap1\n      keccak256\n        /* \"contracts/Lektion3/MappingLibrary.sol\":1305:1344  authorBooks[bookAuthor][oldTitle].exist */\n      0x01\n      add\n      0x02\n      swap1\n      sload\n      swap1\n      0x0100\n      exp\n      swap1\n      div\n      0xff\n      and\n        /* \"contracts/Lektion3/MappingLibrary.sol\":1297:1368  require(authorBooks[bookAuthor][oldTitle].exist, \"Book does not exist\") */\n      tag_109\n      jumpi\n      mload(0x40)\n      0x08c379a000000000000000000000000000000000000000000000000000000000\n      dup2\n      mstore\n      0x04\n      add\n      tag_110\n      swap1\n      tag_111\n      jump\t// in\n    tag_110:\n      mload(0x40)\n      dup1\n      swap2\n      sub\n      swap1\n      revert\n    tag_109:\n        /* \"contracts/Lektion3/MappingLibrary.sol\":1521:1529  newTitle */\n      dup2\n        /* \"contracts/Lektion3/MappingLibrary.sol\":1505:1531  keccak256(bytes(newTitle)) */\n      dup1\n      mload\n      swap1\n      0x20\n      add\n      keccak256\n        /* \"contracts/Lektion3/MappingLibrary.sol\":1491:1499  oldTitle */\n      dup4\n        /* \"contracts/Lektion3/MappingLibrary.sol\":1475:1501  keccak256(bytes(oldTitle)) */\n      dup1\n      mload\n      swap1\n      0x20\n      add\n      keccak256\n        /* \"contracts/Lektion3/MappingLibrary.sol\":1475:1531  keccak256(bytes(oldTitle)) != keccak256(bytes(newTitle)) */\n      eq\n        /* \"contracts/Lektion3/MappingLibrary.sol\":1471:2092  if (keccak256(bytes(oldTitle)) != keccak256(bytes(newTitle))) {... */\n      tag_112\n      jumpi\n        /* \"contracts/Lektion3/MappingLibrary.sol\":1584:1621  Book(newTitle, publicationYear, true) */\n      mload(0x40)\n      dup1\n      0x60\n      add\n      0x40\n      mstore\n      dup1\n        /* \"contracts/Lektion3/MappingLibrary.sol\":1589:1597  newTitle */\n      dup4\n        /* \"contracts/Lektion3/MappingLibrary.sol\":1584:1621  Book(newTitle, publicationYear, true) */\n      dup2\n      mstore\n      0x20\n      add\n        /* \"contracts/Lektion3/MappingLibrary.sol\":1599:1614  publicationYear */\n      dup3\n        /* \"contracts/Lektion3/MappingLibrary.sol\":1584:1621  Book(newTitle, publicationYear, true) */\n      0xffff\n      and\n      dup2\n      mstore\n      0x20\n      add\n        /* \"contracts/Lektion3/MappingLibrary.sol\":1616:1620  true */\n      0x01\n        /* \"contracts/Lektion3/MappingLibrary.sol\":1584:1621  Book(newTitle, publicationYear, true) */\n      iszero\n      iszero\n      dup2\n      mstore\n      pop\n        /* \"contracts/Lektion3/MappingLibrary.sol\":1548:1559  authorBooks */\n      0x00\n        /* \"contracts/Lektion3/MappingLibrary.sol\":1560:1570  bookAuthor */\n      dup6\n        /* \"contracts/Lektion3/MappingLibrary.sol\":1548:1571  authorBooks[bookAuthor] */\n      mload(0x40)\n      tag_113\n      swap2\n      swap1\n      tag_59\n      jump\t// in\n    tag_113:\n      swap1\n      dup2\n      mstore\n      0x20\n      add\n      mload(0x40)\n      dup1\n      swap2\n      sub\n      swap1\n      keccak256\n        /* \"contracts/Lektion3/MappingLibrary.sol\":1572:1580  newTitle */\n      dup4\n        /* \"contracts/Lektion3/MappingLibrary.sol\":1548:1581  authorBooks[bookAuthor][newTitle] */\n      mload(0x40)\n      tag_114\n      swap2\n      swap1\n      tag_59\n      jump\t// in\n    tag_114:\n      swap1\n      dup2\n      mstore\n      0x20\n      add\n      mload(0x40)\n      dup1\n      swap2\n      sub\n      swap1\n      keccak256\n        /* \"contracts/Lektion3/MappingLibrary.sol\":1548:1621  authorBooks[bookAuthor][newTitle] = Book(newTitle, publicationYear, true) */\n      0x00\n      dup3\n      add\n      mload\n      dup2\n      0x00\n      add\n      swap1\n      dup2\n      tag_115\n      swap2\n      swap1\n      tag_116\n      jump\t// in\n    tag_115:\n      pop\n      0x20\n      dup3\n      add\n      mload\n      dup2\n      0x01\n      add\n      exp(0x0100, 0x00)\n      dup2\n      sload\n      dup2\n      0xffff\n      mul\n      not\n      and\n      swap1\n      dup4\n      0xffff\n      and\n      mul\n      or\n      swap1\n      sstore\n      pop\n      0x40\n      dup3\n      add\n      mload\n      dup2\n      0x01\n      add\n      exp(0x0100, 0x02)\n      dup2\n      sload\n      dup2\n      0xff\n      mul\n      not\n      and\n      swap1\n      dup4\n      iszero\n      iszero\n      mul\n      or\n      swap1\n      sstore\n      pop\n      swap1\n      pop\n      pop\n        /* \"contracts/Lektion3/MappingLibrary.sol\":1643:1654  authorBooks */\n      0x00\n        /* \"contracts/Lektion3/MappingLibrary.sol\":1655:1665  bookAuthor */\n      dup5\n        /* \"contracts/Lektion3/MappingLibrary.sol\":1643:1666  authorBooks[bookAuthor] */\n      mload(0x40)\n      tag_117\n      swap2\n      swap1\n      tag_59\n      jump\t// in\n    tag_117:\n      swap1\n      dup2\n      mstore\n      0x20\n      add\n      mload(0x40)\n      dup1\n      swap2\n      sub\n      swap1\n      keccak256\n        /* \"contracts/Lektion3/MappingLibrary.sol\":1667:1675  oldTitle */\n      dup4\n        /* \"contracts/Lektion3/MappingLibrary.sol\":1643:1676  authorBooks[bookAuthor][oldTitle] */\n      mload(0x40)\n      tag_118\n      swap2\n      swap1\n      tag_59\n      jump\t// in\n    tag_118:\n      swap1\n      dup2\n      mstore\n      0x20\n      add\n      mload(0x40)\n      dup1\n      swap2\n      sub\n      swap1\n      keccak256\n      0x00\n        /* \"contracts/Lektion3/MappingLibrary.sol\":1636:1676  delete authorBooks[bookAuthor][oldTitle] */\n      0x00\n      dup3\n      add\n      0x00\n      tag_119\n      swap2\n      swap1\n      tag_120\n      jump\t// in\n    tag_119:\n      0x01\n      dup3\n      add\n      exp(0x0100, 0x00)\n      dup2\n      sload\n      swap1\n      0xffff\n      mul\n      not\n      and\n      swap1\n      sstore\n      0x01\n      dup3\n      add\n      exp(0x0100, 0x02)\n      dup2\n      sload\n      swap1\n      0xff\n      mul\n      not\n      and\n      swap1\n      sstore\n      pop\n      pop\n        /* \"contracts/Lektion3/MappingLibrary.sol\":1698:1704  uint i */\n      0x00\n        /* \"contracts/Lektion3/MappingLibrary.sol\":1707:1708  0 */\n      0x00\n        /* \"contracts/Lektion3/MappingLibrary.sol\":1698:1708  uint i = 0 */\n      swap1\n      pop\n        /* \"contracts/Lektion3/MappingLibrary.sol\":1693:1992  for (uint i = 0; i < authorBooksTitles[bookAuthor].length; i++) {... */\n    tag_121:\n        /* \"contracts/Lektion3/MappingLibrary.sol\":1714:1731  authorBooksTitles */\n      0x01\n        /* \"contracts/Lektion3/MappingLibrary.sol\":1732:1742  bookAuthor */\n      dup6\n        /* \"contracts/Lektion3/MappingLibrary.sol\":1714:1743  authorBooksTitles[bookAuthor] */\n      mload(0x40)\n      tag_124\n      swap2\n      swap1\n      tag_59\n      jump\t// in\n    tag_124:\n      swap1\n      dup2\n      mstore\n      0x20\n      add\n      mload(0x40)\n      dup1\n      swap2\n      sub\n      swap1\n      keccak256\n        /* \"contracts/Lektion3/MappingLibrary.sol\":1714:1750  authorBooksTitles[bookAuthor].length */\n      dup1\n      sload\n      swap1\n      pop\n        /* \"contracts/Lektion3/MappingLibrary.sol\":1710:1711  i */\n      dup2\n        /* \"contracts/Lektion3/MappingLibrary.sol\":1710:1750  i < authorBooksTitles[bookAuthor].length */\n      lt\n        /* \"contracts/Lektion3/MappingLibrary.sol\":1693:1992  for (uint i = 0; i < authorBooksTitles[bookAuthor].length; i++) {... */\n      iszero\n      tag_122\n      jumpi\n        /* \"contracts/Lektion3/MappingLibrary.sol\":1849:1857  oldTitle */\n      dup4\n        /* \"contracts/Lektion3/MappingLibrary.sol\":1833:1859  keccak256(bytes(oldTitle)) */\n      dup1\n      mload\n      swap1\n      0x20\n      add\n      keccak256\n        /* \"contracts/Lektion3/MappingLibrary.sol\":1795:1812  authorBooksTitles */\n      0x01\n        /* \"contracts/Lektion3/MappingLibrary.sol\":1813:1823  bookAuthor */\n      dup7\n        /* \"contracts/Lektion3/MappingLibrary.sol\":1795:1824  authorBooksTitles[bookAuthor] */\n      mload(0x40)\n      tag_125\n      swap2\n      swap1\n      tag_59\n      jump\t// in\n    tag_125:\n      swap1\n      dup2\n      mstore\n      0x20\n      add\n      mload(0x40)\n      dup1\n      swap2\n      sub\n      swap1\n      keccak256\n        /* \"contracts/Lektion3/MappingLibrary.sol\":1825:1826  i */\n      dup3\n        /* \"contracts/Lektion3/MappingLibrary.sol\":1795:1827  authorBooksTitles[bookAuthor][i] */\n      dup2\n      sload\n      dup2\n      lt\n      tag_126\n      jumpi\n      tag_127\n      tag_86\n      jump\t// in\n    tag_127:\n    tag_126:\n      swap1\n      0x00\n      mstore\n      keccak256(0x00, 0x20)\n      add\n        /* \"contracts/Lektion3/MappingLibrary.sol\":1779:1829  keccak256(bytes(authorBooksTitles[bookAuthor][i])) */\n      mload(0x40)\n      tag_129\n      swap2\n      swap1\n      tag_130\n      jump\t// in\n    tag_129:\n      mload(0x40)\n      dup1\n      swap2\n      sub\n      swap1\n      keccak256\n        /* \"contracts/Lektion3/MappingLibrary.sol\":1779:1859  keccak256(bytes(authorBooksTitles[bookAuthor][i])) == keccak256(bytes(oldTitle)) */\n      sub\n        /* \"contracts/Lektion3/MappingLibrary.sol\":1776:1977  if(keccak256(bytes(authorBooksTitles[bookAuthor][i])) == keccak256(bytes(oldTitle))) {... */\n      tag_131\n      jumpi\n        /* \"contracts/Lektion3/MappingLibrary.sol\":1919:1927  newTitle */\n      dup3\n        /* \"contracts/Lektion3/MappingLibrary.sol\":1884:1901  authorBooksTitles */\n      0x01\n        /* \"contracts/Lektion3/MappingLibrary.sol\":1902:1912  bookAuthor */\n      dup7\n        /* \"contracts/Lektion3/MappingLibrary.sol\":1884:1913  authorBooksTitles[bookAuthor] */\n      mload(0x40)\n      tag_132\n      swap2\n      swap1\n      tag_59\n      jump\t// in\n    tag_132:\n      swap1\n      dup2\n      mstore\n      0x20\n      add\n      mload(0x40)\n      dup1\n      swap2\n      sub\n      swap1\n      keccak256\n        /* \"contracts/Lektion3/MappingLibrary.sol\":1914:1915  i */\n      dup3\n        /* \"contracts/Lektion3/MappingLibrary.sol\":1884:1916  authorBooksTitles[bookAuthor][i] */\n      dup2\n      sload\n      dup2\n      lt\n      tag_133\n      jumpi\n      tag_134\n      tag_86\n      jump\t// in\n    tag_134:\n    tag_133:\n      swap1\n      0x00\n      mstore\n      keccak256(0x00, 0x20)\n      add\n        /* \"contracts/Lektion3/MappingLibrary.sol\":1884:1927  authorBooksTitles[bookAuthor][i] = newTitle */\n      swap1\n      dup2\n      tag_136\n      swap2\n      swap1\n      tag_116\n      jump\t// in\n    tag_136:\n      pop\n        /* \"contracts/Lektion3/MappingLibrary.sol\":1952:1957  break */\n      jump(tag_122)\n        /* \"contracts/Lektion3/MappingLibrary.sol\":1776:1977  if(keccak256(bytes(authorBooksTitles[bookAuthor][i])) == keccak256(bytes(oldTitle))) {... */\n    tag_131:\n        /* \"contracts/Lektion3/MappingLibrary.sol\":1752:1755  i++ */\n      dup1\n      dup1\n      0x01\n      add\n      swap2\n      pop\n      pop\n        /* \"contracts/Lektion3/MappingLibrary.sol\":1693:1992  for (uint i = 0; i < authorBooksTitles[bookAuthor].length; i++) {... */\n      jump(tag_121)\n    tag_122:\n      pop\n        /* \"contracts/Lektion3/MappingLibrary.sol\":1471:2092  if (keccak256(bytes(oldTitle)) != keccak256(bytes(newTitle))) {... */\n      jump(tag_137)\n    tag_112:\n        /* \"contracts/Lektion3/MappingLibrary.sol\":2065:2080  publicationYear */\n      dup1\n        /* \"contracts/Lektion3/MappingLibrary.sol\":2024:2035  authorBooks */\n      0x00\n        /* \"contracts/Lektion3/MappingLibrary.sol\":2036:2046  bookAuthor */\n      dup6\n        /* \"contracts/Lektion3/MappingLibrary.sol\":2024:2047  authorBooks[bookAuthor] */\n      mload(0x40)\n      tag_138\n      swap2\n      swap1\n      tag_59\n      jump\t// in\n    tag_138:\n      swap1\n      dup2\n      mstore\n      0x20\n      add\n      mload(0x40)\n      dup1\n      swap2\n      sub\n      swap1\n      keccak256\n        /* \"contracts/Lektion3/MappingLibrary.sol\":2048:2056  oldTitle */\n      dup5\n        /* \"contracts/Lektion3/MappingLibrary.sol\":2024:2057  authorBooks[bookAuthor][oldTitle] */\n      mload(0x40)\n      tag_139\n      swap2\n      swap1\n      tag_59\n      jump\t// in\n    tag_139:\n      swap1\n      dup2\n      mstore\n      0x20\n      add\n      mload(0x40)\n      dup1\n      swap2\n      sub\n      swap1\n      keccak256\n        /* \"contracts/Lektion3/MappingLibrary.sol\":2024:2062  authorBooks[bookAuthor][oldTitle].year */\n      0x01\n      add\n      0x00\n        /* \"contracts/Lektion3/MappingLibrary.sol\":2024:2080  authorBooks[bookAuthor][oldTitle].year = publicationYear */\n      0x0100\n      exp\n      dup2\n      sload\n      dup2\n      0xffff\n      mul\n      not\n      and\n      swap1\n      dup4\n      0xffff\n      and\n      mul\n      or\n      swap1\n      sstore\n      pop\n        /* \"contracts/Lektion3/MappingLibrary.sol\":1471:2092  if (keccak256(bytes(oldTitle)) != keccak256(bytes(newTitle))) {... */\n    tag_137:\n        /* \"contracts/Lektion3/MappingLibrary.sol\":1161:2099  function updateBook(string memory bookAuthor, string memory oldTitle, string memory newTitle, uint16 publicationYear) public {... */\n      pop\n      pop\n      pop\n      pop\n      jump\t// out\n        /* \"contracts/Lektion3/MappingLibrary.sol\":2107:2742  function deleteBook(string memory bookAuthor, string memory bookTitle) public {... */\n    tag_46:\n        /* \"contracts/Lektion3/MappingLibrary.sol\":2204:2215  authorBooks */\n      0x00\n        /* \"contracts/Lektion3/MappingLibrary.sol\":2216:2226  bookAuthor */\n      dup3\n        /* \"contracts/Lektion3/MappingLibrary.sol\":2204:2227  authorBooks[bookAuthor] */\n      mload(0x40)\n      tag_141\n      swap2\n      swap1\n      tag_59\n      jump\t// in\n    tag_141:\n      swap1\n      dup2\n      mstore\n      0x20\n      add\n      mload(0x40)\n      dup1\n      swap2\n      sub\n      swap1\n      keccak256\n        /* \"contracts/Lektion3/MappingLibrary.sol\":2228:2237  bookTitle */\n      dup2\n        /* \"contracts/Lektion3/MappingLibrary.sol\":2204:2238  authorBooks[bookAuthor][bookTitle] */\n      mload(0x40)\n      tag_142\n      swap2\n      swap1\n      tag_59\n      jump\t// in\n    tag_142:\n      swap1\n      dup2\n      mstore\n      0x20\n      add\n      mload(0x40)\n      dup1\n      swap2\n      sub\n      swap1\n      keccak256\n        /* \"contracts/Lektion3/MappingLibrary.sol\":2204:2244  authorBooks[bookAuthor][bookTitle].exist */\n      0x01\n      add\n      0x02\n      swap1\n      sload\n      swap1\n      0x0100\n      exp\n      swap1\n      div\n      0xff\n      and\n        /* \"contracts/Lektion3/MappingLibrary.sol\":2196:2268  require(authorBooks[bookAuthor][bookTitle].exist, \"Book already exists\") */\n      tag_143\n      jumpi\n      mload(0x40)\n      0x08c379a000000000000000000000000000000000000000000000000000000000\n      dup2\n      mstore\n      0x04\n      add\n      tag_144\n      swap1\n      tag_145\n      jump\t// in\n    tag_144:\n      mload(0x40)\n      dup1\n      swap2\n      sub\n      swap1\n      revert\n    tag_143:\n        /* \"contracts/Lektion3/MappingLibrary.sol\":2288:2299  authorBooks */\n      0x00\n        /* \"contracts/Lektion3/MappingLibrary.sol\":2300:2310  bookAuthor */\n      dup3\n        /* \"contracts/Lektion3/MappingLibrary.sol\":2288:2311  authorBooks[bookAuthor] */\n      mload(0x40)\n      tag_146\n      swap2\n      swap1\n      tag_59\n      jump\t// in\n    tag_146:\n      swap1\n      dup2\n      mstore\n      0x20\n      add\n      mload(0x40)\n      dup1\n      swap2\n      sub\n      swap1\n      keccak256\n        /* \"contracts/Lektion3/MappingLibrary.sol\":2312:2321  bookTitle */\n      dup2\n        /* \"contracts/Lektion3/MappingLibrary.sol\":2288:2322  authorBooks[bookAuthor][bookTitle] */\n      mload(0x40)\n      tag_147\n      swap2\n      swap1\n      tag_59\n      jump\t// in\n    tag_147:\n      swap1\n      dup2\n      mstore\n      0x20\n      add\n      mload(0x40)\n      dup1\n      swap2\n      sub\n      swap1\n      keccak256\n      0x00\n        /* \"contracts/Lektion3/MappingLibrary.sol\":2281:2322  delete authorBooks[bookAuthor][bookTitle] */\n      0x00\n      dup3\n      add\n      0x00\n      tag_148\n      swap2\n      swap1\n      tag_120\n      jump\t// in\n    tag_148:\n      0x01\n      dup3\n      add\n      exp(0x0100, 0x00)\n      dup2\n      sload\n      swap1\n      0xffff\n      mul\n      not\n      and\n      swap1\n      sstore\n      0x01\n      dup3\n      add\n      exp(0x0100, 0x02)\n      dup2\n      sload\n      swap1\n      0xff\n      mul\n      not\n      and\n      swap1\n      sstore\n      pop\n      pop\n        /* \"contracts/Lektion3/MappingLibrary.sol\":2341:2347  uint i */\n      0x00\n        /* \"contracts/Lektion3/MappingLibrary.sol\":2350:2351  0 */\n      0x00\n        /* \"contracts/Lektion3/MappingLibrary.sol\":2341:2351  uint i = 0 */\n      swap1\n      pop\n        /* \"contracts/Lektion3/MappingLibrary.sol\":2336:2735  for (uint i = 0; i < authorBooksTitles[bookAuthor].length; i++) {... */\n    tag_149:\n        /* \"contracts/Lektion3/MappingLibrary.sol\":2357:2374  authorBooksTitles */\n      0x01\n        /* \"contracts/Lektion3/MappingLibrary.sol\":2375:2385  bookAuthor */\n      dup4\n        /* \"contracts/Lektion3/MappingLibrary.sol\":2357:2386  authorBooksTitles[bookAuthor] */\n      mload(0x40)\n      tag_152\n      swap2\n      swap1\n      tag_59\n      jump\t// in\n    tag_152:\n      swap1\n      dup2\n      mstore\n      0x20\n      add\n      mload(0x40)\n      dup1\n      swap2\n      sub\n      swap1\n      keccak256\n        /* \"contracts/Lektion3/MappingLibrary.sol\":2357:2393  authorBooksTitles[bookAuthor].length */\n      dup1\n      sload\n      swap1\n      pop\n        /* \"contracts/Lektion3/MappingLibrary.sol\":2353:2354  i */\n      dup2\n        /* \"contracts/Lektion3/MappingLibrary.sol\":2353:2393  i < authorBooksTitles[bookAuthor].length */\n      lt\n        /* \"contracts/Lektion3/MappingLibrary.sol\":2336:2735  for (uint i = 0; i < authorBooksTitles[bookAuthor].length; i++) {... */\n      iszero\n      tag_150\n      jumpi\n        /* \"contracts/Lektion3/MappingLibrary.sol\":2489:2498  bookTitle */\n      dup2\n        /* \"contracts/Lektion3/MappingLibrary.sol\":2473:2500  keccak256(bytes(bookTitle)) */\n      dup1\n      mload\n      swap1\n      0x20\n      add\n      keccak256\n        /* \"contracts/Lektion3/MappingLibrary.sol\":2435:2452  authorBooksTitles */\n      0x01\n        /* \"contracts/Lektion3/MappingLibrary.sol\":2453:2463  bookAuthor */\n      dup5\n        /* \"contracts/Lektion3/MappingLibrary.sol\":2435:2464  authorBooksTitles[bookAuthor] */\n      mload(0x40)\n      tag_153\n      swap2\n      swap1\n      tag_59\n      jump\t// in\n    tag_153:\n      swap1\n      dup2\n      mstore\n      0x20\n      add\n      mload(0x40)\n      dup1\n      swap2\n      sub\n      swap1\n      keccak256\n        /* \"contracts/Lektion3/MappingLibrary.sol\":2465:2466  i */\n      dup3\n        /* \"contracts/Lektion3/MappingLibrary.sol\":2435:2467  authorBooksTitles[bookAuthor][i] */\n      dup2\n      sload\n      dup2\n      lt\n      tag_154\n      jumpi\n      tag_155\n      tag_86\n      jump\t// in\n    tag_155:\n    tag_154:\n      swap1\n      0x00\n      mstore\n      keccak256(0x00, 0x20)\n      add\n        /* \"contracts/Lektion3/MappingLibrary.sol\":2419:2469  keccak256(bytes(authorBooksTitles[bookAuthor][i])) */\n      mload(0x40)\n      tag_157\n      swap2\n      swap1\n      tag_130\n      jump\t// in\n    tag_157:\n      mload(0x40)\n      dup1\n      swap2\n      sub\n      swap1\n      keccak256\n        /* \"contracts/Lektion3/MappingLibrary.sol\":2419:2500  keccak256(bytes(authorBooksTitles[bookAuthor][i])) == keccak256(bytes(bookTitle)) */\n      sub\n        /* \"contracts/Lektion3/MappingLibrary.sol\":2415:2723  if (keccak256(bytes(authorBooksTitles[bookAuthor][i])) == keccak256(bytes(bookTitle))) {... */\n      tag_158\n      jumpi\n        /* \"contracts/Lektion3/MappingLibrary.sol\":2556:2573  authorBooksTitles */\n      0x01\n        /* \"contracts/Lektion3/MappingLibrary.sol\":2574:2584  bookAuthor */\n      dup4\n        /* \"contracts/Lektion3/MappingLibrary.sol\":2556:2585  authorBooksTitles[bookAuthor] */\n      mload(0x40)\n      tag_159\n      swap2\n      swap1\n      tag_59\n      jump\t// in\n    tag_159:\n      swap1\n      dup2\n      mstore\n      0x20\n      add\n      mload(0x40)\n      dup1\n      swap2\n      sub\n      swap1\n      keccak256\n        /* \"contracts/Lektion3/MappingLibrary.sol\":2625:2626  1 */\n      0x01\n        /* \"contracts/Lektion3/MappingLibrary.sol\":2586:2603  authorBooksTitles */\n      dup1\n        /* \"contracts/Lektion3/MappingLibrary.sol\":2604:2614  bookAuthor */\n      dup6\n        /* \"contracts/Lektion3/MappingLibrary.sol\":2586:2615  authorBooksTitles[bookAuthor] */\n      mload(0x40)\n      tag_160\n      swap2\n      swap1\n      tag_59\n      jump\t// in\n    tag_160:\n      swap1\n      dup2\n      mstore\n      0x20\n      add\n      mload(0x40)\n      dup1\n      swap2\n      sub\n      swap1\n      keccak256\n        /* \"contracts/Lektion3/MappingLibrary.sol\":2586:2622  authorBooksTitles[bookAuthor].length */\n      dup1\n      sload\n      swap1\n      pop\n        /* \"contracts/Lektion3/MappingLibrary.sol\":2586:2626  authorBooksTitles[bookAuthor].length - 1 */\n      tag_161\n      swap2\n      swap1\n      tag_162\n      jump\t// in\n    tag_161:\n        /* \"contracts/Lektion3/MappingLibrary.sol\":2556:2627  authorBooksTitles[bookAuthor][authorBooksTitles[bookAuthor].length - 1] */\n      dup2\n      sload\n      dup2\n      lt\n      tag_163\n      jumpi\n      tag_164\n      tag_86\n      jump\t// in\n    tag_164:\n    tag_163:\n      swap1\n      0x00\n      mstore\n      keccak256(0x00, 0x20)\n      add\n        /* \"contracts/Lektion3/MappingLibrary.sol\":2521:2538  authorBooksTitles */\n      0x01\n        /* \"contracts/Lektion3/MappingLibrary.sol\":2539:2549  bookAuthor */\n      dup5\n        /* \"contracts/Lektion3/MappingLibrary.sol\":2521:2550  authorBooksTitles[bookAuthor] */\n      mload(0x40)\n      tag_166\n      swap2\n      swap1\n      tag_59\n      jump\t// in\n    tag_166:\n      swap1\n      dup2\n      mstore\n      0x20\n      add\n      mload(0x40)\n      dup1\n      swap2\n      sub\n      swap1\n      keccak256\n        /* \"contracts/Lektion3/MappingLibrary.sol\":2551:2552  i */\n      dup3\n        /* \"contracts/Lektion3/MappingLibrary.sol\":2521:2553  authorBooksTitles[bookAuthor][i] */\n      dup2\n      sload\n      dup2\n      lt\n      tag_167\n      jumpi\n      tag_168\n      tag_86\n      jump\t// in\n    tag_168:\n    tag_167:\n      swap1\n      0x00\n      mstore\n      keccak256(0x00, 0x20)\n      add\n        /* \"contracts/Lektion3/MappingLibrary.sol\":2521:2627  authorBooksTitles[bookAuthor][i] = authorBooksTitles[bookAuthor][authorBooksTitles[bookAuthor].length - 1] */\n      swap1\n      dup2\n      tag_170\n      swap2\n      swap1\n      tag_171\n      jump\t// in\n    tag_170:\n      pop\n        /* \"contracts/Lektion3/MappingLibrary.sol\":2646:2663  authorBooksTitles */\n      0x01\n        /* \"contracts/Lektion3/MappingLibrary.sol\":2664:2674  bookAuthor */\n      dup4\n        /* \"contracts/Lektion3/MappingLibrary.sol\":2646:2675  authorBooksTitles[bookAuthor] */\n      mload(0x40)\n      tag_172\n      swap2\n      swap1\n      tag_59\n      jump\t// in\n    tag_172:\n      swap1\n      dup2\n      mstore\n      0x20\n      add\n      mload(0x40)\n      dup1\n      swap2\n      sub\n      swap1\n      keccak256\n        /* \"contracts/Lektion3/MappingLibrary.sol\":2646:2681  authorBooksTitles[bookAuthor].pop() */\n      dup1\n      sload\n      dup1\n      tag_173\n      jumpi\n      tag_174\n      tag_175\n      jump\t// in\n    tag_174:\n    tag_173:\n      0x01\n      swap1\n      sub\n      dup2\n      dup2\n      swap1\n      0x00\n      mstore\n      keccak256(0x00, 0x20)\n      add\n      0x00\n      tag_177\n      swap2\n      swap1\n      tag_120\n      jump\t// in\n    tag_177:\n      swap1\n      sstore\n        /* \"contracts/Lektion3/MappingLibrary.sol\":2702:2707  break */\n      jump(tag_150)\n        /* \"contracts/Lektion3/MappingLibrary.sol\":2415:2723  if (keccak256(bytes(authorBooksTitles[bookAuthor][i])) == keccak256(bytes(bookTitle))) {... */\n    tag_158:\n        /* \"contracts/Lektion3/MappingLibrary.sol\":2395:2398  i++ */\n      dup1\n      dup1\n      0x01\n      add\n      swap2\n      pop\n      pop\n        /* \"contracts/Lektion3/MappingLibrary.sol\":2336:2735  for (uint i = 0; i < authorBooksTitles[bookAuthor].length; i++) {... */\n      jump(tag_149)\n    tag_150:\n      pop\n        /* \"contracts/Lektion3/MappingLibrary.sol\":2107:2742  function deleteBook(string memory bookAuthor, string memory bookTitle) public {... */\n      pop\n      pop\n      jump\t// out\n        /* \"contracts/Lektion3/MappingLibrary.sol\":590:925  function addBook(string memory bookAuthor, string memory bookTitle, uint16 publicationYear) public {... */\n    tag_50:\n        /* \"contracts/Lektion3/MappingLibrary.sol\":709:720  authorBooks */\n      0x00\n        /* \"contracts/Lektion3/MappingLibrary.sol\":721:731  bookAuthor */\n      dup4\n        /* \"contracts/Lektion3/MappingLibrary.sol\":709:732  authorBooks[bookAuthor] */\n      mload(0x40)\n      tag_179\n      swap2\n      swap1\n      tag_59\n      jump\t// in\n    tag_179:\n      swap1\n      dup2\n      mstore\n      0x20\n      add\n      mload(0x40)\n      dup1\n      swap2\n      sub\n      swap1\n      keccak256\n        /* \"contracts/Lektion3/MappingLibrary.sol\":733:742  bookTitle */\n      dup3\n        /* \"contracts/Lektion3/MappingLibrary.sol\":709:743  authorBooks[bookAuthor][bookTitle] */\n      mload(0x40)\n      tag_180\n      swap2\n      swap1\n      tag_59\n      jump\t// in\n    tag_180:\n      swap1\n      dup2\n      mstore\n      0x20\n      add\n      mload(0x40)\n      dup1\n      swap2\n      sub\n      swap1\n      keccak256\n        /* \"contracts/Lektion3/MappingLibrary.sol\":709:749  authorBooks[bookAuthor][bookTitle].exist */\n      0x01\n      add\n      0x02\n      swap1\n      sload\n      swap1\n      0x0100\n      exp\n      swap1\n      div\n      0xff\n      and\n        /* \"contracts/Lektion3/MappingLibrary.sol\":708:749  !authorBooks[bookAuthor][bookTitle].exist */\n      iszero\n        /* \"contracts/Lektion3/MappingLibrary.sol\":700:773  require(!authorBooks[bookAuthor][bookTitle].exist, \"Book already exists\") */\n      tag_181\n      jumpi\n      mload(0x40)\n      0x08c379a000000000000000000000000000000000000000000000000000000000\n      dup2\n      mstore\n      0x04\n      add\n      tag_182\n      swap1\n      tag_145\n      jump\t// in\n    tag_182:\n      mload(0x40)\n      dup1\n      swap2\n      sub\n      swap1\n      revert\n    tag_181:\n        /* \"contracts/Lektion3/MappingLibrary.sol\":823:861  Book(bookTitle, publicationYear, true) */\n      mload(0x40)\n      dup1\n      0x60\n      add\n      0x40\n      mstore\n      dup1\n        /* \"contracts/Lektion3/MappingLibrary.sol\":828:837  bookTitle */\n      dup4\n        /* \"contracts/Lektion3/MappingLibrary.sol\":823:861  Book(bookTitle, publicationYear, true) */\n      dup2\n      mstore\n      0x20\n      add\n        /* \"contracts/Lektion3/MappingLibrary.sol\":839:854  publicationYear */\n      dup3\n        /* \"contracts/Lektion3/MappingLibrary.sol\":823:861  Book(bookTitle, publicationYear, true) */\n      0xffff\n      and\n      dup2\n      mstore\n      0x20\n      add\n        /* \"contracts/Lektion3/MappingLibrary.sol\":856:860  true */\n      0x01\n        /* \"contracts/Lektion3/MappingLibrary.sol\":823:861  Book(bookTitle, publicationYear, true) */\n      iszero\n      iszero\n      dup2\n      mstore\n      pop\n        /* \"contracts/Lektion3/MappingLibrary.sol\":786:797  authorBooks */\n      0x00\n        /* \"contracts/Lektion3/MappingLibrary.sol\":798:808  bookAuthor */\n      dup5\n        /* \"contracts/Lektion3/MappingLibrary.sol\":786:809  authorBooks[bookAuthor] */\n      mload(0x40)\n      tag_183\n      swap2\n      swap1\n      tag_59\n      jump\t// in\n    tag_183:\n      swap1\n      dup2\n      mstore\n      0x20\n      add\n      mload(0x40)\n      dup1\n      swap2\n      sub\n      swap1\n      keccak256\n        /* \"contracts/Lektion3/MappingLibrary.sol\":810:819  bookTitle */\n      dup4\n        /* \"contracts/Lektion3/MappingLibrary.sol\":786:820  authorBooks[bookAuthor][bookTitle] */\n      mload(0x40)\n      tag_184\n      swap2\n      swap1\n      tag_59\n      jump\t// in\n    tag_184:\n      swap1\n      dup2\n      mstore\n      0x20\n      add\n      mload(0x40)\n      dup1\n      swap2\n      sub\n      swap1\n      keccak256\n        /* \"contracts/Lektion3/MappingLibrary.sol\":786:861  authorBooks[bookAuthor][bookTitle] = Book(bookTitle, publicationYear, true) */\n      0x00\n      dup3\n      add\n      mload\n      dup2\n      0x00\n      add\n      swap1\n      dup2\n      tag_185\n      swap2\n      swap1\n      tag_116\n      jump\t// in\n    tag_185:\n      pop\n      0x20\n      dup3\n      add\n      mload\n      dup2\n      0x01\n      add\n      exp(0x0100, 0x00)\n      dup2\n      sload\n      dup2\n      0xffff\n      mul\n      not\n      and\n      swap1\n      dup4\n      0xffff\n      and\n      mul\n      or\n      swap1\n      sstore\n      pop\n      0x40\n      dup3\n      add\n      mload\n      dup2\n      0x01\n      add\n      exp(0x0100, 0x02)\n      dup2\n      sload\n      dup2\n      0xff\n      mul\n      not\n      and\n      swap1\n      dup4\n      iszero\n      iszero\n      mul\n      or\n      swap1\n      sstore\n      pop\n      swap1\n      pop\n      pop\n        /* \"contracts/Lektion3/MappingLibrary.sol\":872:889  authorBooksTitles */\n      0x01\n        /* \"contracts/Lektion3/MappingLibrary.sol\":890:900  bookAuthor */\n      dup4\n        /* \"contracts/Lektion3/MappingLibrary.sol\":872:901  authorBooksTitles[bookAuthor] */\n      mload(0x40)\n      tag_186\n      swap2\n      swap1\n      tag_59\n      jump\t// in\n    tag_186:\n      swap1\n      dup2\n      mstore\n      0x20\n      add\n      mload(0x40)\n      dup1\n      swap2\n      sub\n      swap1\n      keccak256\n        /* \"contracts/Lektion3/MappingLibrary.sol\":907:916  bookTitle */\n      dup3\n        /* \"contracts/Lektion3/MappingLibrary.sol\":872:917  authorBooksTitles[bookAuthor].push(bookTitle) */\n      swap1\n      dup1\n      0x01\n      dup2\n      sload\n      add\n      dup1\n      dup3\n      sstore\n      dup1\n      swap2\n      pop\n      pop\n      0x01\n      swap1\n      sub\n      swap1\n      0x00\n      mstore\n      keccak256(0x00, 0x20)\n      add\n      0x00\n      swap1\n      swap2\n      swap1\n      swap2\n      swap1\n      swap2\n      pop\n      swap1\n      dup2\n      tag_188\n      swap2\n      swap1\n      tag_116\n      jump\t// in\n    tag_188:\n      pop\n        /* \"contracts/Lektion3/MappingLibrary.sol\":590:925  function addBook(string memory bookAuthor, string memory bookTitle, uint16 publicationYear) public {... */\n      pop\n      pop\n      pop\n      jump\t// out\n    tag_120:\n      pop\n      dup1\n      sload\n      tag_189\n      swap1\n      tag_52\n      jump\t// in\n    tag_189:\n      0x00\n      dup3\n      sstore\n      dup1\n      0x1f\n      lt\n      tag_191\n      jumpi\n      pop\n      jump(tag_190)\n    tag_191:\n      0x1f\n      add\n      0x20\n      swap1\n      div\n      swap1\n      0x00\n      mstore\n      keccak256(0x00, 0x20)\n      swap1\n      dup2\n      add\n      swap1\n      tag_192\n      swap2\n      swap1\n      tag_193\n      jump\t// in\n    tag_192:\n    tag_190:\n      pop\n      jump\t// out\n    tag_193:\n    tag_194:\n      dup1\n      dup3\n      gt\n      iszero\n      tag_195\n      jumpi\n      0x00\n      dup2\n      0x00\n      swap1\n      sstore\n      pop\n      0x01\n      add\n      jump(tag_194)\n    tag_195:\n      pop\n      swap1\n      jump\t// out\n        /* \"#utility.yul\":7:82   */\n    tag_196:\n        /* \"#utility.yul\":40:46   */\n      0x00\n        /* \"#utility.yul\":73:75   */\n      0x40\n        /* \"#utility.yul\":67:76   */\n      mload\n        /* \"#utility.yul\":57:76   */\n      swap1\n      pop\n        /* \"#utility.yul\":7:82   */\n      swap1\n      jump\t// out\n        /* \"#utility.yul\":88:205   */\n    tag_197:\n        /* \"#utility.yul\":197:198   */\n      0x00\n        /* \"#utility.yul\":194:195   */\n      0x00\n        /* \"#utility.yul\":187:199   */\n      revert\n        /* \"#utility.yul\":211:328   */\n    tag_198:\n        /* \"#utility.yul\":320:321   */\n      0x00\n        /* \"#utility.yul\":317:318   */\n      0x00\n        /* \"#utility.yul\":310:322   */\n      revert\n        /* \"#utility.yul\":334:451   */\n    tag_199:\n        /* \"#utility.yul\":443:444   */\n      0x00\n        /* \"#utility.yul\":440:441   */\n      0x00\n        /* \"#utility.yul\":433:445   */\n      revert\n        /* \"#utility.yul\":457:574   */\n    tag_200:\n        /* \"#utility.yul\":566:567   */\n      0x00\n        /* \"#utility.yul\":563:564   */\n      0x00\n        /* \"#utility.yul\":556:568   */\n      revert\n        /* \"#utility.yul\":580:682   */\n    tag_201:\n        /* \"#utility.yul\":621:627   */\n      0x00\n        /* \"#utility.yul\":672:674   */\n      0x1f\n        /* \"#utility.yul\":668:675   */\n      not\n        /* \"#utility.yul\":663:665   */\n      0x1f\n        /* \"#utility.yul\":656:661   */\n      dup4\n        /* \"#utility.yul\":652:666   */\n      add\n        /* \"#utility.yul\":648:676   */\n      and\n        /* \"#utility.yul\":638:676   */\n      swap1\n      pop\n        /* \"#utility.yul\":580:682   */\n      swap2\n      swap1\n      pop\n      jump\t// out\n        /* \"#utility.yul\":688:868   */\n    tag_74:\n        /* \"#utility.yul\":736:813   */\n      0x4e487b7100000000000000000000000000000000000000000000000000000000\n        /* \"#utility.yul\":733:734   */\n      0x00\n        /* \"#utility.yul\":726:814   */\n      mstore\n        /* \"#utility.yul\":833:837   */\n      0x41\n        /* \"#utility.yul\":830:831   */\n      0x04\n        /* \"#utility.yul\":823:838   */\n      mstore\n        /* \"#utility.yul\":857:861   */\n      0x24\n        /* \"#utility.yul\":854:855   */\n      0x00\n        /* \"#utility.yul\":847:862   */\n      revert\n        /* \"#utility.yul\":874:1155   */\n    tag_202:\n        /* \"#utility.yul\":957:984   */\n      tag_274\n        /* \"#utility.yul\":979:983   */\n      dup3\n        /* \"#utility.yul\":957:984   */\n      tag_201\n      jump\t// in\n    tag_274:\n        /* \"#utility.yul\":949:955   */\n      dup2\n        /* \"#utility.yul\":945:985   */\n      add\n        /* \"#utility.yul\":1087:1093   */\n      dup2\n        /* \"#utility.yul\":1075:1085   */\n      dup2\n        /* \"#utility.yul\":1072:1094   */\n      lt\n        /* \"#utility.yul\":1051:1069   */\n      0xffffffffffffffff\n        /* \"#utility.yul\":1039:1049   */\n      dup3\n        /* \"#utility.yul\":1036:1070   */\n      gt\n        /* \"#utility.yul\":1033:1095   */\n      or\n        /* \"#utility.yul\":1030:1118   */\n      iszero\n      tag_275\n      jumpi\n        /* \"#utility.yul\":1098:1116   */\n      tag_276\n      tag_74\n      jump\t// in\n    tag_276:\n        /* \"#utility.yul\":1030:1118   */\n    tag_275:\n        /* \"#utility.yul\":1138:1148   */\n      dup1\n        /* \"#utility.yul\":1134:1136   */\n      0x40\n        /* \"#utility.yul\":1127:1149   */\n      mstore\n        /* \"#utility.yul\":917:1155   */\n      pop\n        /* \"#utility.yul\":874:1155   */\n      pop\n      pop\n      jump\t// out\n        /* \"#utility.yul\":1161:1290   */\n    tag_203:\n        /* \"#utility.yul\":1195:1201   */\n      0x00\n        /* \"#utility.yul\":1222:1242   */\n      tag_278\n      tag_196\n      jump\t// in\n    tag_278:\n        /* \"#utility.yul\":1212:1242   */\n      swap1\n      pop\n        /* \"#utility.yul\":1251:1284   */\n      tag_279\n        /* \"#utility.yul\":1279:1283   */\n      dup3\n        /* \"#utility.yul\":1271:1277   */\n      dup3\n        /* \"#utility.yul\":1251:1284   */\n      tag_202\n      jump\t// in\n    tag_279:\n        /* \"#utility.yul\":1161:1290   */\n      swap2\n      swap1\n      pop\n      jump\t// out\n        /* \"#utility.yul\":1296:1604   */\n    tag_204:\n        /* \"#utility.yul\":1358:1362   */\n      0x00\n        /* \"#utility.yul\":1448:1466   */\n      0xffffffffffffffff\n        /* \"#utility.yul\":1440:1446   */\n      dup3\n        /* \"#utility.yul\":1437:1467   */\n      gt\n        /* \"#utility.yul\":1434:1490   */\n      iszero\n      tag_281\n      jumpi\n        /* \"#utility.yul\":1470:1488   */\n      tag_282\n      tag_74\n      jump\t// in\n    tag_282:\n        /* \"#utility.yul\":1434:1490   */\n    tag_281:\n        /* \"#utility.yul\":1508:1537   */\n      tag_283\n        /* \"#utility.yul\":1530:1536   */\n      dup3\n        /* \"#utility.yul\":1508:1537   */\n      tag_201\n      jump\t// in\n    tag_283:\n        /* \"#utility.yul\":1500:1537   */\n      swap1\n      pop\n        /* \"#utility.yul\":1592:1596   */\n      0x20\n        /* \"#utility.yul\":1586:1590   */\n      dup2\n        /* \"#utility.yul\":1582:1597   */\n      add\n        /* \"#utility.yul\":1574:1597   */\n      swap1\n      pop\n        /* \"#utility.yul\":1296:1604   */\n      swap2\n      swap1\n      pop\n      jump\t// out\n        /* \"#utility.yul\":1610:1758   */\n    tag_205:\n        /* \"#utility.yul\":1708:1714   */\n      dup3\n        /* \"#utility.yul\":1703:1706   */\n      dup2\n        /* \"#utility.yul\":1698:1701   */\n      dup4\n        /* \"#utility.yul\":1685:1715   */\n      calldatacopy\n        /* \"#utility.yul\":1749:1750   */\n      0x00\n        /* \"#utility.yul\":1740:1746   */\n      dup4\n        /* \"#utility.yul\":1735:1738   */\n      dup4\n        /* \"#utility.yul\":1731:1747   */\n      add\n        /* \"#utility.yul\":1724:1751   */\n      mstore\n        /* \"#utility.yul\":1610:1758   */\n      pop\n      pop\n      pop\n      jump\t// out\n        /* \"#utility.yul\":1764:2189   */\n    tag_206:\n        /* \"#utility.yul\":1842:1847   */\n      0x00\n        /* \"#utility.yul\":1867:1933   */\n      tag_286\n        /* \"#utility.yul\":1883:1932   */\n      tag_287\n        /* \"#utility.yul\":1925:1931   */\n      dup5\n        /* \"#utility.yul\":1883:1932   */\n      tag_204\n      jump\t// in\n    tag_287:\n        /* \"#utility.yul\":1867:1933   */\n      tag_203\n      jump\t// in\n    tag_286:\n        /* \"#utility.yul\":1858:1933   */\n      swap1\n      pop\n        /* \"#utility.yul\":1956:1962   */\n      dup3\n        /* \"#utility.yul\":1949:1954   */\n      dup2\n        /* \"#utility.yul\":1942:1963   */\n      mstore\n        /* \"#utility.yul\":1994:1998   */\n      0x20\n        /* \"#utility.yul\":1987:1992   */\n      dup2\n        /* \"#utility.yul\":1983:1999   */\n      add\n        /* \"#utility.yul\":2032:2035   */\n      dup5\n        /* \"#utility.yul\":2023:2029   */\n      dup5\n        /* \"#utility.yul\":2018:2021   */\n      dup5\n        /* \"#utility.yul\":2014:2030   */\n      add\n        /* \"#utility.yul\":2011:2036   */\n      gt\n        /* \"#utility.yul\":2008:2120   */\n      iszero\n      tag_288\n      jumpi\n        /* \"#utility.yul\":2039:2118   */\n      tag_289\n      tag_200\n      jump\t// in\n    tag_289:\n        /* \"#utility.yul\":2008:2120   */\n    tag_288:\n        /* \"#utility.yul\":2129:2183   */\n      tag_290\n        /* \"#utility.yul\":2176:2182   */\n      dup5\n        /* \"#utility.yul\":2171:2174   */\n      dup3\n        /* \"#utility.yul\":2166:2169   */\n      dup6\n        /* \"#utility.yul\":2129:2183   */\n      tag_205\n      jump\t// in\n    tag_290:\n        /* \"#utility.yul\":1848:2189   */\n      pop\n        /* \"#utility.yul\":1764:2189   */\n      swap4\n      swap3\n      pop\n      pop\n      pop\n      jump\t// out\n        /* \"#utility.yul\":2209:2549   */\n    tag_207:\n        /* \"#utility.yul\":2265:2270   */\n      0x00\n        /* \"#utility.yul\":2314:2317   */\n      dup3\n        /* \"#utility.yul\":2307:2311   */\n      0x1f\n        /* \"#utility.yul\":2299:2305   */\n      dup4\n        /* \"#utility.yul\":2295:2312   */\n      add\n        /* \"#utility.yul\":2291:2318   */\n      slt\n        /* \"#utility.yul\":2281:2403   */\n      tag_292\n      jumpi\n        /* \"#utility.yul\":2322:2401   */\n      tag_293\n      tag_199\n      jump\t// in\n    tag_293:\n        /* \"#utility.yul\":2281:2403   */\n    tag_292:\n        /* \"#utility.yul\":2439:2445   */\n      dup2\n        /* \"#utility.yul\":2426:2446   */\n      calldataload\n        /* \"#utility.yul\":2464:2543   */\n      tag_294\n        /* \"#utility.yul\":2539:2542   */\n      dup5\n        /* \"#utility.yul\":2531:2537   */\n      dup3\n        /* \"#utility.yul\":2524:2528   */\n      0x20\n        /* \"#utility.yul\":2516:2522   */\n      dup7\n        /* \"#utility.yul\":2512:2529   */\n      add\n        /* \"#utility.yul\":2464:2543   */\n      tag_206\n      jump\t// in\n    tag_294:\n        /* \"#utility.yul\":2455:2543   */\n      swap2\n      pop\n        /* \"#utility.yul\":2271:2549   */\n      pop\n        /* \"#utility.yul\":2209:2549   */\n      swap3\n      swap2\n      pop\n      pop\n      jump\t// out\n        /* \"#utility.yul\":2555:3389   */\n    tag_14:\n        /* \"#utility.yul\":2643:2649   */\n      0x00\n        /* \"#utility.yul\":2651:2657   */\n      0x00\n        /* \"#utility.yul\":2700:2702   */\n      0x40\n        /* \"#utility.yul\":2688:2697   */\n      dup4\n        /* \"#utility.yul\":2679:2686   */\n      dup6\n        /* \"#utility.yul\":2675:2698   */\n      sub\n        /* \"#utility.yul\":2671:2703   */\n      slt\n        /* \"#utility.yul\":2668:2787   */\n      iszero\n      tag_296\n      jumpi\n        /* \"#utility.yul\":2706:2785   */\n      tag_297\n      tag_197\n      jump\t// in\n    tag_297:\n        /* \"#utility.yul\":2668:2787   */\n    tag_296:\n        /* \"#utility.yul\":2854:2855   */\n      0x00\n        /* \"#utility.yul\":2843:2852   */\n      dup4\n        /* \"#utility.yul\":2839:2856   */\n      add\n        /* \"#utility.yul\":2826:2857   */\n      calldataload\n        /* \"#utility.yul\":2884:2902   */\n      0xffffffffffffffff\n        /* \"#utility.yul\":2876:2882   */\n      dup2\n        /* \"#utility.yul\":2873:2903   */\n      gt\n        /* \"#utility.yul\":2870:2987   */\n      iszero\n      tag_298\n      jumpi\n        /* \"#utility.yul\":2906:2985   */\n      tag_299\n      tag_198\n      jump\t// in\n    tag_299:\n        /* \"#utility.yul\":2870:2987   */\n    tag_298:\n        /* \"#utility.yul\":3011:3074   */\n      tag_300\n        /* \"#utility.yul\":3066:3073   */\n      dup6\n        /* \"#utility.yul\":3057:3063   */\n      dup3\n        /* \"#utility.yul\":3046:3055   */\n      dup7\n        /* \"#utility.yul\":3042:3064   */\n      add\n        /* \"#utility.yul\":3011:3074   */\n      tag_207\n      jump\t// in\n    tag_300:\n        /* \"#utility.yul\":3001:3074   */\n      swap3\n      pop\n        /* \"#utility.yul\":2797:3084   */\n      pop\n        /* \"#utility.yul\":3151:3153   */\n      0x20\n        /* \"#utility.yul\":3140:3149   */\n      dup4\n        /* \"#utility.yul\":3136:3154   */\n      add\n        /* \"#utility.yul\":3123:3155   */\n      calldataload\n        /* \"#utility.yul\":3182:3200   */\n      0xffffffffffffffff\n        /* \"#utility.yul\":3174:3180   */\n      dup2\n        /* \"#utility.yul\":3171:3201   */\n      gt\n        /* \"#utility.yul\":3168:3285   */\n      iszero\n      tag_301\n      jumpi\n        /* \"#utility.yul\":3204:3283   */\n      tag_302\n      tag_198\n      jump\t// in\n    tag_302:\n        /* \"#utility.yul\":3168:3285   */\n    tag_301:\n        /* \"#utility.yul\":3309:3372   */\n      tag_303\n        /* \"#utility.yul\":3364:3371   */\n      dup6\n        /* \"#utility.yul\":3355:3361   */\n      dup3\n        /* \"#utility.yul\":3344:3353   */\n      dup7\n        /* \"#utility.yul\":3340:3362   */\n      add\n        /* \"#utility.yul\":3309:3372   */\n      tag_207\n      jump\t// in\n    tag_303:\n        /* \"#utility.yul\":3299:3372   */\n      swap2\n      pop\n        /* \"#utility.yul\":3094:3382   */\n      pop\n        /* \"#utility.yul\":2555:3389   */\n      swap3\n      pop\n      swap3\n      swap1\n      pop\n      jump\t// out\n        /* \"#utility.yul\":3395:3494   */\n    tag_208:\n        /* \"#utility.yul\":3447:3453   */\n      0x00\n        /* \"#utility.yul\":3481:3486   */\n      dup2\n        /* \"#utility.yul\":3475:3487   */\n      mload\n        /* \"#utility.yul\":3465:3487   */\n      swap1\n      pop\n        /* \"#utility.yul\":3395:3494   */\n      swap2\n      swap1\n      pop\n      jump\t// out\n        /* \"#utility.yul\":3500:3669   */\n    tag_209:\n        /* \"#utility.yul\":3584:3595   */\n      0x00\n        /* \"#utility.yul\":3618:3624   */\n      dup3\n        /* \"#utility.yul\":3613:3616   */\n      dup3\n        /* \"#utility.yul\":3606:3625   */\n      mstore\n        /* \"#utility.yul\":3658:3662   */\n      0x20\n        /* \"#utility.yul\":3653:3656   */\n      dup3\n        /* \"#utility.yul\":3649:3663   */\n      add\n        /* \"#utility.yul\":3634:3663   */\n      swap1\n      pop\n        /* \"#utility.yul\":3500:3669   */\n      swap3\n      swap2\n      pop\n      pop\n      jump\t// out\n        /* \"#utility.yul\":3675:3814   */\n    tag_210:\n        /* \"#utility.yul\":3764:3770   */\n      dup3\n        /* \"#utility.yul\":3759:3762   */\n      dup2\n        /* \"#utility.yul\":3754:3757   */\n      dup4\n        /* \"#utility.yul\":3748:3771   */\n      mcopy\n        /* \"#utility.yul\":3805:3806   */\n      0x00\n        /* \"#utility.yul\":3796:3802   */\n      dup4\n        /* \"#utility.yul\":3791:3794   */\n      dup4\n        /* \"#utility.yul\":3787:3803   */\n      add\n        /* \"#utility.yul\":3780:3807   */\n      mstore\n        /* \"#utility.yul\":3675:3814   */\n      pop\n      pop\n      pop\n      jump\t// out\n        /* \"#utility.yul\":3820:4197   */\n    tag_211:\n        /* \"#utility.yul\":3908:3911   */\n      0x00\n        /* \"#utility.yul\":3936:3975   */\n      tag_308\n        /* \"#utility.yul\":3969:3974   */\n      dup3\n        /* \"#utility.yul\":3936:3975   */\n      tag_208\n      jump\t// in\n    tag_308:\n        /* \"#utility.yul\":3991:4062   */\n      tag_309\n        /* \"#utility.yul\":4055:4061   */\n      dup2\n        /* \"#utility.yul\":4050:4053   */\n      dup6\n        /* \"#utility.yul\":3991:4062   */\n      tag_209\n      jump\t// in\n    tag_309:\n        /* \"#utility.yul\":3984:4062   */\n      swap4\n      pop\n        /* \"#utility.yul\":4071:4136   */\n      tag_310\n        /* \"#utility.yul\":4129:4135   */\n      dup2\n        /* \"#utility.yul\":4124:4127   */\n      dup6\n        /* \"#utility.yul\":4117:4121   */\n      0x20\n        /* \"#utility.yul\":4110:4115   */\n      dup7\n        /* \"#utility.yul\":4106:4122   */\n      add\n        /* \"#utility.yul\":4071:4136   */\n      tag_210\n      jump\t// in\n    tag_310:\n        /* \"#utility.yul\":4161:4190   */\n      tag_311\n        /* \"#utility.yul\":4183:4189   */\n      dup2\n        /* \"#utility.yul\":4161:4190   */\n      tag_201\n      jump\t// in\n    tag_311:\n        /* \"#utility.yul\":4156:4159   */\n      dup5\n        /* \"#utility.yul\":4152:4191   */\n      add\n        /* \"#utility.yul\":4145:4191   */\n      swap2\n      pop\n        /* \"#utility.yul\":3912:4197   */\n      pop\n        /* \"#utility.yul\":3820:4197   */\n      swap3\n      swap2\n      pop\n      pop\n      jump\t// out\n        /* \"#utility.yul\":4203:4292   */\n    tag_212:\n        /* \"#utility.yul\":4239:4246   */\n      0x00\n        /* \"#utility.yul\":4279:4285   */\n      0xffff\n        /* \"#utility.yul\":4272:4277   */\n      dup3\n        /* \"#utility.yul\":4268:4286   */\n      and\n        /* \"#utility.yul\":4257:4286   */\n      swap1\n      pop\n        /* \"#utility.yul\":4203:4292   */\n      swap2\n      swap1\n      pop\n      jump\t// out\n        /* \"#utility.yul\":4298:4413   */\n    tag_213:\n        /* \"#utility.yul\":4383:4406   */\n      tag_314\n        /* \"#utility.yul\":4400:4405   */\n      dup2\n        /* \"#utility.yul\":4383:4406   */\n      tag_212\n      jump\t// in\n    tag_314:\n        /* \"#utility.yul\":4378:4381   */\n      dup3\n        /* \"#utility.yul\":4371:4407   */\n      mstore\n        /* \"#utility.yul\":4298:4413   */\n      pop\n      pop\n      jump\t// out\n        /* \"#utility.yul\":4419:4509   */\n    tag_214:\n        /* \"#utility.yul\":4453:4460   */\n      0x00\n        /* \"#utility.yul\":4496:4501   */\n      dup2\n        /* \"#utility.yul\":4489:4502   */\n      iszero\n        /* \"#utility.yul\":4482:4503   */\n      iszero\n        /* \"#utility.yul\":4471:4503   */\n      swap1\n      pop\n        /* \"#utility.yul\":4419:4509   */\n      swap2\n      swap1\n      pop\n      jump\t// out\n        /* \"#utility.yul\":4515:4624   */\n    tag_215:\n        /* \"#utility.yul\":4596:4617   */\n      tag_317\n        /* \"#utility.yul\":4611:4616   */\n      dup2\n        /* \"#utility.yul\":4596:4617   */\n      tag_214\n      jump\t// in\n    tag_317:\n        /* \"#utility.yul\":4591:4594   */\n      dup3\n        /* \"#utility.yul\":4584:4618   */\n      mstore\n        /* \"#utility.yul\":4515:4624   */\n      pop\n      pop\n      jump\t// out\n        /* \"#utility.yul\":4630:5147   */\n    tag_17:\n        /* \"#utility.yul\":4791:4795   */\n      0x00\n        /* \"#utility.yul\":4829:4831   */\n      0x60\n        /* \"#utility.yul\":4818:4827   */\n      dup3\n        /* \"#utility.yul\":4814:4832   */\n      add\n        /* \"#utility.yul\":4806:4832   */\n      swap1\n      pop\n        /* \"#utility.yul\":4878:4887   */\n      dup2\n        /* \"#utility.yul\":4872:4876   */\n      dup2\n        /* \"#utility.yul\":4868:4888   */\n      sub\n        /* \"#utility.yul\":4864:4865   */\n      0x00\n        /* \"#utility.yul\":4853:4862   */\n      dup4\n        /* \"#utility.yul\":4849:4866   */\n      add\n        /* \"#utility.yul\":4842:4889   */\n      mstore\n        /* \"#utility.yul\":4906:4984   */\n      tag_319\n        /* \"#utility.yul\":4979:4983   */\n      dup2\n        /* \"#utility.yul\":4970:4976   */\n      dup7\n        /* \"#utility.yul\":4906:4984   */\n      tag_211\n      jump\t// in\n    tag_319:\n        /* \"#utility.yul\":4898:4984   */\n      swap1\n      pop\n        /* \"#utility.yul\":4994:5064   */\n      tag_320\n        /* \"#utility.yul\":5060:5062   */\n      0x20\n        /* \"#utility.yul\":5049:5058   */\n      dup4\n        /* \"#utility.yul\":5045:5063   */\n      add\n        /* \"#utility.yul\":5036:5042   */\n      dup6\n        /* \"#utility.yul\":4994:5064   */\n      tag_213\n      jump\t// in\n    tag_320:\n        /* \"#utility.yul\":5074:5140   */\n      tag_321\n        /* \"#utility.yul\":5136:5138   */\n      0x40\n        /* \"#utility.yul\":5125:5134   */\n      dup4\n        /* \"#utility.yul\":5121:5139   */\n      add\n        /* \"#utility.yul\":5112:5118   */\n      dup5\n        /* \"#utility.yul\":5074:5140   */\n      tag_215\n      jump\t// in\n    tag_321:\n        /* \"#utility.yul\":4630:5147   */\n      swap5\n      swap4\n      pop\n      pop\n      pop\n      pop\n      jump\t// out\n        /* \"#utility.yul\":5153:5662   */\n    tag_20:\n        /* \"#utility.yul\":5222:5228   */\n      0x00\n        /* \"#utility.yul\":5271:5273   */\n      0x20\n        /* \"#utility.yul\":5259:5268   */\n      dup3\n        /* \"#utility.yul\":5250:5257   */\n      dup5\n        /* \"#utility.yul\":5246:5269   */\n      sub\n        /* \"#utility.yul\":5242:5274   */\n      slt\n        /* \"#utility.yul\":5239:5358   */\n      iszero\n      tag_323\n      jumpi\n        /* \"#utility.yul\":5277:5356   */\n      tag_324\n      tag_197\n      jump\t// in\n    tag_324:\n        /* \"#utility.yul\":5239:5358   */\n    tag_323:\n        /* \"#utility.yul\":5425:5426   */\n      0x00\n        /* \"#utility.yul\":5414:5423   */\n      dup3\n        /* \"#utility.yul\":5410:5427   */\n      add\n        /* \"#utility.yul\":5397:5428   */\n      calldataload\n        /* \"#utility.yul\":5455:5473   */\n      0xffffffffffffffff\n        /* \"#utility.yul\":5447:5453   */\n      dup2\n        /* \"#utility.yul\":5444:5474   */\n      gt\n        /* \"#utility.yul\":5441:5558   */\n      iszero\n      tag_325\n      jumpi\n        /* \"#utility.yul\":5477:5556   */\n      tag_326\n      tag_198\n      jump\t// in\n    tag_326:\n        /* \"#utility.yul\":5441:5558   */\n    tag_325:\n        /* \"#utility.yul\":5582:5645   */\n      tag_327\n        /* \"#utility.yul\":5637:5644   */\n      dup5\n        /* \"#utility.yul\":5628:5634   */\n      dup3\n        /* \"#utility.yul\":5617:5626   */\n      dup6\n        /* \"#utility.yul\":5613:5635   */\n      add\n        /* \"#utility.yul\":5582:5645   */\n      tag_207\n      jump\t// in\n    tag_327:\n        /* \"#utility.yul\":5572:5645   */\n      swap2\n      pop\n        /* \"#utility.yul\":5368:5655   */\n      pop\n        /* \"#utility.yul\":5153:5662   */\n      swap3\n      swap2\n      pop\n      pop\n      jump\t// out\n        /* \"#utility.yul\":5668:5745   */\n    tag_216:\n        /* \"#utility.yul\":5705:5712   */\n      0x00\n        /* \"#utility.yul\":5734:5739   */\n      dup2\n        /* \"#utility.yul\":5723:5739   */\n      swap1\n      pop\n        /* \"#utility.yul\":5668:5745   */\n      swap2\n      swap1\n      pop\n      jump\t// out\n        /* \"#utility.yul\":5751:5869   */\n    tag_217:\n        /* \"#utility.yul\":5838:5862   */\n      tag_330\n        /* \"#utility.yul\":5856:5861   */\n      dup2\n        /* \"#utility.yul\":5838:5862   */\n      tag_216\n      jump\t// in\n    tag_330:\n        /* \"#utility.yul\":5833:5836   */\n      dup3\n        /* \"#utility.yul\":5826:5863   */\n      mstore\n        /* \"#utility.yul\":5751:5869   */\n      pop\n      pop\n      jump\t// out\n        /* \"#utility.yul\":5875:6097   */\n    tag_23:\n        /* \"#utility.yul\":5968:5972   */\n      0x00\n        /* \"#utility.yul\":6006:6008   */\n      0x20\n        /* \"#utility.yul\":5995:6004   */\n      dup3\n        /* \"#utility.yul\":5991:6009   */\n      add\n        /* \"#utility.yul\":5983:6009   */\n      swap1\n      pop\n        /* \"#utility.yul\":6019:6090   */\n      tag_332\n        /* \"#utility.yul\":6087:6088   */\n      0x00\n        /* \"#utility.yul\":6076:6085   */\n      dup4\n        /* \"#utility.yul\":6072:6089   */\n      add\n        /* \"#utility.yul\":6063:6069   */\n      dup5\n        /* \"#utility.yul\":6019:6090   */\n      tag_217\n      jump\t// in\n    tag_332:\n        /* \"#utility.yul\":5875:6097   */\n      swap3\n      swap2\n      pop\n      pop\n      jump\t// out\n        /* \"#utility.yul\":6103:6227   */\n    tag_218:\n        /* \"#utility.yul\":6180:6186   */\n      0x00\n        /* \"#utility.yul\":6214:6219   */\n      dup2\n        /* \"#utility.yul\":6208:6220   */\n      mload\n        /* \"#utility.yul\":6198:6220   */\n      swap1\n      pop\n        /* \"#utility.yul\":6103:6227   */\n      swap2\n      swap1\n      pop\n      jump\t// out\n        /* \"#utility.yul\":6233:6427   */\n    tag_219:\n        /* \"#utility.yul\":6342:6353   */\n      0x00\n        /* \"#utility.yul\":6376:6382   */\n      dup3\n        /* \"#utility.yul\":6371:6374   */\n      dup3\n        /* \"#utility.yul\":6364:6383   */\n      mstore\n        /* \"#utility.yul\":6416:6420   */\n      0x20\n        /* \"#utility.yul\":6411:6414   */\n      dup3\n        /* \"#utility.yul\":6407:6421   */\n      add\n        /* \"#utility.yul\":6392:6421   */\n      swap1\n      pop\n        /* \"#utility.yul\":6233:6427   */\n      swap3\n      swap2\n      pop\n      pop\n      jump\t// out\n        /* \"#utility.yul\":6433:6575   */\n    tag_220:\n        /* \"#utility.yul\":6510:6514   */\n      0x00\n        /* \"#utility.yul\":6533:6536   */\n      dup2\n        /* \"#utility.yul\":6525:6536   */\n      swap1\n      pop\n        /* \"#utility.yul\":6563:6567   */\n      0x20\n        /* \"#utility.yul\":6558:6561   */\n      dup3\n        /* \"#utility.yul\":6554:6568   */\n      add\n        /* \"#utility.yul\":6546:6568   */\n      swap1\n      pop\n        /* \"#utility.yul\":6433:6575   */\n      swap2\n      swap1\n      pop\n      jump\t// out\n        /* \"#utility.yul\":6581:6740   */\n    tag_221:\n        /* \"#utility.yul\":6655:6666   */\n      0x00\n        /* \"#utility.yul\":6689:6695   */\n      dup3\n        /* \"#utility.yul\":6684:6687   */\n      dup3\n        /* \"#utility.yul\":6677:6696   */\n      mstore\n        /* \"#utility.yul\":6729:6733   */\n      0x20\n        /* \"#utility.yul\":6724:6727   */\n      dup3\n        /* \"#utility.yul\":6720:6734   */\n      add\n        /* \"#utility.yul\":6705:6734   */\n      swap1\n      pop\n        /* \"#utility.yul\":6581:6740   */\n      swap3\n      swap2\n      pop\n      pop\n      jump\t// out\n        /* \"#utility.yul\":6746:7103   */\n    tag_222:\n        /* \"#utility.yul\":6824:6827   */\n      0x00\n        /* \"#utility.yul\":6852:6891   */\n      tag_338\n        /* \"#utility.yul\":6885:6890   */\n      dup3\n        /* \"#utility.yul\":6852:6891   */\n      tag_208\n      jump\t// in\n    tag_338:\n        /* \"#utility.yul\":6907:6968   */\n      tag_339\n        /* \"#utility.yul\":6961:6967   */\n      dup2\n        /* \"#utility.yul\":6956:6959   */\n      dup6\n        /* \"#utility.yul\":6907:6968   */\n      tag_221\n      jump\t// in\n    tag_339:\n        /* \"#utility.yul\":6900:6968   */\n      swap4\n      pop\n        /* \"#utility.yul\":6977:7042   */\n      tag_340\n        /* \"#utility.yul\":7035:7041   */\n      dup2\n        /* \"#utility.yul\":7030:7033   */\n      dup6\n        /* \"#utility.yul\":7023:7027   */\n      0x20\n        /* \"#utility.yul\":7016:7021   */\n      dup7\n        /* \"#utility.yul\":7012:7028   */\n      add\n        /* \"#utility.yul\":6977:7042   */\n      tag_210\n      jump\t// in\n    tag_340:\n        /* \"#utility.yul\":7067:7096   */\n      tag_341\n        /* \"#utility.yul\":7089:7095   */\n      dup2\n        /* \"#utility.yul\":7067:7096   */\n      tag_201\n      jump\t// in\n    tag_341:\n        /* \"#utility.yul\":7062:7065   */\n      dup5\n        /* \"#utility.yul\":7058:7097   */\n      add\n        /* \"#utility.yul\":7051:7097   */\n      swap2\n      pop\n        /* \"#utility.yul\":6828:7103   */\n      pop\n        /* \"#utility.yul\":6746:7103   */\n      swap3\n      swap2\n      pop\n      pop\n      jump\t// out\n        /* \"#utility.yul\":7109:7305   */\n    tag_223:\n        /* \"#utility.yul\":7198:7208   */\n      0x00\n        /* \"#utility.yul\":7233:7299   */\n      tag_343\n        /* \"#utility.yul\":7295:7298   */\n      dup4\n        /* \"#utility.yul\":7287:7293   */\n      dup4\n        /* \"#utility.yul\":7233:7299   */\n      tag_222\n      jump\t// in\n    tag_343:\n        /* \"#utility.yul\":7219:7299   */\n      swap1\n      pop\n        /* \"#utility.yul\":7109:7305   */\n      swap3\n      swap2\n      pop\n      pop\n      jump\t// out\n        /* \"#utility.yul\":7311:7434   */\n    tag_224:\n        /* \"#utility.yul\":7391:7395   */\n      0x00\n        /* \"#utility.yul\":7423:7427   */\n      0x20\n        /* \"#utility.yul\":7418:7421   */\n      dup3\n        /* \"#utility.yul\":7414:7428   */\n      add\n        /* \"#utility.yul\":7406:7428   */\n      swap1\n      pop\n        /* \"#utility.yul\":7311:7434   */\n      swap2\n      swap1\n      pop\n      jump\t// out\n        /* \"#utility.yul\":7468:8459   */\n    tag_225:\n        /* \"#utility.yul\":7607:7610   */\n      0x00\n        /* \"#utility.yul\":7636:7700   */\n      tag_346\n        /* \"#utility.yul\":7694:7699   */\n      dup3\n        /* \"#utility.yul\":7636:7700   */\n      tag_218\n      jump\t// in\n    tag_346:\n        /* \"#utility.yul\":7716:7812   */\n      tag_347\n        /* \"#utility.yul\":7805:7811   */\n      dup2\n        /* \"#utility.yul\":7800:7803   */\n      dup6\n        /* \"#utility.yul\":7716:7812   */\n      tag_219\n      jump\t// in\n    tag_347:\n        /* \"#utility.yul\":7709:7812   */\n      swap4\n      pop\n        /* \"#utility.yul\":7838:7841   */\n      dup4\n        /* \"#utility.yul\":7883:7887   */\n      0x20\n        /* \"#utility.yul\":7875:7881   */\n      dup3\n        /* \"#utility.yul\":7871:7888   */\n      mul\n        /* \"#utility.yul\":7866:7869   */\n      dup6\n        /* \"#utility.yul\":7862:7889   */\n      add\n        /* \"#utility.yul\":7913:7979   */\n      tag_348\n        /* \"#utility.yul\":7973:7978   */\n      dup6\n        /* \"#utility.yul\":7913:7979   */\n      tag_220\n      jump\t// in\n    tag_348:\n        /* \"#utility.yul\":8002:8009   */\n      dup1\n        /* \"#utility.yul\":8033:8034   */\n      0x00\n        /* \"#utility.yul\":8018:8414   */\n    tag_349:\n        /* \"#utility.yul\":8043:8049   */\n      dup6\n        /* \"#utility.yul\":8040:8041   */\n      dup2\n        /* \"#utility.yul\":8037:8050   */\n      lt\n        /* \"#utility.yul\":8018:8414   */\n      iszero\n      tag_351\n      jumpi\n        /* \"#utility.yul\":8114:8123   */\n      dup5\n        /* \"#utility.yul\":8108:8112   */\n      dup5\n        /* \"#utility.yul\":8104:8124   */\n      sub\n        /* \"#utility.yul\":8099:8102   */\n      dup10\n        /* \"#utility.yul\":8092:8125   */\n      mstore\n        /* \"#utility.yul\":8165:8171   */\n      dup2\n        /* \"#utility.yul\":8159:8172   */\n      mload\n        /* \"#utility.yul\":8193:8277   */\n      tag_352\n        /* \"#utility.yul\":8272:8276   */\n      dup6\n        /* \"#utility.yul\":8257:8270   */\n      dup3\n        /* \"#utility.yul\":8193:8277   */\n      tag_223\n      jump\t// in\n    tag_352:\n        /* \"#utility.yul\":8185:8277   */\n      swap5\n      pop\n        /* \"#utility.yul\":8300:8370   */\n      tag_353\n        /* \"#utility.yul\":8363:8369   */\n      dup4\n        /* \"#utility.yul\":8300:8370   */\n      tag_224\n      jump\t// in\n    tag_353:\n        /* \"#utility.yul\":8290:8370   */\n      swap3\n      pop\n        /* \"#utility.yul\":8399:8403   */\n      0x20\n        /* \"#utility.yul\":8394:8397   */\n      dup11\n        /* \"#utility.yul\":8390:8404   */\n      add\n        /* \"#utility.yul\":8383:8404   */\n      swap10\n      pop\n        /* \"#utility.yul\":8078:8414   */\n      pop\n        /* \"#utility.yul\":8065:8066   */\n      0x01\n        /* \"#utility.yul\":8062:8063   */\n      dup2\n        /* \"#utility.yul\":8058:8067   */\n      add\n        /* \"#utility.yul\":8053:8067   */\n      swap1\n      pop\n        /* \"#utility.yul\":8018:8414   */\n      jump(tag_349)\n    tag_351:\n        /* \"#utility.yul\":8022:8036   */\n      pop\n        /* \"#utility.yul\":8430:8434   */\n      dup3\n        /* \"#utility.yul\":8423:8434   */\n      swap8\n      pop\n        /* \"#utility.yul\":8450:8453   */\n      dup8\n        /* \"#utility.yul\":8443:8453   */\n      swap6\n      pop\n        /* \"#utility.yul\":7612:8459   */\n      pop\n      pop\n      pop\n      pop\n      pop\n        /* \"#utility.yul\":7468:8459   */\n      swap3\n      swap2\n      pop\n      pop\n      jump\t// out\n        /* \"#utility.yul\":8465:8878   */\n    tag_28:\n        /* \"#utility.yul\":8628:8632   */\n      0x00\n        /* \"#utility.yul\":8666:8668   */\n      0x20\n        /* \"#utility.yul\":8655:8664   */\n      dup3\n        /* \"#utility.yul\":8651:8669   */\n      add\n        /* \"#utility.yul\":8643:8669   */\n      swap1\n      pop\n        /* \"#utility.yul\":8715:8724   */\n      dup2\n        /* \"#utility.yul\":8709:8713   */\n      dup2\n        /* \"#utility.yul\":8705:8725   */\n      sub\n        /* \"#utility.yul\":8701:8702   */\n      0x00\n        /* \"#utility.yul\":8690:8699   */\n      dup4\n        /* \"#utility.yul\":8686:8703   */\n      add\n        /* \"#utility.yul\":8679:8726   */\n      mstore\n        /* \"#utility.yul\":8743:8871   */\n      tag_355\n        /* \"#utility.yul\":8866:8870   */\n      dup2\n        /* \"#utility.yul\":8857:8863   */\n      dup5\n        /* \"#utility.yul\":8743:8871   */\n      tag_225\n      jump\t// in\n    tag_355:\n        /* \"#utility.yul\":8735:8871   */\n      swap1\n      pop\n        /* \"#utility.yul\":8465:8878   */\n      swap3\n      swap2\n      pop\n      pop\n      jump\t// out\n        /* \"#utility.yul\":8884:8998   */\n    tag_226:\n        /* \"#utility.yul\":8951:8957   */\n      0x00\n        /* \"#utility.yul\":8985:8990   */\n      dup2\n        /* \"#utility.yul\":8979:8991   */\n      mload\n        /* \"#utility.yul\":8969:8991   */\n      swap1\n      pop\n        /* \"#utility.yul\":8884:8998   */\n      swap2\n      swap1\n      pop\n      jump\t// out\n        /* \"#utility.yul\":9004:9188   */\n    tag_227:\n        /* \"#utility.yul\":9103:9114   */\n      0x00\n        /* \"#utility.yul\":9137:9143   */\n      dup3\n        /* \"#utility.yul\":9132:9135   */\n      dup3\n        /* \"#utility.yul\":9125:9144   */\n      mstore\n        /* \"#utility.yul\":9177:9181   */\n      0x20\n        /* \"#utility.yul\":9172:9175   */\n      dup3\n        /* \"#utility.yul\":9168:9182   */\n      add\n        /* \"#utility.yul\":9153:9182   */\n      swap1\n      pop\n        /* \"#utility.yul\":9004:9188   */\n      swap3\n      swap2\n      pop\n      pop\n      jump\t// out\n        /* \"#utility.yul\":9194:9326   */\n    tag_228:\n        /* \"#utility.yul\":9261:9265   */\n      0x00\n        /* \"#utility.yul\":9284:9287   */\n      dup2\n        /* \"#utility.yul\":9276:9287   */\n      swap1\n      pop\n        /* \"#utility.yul\":9314:9318   */\n      0x20\n        /* \"#utility.yul\":9309:9312   */\n      dup3\n        /* \"#utility.yul\":9305:9319   */\n      add\n        /* \"#utility.yul\":9297:9319   */\n      swap1\n      pop\n        /* \"#utility.yul\":9194:9326   */\n      swap2\n      swap1\n      pop\n      jump\t// out\n        /* \"#utility.yul\":9332:9440   */\n    tag_229:\n        /* \"#utility.yul\":9409:9433   */\n      tag_360\n        /* \"#utility.yul\":9427:9432   */\n      dup2\n        /* \"#utility.yul\":9409:9433   */\n      tag_216\n      jump\t// in\n    tag_360:\n        /* \"#utility.yul\":9404:9407   */\n      dup3\n        /* \"#utility.yul\":9397:9434   */\n      mstore\n        /* \"#utility.yul\":9332:9440   */\n      pop\n      pop\n      jump\t// out\n        /* \"#utility.yul\":9446:9625   */\n    tag_230:\n        /* \"#utility.yul\":9515:9525   */\n      0x00\n        /* \"#utility.yul\":9536:9582   */\n      tag_362\n        /* \"#utility.yul\":9578:9581   */\n      dup4\n        /* \"#utility.yul\":9570:9576   */\n      dup4\n        /* \"#utility.yul\":9536:9582   */\n      tag_229\n      jump\t// in\n    tag_362:\n        /* \"#utility.yul\":9614:9618   */\n      0x20\n        /* \"#utility.yul\":9609:9612   */\n      dup4\n        /* \"#utility.yul\":9605:9619   */\n      add\n        /* \"#utility.yul\":9591:9619   */\n      swap1\n      pop\n        /* \"#utility.yul\":9446:9625   */\n      swap3\n      swap2\n      pop\n      pop\n      jump\t// out\n        /* \"#utility.yul\":9631:9744   */\n    tag_231:\n        /* \"#utility.yul\":9701:9705   */\n      0x00\n        /* \"#utility.yul\":9733:9737   */\n      0x20\n        /* \"#utility.yul\":9728:9731   */\n      dup3\n        /* \"#utility.yul\":9724:9738   */\n      add\n        /* \"#utility.yul\":9716:9738   */\n      swap1\n      pop\n        /* \"#utility.yul\":9631:9744   */\n      swap2\n      swap1\n      pop\n      jump\t// out\n        /* \"#utility.yul\":9780:10512   */\n    tag_232:\n        /* \"#utility.yul\":9899:9902   */\n      0x00\n        /* \"#utility.yul\":9928:9982   */\n      tag_365\n        /* \"#utility.yul\":9976:9981   */\n      dup3\n        /* \"#utility.yul\":9928:9982   */\n      tag_226\n      jump\t// in\n    tag_365:\n        /* \"#utility.yul\":9998:10084   */\n      tag_366\n        /* \"#utility.yul\":10077:10083   */\n      dup2\n        /* \"#utility.yul\":10072:10075   */\n      dup6\n        /* \"#utility.yul\":9998:10084   */\n      tag_227\n      jump\t// in\n    tag_366:\n        /* \"#utility.yul\":9991:10084   */\n      swap4\n      pop\n        /* \"#utility.yul\":10108:10164   */\n      tag_367\n        /* \"#utility.yul\":10158:10163   */\n      dup4\n        /* \"#utility.yul\":10108:10164   */\n      tag_228\n      jump\t// in\n    tag_367:\n        /* \"#utility.yul\":10187:10194   */\n      dup1\n        /* \"#utility.yul\":10218:10219   */\n      0x00\n        /* \"#utility.yul\":10203:10487   */\n    tag_368:\n        /* \"#utility.yul\":10228:10234   */\n      dup4\n        /* \"#utility.yul\":10225:10226   */\n      dup2\n        /* \"#utility.yul\":10222:10235   */\n      lt\n        /* \"#utility.yul\":10203:10487   */\n      iszero\n      tag_370\n      jumpi\n        /* \"#utility.yul\":10304:10310   */\n      dup2\n        /* \"#utility.yul\":10298:10311   */\n      mload\n        /* \"#utility.yul\":10331:10394   */\n      tag_371\n        /* \"#utility.yul\":10390:10393   */\n      dup9\n        /* \"#utility.yul\":10375:10388   */\n      dup3\n        /* \"#utility.yul\":10331:10394   */\n      tag_230\n      jump\t// in\n    tag_371:\n        /* \"#utility.yul\":10324:10394   */\n      swap8\n      pop\n        /* \"#utility.yul\":10417:10477   */\n      tag_372\n        /* \"#utility.yul\":10470:10476   */\n      dup4\n        /* \"#utility.yul\":10417:10477   */\n      tag_231\n      jump\t// in\n    tag_372:\n        /* \"#utility.yul\":10407:10477   */\n      swap3\n      pop\n        /* \"#utility.yul\":10263:10487   */\n      pop\n        /* \"#utility.yul\":10250:10251   */\n      0x01\n        /* \"#utility.yul\":10247:10248   */\n      dup2\n        /* \"#utility.yul\":10243:10252   */\n      add\n        /* \"#utility.yul\":10238:10252   */\n      swap1\n      pop\n        /* \"#utility.yul\":10203:10487   */\n      jump(tag_368)\n    tag_370:\n        /* \"#utility.yul\":10207:10221   */\n      pop\n        /* \"#utility.yul\":10503:10506   */\n      dup6\n        /* \"#utility.yul\":10496:10506   */\n      swap4\n      pop\n        /* \"#utility.yul\":9904:10512   */\n      pop\n      pop\n      pop\n        /* \"#utility.yul\":9780:10512   */\n      swap3\n      swap2\n      pop\n      pop\n      jump\t// out\n        /* \"#utility.yul\":10518:11192   */\n    tag_33:\n        /* \"#utility.yul\":10759:10763   */\n      0x00\n        /* \"#utility.yul\":10797:10799   */\n      0x40\n        /* \"#utility.yul\":10786:10795   */\n      dup3\n        /* \"#utility.yul\":10782:10800   */\n      add\n        /* \"#utility.yul\":10774:10800   */\n      swap1\n      pop\n        /* \"#utility.yul\":10846:10855   */\n      dup2\n        /* \"#utility.yul\":10840:10844   */\n      dup2\n        /* \"#utility.yul\":10836:10856   */\n      sub\n        /* \"#utility.yul\":10832:10833   */\n      0x00\n        /* \"#utility.yul\":10821:10830   */\n      dup4\n        /* \"#utility.yul\":10817:10834   */\n      add\n        /* \"#utility.yul\":10810:10857   */\n      mstore\n        /* \"#utility.yul\":10874:11002   */\n      tag_374\n        /* \"#utility.yul\":10997:11001   */\n      dup2\n        /* \"#utility.yul\":10988:10994   */\n      dup6\n        /* \"#utility.yul\":10874:11002   */\n      tag_225\n      jump\t// in\n    tag_374:\n        /* \"#utility.yul\":10866:11002   */\n      swap1\n      pop\n        /* \"#utility.yul\":11049:11058   */\n      dup2\n        /* \"#utility.yul\":11043:11047   */\n      dup2\n        /* \"#utility.yul\":11039:11059   */\n      sub\n        /* \"#utility.yul\":11034:11036   */\n      0x20\n        /* \"#utility.yul\":11023:11032   */\n      dup4\n        /* \"#utility.yul\":11019:11037   */\n      add\n        /* \"#utility.yul\":11012:11060   */\n      mstore\n        /* \"#utility.yul\":11077:11185   */\n      tag_375\n        /* \"#utility.yul\":11180:11184   */\n      dup2\n        /* \"#utility.yul\":11171:11177   */\n      dup5\n        /* \"#utility.yul\":11077:11185   */\n      tag_232\n      jump\t// in\n    tag_375:\n        /* \"#utility.yul\":11069:11185   */\n      swap1\n      pop\n        /* \"#utility.yul\":10518:11192   */\n      swap4\n      swap3\n      pop\n      pop\n      pop\n      jump\t// out\n        /* \"#utility.yul\":11198:11320   */\n    tag_233:\n        /* \"#utility.yul\":11271:11295   */\n      tag_377\n        /* \"#utility.yul\":11289:11294   */\n      dup2\n        /* \"#utility.yul\":11271:11295   */\n      tag_216\n      jump\t// in\n    tag_377:\n        /* \"#utility.yul\":11264:11269   */\n      dup2\n        /* \"#utility.yul\":11261:11296   */\n      eq\n        /* \"#utility.yul\":11251:11314   */\n      tag_378\n      jumpi\n        /* \"#utility.yul\":11310:11311   */\n      0x00\n        /* \"#utility.yul\":11307:11308   */\n      0x00\n        /* \"#utility.yul\":11300:11312   */\n      revert\n        /* \"#utility.yul\":11251:11314   */\n    tag_378:\n        /* \"#utility.yul\":11198:11320   */\n      pop\n      jump\t// out\n        /* \"#utility.yul\":11326:11465   */\n    tag_234:\n        /* \"#utility.yul\":11372:11377   */\n      0x00\n        /* \"#utility.yul\":11410:11416   */\n      dup2\n        /* \"#utility.yul\":11397:11417   */\n      calldataload\n        /* \"#utility.yul\":11388:11417   */\n      swap1\n      pop\n        /* \"#utility.yul\":11426:11459   */\n      tag_380\n        /* \"#utility.yul\":11453:11458   */\n      dup2\n        /* \"#utility.yul\":11426:11459   */\n      tag_233\n      jump\t// in\n    tag_380:\n        /* \"#utility.yul\":11326:11465   */\n      swap3\n      swap2\n      pop\n      pop\n      jump\t// out\n        /* \"#utility.yul\":11471:12125   */\n    tag_36:\n        /* \"#utility.yul\":11549:11555   */\n      0x00\n        /* \"#utility.yul\":11557:11563   */\n      0x00\n        /* \"#utility.yul\":11606:11608   */\n      0x40\n        /* \"#utility.yul\":11594:11603   */\n      dup4\n        /* \"#utility.yul\":11585:11592   */\n      dup6\n        /* \"#utility.yul\":11581:11604   */\n      sub\n        /* \"#utility.yul\":11577:11609   */\n      slt\n        /* \"#utility.yul\":11574:11693   */\n      iszero\n      tag_382\n      jumpi\n        /* \"#utility.yul\":11612:11691   */\n      tag_383\n      tag_197\n      jump\t// in\n    tag_383:\n        /* \"#utility.yul\":11574:11693   */\n    tag_382:\n        /* \"#utility.yul\":11760:11761   */\n      0x00\n        /* \"#utility.yul\":11749:11758   */\n      dup4\n        /* \"#utility.yul\":11745:11762   */\n      add\n        /* \"#utility.yul\":11732:11763   */\n      calldataload\n        /* \"#utility.yul\":11790:11808   */\n      0xffffffffffffffff\n        /* \"#utility.yul\":11782:11788   */\n      dup2\n        /* \"#utility.yul\":11779:11809   */\n      gt\n        /* \"#utility.yul\":11776:11893   */\n      iszero\n      tag_384\n      jumpi\n        /* \"#utility.yul\":11812:11891   */\n      tag_385\n      tag_198\n      jump\t// in\n    tag_385:\n        /* \"#utility.yul\":11776:11893   */\n    tag_384:\n        /* \"#utility.yul\":11917:11980   */\n      tag_386\n        /* \"#utility.yul\":11972:11979   */\n      dup6\n        /* \"#utility.yul\":11963:11969   */\n      dup3\n        /* \"#utility.yul\":11952:11961   */\n      dup7\n        /* \"#utility.yul\":11948:11970   */\n      add\n        /* \"#utility.yul\":11917:11980   */\n      tag_207\n      jump\t// in\n    tag_386:\n        /* \"#utility.yul\":11907:11980   */\n      swap3\n      pop\n        /* \"#utility.yul\":11703:11990   */\n      pop\n        /* \"#utility.yul\":12029:12031   */\n      0x20\n        /* \"#utility.yul\":12055:12108   */\n      tag_387\n        /* \"#utility.yul\":12100:12107   */\n      dup6\n        /* \"#utility.yul\":12091:12097   */\n      dup3\n        /* \"#utility.yul\":12080:12089   */\n      dup7\n        /* \"#utility.yul\":12076:12098   */\n      add\n        /* \"#utility.yul\":12055:12108   */\n      tag_234\n      jump\t// in\n    tag_387:\n        /* \"#utility.yul\":12045:12108   */\n      swap2\n      pop\n        /* \"#utility.yul\":12000:12118   */\n      pop\n        /* \"#utility.yul\":11471:12125   */\n      swap3\n      pop\n      swap3\n      swap1\n      pop\n      jump\t// out\n        /* \"#utility.yul\":12131:12444   */\n    tag_39:\n        /* \"#utility.yul\":12244:12248   */\n      0x00\n        /* \"#utility.yul\":12282:12284   */\n      0x20\n        /* \"#utility.yul\":12271:12280   */\n      dup3\n        /* \"#utility.yul\":12267:12285   */\n      add\n        /* \"#utility.yul\":12259:12285   */\n      swap1\n      pop\n        /* \"#utility.yul\":12331:12340   */\n      dup2\n        /* \"#utility.yul\":12325:12329   */\n      dup2\n        /* \"#utility.yul\":12321:12341   */\n      sub\n        /* \"#utility.yul\":12317:12318   */\n      0x00\n        /* \"#utility.yul\":12306:12315   */\n      dup4\n        /* \"#utility.yul\":12302:12319   */\n      add\n        /* \"#utility.yul\":12295:12342   */\n      mstore\n        /* \"#utility.yul\":12359:12437   */\n      tag_389\n        /* \"#utility.yul\":12432:12436   */\n      dup2\n        /* \"#utility.yul\":12423:12429   */\n      dup5\n        /* \"#utility.yul\":12359:12437   */\n      tag_211\n      jump\t// in\n    tag_389:\n        /* \"#utility.yul\":12351:12437   */\n      swap1\n      pop\n        /* \"#utility.yul\":12131:12444   */\n      swap3\n      swap2\n      pop\n      pop\n      jump\t// out\n        /* \"#utility.yul\":12450:12570   */\n    tag_235:\n        /* \"#utility.yul\":12522:12545   */\n      tag_391\n        /* \"#utility.yul\":12539:12544   */\n      dup2\n        /* \"#utility.yul\":12522:12545   */\n      tag_212\n      jump\t// in\n    tag_391:\n        /* \"#utility.yul\":12515:12520   */\n      dup2\n        /* \"#utility.yul\":12512:12546   */\n      eq\n        /* \"#utility.yul\":12502:12564   */\n      tag_392\n      jumpi\n        /* \"#utility.yul\":12560:12561   */\n      0x00\n        /* \"#utility.yul\":12557:12558   */\n      0x00\n        /* \"#utility.yul\":12550:12562   */\n      revert\n        /* \"#utility.yul\":12502:12564   */\n    tag_392:\n        /* \"#utility.yul\":12450:12570   */\n      pop\n      jump\t// out\n        /* \"#utility.yul\":12576:12713   */\n    tag_236:\n        /* \"#utility.yul\":12621:12626   */\n      0x00\n        /* \"#utility.yul\":12659:12665   */\n      dup2\n        /* \"#utility.yul\":12646:12666   */\n      calldataload\n        /* \"#utility.yul\":12637:12666   */\n      swap1\n      pop\n        /* \"#utility.yul\":12675:12707   */\n      tag_394\n        /* \"#utility.yul\":12701:12706   */\n      dup2\n        /* \"#utility.yul\":12675:12707   */\n      tag_235\n      jump\t// in\n    tag_394:\n        /* \"#utility.yul\":12576:12713   */\n      swap3\n      swap2\n      pop\n      pop\n      jump\t// out\n        /* \"#utility.yul\":12719:14022   */\n    tag_42:\n        /* \"#utility.yul\":12834:12840   */\n      0x00\n        /* \"#utility.yul\":12842:12848   */\n      0x00\n        /* \"#utility.yul\":12850:12856   */\n      0x00\n        /* \"#utility.yul\":12858:12864   */\n      0x00\n        /* \"#utility.yul\":12907:12910   */\n      0x80\n        /* \"#utility.yul\":12895:12904   */\n      dup6\n        /* \"#utility.yul\":12886:12893   */\n      dup8\n        /* \"#utility.yul\":12882:12905   */\n      sub\n        /* \"#utility.yul\":12878:12911   */\n      slt\n        /* \"#utility.yul\":12875:12995   */\n      iszero\n      tag_396\n      jumpi\n        /* \"#utility.yul\":12914:12993   */\n      tag_397\n      tag_197\n      jump\t// in\n    tag_397:\n        /* \"#utility.yul\":12875:12995   */\n    tag_396:\n        /* \"#utility.yul\":13062:13063   */\n      0x00\n        /* \"#utility.yul\":13051:13060   */\n      dup6\n        /* \"#utility.yul\":13047:13064   */\n      add\n        /* \"#utility.yul\":13034:13065   */\n      calldataload\n        /* \"#utility.yul\":13092:13110   */\n      0xffffffffffffffff\n        /* \"#utility.yul\":13084:13090   */\n      dup2\n        /* \"#utility.yul\":13081:13111   */\n      gt\n        /* \"#utility.yul\":13078:13195   */\n      iszero\n      tag_398\n      jumpi\n        /* \"#utility.yul\":13114:13193   */\n      tag_399\n      tag_198\n      jump\t// in\n    tag_399:\n        /* \"#utility.yul\":13078:13195   */\n    tag_398:\n        /* \"#utility.yul\":13219:13282   */\n      tag_400\n        /* \"#utility.yul\":13274:13281   */\n      dup8\n        /* \"#utility.yul\":13265:13271   */\n      dup3\n        /* \"#utility.yul\":13254:13263   */\n      dup9\n        /* \"#utility.yul\":13250:13272   */\n      add\n        /* \"#utility.yul\":13219:13282   */\n      tag_207\n      jump\t// in\n    tag_400:\n        /* \"#utility.yul\":13209:13282   */\n      swap5\n      pop\n        /* \"#utility.yul\":13005:13292   */\n      pop\n        /* \"#utility.yul\":13359:13361   */\n      0x20\n        /* \"#utility.yul\":13348:13357   */\n      dup6\n        /* \"#utility.yul\":13344:13362   */\n      add\n        /* \"#utility.yul\":13331:13363   */\n      calldataload\n        /* \"#utility.yul\":13390:13408   */\n      0xffffffffffffffff\n        /* \"#utility.yul\":13382:13388   */\n      dup2\n        /* \"#utility.yul\":13379:13409   */\n      gt\n        /* \"#utility.yul\":13376:13493   */\n      iszero\n      tag_401\n      jumpi\n        /* \"#utility.yul\":13412:13491   */\n      tag_402\n      tag_198\n      jump\t// in\n    tag_402:\n        /* \"#utility.yul\":13376:13493   */\n    tag_401:\n        /* \"#utility.yul\":13517:13580   */\n      tag_403\n        /* \"#utility.yul\":13572:13579   */\n      dup8\n        /* \"#utility.yul\":13563:13569   */\n      dup3\n        /* \"#utility.yul\":13552:13561   */\n      dup9\n        /* \"#utility.yul\":13548:13570   */\n      add\n        /* \"#utility.yul\":13517:13580   */\n      tag_207\n      jump\t// in\n    tag_403:\n        /* \"#utility.yul\":13507:13580   */\n      swap4\n      pop\n        /* \"#utility.yul\":13302:13590   */\n      pop\n        /* \"#utility.yul\":13657:13659   */\n      0x40\n        /* \"#utility.yul\":13646:13655   */\n      dup6\n        /* \"#utility.yul\":13642:13660   */\n      add\n        /* \"#utility.yul\":13629:13661   */\n      calldataload\n        /* \"#utility.yul\":13688:13706   */\n      0xffffffffffffffff\n        /* \"#utility.yul\":13680:13686   */\n      dup2\n        /* \"#utility.yul\":13677:13707   */\n      gt\n        /* \"#utility.yul\":13674:13791   */\n      iszero\n      tag_404\n      jumpi\n        /* \"#utility.yul\":13710:13789   */\n      tag_405\n      tag_198\n      jump\t// in\n    tag_405:\n        /* \"#utility.yul\":13674:13791   */\n    tag_404:\n        /* \"#utility.yul\":13815:13878   */\n      tag_406\n        /* \"#utility.yul\":13870:13877   */\n      dup8\n        /* \"#utility.yul\":13861:13867   */\n      dup3\n        /* \"#utility.yul\":13850:13859   */\n      dup9\n        /* \"#utility.yul\":13846:13868   */\n      add\n        /* \"#utility.yul\":13815:13878   */\n      tag_207\n      jump\t// in\n    tag_406:\n        /* \"#utility.yul\":13805:13878   */\n      swap3\n      pop\n        /* \"#utility.yul\":13600:13888   */\n      pop\n        /* \"#utility.yul\":13927:13929   */\n      0x60\n        /* \"#utility.yul\":13953:14005   */\n      tag_407\n        /* \"#utility.yul\":13997:14004   */\n      dup8\n        /* \"#utility.yul\":13988:13994   */\n      dup3\n        /* \"#utility.yul\":13977:13986   */\n      dup9\n        /* \"#utility.yul\":13973:13995   */\n      add\n        /* \"#utility.yul\":13953:14005   */\n      tag_236\n      jump\t// in\n    tag_407:\n        /* \"#utility.yul\":13943:14005   */\n      swap2\n      pop\n        /* \"#utility.yul\":13898:14015   */\n      pop\n        /* \"#utility.yul\":12719:14022   */\n      swap3\n      swap6\n      swap2\n      swap5\n      pop\n      swap3\n      pop\n      jump\t// out\n        /* \"#utility.yul\":14028:15005   */\n    tag_49:\n        /* \"#utility.yul\":14124:14130   */\n      0x00\n        /* \"#utility.yul\":14132:14138   */\n      0x00\n        /* \"#utility.yul\":14140:14146   */\n      0x00\n        /* \"#utility.yul\":14189:14191   */\n      0x60\n        /* \"#utility.yul\":14177:14186   */\n      dup5\n        /* \"#utility.yul\":14168:14175   */\n      dup7\n        /* \"#utility.yul\":14164:14187   */\n      sub\n        /* \"#utility.yul\":14160:14192   */\n      slt\n        /* \"#utility.yul\":14157:14276   */\n      iszero\n      tag_409\n      jumpi\n        /* \"#utility.yul\":14195:14274   */\n      tag_410\n      tag_197\n      jump\t// in\n    tag_410:\n        /* \"#utility.yul\":14157:14276   */\n    tag_409:\n        /* \"#utility.yul\":14343:14344   */\n      0x00\n        /* \"#utility.yul\":14332:14341   */\n      dup5\n        /* \"#utility.yul\":14328:14345   */\n      add\n        /* \"#utility.yul\":14315:14346   */\n      calldataload\n        /* \"#utility.yul\":14373:14391   */\n      0xffffffffffffffff\n        /* \"#utility.yul\":14365:14371   */\n      dup2\n        /* \"#utility.yul\":14362:14392   */\n      gt\n        /* \"#utility.yul\":14359:14476   */\n      iszero\n      tag_411\n      jumpi\n        /* \"#utility.yul\":14395:14474   */\n      tag_412\n      tag_198\n      jump\t// in\n    tag_412:\n        /* \"#utility.yul\":14359:14476   */\n    tag_411:\n        /* \"#utility.yul\":14500:14563   */\n      tag_413\n        /* \"#utility.yul\":14555:14562   */\n      dup7\n        /* \"#utility.yul\":14546:14552   */\n      dup3\n        /* \"#utility.yul\":14535:14544   */\n      dup8\n        /* \"#utility.yul\":14531:14553   */\n      add\n        /* \"#utility.yul\":14500:14563   */\n      tag_207\n      jump\t// in\n    tag_413:\n        /* \"#utility.yul\":14490:14563   */\n      swap4\n      pop\n        /* \"#utility.yul\":14286:14573   */\n      pop\n        /* \"#utility.yul\":14640:14642   */\n      0x20\n        /* \"#utility.yul\":14629:14638   */\n      dup5\n        /* \"#utility.yul\":14625:14643   */\n      add\n        /* \"#utility.yul\":14612:14644   */\n      calldataload\n        /* \"#utility.yul\":14671:14689   */\n      0xffffffffffffffff\n        /* \"#utility.yul\":14663:14669   */\n      dup2\n        /* \"#utility.yul\":14660:14690   */\n      gt\n        /* \"#utility.yul\":14657:14774   */\n      iszero\n      tag_414\n      jumpi\n        /* \"#utility.yul\":14693:14772   */\n      tag_415\n      tag_198\n      jump\t// in\n    tag_415:\n        /* \"#utility.yul\":14657:14774   */\n    tag_414:\n        /* \"#utility.yul\":14798:14861   */\n      tag_416\n        /* \"#utility.yul\":14853:14860   */\n      dup7\n        /* \"#utility.yul\":14844:14850   */\n      dup3\n        /* \"#utility.yul\":14833:14842   */\n      dup8\n        /* \"#utility.yul\":14829:14851   */\n      add\n        /* \"#utility.yul\":14798:14861   */\n      tag_207\n      jump\t// in\n    tag_416:\n        /* \"#utility.yul\":14788:14861   */\n      swap3\n      pop\n        /* \"#utility.yul\":14583:14871   */\n      pop\n        /* \"#utility.yul\":14910:14912   */\n      0x40\n        /* \"#utility.yul\":14936:14988   */\n      tag_417\n        /* \"#utility.yul\":14980:14987   */\n      dup7\n        /* \"#utility.yul\":14971:14977   */\n      dup3\n        /* \"#utility.yul\":14960:14969   */\n      dup8\n        /* \"#utility.yul\":14956:14978   */\n      add\n        /* \"#utility.yul\":14936:14988   */\n      tag_236\n      jump\t// in\n    tag_417:\n        /* \"#utility.yul\":14926:14988   */\n      swap2\n      pop\n        /* \"#utility.yul\":14881:14998   */\n      pop\n        /* \"#utility.yul\":14028:15005   */\n      swap3\n      pop\n      swap3\n      pop\n      swap3\n      jump\t// out\n        /* \"#utility.yul\":15011:15191   */\n    tag_237:\n        /* \"#utility.yul\":15059:15136   */\n      0x4e487b7100000000000000000000000000000000000000000000000000000000\n        /* \"#utility.yul\":15056:15057   */\n      0x00\n        /* \"#utility.yul\":15049:15137   */\n      mstore\n        /* \"#utility.yul\":15156:15160   */\n      0x22\n        /* \"#utility.yul\":15153:15154   */\n      0x04\n        /* \"#utility.yul\":15146:15161   */\n      mstore\n        /* \"#utility.yul\":15180:15184   */\n      0x24\n        /* \"#utility.yul\":15177:15178   */\n      0x00\n        /* \"#utility.yul\":15170:15185   */\n      revert\n        /* \"#utility.yul\":15197:15517   */\n    tag_52:\n        /* \"#utility.yul\":15241:15247   */\n      0x00\n        /* \"#utility.yul\":15278:15279   */\n      0x02\n        /* \"#utility.yul\":15272:15276   */\n      dup3\n        /* \"#utility.yul\":15268:15280   */\n      div\n        /* \"#utility.yul\":15258:15280   */\n      swap1\n      pop\n        /* \"#utility.yul\":15325:15326   */\n      0x01\n        /* \"#utility.yul\":15319:15323   */\n      dup3\n        /* \"#utility.yul\":15315:15327   */\n      and\n        /* \"#utility.yul\":15346:15364   */\n      dup1\n        /* \"#utility.yul\":15336:15417   */\n      tag_420\n      jumpi\n        /* \"#utility.yul\":15402:15406   */\n      0x7f\n        /* \"#utility.yul\":15394:15400   */\n      dup3\n        /* \"#utility.yul\":15390:15407   */\n      and\n        /* \"#utility.yul\":15380:15407   */\n      swap2\n      pop\n        /* \"#utility.yul\":15336:15417   */\n    tag_420:\n        /* \"#utility.yul\":15464:15466   */\n      0x20\n        /* \"#utility.yul\":15456:15462   */\n      dup3\n        /* \"#utility.yul\":15453:15467   */\n      lt\n        /* \"#utility.yul\":15433:15451   */\n      dup2\n        /* \"#utility.yul\":15430:15468   */\n      sub\n        /* \"#utility.yul\":15427:15511   */\n      tag_421\n      jumpi\n        /* \"#utility.yul\":15483:15501   */\n      tag_422\n      tag_237\n      jump\t// in\n    tag_422:\n        /* \"#utility.yul\":15427:15511   */\n    tag_421:\n        /* \"#utility.yul\":15248:15517   */\n      pop\n        /* \"#utility.yul\":15197:15517   */\n      swap2\n      swap1\n      pop\n      jump\t// out\n        /* \"#utility.yul\":15523:15671   */\n    tag_238:\n        /* \"#utility.yul\":15625:15636   */\n      0x00\n        /* \"#utility.yul\":15662:15665   */\n      dup2\n        /* \"#utility.yul\":15647:15665   */\n      swap1\n      pop\n        /* \"#utility.yul\":15523:15671   */\n      swap3\n      swap2\n      pop\n      pop\n      jump\t// out\n        /* \"#utility.yul\":15677:16067   */\n    tag_239:\n        /* \"#utility.yul\":15783:15786   */\n      0x00\n        /* \"#utility.yul\":15811:15850   */\n      tag_425\n        /* \"#utility.yul\":15844:15849   */\n      dup3\n        /* \"#utility.yul\":15811:15850   */\n      tag_208\n      jump\t// in\n    tag_425:\n        /* \"#utility.yul\":15866:15955   */\n      tag_426\n        /* \"#utility.yul\":15948:15954   */\n      dup2\n        /* \"#utility.yul\":15943:15946   */\n      dup6\n        /* \"#utility.yul\":15866:15955   */\n      tag_238\n      jump\t// in\n    tag_426:\n        /* \"#utility.yul\":15859:15955   */\n      swap4\n      pop\n        /* \"#utility.yul\":15964:16029   */\n      tag_427\n        /* \"#utility.yul\":16022:16028   */\n      dup2\n        /* \"#utility.yul\":16017:16020   */\n      dup6\n        /* \"#utility.yul\":16010:16014   */\n      0x20\n        /* \"#utility.yul\":16003:16008   */\n      dup7\n        /* \"#utility.yul\":15999:16015   */\n      add\n        /* \"#utility.yul\":15964:16029   */\n      tag_210\n      jump\t// in\n    tag_427:\n        /* \"#utility.yul\":16054:16060   */\n      dup1\n        /* \"#utility.yul\":16049:16052   */\n      dup5\n        /* \"#utility.yul\":16045:16061   */\n      add\n        /* \"#utility.yul\":16038:16061   */\n      swap2\n      pop\n        /* \"#utility.yul\":15787:16067   */\n      pop\n        /* \"#utility.yul\":15677:16067   */\n      swap3\n      swap2\n      pop\n      pop\n      jump\t// out\n        /* \"#utility.yul\":16073:16348   */\n    tag_59:\n        /* \"#utility.yul\":16205:16208   */\n      0x00\n        /* \"#utility.yul\":16227:16322   */\n      tag_429\n        /* \"#utility.yul\":16318:16321   */\n      dup3\n        /* \"#utility.yul\":16309:16315   */\n      dup5\n        /* \"#utility.yul\":16227:16322   */\n      tag_239\n      jump\t// in\n    tag_429:\n        /* \"#utility.yul\":16220:16322   */\n      swap2\n      pop\n        /* \"#utility.yul\":16339:16342   */\n      dup2\n        /* \"#utility.yul\":16332:16342   */\n      swap1\n      pop\n        /* \"#utility.yul\":16073:16348   */\n      swap3\n      swap2\n      pop\n      pop\n      jump\t// out\n        /* \"#utility.yul\":16354:16534   */\n    tag_86:\n        /* \"#utility.yul\":16402:16479   */\n      0x4e487b7100000000000000000000000000000000000000000000000000000000\n        /* \"#utility.yul\":16399:16400   */\n      0x00\n        /* \"#utility.yul\":16392:16480   */\n      mstore\n        /* \"#utility.yul\":16499:16503   */\n      0x32\n        /* \"#utility.yul\":16496:16497   */\n      0x04\n        /* \"#utility.yul\":16489:16504   */\n      mstore\n        /* \"#utility.yul\":16523:16527   */\n      0x24\n        /* \"#utility.yul\":16520:16521   */\n      0x00\n        /* \"#utility.yul\":16513:16528   */\n      revert\n        /* \"#utility.yul\":16540:16709   */\n    tag_240:\n        /* \"#utility.yul\":16680:16701   */\n      0x426f6f6b20646f6573206e6f7420657869737400000000000000000000000000\n        /* \"#utility.yul\":16676:16677   */\n      0x00\n        /* \"#utility.yul\":16668:16674   */\n      dup3\n        /* \"#utility.yul\":16664:16678   */\n      add\n        /* \"#utility.yul\":16657:16702   */\n      mstore\n        /* \"#utility.yul\":16540:16709   */\n      pop\n      jump\t// out\n        /* \"#utility.yul\":16715:17081   */\n    tag_241:\n        /* \"#utility.yul\":16857:16860   */\n      0x00\n        /* \"#utility.yul\":16878:16945   */\n      tag_433\n        /* \"#utility.yul\":16942:16944   */\n      0x13\n        /* \"#utility.yul\":16937:16940   */\n      dup4\n        /* \"#utility.yul\":16878:16945   */\n      tag_209\n      jump\t// in\n    tag_433:\n        /* \"#utility.yul\":16871:16945   */\n      swap2\n      pop\n        /* \"#utility.yul\":16954:17047   */\n      tag_434\n        /* \"#utility.yul\":17043:17046   */\n      dup3\n        /* \"#utility.yul\":16954:17047   */\n      tag_240\n      jump\t// in\n    tag_434:\n        /* \"#utility.yul\":17072:17074   */\n      0x20\n        /* \"#utility.yul\":17067:17070   */\n      dup3\n        /* \"#utility.yul\":17063:17075   */\n      add\n        /* \"#utility.yul\":17056:17075   */\n      swap1\n      pop\n        /* \"#utility.yul\":16715:17081   */\n      swap2\n      swap1\n      pop\n      jump\t// out\n        /* \"#utility.yul\":17087:17506   */\n    tag_111:\n        /* \"#utility.yul\":17253:17257   */\n      0x00\n        /* \"#utility.yul\":17291:17293   */\n      0x20\n        /* \"#utility.yul\":17280:17289   */\n      dup3\n        /* \"#utility.yul\":17276:17294   */\n      add\n        /* \"#utility.yul\":17268:17294   */\n      swap1\n      pop\n        /* \"#utility.yul\":17340:17349   */\n      dup2\n        /* \"#utility.yul\":17334:17338   */\n      dup2\n        /* \"#utility.yul\":17330:17350   */\n      sub\n        /* \"#utility.yul\":17326:17327   */\n      0x00\n        /* \"#utility.yul\":17315:17324   */\n      dup4\n        /* \"#utility.yul\":17311:17328   */\n      add\n        /* \"#utility.yul\":17304:17351   */\n      mstore\n        /* \"#utility.yul\":17368:17499   */\n      tag_436\n        /* \"#utility.yul\":17494:17498   */\n      dup2\n        /* \"#utility.yul\":17368:17499   */\n      tag_241\n      jump\t// in\n    tag_436:\n        /* \"#utility.yul\":17360:17499   */\n      swap1\n      pop\n        /* \"#utility.yul\":17087:17506   */\n      swap2\n      swap1\n      pop\n      jump\t// out\n        /* \"#utility.yul\":17512:17653   */\n    tag_242:\n        /* \"#utility.yul\":17561:17565   */\n      0x00\n        /* \"#utility.yul\":17584:17587   */\n      dup2\n        /* \"#utility.yul\":17576:17587   */\n      swap1\n      pop\n        /* \"#utility.yul\":17607:17610   */\n      dup2\n        /* \"#utility.yul\":17604:17605   */\n      0x00\n        /* \"#utility.yul\":17597:17611   */\n      mstore\n        /* \"#utility.yul\":17641:17645   */\n      0x20\n        /* \"#utility.yul\":17638:17639   */\n      0x00\n        /* \"#utility.yul\":17628:17646   */\n      keccak256\n        /* \"#utility.yul\":17620:17646   */\n      swap1\n      pop\n        /* \"#utility.yul\":17512:17653   */\n      swap2\n      swap1\n      pop\n      jump\t// out\n        /* \"#utility.yul\":17659:17752   */\n    tag_243:\n        /* \"#utility.yul\":17696:17702   */\n      0x00\n        /* \"#utility.yul\":17743:17745   */\n      0x20\n        /* \"#utility.yul\":17738:17740   */\n      0x1f\n        /* \"#utility.yul\":17731:17736   */\n      dup4\n        /* \"#utility.yul\":17727:17741   */\n      add\n        /* \"#utility.yul\":17723:17746   */\n      div\n        /* \"#utility.yul\":17713:17746   */\n      swap1\n      pop\n        /* \"#utility.yul\":17659:17752   */\n      swap2\n      swap1\n      pop\n      jump\t// out\n        /* \"#utility.yul\":17758:17865   */\n    tag_244:\n        /* \"#utility.yul\":17802:17810   */\n      0x00\n        /* \"#utility.yul\":17852:17857   */\n      dup3\n        /* \"#utility.yul\":17846:17850   */\n      dup3\n        /* \"#utility.yul\":17842:17858   */\n      shl\n        /* \"#utility.yul\":17821:17858   */\n      swap1\n      pop\n        /* \"#utility.yul\":17758:17865   */\n      swap3\n      swap2\n      pop\n      pop\n      jump\t// out\n        /* \"#utility.yul\":17871:18264   */\n    tag_245:\n        /* \"#utility.yul\":17940:17946   */\n      0x00\n        /* \"#utility.yul\":17990:17991   */\n      0x08\n        /* \"#utility.yul\":17978:17988   */\n      dup4\n        /* \"#utility.yul\":17974:17992   */\n      mul\n        /* \"#utility.yul\":18013:18110   */\n      tag_441\n        /* \"#utility.yul\":18043:18109   */\n      0xffffffffffffffffffffffffffffffffffffffffffffffffffffffffffffffff\n        /* \"#utility.yul\":18032:18041   */\n      dup3\n        /* \"#utility.yul\":18013:18110   */\n      tag_244\n      jump\t// in\n    tag_441:\n        /* \"#utility.yul\":18131:18170   */\n      tag_442\n        /* \"#utility.yul\":18161:18169   */\n      dup7\n        /* \"#utility.yul\":18150:18159   */\n      dup4\n        /* \"#utility.yul\":18131:18170   */\n      tag_244\n      jump\t// in\n    tag_442:\n        /* \"#utility.yul\":18119:18170   */\n      swap6\n      pop\n        /* \"#utility.yul\":18203:18207   */\n      dup1\n        /* \"#utility.yul\":18199:18208   */\n      not\n        /* \"#utility.yul\":18192:18197   */\n      dup5\n        /* \"#utility.yul\":18188:18209   */\n      and\n        /* \"#utility.yul\":18179:18209   */\n      swap4\n      pop\n        /* \"#utility.yul\":18252:18256   */\n      dup1\n        /* \"#utility.yul\":18242:18250   */\n      dup7\n        /* \"#utility.yul\":18238:18257   */\n      and\n        /* \"#utility.yul\":18231:18236   */\n      dup5\n        /* \"#utility.yul\":18228:18258   */\n      or\n        /* \"#utility.yul\":18218:18258   */\n      swap3\n      pop\n        /* \"#utility.yul\":17947:18264   */\n      pop\n      pop\n        /* \"#utility.yul\":17871:18264   */\n      swap4\n      swap3\n      pop\n      pop\n      pop\n      jump\t// out\n        /* \"#utility.yul\":18270:18330   */\n    tag_246:\n        /* \"#utility.yul\":18298:18301   */\n      0x00\n        /* \"#utility.yul\":18319:18324   */\n      dup2\n        /* \"#utility.yul\":18312:18324   */\n      swap1\n      pop\n        /* \"#utility.yul\":18270:18330   */\n      swap2\n      swap1\n      pop\n      jump\t// out\n        /* \"#utility.yul\":18336:18478   */\n    tag_247:\n        /* \"#utility.yul\":18386:18395   */\n      0x00\n        /* \"#utility.yul\":18419:18472   */\n      tag_445\n        /* \"#utility.yul\":18437:18471   */\n      tag_446\n        /* \"#utility.yul\":18446:18470   */\n      tag_447\n        /* \"#utility.yul\":18464:18469   */\n      dup5\n        /* \"#utility.yul\":18446:18470   */\n      tag_216\n      jump\t// in\n    tag_447:\n        /* \"#utility.yul\":18437:18471   */\n      tag_246\n      jump\t// in\n    tag_446:\n        /* \"#utility.yul\":18419:18472   */\n      tag_216\n      jump\t// in\n    tag_445:\n        /* \"#utility.yul\":18406:18472   */\n      swap1\n      pop\n        /* \"#utility.yul\":18336:18478   */\n      swap2\n      swap1\n      pop\n      jump\t// out\n        /* \"#utility.yul\":18484:18559   */\n    tag_248:\n        /* \"#utility.yul\":18527:18530   */\n      0x00\n        /* \"#utility.yul\":18548:18553   */\n      dup2\n        /* \"#utility.yul\":18541:18553   */\n      swap1\n      pop\n        /* \"#utility.yul\":18484:18559   */\n      swap2\n      swap1\n      pop\n      jump\t// out\n        /* \"#utility.yul\":18565:18834   */\n    tag_249:\n        /* \"#utility.yul\":18675:18714   */\n      tag_450\n        /* \"#utility.yul\":18706:18713   */\n      dup4\n        /* \"#utility.yul\":18675:18714   */\n      tag_247\n      jump\t// in\n    tag_450:\n        /* \"#utility.yul\":18736:18827   */\n      tag_451\n        /* \"#utility.yul\":18785:18826   */\n      tag_452\n        /* \"#utility.yul\":18809:18825   */\n      dup3\n        /* \"#utility.yul\":18785:18826   */\n      tag_248\n      jump\t// in\n    tag_452:\n        /* \"#utility.yul\":18777:18783   */\n      dup5\n        /* \"#utility.yul\":18770:18774   */\n      dup5\n        /* \"#utility.yul\":18764:18775   */\n      sload\n        /* \"#utility.yul\":18736:18827   */\n      tag_245\n      jump\t// in\n    tag_451:\n        /* \"#utility.yul\":18730:18734   */\n      dup3\n        /* \"#utility.yul\":18723:18828   */\n      sstore\n        /* \"#utility.yul\":18641:18834   */\n      pop\n        /* \"#utility.yul\":18565:18834   */\n      pop\n      pop\n      pop\n      jump\t// out\n        /* \"#utility.yul\":18840:18913   */\n    tag_250:\n        /* \"#utility.yul\":18885:18888   */\n      0x00\n        /* \"#utility.yul\":18906:18907   */\n      0x00\n        /* \"#utility.yul\":18899:18907   */\n      swap1\n      pop\n        /* \"#utility.yul\":18840:18913   */\n      swap1\n      jump\t// out\n        /* \"#utility.yul\":18919:19108   */\n    tag_251:\n        /* \"#utility.yul\":18996:19028   */\n      tag_455\n      tag_250\n      jump\t// in\n    tag_455:\n        /* \"#utility.yul\":19037:19102   */\n      tag_456\n        /* \"#utility.yul\":19095:19101   */\n      dup2\n        /* \"#utility.yul\":19087:19093   */\n      dup5\n        /* \"#utility.yul\":19081:19085   */\n      dup5\n        /* \"#utility.yul\":19037:19102   */\n      tag_249\n      jump\t// in\n    tag_456:\n        /* \"#utility.yul\":18972:19108   */\n      pop\n        /* \"#utility.yul\":18919:19108   */\n      pop\n      pop\n      jump\t// out\n        /* \"#utility.yul\":19114:19300   */\n    tag_252:\n        /* \"#utility.yul\":19174:19294   */\n    tag_458:\n        /* \"#utility.yul\":19191:19194   */\n      dup2\n        /* \"#utility.yul\":19184:19189   */\n      dup2\n        /* \"#utility.yul\":19181:19195   */\n      lt\n        /* \"#utility.yul\":19174:19294   */\n      iszero\n      tag_460\n      jumpi\n        /* \"#utility.yul\":19245:19284   */\n      tag_461\n        /* \"#utility.yul\":19282:19283   */\n      0x00\n        /* \"#utility.yul\":19275:19280   */\n      dup3\n        /* \"#utility.yul\":19245:19284   */\n      tag_251\n      jump\t// in\n    tag_461:\n        /* \"#utility.yul\":19218:19219   */\n      0x01\n        /* \"#utility.yul\":19211:19216   */\n      dup2\n        /* \"#utility.yul\":19207:19220   */\n      add\n        /* \"#utility.yul\":19198:19220   */\n      swap1\n      pop\n        /* \"#utility.yul\":19174:19294   */\n      jump(tag_458)\n    tag_460:\n        /* \"#utility.yul\":19114:19300   */\n      pop\n      pop\n      jump\t// out\n        /* \"#utility.yul\":19306:19849   */\n    tag_253:\n        /* \"#utility.yul\":19407:19409   */\n      0x1f\n        /* \"#utility.yul\":19402:19405   */\n      dup3\n        /* \"#utility.yul\":19399:19410   */\n      gt\n        /* \"#utility.yul\":19396:19842   */\n      iszero\n      tag_463\n      jumpi\n        /* \"#utility.yul\":19441:19479   */\n      tag_464\n        /* \"#utility.yul\":19473:19478   */\n      dup2\n        /* \"#utility.yul\":19441:19479   */\n      tag_242\n      jump\t// in\n    tag_464:\n        /* \"#utility.yul\":19525:19554   */\n      tag_465\n        /* \"#utility.yul\":19543:19553   */\n      dup5\n        /* \"#utility.yul\":19525:19554   */\n      tag_243\n      jump\t// in\n    tag_465:\n        /* \"#utility.yul\":19515:19523   */\n      dup2\n        /* \"#utility.yul\":19511:19555   */\n      add\n        /* \"#utility.yul\":19708:19710   */\n      0x20\n        /* \"#utility.yul\":19696:19706   */\n      dup6\n        /* \"#utility.yul\":19693:19711   */\n      lt\n        /* \"#utility.yul\":19690:19739   */\n      iszero\n      tag_466\n      jumpi\n        /* \"#utility.yul\":19729:19737   */\n      dup2\n        /* \"#utility.yul\":19714:19737   */\n      swap1\n      pop\n        /* \"#utility.yul\":19690:19739   */\n    tag_466:\n        /* \"#utility.yul\":19752:19832   */\n      tag_467\n        /* \"#utility.yul\":19808:19830   */\n      tag_468\n        /* \"#utility.yul\":19826:19829   */\n      dup6\n        /* \"#utility.yul\":19808:19830   */\n      tag_243\n      jump\t// in\n    tag_468:\n        /* \"#utility.yul\":19798:19806   */\n      dup4\n        /* \"#utility.yul\":19794:19831   */\n      add\n        /* \"#utility.yul\":19781:19792   */\n      dup3\n        /* \"#utility.yul\":19752:19832   */\n      tag_252\n      jump\t// in\n    tag_467:\n        /* \"#utility.yul\":19411:19842   */\n      pop\n      pop\n        /* \"#utility.yul\":19396:19842   */\n    tag_463:\n        /* \"#utility.yul\":19306:19849   */\n      pop\n      pop\n      pop\n      jump\t// out\n        /* \"#utility.yul\":19855:19972   */\n    tag_254:\n        /* \"#utility.yul\":19909:19917   */\n      0x00\n        /* \"#utility.yul\":19959:19964   */\n      dup3\n        /* \"#utility.yul\":19953:19957   */\n      dup3\n        /* \"#utility.yul\":19949:19965   */\n      shr\n        /* \"#utility.yul\":19928:19965   */\n      swap1\n      pop\n        /* \"#utility.yul\":19855:19972   */\n      swap3\n      swap2\n      pop\n      pop\n      jump\t// out\n        /* \"#utility.yul\":19978:20147   */\n    tag_255:\n        /* \"#utility.yul\":20022:20028   */\n      0x00\n        /* \"#utility.yul\":20055:20106   */\n      tag_471\n        /* \"#utility.yul\":20103:20104   */\n      0x00\n        /* \"#utility.yul\":20099:20105   */\n      not\n        /* \"#utility.yul\":20091:20096   */\n      dup5\n        /* \"#utility.yul\":20088:20089   */\n      0x08\n        /* \"#utility.yul\":20084:20097   */\n      mul\n        /* \"#utility.yul\":20055:20106   */\n      tag_254\n      jump\t// in\n    tag_471:\n        /* \"#utility.yul\":20051:20107   */\n      not\n        /* \"#utility.yul\":20136:20140   */\n      dup1\n        /* \"#utility.yul\":20130:20134   */\n      dup4\n        /* \"#utility.yul\":20126:20141   */\n      and\n        /* \"#utility.yul\":20116:20141   */\n      swap2\n      pop\n        /* \"#utility.yul\":20029:20147   */\n      pop\n        /* \"#utility.yul\":19978:20147   */\n      swap3\n      swap2\n      pop\n      pop\n      jump\t// out\n        /* \"#utility.yul\":20152:20447   */\n    tag_256:\n        /* \"#utility.yul\":20228:20232   */\n      0x00\n        /* \"#utility.yul\":20374:20403   */\n      tag_473\n        /* \"#utility.yul\":20399:20402   */\n      dup4\n        /* \"#utility.yul\":20393:20397   */\n      dup4\n        /* \"#utility.yul\":20374:20403   */\n      tag_255\n      jump\t// in\n    tag_473:\n        /* \"#utility.yul\":20366:20403   */\n      swap2\n      pop\n        /* \"#utility.yul\":20436:20439   */\n      dup3\n        /* \"#utility.yul\":20433:20434   */\n      0x02\n        /* \"#utility.yul\":20429:20440   */\n      mul\n        /* \"#utility.yul\":20423:20427   */\n      dup3\n        /* \"#utility.yul\":20420:20441   */\n      or\n        /* \"#utility.yul\":20412:20441   */\n      swap1\n      pop\n        /* \"#utility.yul\":20152:20447   */\n      swap3\n      swap2\n      pop\n      pop\n      jump\t// out\n        /* \"#utility.yul\":20452:21847   */\n    tag_116:\n        /* \"#utility.yul\":20569:20606   */\n      tag_475\n        /* \"#utility.yul\":20602:20605   */\n      dup3\n        /* \"#utility.yul\":20569:20606   */\n      tag_208\n      jump\t// in\n    tag_475:\n        /* \"#utility.yul\":20671:20689   */\n      0xffffffffffffffff\n        /* \"#utility.yul\":20663:20669   */\n      dup2\n        /* \"#utility.yul\":20660:20690   */\n      gt\n        /* \"#utility.yul\":20657:20713   */\n      iszero\n      tag_476\n      jumpi\n        /* \"#utility.yul\":20693:20711   */\n      tag_477\n      tag_74\n      jump\t// in\n    tag_477:\n        /* \"#utility.yul\":20657:20713   */\n    tag_476:\n        /* \"#utility.yul\":20737:20775   */\n      tag_478\n        /* \"#utility.yul\":20769:20773   */\n      dup3\n        /* \"#utility.yul\":20763:20774   */\n      sload\n        /* \"#utility.yul\":20737:20775   */\n      tag_52\n      jump\t// in\n    tag_478:\n        /* \"#utility.yul\":20822:20889   */\n      tag_479\n        /* \"#utility.yul\":20882:20888   */\n      dup3\n        /* \"#utility.yul\":20874:20880   */\n      dup3\n        /* \"#utility.yul\":20868:20872   */\n      dup6\n        /* \"#utility.yul\":20822:20889   */\n      tag_253\n      jump\t// in\n    tag_479:\n        /* \"#utility.yul\":20916:20917   */\n      0x00\n        /* \"#utility.yul\":20940:20944   */\n      0x20\n        /* \"#utility.yul\":20927:20944   */\n      swap1\n      pop\n        /* \"#utility.yul\":20972:20974   */\n      0x1f\n        /* \"#utility.yul\":20964:20970   */\n      dup4\n        /* \"#utility.yul\":20961:20975   */\n      gt\n        /* \"#utility.yul\":20989:20990   */\n      0x01\n        /* \"#utility.yul\":20984:21602   */\n      dup2\n      eq\n      tag_481\n      jumpi\n        /* \"#utility.yul\":21646:21647   */\n      0x00\n        /* \"#utility.yul\":21663:21669   */\n      dup5\n        /* \"#utility.yul\":21660:21737   */\n      iszero\n      tag_482\n      jumpi\n        /* \"#utility.yul\":21712:21721   */\n      dup3\n        /* \"#utility.yul\":21707:21710   */\n      dup8\n        /* \"#utility.yul\":21703:21722   */\n      add\n        /* \"#utility.yul\":21697:21723   */\n      mload\n        /* \"#utility.yul\":21688:21723   */\n      swap1\n      pop\n        /* \"#utility.yul\":21660:21737   */\n    tag_482:\n        /* \"#utility.yul\":21763:21830   */\n      tag_483\n        /* \"#utility.yul\":21823:21829   */\n      dup6\n        /* \"#utility.yul\":21816:21821   */\n      dup3\n        /* \"#utility.yul\":21763:21830   */\n      tag_256\n      jump\t// in\n    tag_483:\n        /* \"#utility.yul\":21757:21761   */\n      dup7\n        /* \"#utility.yul\":21750:21831   */\n      sstore\n        /* \"#utility.yul\":21619:21841   */\n      pop\n        /* \"#utility.yul\":20954:21841   */\n      jump(tag_480)\n        /* \"#utility.yul\":20984:21602   */\n    tag_481:\n        /* \"#utility.yul\":21036:21040   */\n      0x1f\n        /* \"#utility.yul\":21032:21041   */\n      not\n        /* \"#utility.yul\":21024:21030   */\n      dup5\n        /* \"#utility.yul\":21020:21042   */\n      and\n        /* \"#utility.yul\":21070:21107   */\n      tag_484\n        /* \"#utility.yul\":21102:21106   */\n      dup7\n        /* \"#utility.yul\":21070:21107   */\n      tag_242\n      jump\t// in\n    tag_484:\n        /* \"#utility.yul\":21129:21130   */\n      0x00\n        /* \"#utility.yul\":21143:21351   */\n    tag_485:\n        /* \"#utility.yul\":21157:21164   */\n      dup3\n        /* \"#utility.yul\":21154:21155   */\n      dup2\n        /* \"#utility.yul\":21151:21165   */\n      lt\n        /* \"#utility.yul\":21143:21351   */\n      iszero\n      tag_487\n      jumpi\n        /* \"#utility.yul\":21236:21245   */\n      dup5\n        /* \"#utility.yul\":21231:21234   */\n      dup10\n        /* \"#utility.yul\":21227:21246   */\n      add\n        /* \"#utility.yul\":21221:21247   */\n      mload\n        /* \"#utility.yul\":21213:21219   */\n      dup3\n        /* \"#utility.yul\":21206:21248   */\n      sstore\n        /* \"#utility.yul\":21287:21288   */\n      0x01\n        /* \"#utility.yul\":21279:21285   */\n      dup3\n        /* \"#utility.yul\":21275:21289   */\n      add\n        /* \"#utility.yul\":21265:21289   */\n      swap2\n      pop\n        /* \"#utility.yul\":21334:21336   */\n      0x20\n        /* \"#utility.yul\":21323:21332   */\n      dup6\n        /* \"#utility.yul\":21319:21337   */\n      add\n        /* \"#utility.yul\":21306:21337   */\n      swap5\n      pop\n        /* \"#utility.yul\":21180:21184   */\n      0x20\n        /* \"#utility.yul\":21177:21178   */\n      dup2\n        /* \"#utility.yul\":21173:21185   */\n      add\n        /* \"#utility.yul\":21168:21185   */\n      swap1\n      pop\n        /* \"#utility.yul\":21143:21351   */\n      jump(tag_485)\n    tag_487:\n        /* \"#utility.yul\":21379:21385   */\n      dup7\n        /* \"#utility.yul\":21370:21377   */\n      dup4\n        /* \"#utility.yul\":21367:21386   */\n      lt\n        /* \"#utility.yul\":21364:21543   */\n      iszero\n      tag_488\n      jumpi\n        /* \"#utility.yul\":21437:21446   */\n      dup5\n        /* \"#utility.yul\":21432:21435   */\n      dup10\n        /* \"#utility.yul\":21428:21447   */\n      add\n        /* \"#utility.yul\":21422:21448   */\n      mload\n        /* \"#utility.yul\":21480:21528   */\n      tag_489\n        /* \"#utility.yul\":21522:21526   */\n      0x1f\n        /* \"#utility.yul\":21514:21520   */\n      dup10\n        /* \"#utility.yul\":21510:21527   */\n      and\n        /* \"#utility.yul\":21499:21508   */\n      dup3\n        /* \"#utility.yul\":21480:21528   */\n      tag_255\n      jump\t// in\n    tag_489:\n        /* \"#utility.yul\":21472:21478   */\n      dup4\n        /* \"#utility.yul\":21465:21529   */\n      sstore\n        /* \"#utility.yul\":21387:21543   */\n      pop\n        /* \"#utility.yul\":21364:21543   */\n    tag_488:\n        /* \"#utility.yul\":21589:21590   */\n      0x01\n        /* \"#utility.yul\":21585:21586   */\n      0x02\n        /* \"#utility.yul\":21577:21583   */\n      dup9\n        /* \"#utility.yul\":21573:21587   */\n      mul\n        /* \"#utility.yul\":21569:21591   */\n      add\n        /* \"#utility.yul\":21563:21567   */\n      dup9\n        /* \"#utility.yul\":21556:21592   */\n      sstore\n        /* \"#utility.yul\":20991:21602   */\n      pop\n      pop\n      pop\n        /* \"#utility.yul\":20954:21841   */\n    tag_480:\n      pop\n        /* \"#utility.yul\":20544:21847   */\n      pop\n      pop\n      pop\n        /* \"#utility.yul\":20452:21847   */\n      pop\n      pop\n      jump\t// out\n        /* \"#utility.yul\":21853:22000   */\n    tag_257:\n        /* \"#utility.yul\":21954:21965   */\n      0x00\n        /* \"#utility.yul\":21991:21994   */\n      dup2\n        /* \"#utility.yul\":21976:21994   */\n      swap1\n      pop\n        /* \"#utility.yul\":21853:22000   */\n      swap3\n      swap2\n      pop\n      pop\n      jump\t// out\n        /* \"#utility.yul\":22006:22150   */\n    tag_258:\n        /* \"#utility.yul\":22058:22062   */\n      0x00\n        /* \"#utility.yul\":22081:22084   */\n      dup2\n        /* \"#utility.yul\":22073:22084   */\n      swap1\n      pop\n        /* \"#utility.yul\":22104:22107   */\n      dup2\n        /* \"#utility.yul\":22101:22102   */\n      0x00\n        /* \"#utility.yul\":22094:22108   */\n      mstore\n        /* \"#utility.yul\":22138:22142   */\n      0x20\n        /* \"#utility.yul\":22135:22136   */\n      0x00\n        /* \"#utility.yul\":22125:22143   */\n      keccak256\n        /* \"#utility.yul\":22117:22143   */\n      swap1\n      pop\n        /* \"#utility.yul\":22006:22150   */\n      swap2\n      swap1\n      pop\n      jump\t// out\n        /* \"#utility.yul\":22178:23056   */\n    tag_259:\n        /* \"#utility.yul\":22283:22286   */\n      0x00\n        /* \"#utility.yul\":22320:22325   */\n      dup2\n        /* \"#utility.yul\":22314:22326   */\n      sload\n        /* \"#utility.yul\":22349:22385   */\n      tag_493\n        /* \"#utility.yul\":22375:22384   */\n      dup2\n        /* \"#utility.yul\":22349:22385   */\n      tag_52\n      jump\t// in\n    tag_493:\n        /* \"#utility.yul\":22401:22489   */\n      tag_494\n        /* \"#utility.yul\":22482:22488   */\n      dup2\n        /* \"#utility.yul\":22477:22480   */\n      dup7\n        /* \"#utility.yul\":22401:22489   */\n      tag_257\n      jump\t// in\n    tag_494:\n        /* \"#utility.yul\":22394:22489   */\n      swap5\n      pop\n        /* \"#utility.yul\":22520:22521   */\n      0x01\n        /* \"#utility.yul\":22509:22518   */\n      dup3\n        /* \"#utility.yul\":22505:22522   */\n      and\n        /* \"#utility.yul\":22536:22537   */\n      0x00\n        /* \"#utility.yul\":22531:22697   */\n      dup2\n      eq\n      tag_496\n      jumpi\n        /* \"#utility.yul\":22711:22712   */\n      0x01\n        /* \"#utility.yul\":22706:23050   */\n      dup2\n      eq\n      tag_497\n      jumpi\n        /* \"#utility.yul\":22498:23050   */\n      jump(tag_495)\n        /* \"#utility.yul\":22531:22697   */\n    tag_496:\n        /* \"#utility.yul\":22615:22619   */\n      0xff\n        /* \"#utility.yul\":22611:22620   */\n      not\n        /* \"#utility.yul\":22600:22609   */\n      dup4\n        /* \"#utility.yul\":22596:22621   */\n      and\n        /* \"#utility.yul\":22591:22594   */\n      dup7\n        /* \"#utility.yul\":22584:22622   */\n      mstore\n        /* \"#utility.yul\":22677:22683   */\n      dup2\n        /* \"#utility.yul\":22670:22684   */\n      iszero\n        /* \"#utility.yul\":22663:22685   */\n      iszero\n        /* \"#utility.yul\":22655:22661   */\n      dup3\n        /* \"#utility.yul\":22651:22686   */\n      mul\n        /* \"#utility.yul\":22646:22649   */\n      dup7\n        /* \"#utility.yul\":22642:22687   */\n      add\n        /* \"#utility.yul\":22635:22687   */\n      swap4\n      pop\n        /* \"#utility.yul\":22531:22697   */\n      jump(tag_495)\n        /* \"#utility.yul\":22706:23050   */\n    tag_497:\n        /* \"#utility.yul\":22773:22814   */\n      tag_498\n        /* \"#utility.yul\":22808:22813   */\n      dup6\n        /* \"#utility.yul\":22773:22814   */\n      tag_258\n      jump\t// in\n    tag_498:\n        /* \"#utility.yul\":22836:22837   */\n      0x00\n        /* \"#utility.yul\":22850:23004   */\n    tag_499:\n        /* \"#utility.yul\":22864:22870   */\n      dup4\n        /* \"#utility.yul\":22861:22862   */\n      dup2\n        /* \"#utility.yul\":22858:22871   */\n      lt\n        /* \"#utility.yul\":22850:23004   */\n      iszero\n      tag_501\n      jumpi\n        /* \"#utility.yul\":22938:22945   */\n      dup2\n        /* \"#utility.yul\":22932:22946   */\n      sload\n        /* \"#utility.yul\":22928:22929   */\n      dup2\n        /* \"#utility.yul\":22923:22926   */\n      dup10\n        /* \"#utility.yul\":22919:22930   */\n      add\n        /* \"#utility.yul\":22912:22947   */\n      mstore\n        /* \"#utility.yul\":22988:22989   */\n      0x01\n        /* \"#utility.yul\":22979:22986   */\n      dup3\n        /* \"#utility.yul\":22975:22990   */\n      add\n        /* \"#utility.yul\":22964:22990   */\n      swap2\n      pop\n        /* \"#utility.yul\":22886:22890   */\n      0x20\n        /* \"#utility.yul\":22883:22884   */\n      dup2\n        /* \"#utility.yul\":22879:22891   */\n      add\n        /* \"#utility.yul\":22874:22891   */\n      swap1\n      pop\n        /* \"#utility.yul\":22850:23004   */\n      jump(tag_499)\n    tag_501:\n        /* \"#utility.yul\":23033:23039   */\n      dup4\n        /* \"#utility.yul\":23028:23031   */\n      dup9\n        /* \"#utility.yul\":23024:23040   */\n      add\n        /* \"#utility.yul\":23017:23040   */\n      swap6\n      pop\n        /* \"#utility.yul\":22713:23050   */\n      pop\n      pop\n        /* \"#utility.yul\":22498:23050   */\n    tag_495:\n      pop\n        /* \"#utility.yul\":22287:23056   */\n      pop\n      pop\n        /* \"#utility.yul\":22178:23056   */\n      swap3\n      swap2\n      pop\n      pop\n      jump\t// out\n        /* \"#utility.yul\":23062:23335   */\n    tag_130:\n        /* \"#utility.yul\":23193:23196   */\n      0x00\n        /* \"#utility.yul\":23215:23309   */\n      tag_503\n        /* \"#utility.yul\":23305:23308   */\n      dup3\n        /* \"#utility.yul\":23296:23302   */\n      dup5\n        /* \"#utility.yul\":23215:23309   */\n      tag_259\n      jump\t// in\n    tag_503:\n        /* \"#utility.yul\":23208:23309   */\n      swap2\n      pop\n        /* \"#utility.yul\":23326:23329   */\n      dup2\n        /* \"#utility.yul\":23319:23329   */\n      swap1\n      pop\n        /* \"#utility.yul\":23062:23335   */\n      swap3\n      swap2\n      pop\n      pop\n      jump\t// out\n        /* \"#utility.yul\":23341:23510   */\n    tag_260:\n        /* \"#utility.yul\":23481:23502   */\n      0x426f6f6b20616c72656164792065786973747300000000000000000000000000\n        /* \"#utility.yul\":23477:23478   */\n      0x00\n        /* \"#utility.yul\":23469:23475   */\n      dup3\n        /* \"#utility.yul\":23465:23479   */\n      add\n        /* \"#utility.yul\":23458:23503   */\n      mstore\n        /* \"#utility.yul\":23341:23510   */\n      pop\n      jump\t// out\n        /* \"#utility.yul\":23516:23882   */\n    tag_261:\n        /* \"#utility.yul\":23658:23661   */\n      0x00\n        /* \"#utility.yul\":23679:23746   */\n      tag_506\n        /* \"#utility.yul\":23743:23745   */\n      0x13\n        /* \"#utility.yul\":23738:23741   */\n      dup4\n        /* \"#utility.yul\":23679:23746   */\n      tag_209\n      jump\t// in\n    tag_506:\n        /* \"#utility.yul\":23672:23746   */\n      swap2\n      pop\n        /* \"#utility.yul\":23755:23848   */\n      tag_507\n        /* \"#utility.yul\":23844:23847   */\n      dup3\n        /* \"#utility.yul\":23755:23848   */\n      tag_260\n      jump\t// in\n    tag_507:\n        /* \"#utility.yul\":23873:23875   */\n      0x20\n        /* \"#utility.yul\":23868:23871   */\n      dup3\n        /* \"#utility.yul\":23864:23876   */\n      add\n        /* \"#utility.yul\":23857:23876   */\n      swap1\n      pop\n        /* \"#utility.yul\":23516:23882   */\n      swap2\n      swap1\n      pop\n      jump\t// out\n        /* \"#utility.yul\":23888:24307   */\n    tag_145:\n        /* \"#utility.yul\":24054:24058   */\n      0x00\n        /* \"#utility.yul\":24092:24094   */\n      0x20\n        /* \"#utility.yul\":24081:24090   */\n      dup3\n        /* \"#utility.yul\":24077:24095   */\n      add\n        /* \"#utility.yul\":24069:24095   */\n      swap1\n      pop\n        /* \"#utility.yul\":24141:24150   */\n      dup2\n        /* \"#utility.yul\":24135:24139   */\n      dup2\n        /* \"#utility.yul\":24131:24151   */\n      sub\n        /* \"#utility.yul\":24127:24128   */\n      0x00\n        /* \"#utility.yul\":24116:24125   */\n      dup4\n        /* \"#utility.yul\":24112:24129   */\n      add\n        /* \"#utility.yul\":24105:24152   */\n      mstore\n        /* \"#utility.yul\":24169:24300   */\n      tag_509\n        /* \"#utility.yul\":24295:24299   */\n      dup2\n        /* \"#utility.yul\":24169:24300   */\n      tag_261\n      jump\t// in\n    tag_509:\n        /* \"#utility.yul\":24161:24300   */\n      swap1\n      pop\n        /* \"#utility.yul\":23888:24307   */\n      swap2\n      swap1\n      pop\n      jump\t// out\n        /* \"#utility.yul\":24313:24493   */\n    tag_262:\n        /* \"#utility.yul\":24361:24438   */\n      0x4e487b7100000000000000000000000000000000000000000000000000000000\n        /* \"#utility.yul\":24358:24359   */\n      0x00\n        /* \"#utility.yul\":24351:24439   */\n      mstore\n        /* \"#utility.yul\":24458:24462   */\n      0x11\n        /* \"#utility.yul\":24455:24456   */\n      0x04\n        /* \"#utility.yul\":24448:24463   */\n      mstore\n        /* \"#utility.yul\":24482:24486   */\n      0x24\n        /* \"#utility.yul\":24479:24480   */\n      0x00\n        /* \"#utility.yul\":24472:24487   */\n      revert\n        /* \"#utility.yul\":24499:24693   */\n    tag_162:\n        /* \"#utility.yul\":24539:24543   */\n      0x00\n        /* \"#utility.yul\":24559:24579   */\n      tag_512\n        /* \"#utility.yul\":24577:24578   */\n      dup3\n        /* \"#utility.yul\":24559:24579   */\n      tag_216\n      jump\t// in\n    tag_512:\n        /* \"#utility.yul\":24554:24579   */\n      swap2\n      pop\n        /* \"#utility.yul\":24593:24613   */\n      tag_513\n        /* \"#utility.yul\":24611:24612   */\n      dup4\n        /* \"#utility.yul\":24593:24613   */\n      tag_216\n      jump\t// in\n    tag_513:\n        /* \"#utility.yul\":24588:24613   */\n      swap3\n      pop\n        /* \"#utility.yul\":24637:24638   */\n      dup3\n        /* \"#utility.yul\":24634:24635   */\n      dup3\n        /* \"#utility.yul\":24630:24639   */\n      sub\n        /* \"#utility.yul\":24622:24639   */\n      swap1\n      pop\n        /* \"#utility.yul\":24661:24662   */\n      dup2\n        /* \"#utility.yul\":24655:24659   */\n      dup2\n        /* \"#utility.yul\":24652:24663   */\n      gt\n        /* \"#utility.yul\":24649:24686   */\n      iszero\n      tag_514\n      jumpi\n        /* \"#utility.yul\":24666:24684   */\n      tag_515\n      tag_262\n      jump\t// in\n    tag_515:\n        /* \"#utility.yul\":24649:24686   */\n    tag_514:\n        /* \"#utility.yul\":24499:24693   */\n      swap3\n      swap2\n      pop\n      pop\n      jump\t// out\n        /* \"#utility.yul\":24699:24852   */\n    tag_263:\n        /* \"#utility.yul\":24752:24758   */\n      0x00\n        /* \"#utility.yul\":24786:24791   */\n      dup2\n        /* \"#utility.yul\":24780:24792   */\n      sload\n        /* \"#utility.yul\":24770:24792   */\n      swap1\n      pop\n        /* \"#utility.yul\":24812:24845   */\n      tag_517\n        /* \"#utility.yul\":24838:24844   */\n      dup2\n        /* \"#utility.yul\":24812:24845   */\n      tag_52\n      jump\t// in\n    tag_517:\n        /* \"#utility.yul\":24802:24845   */\n      swap1\n      pop\n        /* \"#utility.yul\":24699:24852   */\n      swap2\n      swap1\n      pop\n      jump\t// out\n        /* \"#utility.yul\":24858:25003   */\n    tag_264:\n        /* \"#utility.yul\":24911:24915   */\n      0x00\n        /* \"#utility.yul\":24934:24937   */\n      dup2\n        /* \"#utility.yul\":24926:24937   */\n      swap1\n      pop\n        /* \"#utility.yul\":24957:24960   */\n      dup2\n        /* \"#utility.yul\":24954:24955   */\n      0x00\n        /* \"#utility.yul\":24947:24961   */\n      mstore\n        /* \"#utility.yul\":24991:24995   */\n      0x20\n        /* \"#utility.yul\":24988:24989   */\n      0x00\n        /* \"#utility.yul\":24978:24996   */\n      keccak256\n        /* \"#utility.yul\":24970:24996   */\n      swap1\n      pop\n        /* \"#utility.yul\":24858:25003   */\n      swap2\n      swap1\n      pop\n      jump\t// out\n        /* \"#utility.yul\":25009:26472   */\n    tag_171:\n        /* \"#utility.yul\":25124:25127   */\n      dup2\n        /* \"#utility.yul\":25118:25122   */\n      dup2\n        /* \"#utility.yul\":25115:25128   */\n      sub\n        /* \"#utility.yul\":25112:25138   */\n      tag_520\n      jumpi\n        /* \"#utility.yul\":25131:25136   */\n      pop\n      pop\n      jump(tag_519)\n        /* \"#utility.yul\":25112:25138   */\n    tag_520:\n        /* \"#utility.yul\":25162:25200   */\n      tag_521\n        /* \"#utility.yul\":25196:25199   */\n      dup3\n        /* \"#utility.yul\":25162:25200   */\n      tag_263\n      jump\t// in\n    tag_521:\n        /* \"#utility.yul\":25265:25283   */\n      0xffffffffffffffff\n        /* \"#utility.yul\":25257:25263   */\n      dup2\n        /* \"#utility.yul\":25254:25284   */\n      gt\n        /* \"#utility.yul\":25251:25307   */\n      iszero\n      tag_522\n      jumpi\n        /* \"#utility.yul\":25287:25305   */\n      tag_523\n      tag_74\n      jump\t// in\n    tag_523:\n        /* \"#utility.yul\":25251:25307   */\n    tag_522:\n        /* \"#utility.yul\":25331:25369   */\n      tag_524\n        /* \"#utility.yul\":25363:25367   */\n      dup3\n        /* \"#utility.yul\":25357:25368   */\n      sload\n        /* \"#utility.yul\":25331:25369   */\n      tag_52\n      jump\t// in\n    tag_524:\n        /* \"#utility.yul\":25416:25483   */\n      tag_525\n        /* \"#utility.yul\":25476:25482   */\n      dup3\n        /* \"#utility.yul\":25468:25474   */\n      dup3\n        /* \"#utility.yul\":25462:25466   */\n      dup6\n        /* \"#utility.yul\":25416:25483   */\n      tag_253\n      jump\t// in\n    tag_525:\n        /* \"#utility.yul\":25510:25511   */\n      0x00\n        /* \"#utility.yul\":25539:25541   */\n      0x1f\n        /* \"#utility.yul\":25531:25537   */\n      dup4\n        /* \"#utility.yul\":25528:25542   */\n      gt\n        /* \"#utility.yul\":25556:25557   */\n      0x01\n        /* \"#utility.yul\":25551:26227   */\n      dup2\n      eq\n      tag_527\n      jumpi\n        /* \"#utility.yul\":26271:26272   */\n      0x00\n        /* \"#utility.yul\":26288:26294   */\n      dup5\n        /* \"#utility.yul\":26285:26362   */\n      iszero\n      tag_528\n      jumpi\n        /* \"#utility.yul\":26337:26346   */\n      dup3\n        /* \"#utility.yul\":26332:26335   */\n      dup8\n        /* \"#utility.yul\":26328:26347   */\n      add\n        /* \"#utility.yul\":26322:26348   */\n      sload\n        /* \"#utility.yul\":26313:26348   */\n      swap1\n      pop\n        /* \"#utility.yul\":26285:26362   */\n    tag_528:\n        /* \"#utility.yul\":26388:26455   */\n      tag_529\n        /* \"#utility.yul\":26448:26454   */\n      dup6\n        /* \"#utility.yul\":26441:26446   */\n      dup3\n        /* \"#utility.yul\":26388:26455   */\n      tag_256\n      jump\t// in\n    tag_529:\n        /* \"#utility.yul\":26382:26386   */\n      dup7\n        /* \"#utility.yul\":26375:26456   */\n      sstore\n        /* \"#utility.yul\":26244:26466   */\n      pop\n        /* \"#utility.yul\":25521:26466   */\n      jump(tag_526)\n        /* \"#utility.yul\":25551:26227   */\n    tag_527:\n        /* \"#utility.yul\":25603:25607   */\n      0x1f\n        /* \"#utility.yul\":25599:25608   */\n      not\n        /* \"#utility.yul\":25591:25597   */\n      dup5\n        /* \"#utility.yul\":25587:25609   */\n      and\n        /* \"#utility.yul\":25629:25669   */\n      tag_530\n        /* \"#utility.yul\":25665:25668   */\n      dup8\n        /* \"#utility.yul\":25629:25669   */\n      tag_264\n      jump\t// in\n    tag_530:\n        /* \"#utility.yul\":25622:25669   */\n      swap7\n      pop\n        /* \"#utility.yul\":25696:25733   */\n      tag_531\n        /* \"#utility.yul\":25728:25732   */\n      dup7\n        /* \"#utility.yul\":25696:25733   */\n      tag_242\n      jump\t// in\n    tag_531:\n        /* \"#utility.yul\":25755:25756   */\n      0x00\n        /* \"#utility.yul\":25769:25976   */\n    tag_532:\n        /* \"#utility.yul\":25783:25790   */\n      dup3\n        /* \"#utility.yul\":25780:25781   */\n      dup2\n        /* \"#utility.yul\":25777:25791   */\n      lt\n        /* \"#utility.yul\":25769:25976   */\n      iszero\n      tag_534\n      jumpi\n        /* \"#utility.yul\":25862:25871   */\n      dup5\n        /* \"#utility.yul\":25857:25860   */\n      dup10\n        /* \"#utility.yul\":25853:25872   */\n      add\n        /* \"#utility.yul\":25847:25873   */\n      sload\n        /* \"#utility.yul\":25839:25845   */\n      dup3\n        /* \"#utility.yul\":25832:25874   */\n      sstore\n        /* \"#utility.yul\":25913:25914   */\n      0x01\n        /* \"#utility.yul\":25905:25911   */\n      dup3\n        /* \"#utility.yul\":25901:25915   */\n      add\n        /* \"#utility.yul\":25891:25915   */\n      swap2\n      pop\n        /* \"#utility.yul\":25960:25961   */\n      0x01\n        /* \"#utility.yul\":25949:25958   */\n      dup6\n        /* \"#utility.yul\":25945:25962   */\n      add\n        /* \"#utility.yul\":25932:25962   */\n      swap5\n      pop\n        /* \"#utility.yul\":25806:25810   */\n      0x20\n        /* \"#utility.yul\":25803:25804   */\n      dup2\n        /* \"#utility.yul\":25799:25811   */\n      add\n        /* \"#utility.yul\":25794:25811   */\n      swap1\n      pop\n        /* \"#utility.yul\":25769:25976   */\n      jump(tag_532)\n    tag_534:\n        /* \"#utility.yul\":26004:26010   */\n      dup7\n        /* \"#utility.yul\":25995:26002   */\n      dup4\n        /* \"#utility.yul\":25992:26011   */\n      lt\n        /* \"#utility.yul\":25989:26168   */\n      iszero\n      tag_535\n      jumpi\n        /* \"#utility.yul\":26062:26071   */\n      dup5\n        /* \"#utility.yul\":26057:26060   */\n      dup10\n        /* \"#utility.yul\":26053:26072   */\n      add\n        /* \"#utility.yul\":26047:26073   */\n      sload\n        /* \"#utility.yul\":26105:26153   */\n      tag_536\n        /* \"#utility.yul\":26147:26151   */\n      0x1f\n        /* \"#utility.yul\":26139:26145   */\n      dup10\n        /* \"#utility.yul\":26135:26152   */\n      and\n        /* \"#utility.yul\":26124:26133   */\n      dup3\n        /* \"#utility.yul\":26105:26153   */\n      tag_255\n      jump\t// in\n    tag_536:\n        /* \"#utility.yul\":26097:26103   */\n      dup4\n        /* \"#utility.yul\":26090:26154   */\n      sstore\n        /* \"#utility.yul\":26012:26168   */\n      pop\n        /* \"#utility.yul\":25989:26168   */\n    tag_535:\n        /* \"#utility.yul\":26214:26215   */\n      0x01\n        /* \"#utility.yul\":26210:26211   */\n      0x02\n        /* \"#utility.yul\":26202:26208   */\n      dup9\n        /* \"#utility.yul\":26198:26212   */\n      mul\n        /* \"#utility.yul\":26194:26216   */\n      add\n        /* \"#utility.yul\":26188:26192   */\n      dup9\n        /* \"#utility.yul\":26181:26217   */\n      sstore\n        /* \"#utility.yul\":25558:26227   */\n      pop\n      pop\n      pop\n        /* \"#utility.yul\":25521:26466   */\n    tag_526:\n      pop\n        /* \"#utility.yul\":25102:26472   */\n      pop\n      pop\n      pop\n        /* \"#utility.yul\":25009:26472   */\n      pop\n      pop\n    tag_519:\n      jump\t// out\n        /* \"#utility.yul\":26478:26658   */\n    tag_175:\n        /* \"#utility.yul\":26526:26603   */\n      0x4e487b7100000000000000000000000000000000000000000000000000000000\n        /* \"#utility.yul\":26523:26524   */\n      0x00\n        /* \"#utility.yul\":26516:26604   */\n      mstore\n        /* \"#utility.yul\":26623:26627   */\n      0x31\n        /* \"#utility.yul\":26620:26621   */\n      0x04\n        /* \"#utility.yul\":26613:26628   */\n      mstore\n        /* \"#utility.yul\":26647:26651   */\n      0x24\n        /* \"#utility.yul\":26644:26645   */\n      0x00\n        /* \"#utility.yul\":26637:26652   */\n      revert\n\n    auxdata: 0xa26469706673582212206cfeb6c74dbdfcbc73cac9c6377aff33d57a10f0282b0647f3e31b55c69f469f64736f6c634300081f0033\n}\n",
				"bytecode": {
					"linkReferences": {},
					"object": "6080604052348015600e575f5ffd5b50611c108061001c5f395ff3fe608060405234801561000f575f5ffd5b5060043610610086575f3560e01c8063a673c0b611610059578063a673c0b61461014d578063b622fb021461017d578063c95b6ec014610199578063cd80723a146101b557610086565b806312b2f1ad1461008a5780635bbd93c5146100bc5780637032185b146100ec5780638c0313121461011c575b5f5ffd5b6100a4600480360381019061009f9190610f99565b6101d1565b6040516100b3939291906110a5565b60405180910390f35b6100d660048036038101906100d191906110e1565b6102d1565b6040516100e39190611140565b60405180910390f35b610106600480360381019061010191906110e1565b6102fb565b604051610113919061125c565b60405180910390f35b610136600480360381019061013191906110e1565b6103ed565b604051610144929190611333565b60405180910390f35b61016760048036038101906101629190611392565b610607565b60405161017491906113ec565b60405180910390f35b61019760048036038101906101929190611436565b6106d0565b005b6101b360048036038101906101ae9190610f99565b6109d7565b005b6101cf60048036038101906101ca91906114ee565b610c63565b005b5f82805160208101820180518482526020830160208501208183528095505050505050818051602081018201805184825260208301602085012081835280955050505050505f9150915050805f01805461022a906115a3565b80601f0160208091040260200160405190810160405280929190818152602001828054610256906115a3565b80156102a15780601f10610278576101008083540402835291602001916102a1565b820191905f5260205f20905b81548152906001019060200180831161028457829003601f168201915b505050505090806001015f9054906101000a900461ffff16908060010160029054906101000a900460ff16905083565b5f6001826040516102e2919061160d565b9081526020016040518091039020805490509050919050565b606060018260405161030d919061160d565b9081526020016040518091039020805480602002602001604051908101604052809291908181526020015f905b828210156103e2578382905f5260205f20018054610357906115a3565b80601f0160208091040260200160405190810160405280929190818152602001828054610383906115a3565b80156103ce5780601f106103a5576101008083540402835291602001916103ce565b820191905f5260205f20905b8154815290600101906020018083116103b157829003601f168201915b50505050508152602001906001019061033a565b505050509050919050565b6060805f6103fa846102d1565b90508067ffffffffffffffff81111561041657610415610e75565b5b60405190808252806020026020018201604052801561044957816020015b60608152602001906001900390816104345790505b5092508067ffffffffffffffff81111561046657610465610e75565b5b6040519080825280602002602001820160405280156104945781602001602082028036833780820191505090505b5091505f5f90505b81811015610600575f6001866040516104b5919061160d565b908152602001604051809103902082815481106104d5576104d4611623565b5b905f5260205f200180546104e8906115a3565b80601f0160208091040260200160405190810160405280929190818152602001828054610514906115a3565b801561055f5780601f106105365761010080835404028352916020019161055f565b820191905f5260205f20905b81548152906001019060200180831161054257829003601f168201915b505050505090508085838151811061057a57610579611623565b5b60200260200101819052505f86604051610594919061160d565b9081526020016040518091039020816040516105b0919061160d565b90815260200160405180910390206001015f9054906101000a900461ffff1661ffff168483815181106105e6576105e5611623565b5b60200260200101818152505050808060010191505061049c565b5050915091565b6001828051602081018201805184825260208301602085012081835280955050505050508181548110610638575f80fd5b905f5260205f20015f91509150508054610651906115a3565b80601f016020809104026020016040519081016040528092919081815260200182805461067d906115a3565b80156106c85780601f1061069f576101008083540402835291602001916106c8565b820191905f5260205f20905b8154815290600101906020018083116106ab57829003601f168201915b505050505081565b5f846040516106df919061160d565b9081526020016040518091039020836040516106fb919061160d565b908152602001604051809103902060010160029054906101000a900460ff16610759576040517f08c379a00000000000000000000000000000000000000000000000000000000081526004016107509061169a565b60405180910390fd5b818051906020012083805190602001201461097a5760405180606001604052808381526020018261ffff168152602001600115158152505f8560405161079f919061160d565b9081526020016040518091039020836040516107bb919061160d565b90815260200160405180910390205f820151815f0190816107dc9190611858565b506020820151816001015f6101000a81548161ffff021916908361ffff16021790555060408201518160010160026101000a81548160ff0219169083151502179055509050505f84604051610831919061160d565b90815260200160405180910390208360405161084d919061160d565b90815260200160405180910390205f5f82015f61086a9190610df4565b600182015f6101000a81549061ffff02191690556001820160026101000a81549060ff021916905550505f5f90505b6001856040516108a9919061160d565b9081526020016040518091039020805490508110156109745783805190602001206001866040516108da919061160d565b908152602001604051809103902082815481106108fa576108f9611623565b5b905f5260205f200160405161090f91906119c3565b604051809103902003610967578260018660405161092d919061160d565b9081526020016040518091039020828154811061094d5761094c611623565b5b905f5260205f200190816109619190611858565b50610974565b8080600101915050610899565b506109d1565b805f8560405161098a919061160d565b9081526020016040518091039020846040516109a6919061160d565b90815260200160405180910390206001015f6101000a81548161ffff021916908361ffff1602179055505b50505050565b5f826040516109e6919061160d565b908152602001604051809103902081604051610a02919061160d565b908152602001604051809103902060010160029054906101000a900460ff16610a60576040517f08c379a0000000000000000000000000000000000000000000000000000000008152600401610a5790611a23565b60405180910390fd5b5f82604051610a6f919061160d565b908152602001604051809103902081604051610a8b919061160d565b90815260200160405180910390205f5f82015f610aa89190610df4565b600182015f6101000a81549061ffff02191690556001820160026101000a81549060ff021916905550505f5f90505b600183604051610ae7919061160d565b908152602001604051809103902080549050811015610c5e578180519060200120600184604051610b18919061160d565b90815260200160405180910390208281548110610b3857610b37611623565b5b905f5260205f2001604051610b4d91906119c3565b604051809103902003610c5157600183604051610b6a919061160d565b908152602001604051809103902060018085604051610b89919061160d565b908152602001604051809103902080549050610ba59190611a6e565b81548110610bb657610bb5611623565b5b905f5260205f2001600184604051610bce919061160d565b90815260200160405180910390208281548110610bee57610bed611623565b5b905f5260205f20019081610c029190611ac8565b50600183604051610c13919061160d565b9081526020016040518091039020805480610c3157610c30611bad565b5b600190038181905f5260205f20015f610c4a9190610df4565b9055610c5e565b8080600101915050610ad7565b505050565b5f83604051610c72919061160d565b908152602001604051809103902082604051610c8e919061160d565b908152602001604051809103902060010160029054906101000a900460ff1615610ced576040517f08c379a0000000000000000000000000000000000000000000000000000000008152600401610ce490611a23565b60405180910390fd5b60405180606001604052808381526020018261ffff168152602001600115158152505f84604051610d1e919061160d565b908152602001604051809103902083604051610d3a919061160d565b90815260200160405180910390205f820151815f019081610d5b9190611858565b506020820151816001015f6101000a81548161ffff021916908361ffff16021790555060408201518160010160026101000a81548160ff021916908315150217905550905050600183604051610db1919061160d565b908152602001604051809103902082908060018154018082558091505060019003905f5260205f20015f909190919091509081610dee9190611858565b50505050565b508054610e00906115a3565b5f825580601f10610e115750610e2e565b601f0160209004905f5260205f2090810190610e2d9190610e31565b5b50565b5b80821115610e48575f815f905550600101610e32565b5090565b5f604051905090565b5f5ffd5b5f5ffd5b5f5ffd5b5f5ffd5b5f601f19601f8301169050919050565b7f4e487b71000000000000000000000000000000000000000000000000000000005f52604160045260245ffd5b610eab82610e65565b810181811067ffffffffffffffff82111715610eca57610ec9610e75565b5b80604052505050565b5f610edc610e4c565b9050610ee88282610ea2565b919050565b5f67ffffffffffffffff821115610f0757610f06610e75565b5b610f1082610e65565b9050602081019050919050565b828183375f83830152505050565b5f610f3d610f3884610eed565b610ed3565b905082815260208101848484011115610f5957610f58610e61565b5b610f64848285610f1d565b509392505050565b5f82601f830112610f8057610f7f610e5d565b5b8135610f90848260208601610f2b565b91505092915050565b5f5f60408385031215610faf57610fae610e55565b5b5f83013567ffffffffffffffff811115610fcc57610fcb610e59565b5b610fd885828601610f6c565b925050602083013567ffffffffffffffff811115610ff957610ff8610e59565b5b61100585828601610f6c565b9150509250929050565b5f81519050919050565b5f82825260208201905092915050565b8281835e5f83830152505050565b5f6110418261100f565b61104b8185611019565b935061105b818560208601611029565b61106481610e65565b840191505092915050565b5f61ffff82169050919050565b6110858161106f565b82525050565b5f8115159050919050565b61109f8161108b565b82525050565b5f6060820190508181035f8301526110bd8186611037565b90506110cc602083018561107c565b6110d96040830184611096565b949350505050565b5f602082840312156110f6576110f5610e55565b5b5f82013567ffffffffffffffff81111561111357611112610e59565b5b61111f84828501610f6c565b91505092915050565b5f819050919050565b61113a81611128565b82525050565b5f6020820190506111535f830184611131565b92915050565b5f81519050919050565b5f82825260208201905092915050565b5f819050602082019050919050565b5f82825260208201905092915050565b5f61119c8261100f565b6111a68185611182565b93506111b6818560208601611029565b6111bf81610e65565b840191505092915050565b5f6111d58383611192565b905092915050565b5f602082019050919050565b5f6111f382611159565b6111fd8185611163565b93508360208202850161120f85611173565b805f5b8581101561124a578484038952815161122b85826111ca565b9450611236836111dd565b925060208a01995050600181019050611212565b50829750879550505050505092915050565b5f6020820190508181035f83015261127481846111e9565b905092915050565b5f81519050919050565b5f82825260208201905092915050565b5f819050602082019050919050565b6112ae81611128565b82525050565b5f6112bf83836112a5565b60208301905092915050565b5f602082019050919050565b5f6112e18261127c565b6112eb8185611286565b93506112f683611296565b805f5b8381101561132657815161130d88826112b4565b9750611318836112cb565b9250506001810190506112f9565b5085935050505092915050565b5f6040820190508181035f83015261134b81856111e9565b9050818103602083015261135f81846112d7565b90509392505050565b61137181611128565b811461137b575f5ffd5b50565b5f8135905061138c81611368565b92915050565b5f5f604083850312156113a8576113a7610e55565b5b5f83013567ffffffffffffffff8111156113c5576113c4610e59565b5b6113d185828601610f6c565b92505060206113e28582860161137e565b9150509250929050565b5f6020820190508181035f8301526114048184611037565b905092915050565b6114158161106f565b811461141f575f5ffd5b50565b5f813590506114308161140c565b92915050565b5f5f5f5f6080858703121561144e5761144d610e55565b5b5f85013567ffffffffffffffff81111561146b5761146a610e59565b5b61147787828801610f6c565b945050602085013567ffffffffffffffff81111561149857611497610e59565b5b6114a487828801610f6c565b935050604085013567ffffffffffffffff8111156114c5576114c4610e59565b5b6114d187828801610f6c565b92505060606114e287828801611422565b91505092959194509250565b5f5f5f6060848603121561150557611504610e55565b5b5f84013567ffffffffffffffff81111561152257611521610e59565b5b61152e86828701610f6c565b935050602084013567ffffffffffffffff81111561154f5761154e610e59565b5b61155b86828701610f6c565b925050604061156c86828701611422565b9150509250925092565b7f4e487b71000000000000000000000000000000000000000000000000000000005f52602260045260245ffd5b5f60028204905060018216806115ba57607f821691505b6020821081036115cd576115cc611576565b5b50919050565b5f81905092915050565b5f6115e78261100f565b6115f181856115d3565b9350611601818560208601611029565b80840191505092915050565b5f61161882846115dd565b915081905092915050565b7f4e487b71000000000000000000000000000000000000000000000000000000005f52603260045260245ffd5b7f426f6f6b20646f6573206e6f74206578697374000000000000000000000000005f82015250565b5f611684601383611019565b915061168f82611650565b602082019050919050565b5f6020820190508181035f8301526116b181611678565b9050919050565b5f819050815f5260205f209050919050565b5f6020601f8301049050919050565b5f82821b905092915050565b5f600883026117147fffffffffffffffffffffffffffffffffffffffffffffffffffffffffffffffff826116d9565b61171e86836116d9565b95508019841693508086168417925050509392505050565b5f819050919050565b5f61175961175461174f84611128565b611736565b611128565b9050919050565b5f819050919050565b6117728361173f565b61178661177e82611760565b8484546116e5565b825550505050565b5f5f905090565b61179d61178e565b6117a8818484611769565b505050565b5b818110156117cb576117c05f82611795565b6001810190506117ae565b5050565b601f821115611810576117e1816116b8565b6117ea846116ca565b810160208510156117f9578190505b61180d611805856116ca565b8301826117ad565b50505b505050565b5f82821c905092915050565b5f6118305f1984600802611815565b1980831691505092915050565b5f6118488383611821565b9150826002028217905092915050565b6118618261100f565b67ffffffffffffffff81111561187a57611879610e75565b5b61188482546115a3565b61188f8282856117cf565b5f60209050601f8311600181146118c0575f84156118ae578287015190505b6118b8858261183d565b86555061191f565b601f1984166118ce866116b8565b5f5b828110156118f5578489015182556001820191506020850194506020810190506118d0565b86831015611912578489015161190e601f891682611821565b8355505b6001600288020188555050505b505050505050565b5f81905092915050565b5f819050815f5260205f209050919050565b5f815461194f816115a3565b6119598186611927565b9450600182165f81146119735760018114611988576119ba565b60ff19831686528115158202860193506119ba565b61199185611931565b5f5b838110156119b257815481890152600182019150602081019050611993565b838801955050505b50505092915050565b5f6119ce8284611943565b915081905092915050565b7f426f6f6b20616c726561647920657869737473000000000000000000000000005f82015250565b5f611a0d601383611019565b9150611a18826119d9565b602082019050919050565b5f6020820190508181035f830152611a3a81611a01565b9050919050565b7f4e487b71000000000000000000000000000000000000000000000000000000005f52601160045260245ffd5b5f611a7882611128565b9150611a8383611128565b9250828203905081811115611a9b57611a9a611a41565b5b92915050565b5f81549050611aaf816115a3565b9050919050565b5f819050815f5260205f209050919050565b818103611ad6575050611bab565b611adf82611aa1565b67ffffffffffffffff811115611af857611af7610e75565b5b611b0282546115a3565b611b0d8282856117cf565b5f601f831160018114611b3a575f8415611b28578287015490505b611b32858261183d565b865550611ba4565b601f198416611b4887611ab6565b9650611b53866116b8565b5f5b82811015611b7a57848901548255600182019150600185019450602081019050611b55565b86831015611b975784890154611b93601f891682611821565b8355505b6001600288020188555050505b5050505050505b565b7f4e487b71000000000000000000000000000000000000000000000000000000005f52603160045260245ffdfea26469706673582212206cfeb6c74dbdfcbc73cac9c6377aff33d57a10f0282b0647f3e31b55c69f469f64736f6c634300081f0033",
					"opcodes": "PUSH1 0x80 PUSH1 0x40 MSTORE CALLVALUE DUP1 ISZERO PUSH1 0xE JUMPI PUSH0 PUSH0 REVERT JUMPDEST POP PUSH2 0x1C10 DUP1 PUSH2 0x1C PUSH0 CODECOPY PUSH0 RETURN INVALID PUSH1 0x80 PUSH1 0x40 MSTORE CALLVALUE DUP1 ISZERO PUSH2 0xF JUMPI PUSH0 PUSH0 REVERT JUMPDEST POP PUSH1 0x4 CALLDATASIZE LT PUSH2 0x86 JUMPI PUSH0 CALLDATALOAD PUSH1 0xE0 SHR DUP1 PUSH4 0xA673C0B6 GT PUSH2 0x59 JUMPI DUP1 PUSH4 0xA673C0B6 EQ PUSH2 0x14D JUMPI DUP1 PUSH4 0xB622FB02 EQ PUSH2 0x17D JUMPI DUP1 PUSH4 0xC95B6EC0 EQ PUSH2 0x199 JUMPI DUP1 PUSH4 0xCD80723A EQ PUSH2 0x1B5 JUMPI PUSH2 0x86 JUMP JUMPDEST DUP1 PUSH4 0x12B2F1AD EQ PUSH2 0x8A JUMPI DUP1 PUSH4 0x5BBD93C5 EQ PUSH2 0xBC JUMPI DUP1 PUSH4 0x7032185B EQ PUSH2 0xEC JUMPI DUP1 PUSH4 0x8C031312 EQ PUSH2 0x11C JUMPI JUMPDEST PUSH0 PUSH0 REVERT JUMPDEST PUSH2 0xA4 PUSH1 0x4 DUP1 CALLDATASIZE SUB DUP2 ADD SWAP1 PUSH2 0x9F SWAP2 SWAP1 PUSH2 0xF99 JUMP JUMPDEST PUSH2 0x1D1 JUMP JUMPDEST PUSH1 0x40 MLOAD PUSH2 0xB3 SWAP4 SWAP3 SWAP2 SWAP1 PUSH2 0x10A5 JUMP JUMPDEST PUSH1 0x40 MLOAD DUP1 SWAP2 SUB SWAP1 RETURN JUMPDEST PUSH2 0xD6 PUSH1 0x4 DUP1 CALLDATASIZE SUB DUP2 ADD SWAP1 PUSH2 0xD1 SWAP2 SWAP1 PUSH2 0x10E1 JUMP JUMPDEST PUSH2 0x2D1 JUMP JUMPDEST PUSH1 0x40 MLOAD PUSH2 0xE3 SWAP2 SWAP1 PUSH2 0x1140 JUMP JUMPDEST PUSH1 0x40 MLOAD DUP1 SWAP2 SUB SWAP1 RETURN JUMPDEST PUSH2 0x106 PUSH1 0x4 DUP1 CALLDATASIZE SUB DUP2 ADD SWAP1 PUSH2 0x101 SWAP2 SWAP1 PUSH2 0x10E1 JUMP JUMPDEST PUSH2 0x2FB JUMP JUMPDEST PUSH1 0x40 MLOAD PUSH2 0x113 SWAP2 SWAP1 PUSH2 0x125C JUMP JUMPDEST PUSH1 0x40 MLOAD DUP1 SWAP2 SUB SWAP1 RETURN JUMPDEST PUSH2 0x136 PUSH1 0x4 DUP1 CALLDATASIZE SUB DUP2 ADD SWAP1 PUSH2 0x131 SWAP2 SWAP1 PUSH2 0x10E1 JUMP JUMPDEST PUSH2 0x3ED JUMP JUMPDEST PUSH1 0x40 MLOAD PUSH2 0x144 SWAP3 SWAP2 SWAP1 PUSH2 0x1333 JUMP JUMPDEST PUSH1 0x40 MLOAD DUP1 SWAP2 SUB SWAP1 RETURN JUMPDEST PUSH2 0x167 PUSH1 0x4 DUP1 CALLDATASIZE SUB DUP2 ADD SWAP1 PUSH2 0x162 SWAP2 SWAP1 PUSH2 0x1392 JUMP JUMPDEST PUSH2 0x607 JUMP JUMPDEST PUSH1 0x40 MLOAD PUSH2 0x174 SWAP2 SWAP1 PUSH2 0x13EC JUMP JUMPDEST PUSH1 0x40 MLOAD DUP1 SWAP2 SUB SWAP1 RETURN JUMPDEST PUSH2 0x197 PUSH1 0x4 DUP1 CALLDATASIZE SUB DUP2 ADD SWAP1 PUSH2 0x192 SWAP2 SWAP1 PUSH2 0x1436 JUMP JUMPDEST PUSH2 0x6D0 JUMP JUMPDEST STOP JUMPDEST PUSH2 0x1B3 PUSH1 0x4 DUP1 CALLDATASIZE SUB DUP2 ADD SWAP1 PUSH2 0x1AE SWAP2 SWAP1 PUSH2 0xF99 JUMP JUMPDEST PUSH2 0x9D7 JUMP JUMPDEST STOP JUMPDEST PUSH2 0x1CF PUSH1 0x4 DUP1 CALLDATASIZE SUB DUP2 ADD SWAP1 PUSH2 0x1CA SWAP2 SWAP1 PUSH2 0x14EE JUMP JUMPDEST PUSH2 0xC63 JUMP JUMPDEST STOP JUMPDEST PUSH0 DUP3 DUP1 MLOAD PUSH1 0x20 DUP2 ADD DUP3 ADD DUP1 MLOAD DUP5 DUP3 MSTORE PUSH1 0x20 DUP4 ADD PUSH1 0x20 DUP6 ADD KECCAK256 DUP2 DUP4 MSTORE DUP1 SWAP6 POP POP POP POP POP POP DUP2 DUP1 MLOAD PUSH1 0x20 DUP2 ADD DUP3 ADD DUP1 MLOAD DUP5 DUP3 MSTORE PUSH1 0x20 DUP4 ADD PUSH1 0x20 DUP6 ADD KECCAK256 DUP2 DUP4 MSTORE DUP1 SWAP6 POP POP POP POP POP POP PUSH0 SWAP2 POP SWAP2 POP POP DUP1 PUSH0 ADD DUP1 SLOAD PUSH2 0x22A SWAP1 PUSH2 0x15A3 JUMP JUMPDEST DUP1 PUSH1 0x1F ADD PUSH1 0x20 DUP1 SWAP2 DIV MUL PUSH1 0x20 ADD PUSH1 0x40 MLOAD SWAP1 DUP2 ADD PUSH1 0x40 MSTORE DUP1 SWAP3 SWAP2 SWAP1 DUP2 DUP2 MSTORE PUSH1 0x20 ADD DUP3 DUP1 SLOAD PUSH2 0x256 SWAP1 PUSH2 0x15A3 JUMP JUMPDEST DUP1 ISZERO PUSH2 0x2A1 JUMPI DUP1 PUSH1 0x1F LT PUSH2 0x278 JUMPI PUSH2 0x100 DUP1 DUP4 SLOAD DIV MUL DUP4 MSTORE SWAP2 PUSH1 0x20 ADD SWAP2 PUSH2 0x2A1 JUMP JUMPDEST DUP3 ADD SWAP2 SWAP1 PUSH0 MSTORE PUSH1 0x20 PUSH0 KECCAK256 SWAP1 JUMPDEST DUP2 SLOAD DUP2 MSTORE SWAP1 PUSH1 0x1 ADD SWAP1 PUSH1 0x20 ADD DUP1 DUP4 GT PUSH2 0x284 JUMPI DUP3 SWAP1 SUB PUSH1 0x1F AND DUP3 ADD SWAP2 JUMPDEST POP POP POP POP POP SWAP1 DUP1 PUSH1 0x1 ADD PUSH0 SWAP1 SLOAD SWAP1 PUSH2 0x100 EXP SWAP1 DIV PUSH2 0xFFFF AND SWAP1 DUP1 PUSH1 0x1 ADD PUSH1 0x2 SWAP1 SLOAD SWAP1 PUSH2 0x100 EXP SWAP1 DIV PUSH1 0xFF AND SWAP1 POP DUP4 JUMP JUMPDEST PUSH0 PUSH1 0x1 DUP3 PUSH1 0x40 MLOAD PUSH2 0x2E2 SWAP2 SWAP1 PUSH2 0x160D JUMP JUMPDEST SWAP1 DUP2 MSTORE PUSH1 0x20 ADD PUSH1 0x40 MLOAD DUP1 SWAP2 SUB SWAP1 KECCAK256 DUP1 SLOAD SWAP1 POP SWAP1 POP SWAP2 SWAP1 POP JUMP JUMPDEST PUSH1 0x60 PUSH1 0x1 DUP3 PUSH1 0x40 MLOAD PUSH2 0x30D SWAP2 SWAP1 PUSH2 0x160D JUMP JUMPDEST SWAP1 DUP2 MSTORE PUSH1 0x20 ADD PUSH1 0x40 MLOAD DUP1 SWAP2 SUB SWAP1 KECCAK256 DUP1 SLOAD DUP1 PUSH1 0x20 MUL PUSH1 0x20 ADD PUSH1 0x40 MLOAD SWAP1 DUP2 ADD PUSH1 0x40 MSTORE DUP1 SWAP3 SWAP2 SWAP1 DUP2 DUP2 MSTORE PUSH1 0x20 ADD PUSH0 SWAP1 JUMPDEST DUP3 DUP3 LT ISZERO PUSH2 0x3E2 JUMPI DUP4 DUP3 SWAP1 PUSH0 MSTORE PUSH1 0x20 PUSH0 KECCAK256 ADD DUP1 SLOAD PUSH2 0x357 SWAP1 PUSH2 0x15A3 JUMP JUMPDEST DUP1 PUSH1 0x1F ADD PUSH1 0x20 DUP1 SWAP2 DIV MUL PUSH1 0x20 ADD PUSH1 0x40 MLOAD SWAP1 DUP2 ADD PUSH1 0x40 MSTORE DUP1 SWAP3 SWAP2 SWAP1 DUP2 DUP2 MSTORE PUSH1 0x20 ADD DUP3 DUP1 SLOAD PUSH2 0x383 SWAP1 PUSH2 0x15A3 JUMP JUMPDEST DUP1 ISZERO PUSH2 0x3CE JUMPI DUP1 PUSH1 0x1F LT PUSH2 0x3A5 JUMPI PUSH2 0x100 DUP1 DUP4 SLOAD DIV MUL DUP4 MSTORE SWAP2 PUSH1 0x20 ADD SWAP2 PUSH2 0x3CE JUMP JUMPDEST DUP3 ADD SWAP2 SWAP1 PUSH0 MSTORE PUSH1 0x20 PUSH0 KECCAK256 SWAP1 JUMPDEST DUP2 SLOAD DUP2 MSTORE SWAP1 PUSH1 0x1 ADD SWAP1 PUSH1 0x20 ADD DUP1 DUP4 GT PUSH2 0x3B1 JUMPI DUP3 SWAP1 SUB PUSH1 0x1F AND DUP3 ADD SWAP2 JUMPDEST POP POP POP POP POP DUP2 MSTORE PUSH1 0x20 ADD SWAP1 PUSH1 0x1 ADD SWAP1 PUSH2 0x33A JUMP JUMPDEST POP POP POP POP SWAP1 POP SWAP2 SWAP1 POP JUMP JUMPDEST PUSH1 0x60 DUP1 PUSH0 PUSH2 0x3FA DUP5 PUSH2 0x2D1 JUMP JUMPDEST SWAP1 POP DUP1 PUSH8 0xFFFFFFFFFFFFFFFF DUP2 GT ISZERO PUSH2 0x416 JUMPI PUSH2 0x415 PUSH2 0xE75 JUMP JUMPDEST JUMPDEST PUSH1 0x40 MLOAD SWAP1 DUP1 DUP3 MSTORE DUP1 PUSH1 0x20 MUL PUSH1 0x20 ADD DUP3 ADD PUSH1 0x40 MSTORE DUP1 ISZERO PUSH2 0x449 JUMPI DUP2 PUSH1 0x20 ADD JUMPDEST PUSH1 0x60 DUP2 MSTORE PUSH1 0x20 ADD SWAP1 PUSH1 0x1 SWAP1 SUB SWAP1 DUP2 PUSH2 0x434 JUMPI SWAP1 POP JUMPDEST POP SWAP3 POP DUP1 PUSH8 0xFFFFFFFFFFFFFFFF DUP2 GT ISZERO PUSH2 0x466 JUMPI PUSH2 0x465 PUSH2 0xE75 JUMP JUMPDEST JUMPDEST PUSH1 0x40 MLOAD SWAP1 DUP1 DUP3 MSTORE DUP1 PUSH1 0x20 MUL PUSH1 0x20 ADD DUP3 ADD PUSH1 0x40 MSTORE DUP1 ISZERO PUSH2 0x494 JUMPI DUP2 PUSH1 0x20 ADD PUSH1 0x20 DUP3 MUL DUP1 CALLDATASIZE DUP4 CALLDATACOPY DUP1 DUP3 ADD SWAP2 POP POP SWAP1 POP JUMPDEST POP SWAP2 POP PUSH0 PUSH0 SWAP1 POP JUMPDEST DUP2 DUP2 LT ISZERO PUSH2 0x600 JUMPI PUSH0 PUSH1 0x1 DUP7 PUSH1 0x40 MLOAD PUSH2 0x4B5 SWAP2 SWAP1 PUSH2 0x160D JUMP JUMPDEST SWAP1 DUP2 MSTORE PUSH1 0x20 ADD PUSH1 0x40 MLOAD DUP1 SWAP2 SUB SWAP1 KECCAK256 DUP3 DUP2 SLOAD DUP2 LT PUSH2 0x4D5 JUMPI PUSH2 0x4D4 PUSH2 0x1623 JUMP JUMPDEST JUMPDEST SWAP1 PUSH0 MSTORE PUSH1 0x20 PUSH0 KECCAK256 ADD DUP1 SLOAD PUSH2 0x4E8 SWAP1 PUSH2 0x15A3 JUMP JUMPDEST DUP1 PUSH1 0x1F ADD PUSH1 0x20 DUP1 SWAP2 DIV MUL PUSH1 0x20 ADD PUSH1 0x40 MLOAD SWAP1 DUP2 ADD PUSH1 0x40 MSTORE DUP1 SWAP3 SWAP2 SWAP1 DUP2 DUP2 MSTORE PUSH1 0x20 ADD DUP3 DUP1 SLOAD PUSH2 0x514 SWAP1 PUSH2 0x15A3 JUMP JUMPDEST DUP1 ISZERO PUSH2 0x55F JUMPI DUP1 PUSH1 0x1F LT PUSH2 0x536 JUMPI PUSH2 0x100 DUP1 DUP4 SLOAD DIV MUL DUP4 MSTORE SWAP2 PUSH1 0x20 ADD SWAP2 PUSH2 0x55F JUMP JUMPDEST DUP3 ADD SWAP2 SWAP1 PUSH0 MSTORE PUSH1 0x20 PUSH0 KECCAK256 SWAP1 JUMPDEST DUP2 SLOAD DUP2 MSTORE SWAP1 PUSH1 0x1 ADD SWAP1 PUSH1 0x20 ADD DUP1 DUP4 GT PUSH2 0x542 JUMPI DUP3 SWAP1 SUB PUSH1 0x1F AND DUP3 ADD SWAP2 JUMPDEST POP POP POP POP POP SWAP1 POP DUP1 DUP6 DUP4 DUP2 MLOAD DUP2 LT PUSH2 0x57A JUMPI PUSH2 0x579 PUSH2 0x1623 JUMP JUMPDEST JUMPDEST PUSH1 0x20 MUL PUSH1 0x20 ADD ADD DUP2 SWAP1 MSTORE POP PUSH0 DUP7 PUSH1 0x40 MLOAD PUSH2 0x594 SWAP2 SWAP1 PUSH2 0x160D JUMP JUMPDEST SWAP1 DUP2 MSTORE PUSH1 0x20 ADD PUSH1 0x40 MLOAD DUP1 SWAP2 SUB SWAP1 KECCAK256 DUP2 PUSH1 0x40 MLOAD PUSH2 0x5B0 SWAP2 SWAP1 PUSH2 0x160D JUMP JUMPDEST SWAP1 DUP2 MSTORE PUSH1 0x20 ADD PUSH1 0x40 MLOAD DUP1 SWAP2 SUB SWAP1 KECCAK256 PUSH1 0x1 ADD PUSH0 SWAP1 SLOAD SWAP1 PUSH2 0x100 EXP SWAP1 DIV PUSH2 0xFFFF AND PUSH2 0xFFFF AND DUP5 DUP4 DUP2 MLOAD DUP2 LT PUSH2 0x5E6 JUMPI PUSH2 0x5E5 PUSH2 0x1623 JUMP JUMPDEST JUMPDEST PUSH1 0x20 MUL PUSH1 0x20 ADD ADD DUP2 DUP2 MSTORE POP POP POP DUP1 DUP1 PUSH1 0x1 ADD SWAP2 POP POP PUSH2 0x49C JUMP JUMPDEST POP POP SWAP2 POP SWAP2 JUMP JUMPDEST PUSH1 0x1 DUP3 DUP1 MLOAD PUSH1 0x20 DUP2 ADD DUP3 ADD DUP1 MLOAD DUP5 DUP3 MSTORE PUSH1 0x20 DUP4 ADD PUSH1 0x20 DUP6 ADD KECCAK256 DUP2 DUP4 MSTORE DUP1 SWAP6 POP POP POP POP POP POP DUP2 DUP2 SLOAD DUP2 LT PUSH2 0x638 JUMPI PUSH0 DUP1 REVERT JUMPDEST SWAP1 PUSH0 MSTORE PUSH1 0x20 PUSH0 KECCAK256 ADD PUSH0 SWAP2 POP SWAP2 POP POP DUP1 SLOAD PUSH2 0x651 SWAP1 PUSH2 0x15A3 JUMP JUMPDEST DUP1 PUSH1 0x1F ADD PUSH1 0x20 DUP1 SWAP2 DIV MUL PUSH1 0x20 ADD PUSH1 0x40 MLOAD SWAP1 DUP2 ADD PUSH1 0x40 MSTORE DUP1 SWAP3 SWAP2 SWAP1 DUP2 DUP2 MSTORE PUSH1 0x20 ADD DUP3 DUP1 SLOAD PUSH2 0x67D SWAP1 PUSH2 0x15A3 JUMP JUMPDEST DUP1 ISZERO PUSH2 0x6C8 JUMPI DUP1 PUSH1 0x1F LT PUSH2 0x69F JUMPI PUSH2 0x100 DUP1 DUP4 SLOAD DIV MUL DUP4 MSTORE SWAP2 PUSH1 0x20 ADD SWAP2 PUSH2 0x6C8 JUMP JUMPDEST DUP3 ADD SWAP2 SWAP1 PUSH0 MSTORE PUSH1 0x20 PUSH0 KECCAK256 SWAP1 JUMPDEST DUP2 SLOAD DUP2 MSTORE SWAP1 PUSH1 0x1 ADD SWAP1 PUSH1 0x20 ADD DUP1 DUP4 GT PUSH2 0x6AB JUMPI DUP3 SWAP1 SUB PUSH1 0x1F AND DUP3 ADD SWAP2 JUMPDEST POP POP POP POP POP DUP2 JUMP JUMPDEST PUSH0 DUP5 PUSH1 0x40 MLOAD PUSH2 0x6DF SWAP2 SWAP1 PUSH2 0x160D JUMP JUMPDEST SWAP1 DUP2 MSTORE PUSH1 0x20 ADD PUSH1 0x40 MLOAD DUP1 SWAP2 SUB SWAP1 KECCAK256 DUP4 PUSH1 0x40 MLOAD PUSH2 0x6FB SWAP2 SWAP1 PUSH2 0x160D JUMP JUMPDEST SWAP1 DUP2 MSTORE PUSH1 0x20 ADD PUSH1 0x40 MLOAD DUP1 SWAP2 SUB SWAP1 KECCAK256 PUSH1 0x1 ADD PUSH1 0x2 SWAP1 SLOAD SWAP1 PUSH2 0x100 EXP SWAP1 DIV PUSH1 0xFF AND PUSH2 0x759 JUMPI PUSH1 0x40 MLOAD PUSH32 0x8C379A000000000000000000000000000000000000000000000000000000000 DUP2 MSTORE PUSH1 0x4 ADD PUSH2 0x750 SWAP1 PUSH2 0x169A JUMP JUMPDEST PUSH1 0x40 MLOAD DUP1 SWAP2 SUB SWAP1 REVERT JUMPDEST DUP2 DUP1 MLOAD SWAP1 PUSH1 0x20 ADD KECCAK256 DUP4 DUP1 MLOAD SWAP1 PUSH1 0x20 ADD KECCAK256 EQ PUSH2 0x97A JUMPI PUSH1 0x40 MLOAD DUP1 PUSH1 0x60 ADD PUSH1 0x40 MSTORE DUP1 DUP4 DUP2 MSTORE PUSH1 0x20 ADD DUP3 PUSH2 0xFFFF AND DUP2 MSTORE PUSH1 0x20 ADD PUSH1 0x1 ISZERO ISZERO DUP2 MSTORE POP PUSH0 DUP6 PUSH1 0x40 MLOAD PUSH2 0x79F SWAP2 SWAP1 PUSH2 0x160D JUMP JUMPDEST SWAP1 DUP2 MSTORE PUSH1 0x20 ADD PUSH1 0x40 MLOAD DUP1 SWAP2 SUB SWAP1 KECCAK256 DUP4 PUSH1 0x40 MLOAD PUSH2 0x7BB SWAP2 SWAP1 PUSH2 0x160D JUMP JUMPDEST SWAP1 DUP2 MSTORE PUSH1 0x20 ADD PUSH1 0x40 MLOAD DUP1 SWAP2 SUB SWAP1 KECCAK256 PUSH0 DUP3 ADD MLOAD DUP2 PUSH0 ADD SWAP1 DUP2 PUSH2 0x7DC SWAP2 SWAP1 PUSH2 0x1858 JUMP JUMPDEST POP PUSH1 0x20 DUP3 ADD MLOAD DUP2 PUSH1 0x1 ADD PUSH0 PUSH2 0x100 EXP DUP2 SLOAD DUP2 PUSH2 0xFFFF MUL NOT AND SWAP1 DUP4 PUSH2 0xFFFF AND MUL OR SWAP1 SSTORE POP PUSH1 0x40 DUP3 ADD MLOAD DUP2 PUSH1 0x1 ADD PUSH1 0x2 PUSH2 0x100 EXP DUP2 SLOAD DUP2 PUSH1 0xFF MUL NOT AND SWAP1 DUP4 ISZERO ISZERO MUL OR SWAP1 SSTORE POP SWAP1 POP POP PUSH0 DUP5 PUSH1 0x40 MLOAD PUSH2 0x831 SWAP2 SWAP1 PUSH2 0x160D JUMP JUMPDEST SWAP1 DUP2 MSTORE PUSH1 0x20 ADD PUSH1 0x40 MLOAD DUP1 SWAP2 SUB SWAP1 KECCAK256 DUP4 PUSH1 0x40 MLOAD PUSH2 0x84D SWAP2 SWAP1 PUSH2 0x160D JUMP JUMPDEST SWAP1 DUP2 MSTORE PUSH1 0x20 ADD PUSH1 0x40 MLOAD DUP1 SWAP2 SUB SWAP1 KECCAK256 PUSH0 PUSH0 DUP3 ADD PUSH0 PUSH2 0x86A SWAP2 SWAP1 PUSH2 0xDF4 JUMP JUMPDEST PUSH1 0x1 DUP3 ADD PUSH0 PUSH2 0x100 EXP DUP2 SLOAD SWAP1 PUSH2 0xFFFF MUL NOT AND SWAP1 SSTORE PUSH1 0x1 DUP3 ADD PUSH1 0x2 PUSH2 0x100 EXP DUP2 SLOAD SWAP1 PUSH1 0xFF MUL NOT AND SWAP1 SSTORE POP POP PUSH0 PUSH0 SWAP1 POP JUMPDEST PUSH1 0x1 DUP6 PUSH1 0x40 MLOAD PUSH2 0x8A9 SWAP2 SWAP1 PUSH2 0x160D JUMP JUMPDEST SWAP1 DUP2 MSTORE PUSH1 0x20 ADD PUSH1 0x40 MLOAD DUP1 SWAP2 SUB SWAP1 KECCAK256 DUP1 SLOAD SWAP1 POP DUP2 LT ISZERO PUSH2 0x974 JUMPI DUP4 DUP1 MLOAD SWAP1 PUSH1 0x20 ADD KECCAK256 PUSH1 0x1 DUP7 PUSH1 0x40 MLOAD PUSH2 0x8DA SWAP2 SWAP1 PUSH2 0x160D JUMP JUMPDEST SWAP1 DUP2 MSTORE PUSH1 0x20 ADD PUSH1 0x40 MLOAD DUP1 SWAP2 SUB SWAP1 KECCAK256 DUP3 DUP2 SLOAD DUP2 LT PUSH2 0x8FA JUMPI PUSH2 0x8F9 PUSH2 0x1623 JUMP JUMPDEST JUMPDEST SWAP1 PUSH0 MSTORE PUSH1 0x20 PUSH0 KECCAK256 ADD PUSH1 0x40 MLOAD PUSH2 0x90F SWAP2 SWAP1 PUSH2 0x19C3 JUMP JUMPDEST PUSH1 0x40 MLOAD DUP1 SWAP2 SUB SWAP1 KECCAK256 SUB PUSH2 0x967 JUMPI DUP3 PUSH1 0x1 DUP7 PUSH1 0x40 MLOAD PUSH2 0x92D SWAP2 SWAP1 PUSH2 0x160D JUMP JUMPDEST SWAP1 DUP2 MSTORE PUSH1 0x20 ADD PUSH1 0x40 MLOAD DUP1 SWAP2 SUB SWAP1 KECCAK256 DUP3 DUP2 SLOAD DUP2 LT PUSH2 0x94D JUMPI PUSH2 0x94C PUSH2 0x1623 JUMP JUMPDEST JUMPDEST SWAP1 PUSH0 MSTORE PUSH1 0x20 PUSH0 KECCAK256 ADD SWAP1 DUP2 PUSH2 0x961 SWAP2 SWAP1 PUSH2 0x1858 JUMP JUMPDEST POP PUSH2 0x974 JUMP JUMPDEST DUP1 DUP1 PUSH1 0x1 ADD SWAP2 POP POP PUSH2 0x899 JUMP JUMPDEST POP PUSH2 0x9D1 JUMP JUMPDEST DUP1 PUSH0 DUP6 PUSH1 0x40 MLOAD PUSH2 0x98A SWAP2 SWAP1 PUSH2 0x160D JUMP JUMPDEST SWAP1 DUP2 MSTORE PUSH1 0x20 ADD PUSH1 0x40 MLOAD DUP1 SWAP2 SUB SWAP1 KECCAK256 DUP5 PUSH1 0x40 MLOAD PUSH2 0x9A6 SWAP2 SWAP1 PUSH2 0x160D JUMP JUMPDEST SWAP1 DUP2 MSTORE PUSH1 0x20 ADD PUSH1 0x40 MLOAD DUP1 SWAP2 SUB SWAP1 KECCAK256 PUSH1 0x1 ADD PUSH0 PUSH2 0x100 EXP DUP2 SLOAD DUP2 PUSH2 0xFFFF MUL NOT AND SWAP1 DUP4 PUSH2 0xFFFF AND MUL OR SWAP1 SSTORE POP JUMPDEST POP POP POP POP JUMP JUMPDEST PUSH0 DUP3 PUSH1 0x40 MLOAD PUSH2 0x9E6 SWAP2 SWAP1 PUSH2 0x160D JUMP JUMPDEST SWAP1 DUP2 MSTORE PUSH1 0x20 ADD PUSH1 0x40 MLOAD DUP1 SWAP2 SUB SWAP1 KECCAK256 DUP2 PUSH1 0x40 MLOAD PUSH2 0xA02 SWAP2 SWAP1 PUSH2 0x160D JUMP JUMPDEST SWAP1 DUP2 MSTORE PUSH1 0x20 ADD PUSH1 0x40 MLOAD DUP1 SWAP2 SUB SWAP1 KECCAK256 PUSH1 0x1 ADD PUSH1 0x2 SWAP1 SLOAD SWAP1 PUSH2 0x100 EXP SWAP1 DIV PUSH1 0xFF AND PUSH2 0xA60 JUMPI PUSH1 0x40 MLOAD PUSH32 0x8C379A000000000000000000000000000000000000000000000000000000000 DUP2 MSTORE PUSH1 0x4 ADD PUSH2 0xA57 SWAP1 PUSH2 0x1A23 JUMP JUMPDEST PUSH1 0x40 MLOAD DUP1 SWAP2 SUB SWAP1 REVERT JUMPDEST PUSH0 DUP3 PUSH1 0x40 MLOAD PUSH2 0xA6F SWAP2 SWAP1 PUSH2 0x160D JUMP JUMPDEST SWAP1 DUP2 MSTORE PUSH1 0x20 ADD PUSH1 0x40 MLOAD DUP1 SWAP2 SUB SWAP1 KECCAK256 DUP2 PUSH1 0x40 MLOAD PUSH2 0xA8B SWAP2 SWAP1 PUSH2 0x160D JUMP JUMPDEST SWAP1 DUP2 MSTORE PUSH1 0x20 ADD PUSH1 0x40 MLOAD DUP1 SWAP2 SUB SWAP1 KECCAK256 PUSH0 PUSH0 DUP3 ADD PUSH0 PUSH2 0xAA8 SWAP2 SWAP1 PUSH2 0xDF4 JUMP JUMPDEST PUSH1 0x1 DUP3 ADD PUSH0 PUSH2 0x100 EXP DUP2 SLOAD SWAP1 PUSH2 0xFFFF MUL NOT AND SWAP1 SSTORE PUSH1 0x1 DUP3 ADD PUSH1 0x2 PUSH2 0x100 EXP DUP2 SLOAD SWAP1 PUSH1 0xFF MUL NOT AND SWAP1 SSTORE POP POP PUSH0 PUSH0 SWAP1 POP JUMPDEST PUSH1 0x1 DUP4 PUSH1 0x40 MLOAD PUSH2 0xAE7 SWAP2 SWAP1 PUSH2 0x160D JUMP JUMPDEST SWAP1 DUP2 MSTORE PUSH1 0x20 ADD PUSH1 0x40 MLOAD DUP1 SWAP2 SUB SWAP1 KECCAK256 DUP1 SLOAD SWAP1 POP DUP2 LT ISZERO PUSH2 0xC5E JUMPI DUP2 DUP1 MLOAD SWAP1 PUSH1 0x20 ADD KECCAK256 PUSH1 0x1 DUP5 PUSH1 0x40 MLOAD PUSH2 0xB18 SWAP2 SWAP1 PUSH2 0x160D JUMP JUMPDEST SWAP1 DUP2 MSTORE PUSH1 0x20 ADD PUSH1 0x40 MLOAD DUP1 SWAP2 SUB SWAP1 KECCAK256 DUP3 DUP2 SLOAD DUP2 LT PUSH2 0xB38 JUMPI PUSH2 0xB37 PUSH2 0x1623 JUMP JUMPDEST JUMPDEST SWAP1 PUSH0 MSTORE PUSH1 0x20 PUSH0 KECCAK256 ADD PUSH1 0x40 MLOAD PUSH2 0xB4D SWAP2 SWAP1 PUSH2 0x19C3 JUMP JUMPDEST PUSH1 0x40 MLOAD DUP1 SWAP2 SUB SWAP1 KECCAK256 SUB PUSH2 0xC51 JUMPI PUSH1 0x1 DUP4 PUSH1 0x40 MLOAD PUSH2 0xB6A SWAP2 SWAP1 PUSH2 0x160D JUMP JUMPDEST SWAP1 DUP2 MSTORE PUSH1 0x20 ADD PUSH1 0x40 MLOAD DUP1 SWAP2 SUB SWAP1 KECCAK256 PUSH1 0x1 DUP1 DUP6 PUSH1 0x40 MLOAD PUSH2 0xB89 SWAP2 SWAP1 PUSH2 0x160D JUMP JUMPDEST SWAP1 DUP2 MSTORE PUSH1 0x20 ADD PUSH1 0x40 MLOAD DUP1 SWAP2 SUB SWAP1 KECCAK256 DUP1 SLOAD SWAP1 POP PUSH2 0xBA5 SWAP2 SWAP1 PUSH2 0x1A6E JUMP JUMPDEST DUP2 SLOAD DUP2 LT PUSH2 0xBB6 JUMPI PUSH2 0xBB5 PUSH2 0x1623 JUMP JUMPDEST JUMPDEST SWAP1 PUSH0 MSTORE PUSH1 0x20 PUSH0 KECCAK256 ADD PUSH1 0x1 DUP5 PUSH1 0x40 MLOAD PUSH2 0xBCE SWAP2 SWAP1 PUSH2 0x160D JUMP JUMPDEST SWAP1 DUP2 MSTORE PUSH1 0x20 ADD PUSH1 0x40 MLOAD DUP1 SWAP2 SUB SWAP1 KECCAK256 DUP3 DUP2 SLOAD DUP2 LT PUSH2 0xBEE JUMPI PUSH2 0xBED PUSH2 0x1623 JUMP JUMPDEST JUMPDEST SWAP1 PUSH0 MSTORE PUSH1 0x20 PUSH0 KECCAK256 ADD SWAP1 DUP2 PUSH2 0xC02 SWAP2 SWAP1 PUSH2 0x1AC8 JUMP JUMPDEST POP PUSH1 0x1 DUP4 PUSH1 0x40 MLOAD PUSH2 0xC13 SWAP2 SWAP1 PUSH2 0x160D JUMP JUMPDEST SWAP1 DUP2 MSTORE PUSH1 0x20 ADD PUSH1 0x40 MLOAD DUP1 SWAP2 SUB SWAP1 KECCAK256 DUP1 SLOAD DUP1 PUSH2 0xC31 JUMPI PUSH2 0xC30 PUSH2 0x1BAD JUMP JUMPDEST JUMPDEST PUSH1 0x1 SWAP1 SUB DUP2 DUP2 SWAP1 PUSH0 MSTORE PUSH1 0x20 PUSH0 KECCAK256 ADD PUSH0 PUSH2 0xC4A SWAP2 SWAP1 PUSH2 0xDF4 JUMP JUMPDEST SWAP1 SSTORE PUSH2 0xC5E JUMP JUMPDEST DUP1 DUP1 PUSH1 0x1 ADD SWAP2 POP POP PUSH2 0xAD7 JUMP JUMPDEST POP POP POP JUMP JUMPDEST PUSH0 DUP4 PUSH1 0x40 MLOAD PUSH2 0xC72 SWAP2 SWAP1 PUSH2 0x160D JUMP JUMPDEST SWAP1 DUP2 MSTORE PUSH1 0x20 ADD PUSH1 0x40 MLOAD DUP1 SWAP2 SUB SWAP1 KECCAK256 DUP3 PUSH1 0x40 MLOAD PUSH2 0xC8E SWAP2 SWAP1 PUSH2 0x160D JUMP JUMPDEST SWAP1 DUP2 MSTORE PUSH1 0x20 ADD PUSH1 0x40 MLOAD DUP1 SWAP2 SUB SWAP1 KECCAK256 PUSH1 0x1 ADD PUSH1 0x2 SWAP1 SLOAD SWAP1 PUSH2 0x100 EXP SWAP1 DIV PUSH1 0xFF AND ISZERO PUSH2 0xCED JUMPI PUSH1 0x40 MLOAD PUSH32 0x8C379A000000000000000000000000000000000000000000000000000000000 DUP2 MSTORE PUSH1 0x4 ADD PUSH2 0xCE4 SWAP1 PUSH2 0x1A23 JUMP JUMPDEST PUSH1 0x40 MLOAD DUP1 SWAP2 SUB SWAP1 REVERT JUMPDEST PUSH1 0x40 MLOAD DUP1 PUSH1 0x60 ADD PUSH1 0x40 MSTORE DUP1 DUP4 DUP2 MSTORE PUSH1 0x20 ADD DUP3 PUSH2 0xFFFF AND DUP2 MSTORE PUSH1 0x20 ADD PUSH1 0x1 ISZERO ISZERO DUP2 MSTORE POP PUSH0 DUP5 PUSH1 0x40 MLOAD PUSH2 0xD1E SWAP2 SWAP1 PUSH2 0x160D JUMP JUMPDEST SWAP1 DUP2 MSTORE PUSH1 0x20 ADD PUSH1 0x40 MLOAD DUP1 SWAP2 SUB SWAP1 KECCAK256 DUP4 PUSH1 0x40 MLOAD PUSH2 0xD3A SWAP2 SWAP1 PUSH2 0x160D JUMP JUMPDEST SWAP1 DUP2 MSTORE PUSH1 0x20 ADD PUSH1 0x40 MLOAD DUP1 SWAP2 SUB SWAP1 KECCAK256 PUSH0 DUP3 ADD MLOAD DUP2 PUSH0 ADD SWAP1 DUP2 PUSH2 0xD5B SWAP2 SWAP1 PUSH2 0x1858 JUMP JUMPDEST POP PUSH1 0x20 DUP3 ADD MLOAD DUP2 PUSH1 0x1 ADD PUSH0 PUSH2 0x100 EXP DUP2 SLOAD DUP2 PUSH2 0xFFFF MUL NOT AND SWAP1 DUP4 PUSH2 0xFFFF AND MUL OR SWAP1 SSTORE POP PUSH1 0x40 DUP3 ADD MLOAD DUP2 PUSH1 0x1 ADD PUSH1 0x2 PUSH2 0x100 EXP DUP2 SLOAD DUP2 PUSH1 0xFF MUL NOT AND SWAP1 DUP4 ISZERO ISZERO MUL OR SWAP1 SSTORE POP SWAP1 POP POP PUSH1 0x1 DUP4 PUSH1 0x40 MLOAD PUSH2 0xDB1 SWAP2 SWAP1 PUSH2 0x160D JUMP JUMPDEST SWAP1 DUP2 MSTORE PUSH1 0x20 ADD PUSH1 0x40 MLOAD DUP1 SWAP2 SUB SWAP1 KECCAK256 DUP3 SWAP1 DUP1 PUSH1 0x1 DUP2 SLOAD ADD DUP1 DUP3 SSTORE DUP1 SWAP2 POP POP PUSH1 0x1 SWAP1 SUB SWAP1 PUSH0 MSTORE PUSH1 0x20 PUSH0 KECCAK256 ADD PUSH0 SWAP1 SWAP2 SWAP1 SWAP2 SWAP1 SWAP2 POP SWAP1 DUP2 PUSH2 0xDEE SWAP2 SWAP1 PUSH2 0x1858 JUMP JUMPDEST POP POP POP POP JUMP JUMPDEST POP DUP1 SLOAD PUSH2 0xE00 SWAP1 PUSH2 0x15A3 JUMP JUMPDEST PUSH0 DUP3 SSTORE DUP1 PUSH1 0x1F LT PUSH2 0xE11 JUMPI POP PUSH2 0xE2E JUMP JUMPDEST PUSH1 0x1F ADD PUSH1 0x20 SWAP1 DIV SWAP1 PUSH0 MSTORE PUSH1 0x20 PUSH0 KECCAK256 SWAP1 DUP2 ADD SWAP1 PUSH2 0xE2D SWAP2 SWAP1 PUSH2 0xE31 JUMP JUMPDEST JUMPDEST POP JUMP JUMPDEST JUMPDEST DUP1 DUP3 GT ISZERO PUSH2 0xE48 JUMPI PUSH0 DUP2 PUSH0 SWAP1 SSTORE POP PUSH1 0x1 ADD PUSH2 0xE32 JUMP JUMPDEST POP SWAP1 JUMP JUMPDEST PUSH0 PUSH1 0x40 MLOAD SWAP1 POP SWAP1 JUMP JUMPDEST PUSH0 PUSH0 REVERT JUMPDEST PUSH0 PUSH0 REVERT JUMPDEST PUSH0 PUSH0 REVERT JUMPDEST PUSH0 PUSH0 REVERT JUMPDEST PUSH0 PUSH1 0x1F NOT PUSH1 0x1F DUP4 ADD AND SWAP1 POP SWAP2 SWAP1 POP JUMP JUMPDEST PUSH32 0x4E487B7100000000000000000000000000000000000000000000000000000000 PUSH0 MSTORE PUSH1 0x41 PUSH1 0x4 MSTORE PUSH1 0x24 PUSH0 REVERT JUMPDEST PUSH2 0xEAB DUP3 PUSH2 0xE65 JUMP JUMPDEST DUP2 ADD DUP2 DUP2 LT PUSH8 0xFFFFFFFFFFFFFFFF DUP3 GT OR ISZERO PUSH2 0xECA JUMPI PUSH2 0xEC9 PUSH2 0xE75 JUMP JUMPDEST JUMPDEST DUP1 PUSH1 0x40 MSTORE POP POP POP JUMP JUMPDEST PUSH0 PUSH2 0xEDC PUSH2 0xE4C JUMP JUMPDEST SWAP1 POP PUSH2 0xEE8 DUP3 DUP3 PUSH2 0xEA2 JUMP JUMPDEST SWAP2 SWAP1 POP JUMP JUMPDEST PUSH0 PUSH8 0xFFFFFFFFFFFFFFFF DUP3 GT ISZERO PUSH2 0xF07 JUMPI PUSH2 0xF06 PUSH2 0xE75 JUMP JUMPDEST JUMPDEST PUSH2 0xF10 DUP3 PUSH2 0xE65 JUMP JUMPDEST SWAP1 POP PUSH1 0x20 DUP2 ADD SWAP1 POP SWAP2 SWAP1 POP JUMP JUMPDEST DUP3 DUP2 DUP4 CALLDATACOPY PUSH0 DUP4 DUP4 ADD MSTORE POP POP POP JUMP JUMPDEST PUSH0 PUSH2 0xF3D PUSH2 0xF38 DUP5 PUSH2 0xEED JUMP JUMPDEST PUSH2 0xED3 JUMP JUMPDEST SWAP1 POP DUP3 DUP2 MSTORE PUSH1 0x20 DUP2 ADD DUP5 DUP5 DUP5 ADD GT ISZERO PUSH2 0xF59 JUMPI PUSH2 0xF58 PUSH2 0xE61 JUMP JUMPDEST JUMPDEST PUSH2 0xF64 DUP5 DUP3 DUP6 PUSH2 0xF1D JUMP JUMPDEST POP SWAP4 SWAP3 POP POP POP JUMP JUMPDEST PUSH0 DUP3 PUSH1 0x1F DUP4 ADD SLT PUSH2 0xF80 JUMPI PUSH2 0xF7F PUSH2 0xE5D JUMP JUMPDEST JUMPDEST DUP2 CALLDATALOAD PUSH2 0xF90 DUP5 DUP3 PUSH1 0x20 DUP7 ADD PUSH2 0xF2B JUMP JUMPDEST SWAP2 POP POP SWAP3 SWAP2 POP POP JUMP JUMPDEST PUSH0 PUSH0 PUSH1 0x40 DUP4 DUP6 SUB SLT ISZERO PUSH2 0xFAF JUMPI PUSH2 0xFAE PUSH2 0xE55 JUMP JUMPDEST JUMPDEST PUSH0 DUP4 ADD CALLDATALOAD PUSH8 0xFFFFFFFFFFFFFFFF DUP2 GT ISZERO PUSH2 0xFCC JUMPI PUSH2 0xFCB PUSH2 0xE59 JUMP JUMPDEST JUMPDEST PUSH2 0xFD8 DUP6 DUP3 DUP7 ADD PUSH2 0xF6C JUMP JUMPDEST SWAP3 POP POP PUSH1 0x20 DUP4 ADD CALLDATALOAD PUSH8 0xFFFFFFFFFFFFFFFF DUP2 GT ISZERO PUSH2 0xFF9 JUMPI PUSH2 0xFF8 PUSH2 0xE59 JUMP JUMPDEST JUMPDEST PUSH2 0x1005 DUP6 DUP3 DUP7 ADD PUSH2 0xF6C JUMP JUMPDEST SWAP2 POP POP SWAP3 POP SWAP3 SWAP1 POP JUMP JUMPDEST PUSH0 DUP2 MLOAD SWAP1 POP SWAP2 SWAP1 POP JUMP JUMPDEST PUSH0 DUP3 DUP3 MSTORE PUSH1 0x20 DUP3 ADD SWAP1 POP SWAP3 SWAP2 POP POP JUMP JUMPDEST DUP3 DUP2 DUP4 MCOPY PUSH0 DUP4 DUP4 ADD MSTORE POP POP POP JUMP JUMPDEST PUSH0 PUSH2 0x1041 DUP3 PUSH2 0x100F JUMP JUMPDEST PUSH2 0x104B DUP2 DUP6 PUSH2 0x1019 JUMP JUMPDEST SWAP4 POP PUSH2 0x105B DUP2 DUP6 PUSH1 0x20 DUP7 ADD PUSH2 0x1029 JUMP JUMPDEST PUSH2 0x1064 DUP2 PUSH2 0xE65 JUMP JUMPDEST DUP5 ADD SWAP2 POP POP SWAP3 SWAP2 POP POP JUMP JUMPDEST PUSH0 PUSH2 0xFFFF DUP3 AND SWAP1 POP SWAP2 SWAP1 POP JUMP JUMPDEST PUSH2 0x1085 DUP2 PUSH2 0x106F JUMP JUMPDEST DUP3 MSTORE POP POP JUMP JUMPDEST PUSH0 DUP2 ISZERO ISZERO SWAP1 POP SWAP2 SWAP1 POP JUMP JUMPDEST PUSH2 0x109F DUP2 PUSH2 0x108B JUMP JUMPDEST DUP3 MSTORE POP POP JUMP JUMPDEST PUSH0 PUSH1 0x60 DUP3 ADD SWAP1 POP DUP2 DUP2 SUB PUSH0 DUP4 ADD MSTORE PUSH2 0x10BD DUP2 DUP7 PUSH2 0x1037 JUMP JUMPDEST SWAP1 POP PUSH2 0x10CC PUSH1 0x20 DUP4 ADD DUP6 PUSH2 0x107C JUMP JUMPDEST PUSH2 0x10D9 PUSH1 0x40 DUP4 ADD DUP5 PUSH2 0x1096 JUMP JUMPDEST SWAP5 SWAP4 POP POP POP POP JUMP JUMPDEST PUSH0 PUSH1 0x20 DUP3 DUP5 SUB SLT ISZERO PUSH2 0x10F6 JUMPI PUSH2 0x10F5 PUSH2 0xE55 JUMP JUMPDEST JUMPDEST PUSH0 DUP3 ADD CALLDATALOAD PUSH8 0xFFFFFFFFFFFFFFFF DUP2 GT ISZERO PUSH2 0x1113 JUMPI PUSH2 0x1112 PUSH2 0xE59 JUMP JUMPDEST JUMPDEST PUSH2 0x111F DUP5 DUP3 DUP6 ADD PUSH2 0xF6C JUMP JUMPDEST SWAP2 POP POP SWAP3 SWAP2 POP POP JUMP JUMPDEST PUSH0 DUP2 SWAP1 POP SWAP2 SWAP1 POP JUMP JUMPDEST PUSH2 0x113A DUP2 PUSH2 0x1128 JUMP JUMPDEST DUP3 MSTORE POP POP JUMP JUMPDEST PUSH0 PUSH1 0x20 DUP3 ADD SWAP1 POP PUSH2 0x1153 PUSH0 DUP4 ADD DUP5 PUSH2 0x1131 JUMP JUMPDEST SWAP3 SWAP2 POP POP JUMP JUMPDEST PUSH0 DUP2 MLOAD SWAP1 POP SWAP2 SWAP1 POP JUMP JUMPDEST PUSH0 DUP3 DUP3 MSTORE PUSH1 0x20 DUP3 ADD SWAP1 POP SWAP3 SWAP2 POP POP JUMP JUMPDEST PUSH0 DUP2 SWAP1 POP PUSH1 0x20 DUP3 ADD SWAP1 POP SWAP2 SWAP1 POP JUMP JUMPDEST PUSH0 DUP3 DUP3 MSTORE PUSH1 0x20 DUP3 ADD SWAP1 POP SWAP3 SWAP2 POP POP JUMP JUMPDEST PUSH0 PUSH2 0x119C DUP3 PUSH2 0x100F JUMP JUMPDEST PUSH2 0x11A6 DUP2 DUP6 PUSH2 0x1182 JUMP JUMPDEST SWAP4 POP PUSH2 0x11B6 DUP2 DUP6 PUSH1 0x20 DUP7 ADD PUSH2 0x1029 JUMP JUMPDEST PUSH2 0x11BF DUP2 PUSH2 0xE65 JUMP JUMPDEST DUP5 ADD SWAP2 POP POP SWAP3 SWAP2 POP POP JUMP JUMPDEST PUSH0 PUSH2 0x11D5 DUP4 DUP4 PUSH2 0x1192 JUMP JUMPDEST SWAP1 POP SWAP3 SWAP2 POP POP JUMP JUMPDEST PUSH0 PUSH1 0x20 DUP3 ADD SWAP1 POP SWAP2 SWAP1 POP JUMP JUMPDEST PUSH0 PUSH2 0x11F3 DUP3 PUSH2 0x1159 JUMP JUMPDEST PUSH2 0x11FD DUP2 DUP6 PUSH2 0x1163 JUMP JUMPDEST SWAP4 POP DUP4 PUSH1 0x20 DUP3 MUL DUP6 ADD PUSH2 0x120F DUP6 PUSH2 0x1173 JUMP JUMPDEST DUP1 PUSH0 JUMPDEST DUP6 DUP2 LT ISZERO PUSH2 0x124A JUMPI DUP5 DUP5 SUB DUP10 MSTORE DUP2 MLOAD PUSH2 0x122B DUP6 DUP3 PUSH2 0x11CA JUMP JUMPDEST SWAP5 POP PUSH2 0x1236 DUP4 PUSH2 0x11DD JUMP JUMPDEST SWAP3 POP PUSH1 0x20 DUP11 ADD SWAP10 POP POP PUSH1 0x1 DUP2 ADD SWAP1 POP PUSH2 0x1212 JUMP JUMPDEST POP DUP3 SWAP8 POP DUP8 SWAP6 POP POP POP POP POP POP SWAP3 SWAP2 POP POP JUMP JUMPDEST PUSH0 PUSH1 0x20 DUP3 ADD SWAP1 POP DUP2 DUP2 SUB PUSH0 DUP4 ADD MSTORE PUSH2 0x1274 DUP2 DUP5 PUSH2 0x11E9 JUMP JUMPDEST SWAP1 POP SWAP3 SWAP2 POP POP JUMP JUMPDEST PUSH0 DUP2 MLOAD SWAP1 POP SWAP2 SWAP1 POP JUMP JUMPDEST PUSH0 DUP3 DUP3 MSTORE PUSH1 0x20 DUP3 ADD SWAP1 POP SWAP3 SWAP2 POP POP JUMP JUMPDEST PUSH0 DUP2 SWAP1 POP PUSH1 0x20 DUP3 ADD SWAP1 POP SWAP2 SWAP1 POP JUMP JUMPDEST PUSH2 0x12AE DUP2 PUSH2 0x1128 JUMP JUMPDEST DUP3 MSTORE POP POP JUMP JUMPDEST PUSH0 PUSH2 0x12BF DUP4 DUP4 PUSH2 0x12A5 JUMP JUMPDEST PUSH1 0x20 DUP4 ADD SWAP1 POP SWAP3 SWAP2 POP POP JUMP JUMPDEST PUSH0 PUSH1 0x20 DUP3 ADD SWAP1 POP SWAP2 SWAP1 POP JUMP JUMPDEST PUSH0 PUSH2 0x12E1 DUP3 PUSH2 0x127C JUMP JUMPDEST PUSH2 0x12EB DUP2 DUP6 PUSH2 0x1286 JUMP JUMPDEST SWAP4 POP PUSH2 0x12F6 DUP4 PUSH2 0x1296 JUMP JUMPDEST DUP1 PUSH0 JUMPDEST DUP4 DUP2 LT ISZERO PUSH2 0x1326 JUMPI DUP2 MLOAD PUSH2 0x130D DUP9 DUP3 PUSH2 0x12B4 JUMP JUMPDEST SWAP8 POP PUSH2 0x1318 DUP4 PUSH2 0x12CB JUMP JUMPDEST SWAP3 POP POP PUSH1 0x1 DUP2 ADD SWAP1 POP PUSH2 0x12F9 JUMP JUMPDEST POP DUP6 SWAP4 POP POP POP POP SWAP3 SWAP2 POP POP JUMP JUMPDEST PUSH0 PUSH1 0x40 DUP3 ADD SWAP1 POP DUP2 DUP2 SUB PUSH0 DUP4 ADD MSTORE PUSH2 0x134B DUP2 DUP6 PUSH2 0x11E9 JUMP JUMPDEST SWAP1 POP DUP2 DUP2 SUB PUSH1 0x20 DUP4 ADD MSTORE PUSH2 0x135F DUP2 DUP5 PUSH2 0x12D7 JUMP JUMPDEST SWAP1 POP SWAP4 SWAP3 POP POP POP JUMP JUMPDEST PUSH2 0x1371 DUP2 PUSH2 0x1128 JUMP JUMPDEST DUP2 EQ PUSH2 0x137B JUMPI PUSH0 PUSH0 REVERT JUMPDEST POP JUMP JUMPDEST PUSH0 DUP2 CALLDATALOAD SWAP1 POP PUSH2 0x138C DUP2 PUSH2 0x1368 JUMP JUMPDEST SWAP3 SWAP2 POP POP JUMP JUMPDEST PUSH0 PUSH0 PUSH1 0x40 DUP4 DUP6 SUB SLT ISZERO PUSH2 0x13A8 JUMPI PUSH2 0x13A7 PUSH2 0xE55 JUMP JUMPDEST JUMPDEST PUSH0 DUP4 ADD CALLDATALOAD PUSH8 0xFFFFFFFFFFFFFFFF DUP2 GT ISZERO PUSH2 0x13C5 JUMPI PUSH2 0x13C4 PUSH2 0xE59 JUMP JUMPDEST JUMPDEST PUSH2 0x13D1 DUP6 DUP3 DUP7 ADD PUSH2 0xF6C JUMP JUMPDEST SWAP3 POP POP PUSH1 0x20 PUSH2 0x13E2 DUP6 DUP3 DUP7 ADD PUSH2 0x137E JUMP JUMPDEST SWAP2 POP POP SWAP3 POP SWAP3 SWAP1 POP JUMP JUMPDEST PUSH0 PUSH1 0x20 DUP3 ADD SWAP1 POP DUP2 DUP2 SUB PUSH0 DUP4 ADD MSTORE PUSH2 0x1404 DUP2 DUP5 PUSH2 0x1037 JUMP JUMPDEST SWAP1 POP SWAP3 SWAP2 POP POP JUMP JUMPDEST PUSH2 0x1415 DUP2 PUSH2 0x106F JUMP JUMPDEST DUP2 EQ PUSH2 0x141F JUMPI PUSH0 PUSH0 REVERT JUMPDEST POP JUMP JUMPDEST PUSH0 DUP2 CALLDATALOAD SWAP1 POP PUSH2 0x1430 DUP2 PUSH2 0x140C JUMP JUMPDEST SWAP3 SWAP2 POP POP JUMP JUMPDEST PUSH0 PUSH0 PUSH0 PUSH0 PUSH1 0x80 DUP6 DUP8 SUB SLT ISZERO PUSH2 0x144E JUMPI PUSH2 0x144D PUSH2 0xE55 JUMP JUMPDEST JUMPDEST PUSH0 DUP6 ADD CALLDATALOAD PUSH8 0xFFFFFFFFFFFFFFFF DUP2 GT ISZERO PUSH2 0x146B JUMPI PUSH2 0x146A PUSH2 0xE59 JUMP JUMPDEST JUMPDEST PUSH2 0x1477 DUP8 DUP3 DUP9 ADD PUSH2 0xF6C JUMP JUMPDEST SWAP5 POP POP PUSH1 0x20 DUP6 ADD CALLDATALOAD PUSH8 0xFFFFFFFFFFFFFFFF DUP2 GT ISZERO PUSH2 0x1498 JUMPI PUSH2 0x1497 PUSH2 0xE59 JUMP JUMPDEST JUMPDEST PUSH2 0x14A4 DUP8 DUP3 DUP9 ADD PUSH2 0xF6C JUMP JUMPDEST SWAP4 POP POP PUSH1 0x40 DUP6 ADD CALLDATALOAD PUSH8 0xFFFFFFFFFFFFFFFF DUP2 GT ISZERO PUSH2 0x14C5 JUMPI PUSH2 0x14C4 PUSH2 0xE59 JUMP JUMPDEST JUMPDEST PUSH2 0x14D1 DUP8 DUP3 DUP9 ADD PUSH2 0xF6C JUMP JUMPDEST SWAP3 POP POP PUSH1 0x60 PUSH2 0x14E2 DUP8 DUP3 DUP9 ADD PUSH2 0x1422 JUMP JUMPDEST SWAP2 POP POP SWAP3 SWAP6 SWAP2 SWAP5 POP SWAP3 POP JUMP JUMPDEST PUSH0 PUSH0 PUSH0 PUSH1 0x60 DUP5 DUP7 SUB SLT ISZERO PUSH2 0x1505 JUMPI PUSH2 0x1504 PUSH2 0xE55 JUMP JUMPDEST JUMPDEST PUSH0 DUP5 ADD CALLDATALOAD PUSH8 0xFFFFFFFFFFFFFFFF DUP2 GT ISZERO PUSH2 0x1522 JUMPI PUSH2 0x1521 PUSH2 0xE59 JUMP JUMPDEST JUMPDEST PUSH2 0x152E DUP7 DUP3 DUP8 ADD PUSH2 0xF6C JUMP JUMPDEST SWAP4 POP POP PUSH1 0x20 DUP5 ADD CALLDATALOAD PUSH8 0xFFFFFFFFFFFFFFFF DUP2 GT ISZERO PUSH2 0x154F JUMPI PUSH2 0x154E PUSH2 0xE59 JUMP JUMPDEST JUMPDEST PUSH2 0x155B DUP7 DUP3 DUP8 ADD PUSH2 0xF6C JUMP JUMPDEST SWAP3 POP POP PUSH1 0x40 PUSH2 0x156C DUP7 DUP3 DUP8 ADD PUSH2 0x1422 JUMP JUMPDEST SWAP2 POP POP SWAP3 POP SWAP3 POP SWAP3 JUMP JUMPDEST PUSH32 0x4E487B7100000000000000000000000000000000000000000000000000000000 PUSH0 MSTORE PUSH1 0x22 PUSH1 0x4 MSTORE PUSH1 0x24 PUSH0 REVERT JUMPDEST PUSH0 PUSH1 0x2 DUP3 DIV SWAP1 POP PUSH1 0x1 DUP3 AND DUP1 PUSH2 0x15BA JUMPI PUSH1 0x7F DUP3 AND SWAP2 POP JUMPDEST PUSH1 0x20 DUP3 LT DUP2 SUB PUSH2 0x15CD JUMPI PUSH2 0x15CC PUSH2 0x1576 JUMP JUMPDEST JUMPDEST POP SWAP2 SWAP1 POP JUMP JUMPDEST PUSH0 DUP2 SWAP1 POP SWAP3 SWAP2 POP POP JUMP JUMPDEST PUSH0 PUSH2 0x15E7 DUP3 PUSH2 0x100F JUMP JUMPDEST PUSH2 0x15F1 DUP2 DUP6 PUSH2 0x15D3 JUMP JUMPDEST SWAP4 POP PUSH2 0x1601 DUP2 DUP6 PUSH1 0x20 DUP7 ADD PUSH2 0x1029 JUMP JUMPDEST DUP1 DUP5 ADD SWAP2 POP POP SWAP3 SWAP2 POP POP JUMP JUMPDEST PUSH0 PUSH2 0x1618 DUP3 DUP5 PUSH2 0x15DD JUMP JUMPDEST SWAP2 POP DUP2 SWAP1 POP SWAP3 SWAP2 POP POP JUMP JUMPDEST PUSH32 0x4E487B7100000000000000000000000000000000000000000000000000000000 PUSH0 MSTORE PUSH1 0x32 PUSH1 0x4 MSTORE PUSH1 0x24 PUSH0 REVERT JUMPDEST PUSH32 0x426F6F6B20646F6573206E6F7420657869737400000000000000000000000000 PUSH0 DUP3 ADD MSTORE POP JUMP JUMPDEST PUSH0 PUSH2 0x1684 PUSH1 0x13 DUP4 PUSH2 0x1019 JUMP JUMPDEST SWAP2 POP PUSH2 0x168F DUP3 PUSH2 0x1650 JUMP JUMPDEST PUSH1 0x20 DUP3 ADD SWAP1 POP SWAP2 SWAP1 POP JUMP JUMPDEST PUSH0 PUSH1 0x20 DUP3 ADD SWAP1 POP DUP2 DUP2 SUB PUSH0 DUP4 ADD MSTORE PUSH2 0x16B1 DUP2 PUSH2 0x1678 JUMP JUMPDEST SWAP1 POP SWAP2 SWAP1 POP JUMP JUMPDEST PUSH0 DUP2 SWAP1 POP DUP2 PUSH0 MSTORE PUSH1 0x20 PUSH0 KECCAK256 SWAP1 POP SWAP2 SWAP1 POP JUMP JUMPDEST PUSH0 PUSH1 0x20 PUSH1 0x1F DUP4 ADD DIV SWAP1 POP SWAP2 SWAP1 POP JUMP JUMPDEST PUSH0 DUP3 DUP3 SHL SWAP1 POP SWAP3 SWAP2 POP POP JUMP JUMPDEST PUSH0 PUSH1 0x8 DUP4 MUL PUSH2 0x1714 PUSH32 0xFFFFFFFFFFFFFFFFFFFFFFFFFFFFFFFFFFFFFFFFFFFFFFFFFFFFFFFFFFFFFFFF DUP3 PUSH2 0x16D9 JUMP JUMPDEST PUSH2 0x171E DUP7 DUP4 PUSH2 0x16D9 JUMP JUMPDEST SWAP6 POP DUP1 NOT DUP5 AND SWAP4 POP DUP1 DUP7 AND DUP5 OR SWAP3 POP POP POP SWAP4 SWAP3 POP POP POP JUMP JUMPDEST PUSH0 DUP2 SWAP1 POP SWAP2 SWAP1 POP JUMP JUMPDEST PUSH0 PUSH2 0x1759 PUSH2 0x1754 PUSH2 0x174F DUP5 PUSH2 0x1128 JUMP JUMPDEST PUSH2 0x1736 JUMP JUMPDEST PUSH2 0x1128 JUMP JUMPDEST SWAP1 POP SWAP2 SWAP1 POP JUMP JUMPDEST PUSH0 DUP2 SWAP1 POP SWAP2 SWAP1 POP JUMP JUMPDEST PUSH2 0x1772 DUP4 PUSH2 0x173F JUMP JUMPDEST PUSH2 0x1786 PUSH2 0x177E DUP3 PUSH2 0x1760 JUMP JUMPDEST DUP5 DUP5 SLOAD PUSH2 0x16E5 JUMP JUMPDEST DUP3 SSTORE POP POP POP POP JUMP JUMPDEST PUSH0 PUSH0 SWAP1 POP SWAP1 JUMP JUMPDEST PUSH2 0x179D PUSH2 0x178E JUMP JUMPDEST PUSH2 0x17A8 DUP2 DUP5 DUP5 PUSH2 0x1769 JUMP JUMPDEST POP POP POP JUMP JUMPDEST JUMPDEST DUP2 DUP2 LT ISZERO PUSH2 0x17CB JUMPI PUSH2 0x17C0 PUSH0 DUP3 PUSH2 0x1795 JUMP JUMPDEST PUSH1 0x1 DUP2 ADD SWAP1 POP PUSH2 0x17AE JUMP JUMPDEST POP POP JUMP JUMPDEST PUSH1 0x1F DUP3 GT ISZERO PUSH2 0x1810 JUMPI PUSH2 0x17E1 DUP2 PUSH2 0x16B8 JUMP JUMPDEST PUSH2 0x17EA DUP5 PUSH2 0x16CA JUMP JUMPDEST DUP2 ADD PUSH1 0x20 DUP6 LT ISZERO PUSH2 0x17F9 JUMPI DUP2 SWAP1 POP JUMPDEST PUSH2 0x180D PUSH2 0x1805 DUP6 PUSH2 0x16CA JUMP JUMPDEST DUP4 ADD DUP3 PUSH2 0x17AD JUMP JUMPDEST POP POP JUMPDEST POP POP POP JUMP JUMPDEST PUSH0 DUP3 DUP3 SHR SWAP1 POP SWAP3 SWAP2 POP POP JUMP JUMPDEST PUSH0 PUSH2 0x1830 PUSH0 NOT DUP5 PUSH1 0x8 MUL PUSH2 0x1815 JUMP JUMPDEST NOT DUP1 DUP4 AND SWAP2 POP POP SWAP3 SWAP2 POP POP JUMP JUMPDEST PUSH0 PUSH2 0x1848 DUP4 DUP4 PUSH2 0x1821 JUMP JUMPDEST SWAP2 POP DUP3 PUSH1 0x2 MUL DUP3 OR SWAP1 POP SWAP3 SWAP2 POP POP JUMP JUMPDEST PUSH2 0x1861 DUP3 PUSH2 0x100F JUMP JUMPDEST PUSH8 0xFFFFFFFFFFFFFFFF DUP2 GT ISZERO PUSH2 0x187A JUMPI PUSH2 0x1879 PUSH2 0xE75 JUMP JUMPDEST JUMPDEST PUSH2 0x1884 DUP3 SLOAD PUSH2 0x15A3 JUMP JUMPDEST PUSH2 0x188F DUP3 DUP3 DUP6 PUSH2 0x17CF JUMP JUMPDEST PUSH0 PUSH1 0x20 SWAP1 POP PUSH1 0x1F DUP4 GT PUSH1 0x1 DUP2 EQ PUSH2 0x18C0 JUMPI PUSH0 DUP5 ISZERO PUSH2 0x18AE JUMPI DUP3 DUP8 ADD MLOAD SWAP1 POP JUMPDEST PUSH2 0x18B8 DUP6 DUP3 PUSH2 0x183D JUMP JUMPDEST DUP7 SSTORE POP PUSH2 0x191F JUMP JUMPDEST PUSH1 0x1F NOT DUP5 AND PUSH2 0x18CE DUP7 PUSH2 0x16B8 JUMP JUMPDEST PUSH0 JUMPDEST DUP3 DUP2 LT ISZERO PUSH2 0x18F5 JUMPI DUP5 DUP10 ADD MLOAD DUP3 SSTORE PUSH1 0x1 DUP3 ADD SWAP2 POP PUSH1 0x20 DUP6 ADD SWAP5 POP PUSH1 0x20 DUP2 ADD SWAP1 POP PUSH2 0x18D0 JUMP JUMPDEST DUP7 DUP4 LT ISZERO PUSH2 0x1912 JUMPI DUP5 DUP10 ADD MLOAD PUSH2 0x190E PUSH1 0x1F DUP10 AND DUP3 PUSH2 0x1821 JUMP JUMPDEST DUP4 SSTORE POP JUMPDEST PUSH1 0x1 PUSH1 0x2 DUP9 MUL ADD DUP9 SSTORE POP POP POP JUMPDEST POP POP POP POP POP POP JUMP JUMPDEST PUSH0 DUP2 SWAP1 POP SWAP3 SWAP2 POP POP JUMP JUMPDEST PUSH0 DUP2 SWAP1 POP DUP2 PUSH0 MSTORE PUSH1 0x20 PUSH0 KECCAK256 SWAP1 POP SWAP2 SWAP1 POP JUMP JUMPDEST PUSH0 DUP2 SLOAD PUSH2 0x194F DUP2 PUSH2 0x15A3 JUMP JUMPDEST PUSH2 0x1959 DUP2 DUP7 PUSH2 0x1927 JUMP JUMPDEST SWAP5 POP PUSH1 0x1 DUP3 AND PUSH0 DUP2 EQ PUSH2 0x1973 JUMPI PUSH1 0x1 DUP2 EQ PUSH2 0x1988 JUMPI PUSH2 0x19BA JUMP JUMPDEST PUSH1 0xFF NOT DUP4 AND DUP7 MSTORE DUP2 ISZERO ISZERO DUP3 MUL DUP7 ADD SWAP4 POP PUSH2 0x19BA JUMP JUMPDEST PUSH2 0x1991 DUP6 PUSH2 0x1931 JUMP JUMPDEST PUSH0 JUMPDEST DUP4 DUP2 LT ISZERO PUSH2 0x19B2 JUMPI DUP2 SLOAD DUP2 DUP10 ADD MSTORE PUSH1 0x1 DUP3 ADD SWAP2 POP PUSH1 0x20 DUP2 ADD SWAP1 POP PUSH2 0x1993 JUMP JUMPDEST DUP4 DUP9 ADD SWAP6 POP POP POP JUMPDEST POP POP POP SWAP3 SWAP2 POP POP JUMP JUMPDEST PUSH0 PUSH2 0x19CE DUP3 DUP5 PUSH2 0x1943 JUMP JUMPDEST SWAP2 POP DUP2 SWAP1 POP SWAP3 SWAP2 POP POP JUMP JUMPDEST PUSH32 0x426F6F6B20616C72656164792065786973747300000000000000000000000000 PUSH0 DUP3 ADD MSTORE POP JUMP JUMPDEST PUSH0 PUSH2 0x1A0D PUSH1 0x13 DUP4 PUSH2 0x1019 JUMP JUMPDEST SWAP2 POP PUSH2 0x1A18 DUP3 PUSH2 0x19D9 JUMP JUMPDEST PUSH1 0x20 DUP3 ADD SWAP1 POP SWAP2 SWAP1 POP JUMP JUMPDEST PUSH0 PUSH1 0x20 DUP3 ADD SWAP1 POP DUP2 DUP2 SUB PUSH0 DUP4 ADD MSTORE PUSH2 0x1A3A DUP2 PUSH2 0x1A01 JUMP JUMPDEST SWAP1 POP SWAP2 SWAP1 POP JUMP JUMPDEST PUSH32 0x4E487B7100000000000000000000000000000000000000000000000000000000 PUSH0 MSTORE PUSH1 0x11 PUSH1 0x4 MSTORE PUSH1 0x24 PUSH0 REVERT JUMPDEST PUSH0 PUSH2 0x1A78 DUP3 PUSH2 0x1128 JUMP JUMPDEST SWAP2 POP PUSH2 0x1A83 DUP4 PUSH2 0x1128 JUMP JUMPDEST SWAP3 POP DUP3 DUP3 SUB SWAP1 POP DUP2 DUP2 GT ISZERO PUSH2 0x1A9B JUMPI PUSH2 0x1A9A PUSH2 0x1A41 JUMP JUMPDEST JUMPDEST SWAP3 SWAP2 POP POP JUMP JUMPDEST PUSH0 DUP2 SLOAD SWAP1 POP PUSH2 0x1AAF DUP2 PUSH2 0x15A3 JUMP JUMPDEST SWAP1 POP SWAP2 SWAP1 POP JUMP JUMPDEST PUSH0 DUP2 SWAP1 POP DUP2 PUSH0 MSTORE PUSH1 0x20 PUSH0 KECCAK256 SWAP1 POP SWAP2 SWAP1 POP JUMP JUMPDEST DUP2 DUP2 SUB PUSH2 0x1AD6 JUMPI POP POP PUSH2 0x1BAB JUMP JUMPDEST PUSH2 0x1ADF DUP3 PUSH2 0x1AA1 JUMP JUMPDEST PUSH8 0xFFFFFFFFFFFFFFFF DUP2 GT ISZERO PUSH2 0x1AF8 JUMPI PUSH2 0x1AF7 PUSH2 0xE75 JUMP JUMPDEST JUMPDEST PUSH2 0x1B02 DUP3 SLOAD PUSH2 0x15A3 JUMP JUMPDEST PUSH2 0x1B0D DUP3 DUP3 DUP6 PUSH2 0x17CF JUMP JUMPDEST PUSH0 PUSH1 0x1F DUP4 GT PUSH1 0x1 DUP2 EQ PUSH2 0x1B3A JUMPI PUSH0 DUP5 ISZERO PUSH2 0x1B28 JUMPI DUP3 DUP8 ADD SLOAD SWAP1 POP JUMPDEST PUSH2 0x1B32 DUP6 DUP3 PUSH2 0x183D JUMP JUMPDEST DUP7 SSTORE POP PUSH2 0x1BA4 JUMP JUMPDEST PUSH1 0x1F NOT DUP5 AND PUSH2 0x1B48 DUP8 PUSH2 0x1AB6 JUMP JUMPDEST SWAP7 POP PUSH2 0x1B53 DUP7 PUSH2 0x16B8 JUMP JUMPDEST PUSH0 JUMPDEST DUP3 DUP2 LT ISZERO PUSH2 0x1B7A JUMPI DUP5 DUP10 ADD SLOAD DUP3 SSTORE PUSH1 0x1 DUP3 ADD SWAP2 POP PUSH1 0x1 DUP6 ADD SWAP5 POP PUSH1 0x20 DUP2 ADD SWAP1 POP PUSH2 0x1B55 JUMP JUMPDEST DUP7 DUP4 LT ISZERO PUSH2 0x1B97 JUMPI DUP5 DUP10 ADD SLOAD PUSH2 0x1B93 PUSH1 0x1F DUP10 AND DUP3 PUSH2 0x1821 JUMP JUMPDEST DUP4 SSTORE POP JUMPDEST PUSH1 0x1 PUSH1 0x2 DUP9 MUL ADD DUP9 SSTORE POP POP POP JUMPDEST POP POP POP POP POP POP JUMPDEST JUMP JUMPDEST PUSH32 0x4E487B7100000000000000000000000000000000000000000000000000000000 PUSH0 MSTORE PUSH1 0x31 PUSH1 0x4 MSTORE PUSH1 0x24 PUSH0 REVERT INVALID LOG2 PUSH5 0x6970667358 0x22 SLT KECCAK256 PUSH13 0xFEB6C74DBDFCBC73CAC9C6377A SELFDESTRUCT CALLER 0xD5 PUSH27 0x10F0282B0647F3E31B55C69F469F64736F6C634300081F00330000 "
				},
				"gasEstimates": {
					"creation": {
						"codeDepositCost": "1436800",
						"executionCost": "1497",
						"totalCost": "1438297"
					},
					"external": {
						"addBook(string,string,uint16)": "infinite",
						"authorBooks(string,string)": "infinite",
						"authorBooksTitles(string,uint256)": "infinite",
						"deleteBook(string,string)": "infinite",
						"getBookCountByAuthor(string)": "infinite",
						"getTitlesAndYears(string)": "infinite",
						"getTitlesByAuthor(string)": "infinite",
						"updateBook(string,string,string,uint16)": "infinite"
					}
				},
				"methodIdentifiers": {
					"addBook(string,string,uint16)": "cd80723a",
					"authorBooks(string,string)": "12b2f1ad",
					"authorBooksTitles(string,uint256)": "a673c0b6",
					"deleteBook(string,string)": "c95b6ec0",
					"getBookCountByAuthor(string)": "5bbd93c5",
					"getTitlesAndYears(string)": "8c031312",
					"getTitlesByAuthor(string)": "7032185b",
					"updateBook(string,string,string,uint16)": "b622fb02"
				}
			},
			"storageLayout": {
				"storage": [
					{
						"astId": 15,
						"contract": "contracts/Lektion3/MappingLibrary.sol:MappingLibrary",
						"label": "authorBooks",
						"offset": 0,
						"slot": "0",
						"type": "t_mapping(t_string_memory_ptr,t_mapping(t_string_memory_ptr,t_struct(Book)8_storage))"
					},
					{
						"astId": 20,
						"contract": "contracts/Lektion3/MappingLibrary.sol:MappingLibrary",
						"label": "authorBooksTitles",
						"offset": 0,
						"slot": "1",
						"type": "t_mapping(t_string_memory_ptr,t_array(t_string_storage)dyn_storage)"
					}
				],
				"types": {
					"t_array(t_string_storage)dyn_storage": {
						"base": "t_string_storage",
						"encoding": "dynamic_array",
						"label": "string[]",
						"numberOfBytes": "32"
					},
					"t_bool": {
						"encoding": "inplace",
						"label": "bool",
						"numberOfBytes": "1"
					},
					"t_mapping(t_string_memory_ptr,t_array(t_string_storage)dyn_storage)": {
						"encoding": "mapping",
						"key": "t_string_memory_ptr",
						"label": "mapping(string => string[])",
						"numberOfBytes": "32",
						"value": "t_array(t_string_storage)dyn_storage"
					},
					"t_mapping(t_string_memory_ptr,t_mapping(t_string_memory_ptr,t_struct(Book)8_storage))": {
						"encoding": "mapping",
						"key": "t_string_memory_ptr",
						"label": "mapping(string => mapping(string => struct MappingLibrary.Book))",
						"numberOfBytes": "32",
						"value": "t_mapping(t_string_memory_ptr,t_struct(Book)8_storage)"
					},
					"t_mapping(t_string_memory_ptr,t_struct(Book)8_storage)": {
						"encoding": "mapping",
						"key": "t_string_memory_ptr",
						"label": "mapping(string => struct MappingLibrary.Book)",
						"numberOfBytes": "32",
						"value": "t_struct(Book)8_storage"
					},
					"t_string_memory_ptr": {
						"encoding": "bytes",
						"label": "string",
						"numberOfBytes": "32"
					},
					"t_string_storage": {
						"encoding": "bytes",
						"label": "string",
						"numberOfBytes": "32"
					},
					"t_struct(Book)8_storage": {
						"encoding": "inplace",
						"label": "struct MappingLibrary.Book",
						"members": [
							{
								"astId": 3,
								"contract": "contracts/Lektion3/MappingLibrary.sol:MappingLibrary",
								"label": "title",
								"offset": 0,
								"slot": "0",
								"type": "t_string_storage"
							},
							{
								"astId": 5,
								"contract": "contracts/Lektion3/MappingLibrary.sol:MappingLibrary",
								"label": "year",
								"offset": 0,
								"slot": "1",
								"type": "t_uint16"
							},
							{
								"astId": 7,
								"contract": "contracts/Lektion3/MappingLibrary.sol:MappingLibrary",
								"label": "exist",
								"offset": 2,
								"slot": "1",
								"type": "t_bool"
							}
						],
						"numberOfBytes": "64"
					},
					"t_uint16": {
						"encoding": "inplace",
						"label": "uint16",
						"numberOfBytes": "2"
					}
				}
			},
			"userdoc": {
				"kind": "user",
				"methods": {},
				"version": 1
			}
		}
	}
}