{
	"contracts/Lektion3/MappingLibrary.sol": {
		"MappingLibrary": {
			"abi": [
				{
					"inputs": [
						{
							"internalType": "string",
							"name": "bookAuthor",
							"type": "string"
						},
						{
							"internalType": "string",
							"name": "bookTitle",
							"type": "string"
						},
						{
							"internalType": "uint16",
							"name": "publicationYear",
							"type": "uint16"
						}
					],
					"name": "addBook",
					"outputs": [],
					"stateMutability": "nonpayable",
					"type": "function"
				},
				{
					"inputs": [
						{
							"internalType": "string",
							"name": "",
							"type": "string"
						},
						{
							"internalType": "string",
							"name": "",
							"type": "string"
						}
					],
					"name": "authorBooks",
					"outputs": [
						{
							"internalType": "string",
							"name": "title",
							"type": "string"
						},
						{
							"internalType": "uint16",
							"name": "year",
							"type": "uint16"
						},
						{
							"internalType": "bool",
							"name": "exist",
							"type": "bool"
						}
					],
					"stateMutability": "view",
					"type": "function"
				},
				{
					"inputs": [
						{
							"internalType": "string",
							"name": "",
							"type": "string"
						},
						{
							"internalType": "uint256",
							"name": "",
							"type": "uint256"
						}
					],
					"name": "authorBooksTitles",
					"outputs": [
						{
							"internalType": "string",
							"name": "",
							"type": "string"
						}
					],
					"stateMutability": "view",
					"type": "function"
				}
			],
			"devdoc": {
				"kind": "dev",
				"methods": {},
				"version": 1
			},
			"evm": {
				"assembly": "    /* \"contracts/Lektion3/MappingLibrary.sol\":60:883  contract MappingLibrary {... */\n  mstore(0x40, 0x80)\n  callvalue\n  dup1\n  iszero\n  tag_1\n  jumpi\n  revert(0x00, 0x00)\ntag_1:\n  pop\n  dataSize(sub_0)\n  dup1\n  dataOffset(sub_0)\n  0x00\n  codecopy\n  0x00\n  return\nstop\n\nsub_0: assembly {\n        /* \"contracts/Lektion3/MappingLibrary.sol\":60:883  contract MappingLibrary {... */\n      mstore(0x40, 0x80)\n      callvalue\n      dup1\n      iszero\n      tag_1\n      jumpi\n      revert(0x00, 0x00)\n    tag_1:\n      pop\n      jumpi(tag_2, lt(calldatasize, 0x04))\n      shr(0xe0, calldataload(0x00))\n      dup1\n      0x12b2f1ad\n      eq\n      tag_3\n      jumpi\n      dup1\n      0xa673c0b6\n      eq\n      tag_4\n      jumpi\n      dup1\n      0xcd80723a\n      eq\n      tag_5\n      jumpi\n    tag_2:\n      revert(0x00, 0x00)\n        /* \"contracts/Lektion3/MappingLibrary.sol\":318:379  mapping(string => mapping(string => Book)) public authorBooks */\n    tag_3:\n      tag_6\n      0x04\n      dup1\n      calldatasize\n      sub\n      dup2\n      add\n      swap1\n      tag_7\n      swap2\n      swap1\n      tag_8\n      jump\t// in\n    tag_7:\n      tag_9\n      jump\t// in\n    tag_6:\n      mload(0x40)\n      tag_10\n      swap4\n      swap3\n      swap2\n      swap1\n      tag_11\n      jump\t// in\n    tag_10:\n      mload(0x40)\n      dup1\n      swap2\n      sub\n      swap1\n      return\n        /* \"contracts/Lektion3/MappingLibrary.sol\":484:536  mapping(string => string[]) public authorBooksTitles */\n    tag_4:\n      tag_12\n      0x04\n      dup1\n      calldatasize\n      sub\n      dup2\n      add\n      swap1\n      tag_13\n      swap2\n      swap1\n      tag_14\n      jump\t// in\n    tag_13:\n      tag_15\n      jump\t// in\n    tag_12:\n      mload(0x40)\n      tag_16\n      swap2\n      swap1\n      tag_17\n      jump\t// in\n    tag_16:\n      mload(0x40)\n      dup1\n      swap2\n      sub\n      swap1\n      return\n        /* \"contracts/Lektion3/MappingLibrary.sol\":545:880  function addBook(string memory bookAuthor, string memory bookTitle, uint16 publicationYear) public {... */\n    tag_5:\n      tag_18\n      0x04\n      dup1\n      calldatasize\n      sub\n      dup2\n      add\n      swap1\n      tag_19\n      swap2\n      swap1\n      tag_20\n      jump\t// in\n    tag_19:\n      tag_21\n      jump\t// in\n    tag_18:\n      stop\n        /* \"contracts/Lektion3/MappingLibrary.sol\":318:379  mapping(string => mapping(string => Book)) public authorBooks */\n    tag_9:\n      0x00\n      dup3\n      dup1\n      mload\n      0x20\n      dup2\n      add\n      dup3\n      add\n      dup1\n      mload\n      dup5\n      dup3\n      mstore\n      0x20\n      dup4\n      add\n      0x20\n      dup6\n      add\n      keccak256\n      dup2\n      dup4\n      mstore\n      dup1\n      swap6\n      pop\n      pop\n      pop\n      pop\n      pop\n      pop\n      dup2\n      dup1\n      mload\n      0x20\n      dup2\n      add\n      dup3\n      add\n      dup1\n      mload\n      dup5\n      dup3\n      mstore\n      0x20\n      dup4\n      add\n      0x20\n      dup6\n      add\n      keccak256\n      dup2\n      dup4\n      mstore\n      dup1\n      swap6\n      pop\n      pop\n      pop\n      pop\n      pop\n      pop\n      0x00\n      swap2\n      pop\n      swap2\n      pop\n      pop\n      dup1\n      0x00\n      add\n      dup1\n      sload\n      tag_22\n      swap1\n      tag_23\n      jump\t// in\n    tag_22:\n      dup1\n      0x1f\n      add\n      0x20\n      dup1\n      swap2\n      div\n      mul\n      0x20\n      add\n      mload(0x40)\n      swap1\n      dup2\n      add\n      0x40\n      mstore\n      dup1\n      swap3\n      swap2\n      swap1\n      dup2\n      dup2\n      mstore\n      0x20\n      add\n      dup3\n      dup1\n      sload\n      tag_24\n      swap1\n      tag_23\n      jump\t// in\n    tag_24:\n      dup1\n      iszero\n      tag_25\n      jumpi\n      dup1\n      0x1f\n      lt\n      tag_26\n      jumpi\n      0x0100\n      dup1\n      dup4\n      sload\n      div\n      mul\n      dup4\n      mstore\n      swap2\n      0x20\n      add\n      swap2\n      jump(tag_25)\n    tag_26:\n      dup3\n      add\n      swap2\n      swap1\n      0x00\n      mstore\n      keccak256(0x00, 0x20)\n      swap1\n    tag_27:\n      dup2\n      sload\n      dup2\n      mstore\n      swap1\n      0x01\n      add\n      swap1\n      0x20\n      add\n      dup1\n      dup4\n      gt\n      tag_27\n      jumpi\n      dup3\n      swap1\n      sub\n      0x1f\n      and\n      dup3\n      add\n      swap2\n    tag_25:\n      pop\n      pop\n      pop\n      pop\n      pop\n      swap1\n      dup1\n      0x01\n      add\n      0x00\n      swap1\n      sload\n      swap1\n      0x0100\n      exp\n      swap1\n      div\n      0xffff\n      and\n      swap1\n      dup1\n      0x01\n      add\n      0x02\n      swap1\n      sload\n      swap1\n      0x0100\n      exp\n      swap1\n      div\n      0xff\n      and\n      swap1\n      pop\n      dup4\n      jump\t// out\n        /* \"contracts/Lektion3/MappingLibrary.sol\":484:536  mapping(string => string[]) public authorBooksTitles */\n    tag_15:\n      0x01\n      dup3\n      dup1\n      mload\n      0x20\n      dup2\n      add\n      dup3\n      add\n      dup1\n      mload\n      dup5\n      dup3\n      mstore\n      0x20\n      dup4\n      add\n      0x20\n      dup6\n      add\n      keccak256\n      dup2\n      dup4\n      mstore\n      dup1\n      swap6\n      pop\n      pop\n      pop\n      pop\n      pop\n      pop\n      dup2\n      dup2\n      sload\n      dup2\n      lt\n      tag_28\n      jumpi\n      0x00\n      dup1\n      revert\n    tag_28:\n      swap1\n      0x00\n      mstore\n      keccak256(0x00, 0x20)\n      add\n      0x00\n      swap2\n      pop\n      swap2\n      pop\n      pop\n      dup1\n      sload\n      tag_30\n      swap1\n      tag_23\n      jump\t// in\n    tag_30:\n      dup1\n      0x1f\n      add\n      0x20\n      dup1\n      swap2\n      div\n      mul\n      0x20\n      add\n      mload(0x40)\n      swap1\n      dup2\n      add\n      0x40\n      mstore\n      dup1\n      swap3\n      swap2\n      swap1\n      dup2\n      dup2\n      mstore\n      0x20\n      add\n      dup3\n      dup1\n      sload\n      tag_31\n      swap1\n      tag_23\n      jump\t// in\n    tag_31:\n      dup1\n      iszero\n      tag_32\n      jumpi\n      dup1\n      0x1f\n      lt\n      tag_33\n      jumpi\n      0x0100\n      dup1\n      dup4\n      sload\n      div\n      mul\n      dup4\n      mstore\n      swap2\n      0x20\n      add\n      swap2\n      jump(tag_32)\n    tag_33:\n      dup3\n      add\n      swap2\n      swap1\n      0x00\n      mstore\n      keccak256(0x00, 0x20)\n      swap1\n    tag_34:\n      dup2\n      sload\n      dup2\n      mstore\n      swap1\n      0x01\n      add\n      swap1\n      0x20\n      add\n      dup1\n      dup4\n      gt\n      tag_34\n      jumpi\n      dup3\n      swap1\n      sub\n      0x1f\n      and\n      dup3\n      add\n      swap2\n    tag_32:\n      pop\n      pop\n      pop\n      pop\n      pop\n      dup2\n      jump\t// out\n        /* \"contracts/Lektion3/MappingLibrary.sol\":545:880  function addBook(string memory bookAuthor, string memory bookTitle, uint16 publicationYear) public {... */\n    tag_21:\n        /* \"contracts/Lektion3/MappingLibrary.sol\":664:675  authorBooks */\n      0x00\n        /* \"contracts/Lektion3/MappingLibrary.sol\":676:686  bookAuthor */\n      dup4\n        /* \"contracts/Lektion3/MappingLibrary.sol\":664:687  authorBooks[bookAuthor] */\n      mload(0x40)\n      tag_36\n      swap2\n      swap1\n      tag_37\n      jump\t// in\n    tag_36:\n      swap1\n      dup2\n      mstore\n      0x20\n      add\n      mload(0x40)\n      dup1\n      swap2\n      sub\n      swap1\n      keccak256\n        /* \"contracts/Lektion3/MappingLibrary.sol\":688:697  bookTitle */\n      dup3\n        /* \"contracts/Lektion3/MappingLibrary.sol\":664:698  authorBooks[bookAuthor][bookTitle] */\n      mload(0x40)\n      tag_38\n      swap2\n      swap1\n      tag_37\n      jump\t// in\n    tag_38:\n      swap1\n      dup2\n      mstore\n      0x20\n      add\n      mload(0x40)\n      dup1\n      swap2\n      sub\n      swap1\n      keccak256\n        /* \"contracts/Lektion3/MappingLibrary.sol\":664:704  authorBooks[bookAuthor][bookTitle].exist */\n      0x01\n      add\n      0x02\n      swap1\n      sload\n      swap1\n      0x0100\n      exp\n      swap1\n      div\n      0xff\n      and\n        /* \"contracts/Lektion3/MappingLibrary.sol\":663:704  !authorBooks[bookAuthor][bookTitle].exist */\n      iszero\n        /* \"contracts/Lektion3/MappingLibrary.sol\":655:728  require(!authorBooks[bookAuthor][bookTitle].exist, \"Book already exists\") */\n      tag_39\n      jumpi\n      mload(0x40)\n      0x08c379a000000000000000000000000000000000000000000000000000000000\n      dup2\n      mstore\n      0x04\n      add\n      tag_40\n      swap1\n      tag_41\n      jump\t// in\n    tag_40:\n      mload(0x40)\n      dup1\n      swap2\n      sub\n      swap1\n      revert\n    tag_39:\n        /* \"contracts/Lektion3/MappingLibrary.sol\":778:816  Book(bookTitle, publicationYear, true) */\n      mload(0x40)\n      dup1\n      0x60\n      add\n      0x40\n      mstore\n      dup1\n        /* \"contracts/Lektion3/MappingLibrary.sol\":783:792  bookTitle */\n      dup4\n        /* \"contracts/Lektion3/MappingLibrary.sol\":778:816  Book(bookTitle, publicationYear, true) */\n      dup2\n      mstore\n      0x20\n      add\n        /* \"contracts/Lektion3/MappingLibrary.sol\":794:809  publicationYear */\n      dup3\n        /* \"contracts/Lektion3/MappingLibrary.sol\":778:816  Book(bookTitle, publicationYear, true) */\n      0xffff\n      and\n      dup2\n      mstore\n      0x20\n      add\n        /* \"contracts/Lektion3/MappingLibrary.sol\":811:815  true */\n      0x01\n        /* \"contracts/Lektion3/MappingLibrary.sol\":778:816  Book(bookTitle, publicationYear, true) */\n      iszero\n      iszero\n      dup2\n      mstore\n      pop\n        /* \"contracts/Lektion3/MappingLibrary.sol\":741:752  authorBooks */\n      0x00\n        /* \"contracts/Lektion3/MappingLibrary.sol\":753:763  bookAuthor */\n      dup5\n        /* \"contracts/Lektion3/MappingLibrary.sol\":741:764  authorBooks[bookAuthor] */\n      mload(0x40)\n      tag_42\n      swap2\n      swap1\n      tag_37\n      jump\t// in\n    tag_42:\n      swap1\n      dup2\n      mstore\n      0x20\n      add\n      mload(0x40)\n      dup1\n      swap2\n      sub\n      swap1\n      keccak256\n        /* \"contracts/Lektion3/MappingLibrary.sol\":765:774  bookTitle */\n      dup4\n        /* \"contracts/Lektion3/MappingLibrary.sol\":741:775  authorBooks[bookAuthor][bookTitle] */\n      mload(0x40)\n      tag_43\n      swap2\n      swap1\n      tag_37\n      jump\t// in\n    tag_43:\n      swap1\n      dup2\n      mstore\n      0x20\n      add\n      mload(0x40)\n      dup1\n      swap2\n      sub\n      swap1\n      keccak256\n        /* \"contracts/Lektion3/MappingLibrary.sol\":741:816  authorBooks[bookAuthor][bookTitle] = Book(bookTitle, publicationYear, true) */\n      0x00\n      dup3\n      add\n      mload\n      dup2\n      0x00\n      add\n      swap1\n      dup2\n      tag_44\n      swap2\n      swap1\n      tag_45\n      jump\t// in\n    tag_44:\n      pop\n      0x20\n      dup3\n      add\n      mload\n      dup2\n      0x01\n      add\n      exp(0x0100, 0x00)\n      dup2\n      sload\n      dup2\n      0xffff\n      mul\n      not\n      and\n      swap1\n      dup4\n      0xffff\n      and\n      mul\n      or\n      swap1\n      sstore\n      pop\n      0x40\n      dup3\n      add\n      mload\n      dup2\n      0x01\n      add\n      exp(0x0100, 0x02)\n      dup2\n      sload\n      dup2\n      0xff\n      mul\n      not\n      and\n      swap1\n      dup4\n      iszero\n      iszero\n      mul\n      or\n      swap1\n      sstore\n      pop\n      swap1\n      pop\n      pop\n        /* \"contracts/Lektion3/MappingLibrary.sol\":827:844  authorBooksTitles */\n      0x01\n        /* \"contracts/Lektion3/MappingLibrary.sol\":845:855  bookAuthor */\n      dup4\n        /* \"contracts/Lektion3/MappingLibrary.sol\":827:856  authorBooksTitles[bookAuthor] */\n      mload(0x40)\n      tag_46\n      swap2\n      swap1\n      tag_37\n      jump\t// in\n    tag_46:\n      swap1\n      dup2\n      mstore\n      0x20\n      add\n      mload(0x40)\n      dup1\n      swap2\n      sub\n      swap1\n      keccak256\n        /* \"contracts/Lektion3/MappingLibrary.sol\":862:871  bookTitle */\n      dup3\n        /* \"contracts/Lektion3/MappingLibrary.sol\":827:872  authorBooksTitles[bookAuthor].push(bookTitle) */\n      swap1\n      dup1\n      0x01\n      dup2\n      sload\n      add\n      dup1\n      dup3\n      sstore\n      dup1\n      swap2\n      pop\n      pop\n      0x01\n      swap1\n      sub\n      swap1\n      0x00\n      mstore\n      keccak256(0x00, 0x20)\n      add\n      0x00\n      swap1\n      swap2\n      swap1\n      swap2\n      swap1\n      swap2\n      pop\n      swap1\n      dup2\n      tag_48\n      swap2\n      swap1\n      tag_45\n      jump\t// in\n    tag_48:\n      pop\n        /* \"contracts/Lektion3/MappingLibrary.sol\":545:880  function addBook(string memory bookAuthor, string memory bookTitle, uint16 publicationYear) public {... */\n      pop\n      pop\n      pop\n      jump\t// out\n        /* \"#utility.yul\":7:82   */\n    tag_49:\n        /* \"#utility.yul\":40:46   */\n      0x00\n        /* \"#utility.yul\":73:75   */\n      0x40\n        /* \"#utility.yul\":67:76   */\n      mload\n        /* \"#utility.yul\":57:76   */\n      swap1\n      pop\n        /* \"#utility.yul\":7:82   */\n      swap1\n      jump\t// out\n        /* \"#utility.yul\":88:205   */\n    tag_50:\n        /* \"#utility.yul\":197:198   */\n      0x00\n        /* \"#utility.yul\":194:195   */\n      0x00\n        /* \"#utility.yul\":187:199   */\n      revert\n        /* \"#utility.yul\":211:328   */\n    tag_51:\n        /* \"#utility.yul\":320:321   */\n      0x00\n        /* \"#utility.yul\":317:318   */\n      0x00\n        /* \"#utility.yul\":310:322   */\n      revert\n        /* \"#utility.yul\":334:451   */\n    tag_52:\n        /* \"#utility.yul\":443:444   */\n      0x00\n        /* \"#utility.yul\":440:441   */\n      0x00\n        /* \"#utility.yul\":433:445   */\n      revert\n        /* \"#utility.yul\":457:574   */\n    tag_53:\n        /* \"#utility.yul\":566:567   */\n      0x00\n        /* \"#utility.yul\":563:564   */\n      0x00\n        /* \"#utility.yul\":556:568   */\n      revert\n        /* \"#utility.yul\":580:682   */\n    tag_54:\n        /* \"#utility.yul\":621:627   */\n      0x00\n        /* \"#utility.yul\":672:674   */\n      0x1f\n        /* \"#utility.yul\":668:675   */\n      not\n        /* \"#utility.yul\":663:665   */\n      0x1f\n        /* \"#utility.yul\":656:661   */\n      dup4\n        /* \"#utility.yul\":652:666   */\n      add\n        /* \"#utility.yul\":648:676   */\n      and\n        /* \"#utility.yul\":638:676   */\n      swap1\n      pop\n        /* \"#utility.yul\":580:682   */\n      swap2\n      swap1\n      pop\n      jump\t// out\n        /* \"#utility.yul\":688:868   */\n    tag_55:\n        /* \"#utility.yul\":736:813   */\n      0x4e487b7100000000000000000000000000000000000000000000000000000000\n        /* \"#utility.yul\":733:734   */\n      0x00\n        /* \"#utility.yul\":726:814   */\n      mstore\n        /* \"#utility.yul\":833:837   */\n      0x41\n        /* \"#utility.yul\":830:831   */\n      0x04\n        /* \"#utility.yul\":823:838   */\n      mstore\n        /* \"#utility.yul\":857:861   */\n      0x24\n        /* \"#utility.yul\":854:855   */\n      0x00\n        /* \"#utility.yul\":847:862   */\n      revert\n        /* \"#utility.yul\":874:1155   */\n    tag_56:\n        /* \"#utility.yul\":957:984   */\n      tag_104\n        /* \"#utility.yul\":979:983   */\n      dup3\n        /* \"#utility.yul\":957:984   */\n      tag_54\n      jump\t// in\n    tag_104:\n        /* \"#utility.yul\":949:955   */\n      dup2\n        /* \"#utility.yul\":945:985   */\n      add\n        /* \"#utility.yul\":1087:1093   */\n      dup2\n        /* \"#utility.yul\":1075:1085   */\n      dup2\n        /* \"#utility.yul\":1072:1094   */\n      lt\n        /* \"#utility.yul\":1051:1069   */\n      0xffffffffffffffff\n        /* \"#utility.yul\":1039:1049   */\n      dup3\n        /* \"#utility.yul\":1036:1070   */\n      gt\n        /* \"#utility.yul\":1033:1095   */\n      or\n        /* \"#utility.yul\":1030:1118   */\n      iszero\n      tag_105\n      jumpi\n        /* \"#utility.yul\":1098:1116   */\n      tag_106\n      tag_55\n      jump\t// in\n    tag_106:\n        /* \"#utility.yul\":1030:1118   */\n    tag_105:\n        /* \"#utility.yul\":1138:1148   */\n      dup1\n        /* \"#utility.yul\":1134:1136   */\n      0x40\n        /* \"#utility.yul\":1127:1149   */\n      mstore\n        /* \"#utility.yul\":917:1155   */\n      pop\n        /* \"#utility.yul\":874:1155   */\n      pop\n      pop\n      jump\t// out\n        /* \"#utility.yul\":1161:1290   */\n    tag_57:\n        /* \"#utility.yul\":1195:1201   */\n      0x00\n        /* \"#utility.yul\":1222:1242   */\n      tag_108\n      tag_49\n      jump\t// in\n    tag_108:\n        /* \"#utility.yul\":1212:1242   */\n      swap1\n      pop\n        /* \"#utility.yul\":1251:1284   */\n      tag_109\n        /* \"#utility.yul\":1279:1283   */\n      dup3\n        /* \"#utility.yul\":1271:1277   */\n      dup3\n        /* \"#utility.yul\":1251:1284   */\n      tag_56\n      jump\t// in\n    tag_109:\n        /* \"#utility.yul\":1161:1290   */\n      swap2\n      swap1\n      pop\n      jump\t// out\n        /* \"#utility.yul\":1296:1604   */\n    tag_58:\n        /* \"#utility.yul\":1358:1362   */\n      0x00\n        /* \"#utility.yul\":1448:1466   */\n      0xffffffffffffffff\n        /* \"#utility.yul\":1440:1446   */\n      dup3\n        /* \"#utility.yul\":1437:1467   */\n      gt\n        /* \"#utility.yul\":1434:1490   */\n      iszero\n      tag_111\n      jumpi\n        /* \"#utility.yul\":1470:1488   */\n      tag_112\n      tag_55\n      jump\t// in\n    tag_112:\n        /* \"#utility.yul\":1434:1490   */\n    tag_111:\n        /* \"#utility.yul\":1508:1537   */\n      tag_113\n        /* \"#utility.yul\":1530:1536   */\n      dup3\n        /* \"#utility.yul\":1508:1537   */\n      tag_54\n      jump\t// in\n    tag_113:\n        /* \"#utility.yul\":1500:1537   */\n      swap1\n      pop\n        /* \"#utility.yul\":1592:1596   */\n      0x20\n        /* \"#utility.yul\":1586:1590   */\n      dup2\n        /* \"#utility.yul\":1582:1597   */\n      add\n        /* \"#utility.yul\":1574:1597   */\n      swap1\n      pop\n        /* \"#utility.yul\":1296:1604   */\n      swap2\n      swap1\n      pop\n      jump\t// out\n        /* \"#utility.yul\":1610:1758   */\n    tag_59:\n        /* \"#utility.yul\":1708:1714   */\n      dup3\n        /* \"#utility.yul\":1703:1706   */\n      dup2\n        /* \"#utility.yul\":1698:1701   */\n      dup4\n        /* \"#utility.yul\":1685:1715   */\n      calldatacopy\n        /* \"#utility.yul\":1749:1750   */\n      0x00\n        /* \"#utility.yul\":1740:1746   */\n      dup4\n        /* \"#utility.yul\":1735:1738   */\n      dup4\n        /* \"#utility.yul\":1731:1747   */\n      add\n        /* \"#utility.yul\":1724:1751   */\n      mstore\n        /* \"#utility.yul\":1610:1758   */\n      pop\n      pop\n      pop\n      jump\t// out\n        /* \"#utility.yul\":1764:2189   */\n    tag_60:\n        /* \"#utility.yul\":1842:1847   */\n      0x00\n        /* \"#utility.yul\":1867:1933   */\n      tag_116\n        /* \"#utility.yul\":1883:1932   */\n      tag_117\n        /* \"#utility.yul\":1925:1931   */\n      dup5\n        /* \"#utility.yul\":1883:1932   */\n      tag_58\n      jump\t// in\n    tag_117:\n        /* \"#utility.yul\":1867:1933   */\n      tag_57\n      jump\t// in\n    tag_116:\n        /* \"#utility.yul\":1858:1933   */\n      swap1\n      pop\n        /* \"#utility.yul\":1956:1962   */\n      dup3\n        /* \"#utility.yul\":1949:1954   */\n      dup2\n        /* \"#utility.yul\":1942:1963   */\n      mstore\n        /* \"#utility.yul\":1994:1998   */\n      0x20\n        /* \"#utility.yul\":1987:1992   */\n      dup2\n        /* \"#utility.yul\":1983:1999   */\n      add\n        /* \"#utility.yul\":2032:2035   */\n      dup5\n        /* \"#utility.yul\":2023:2029   */\n      dup5\n        /* \"#utility.yul\":2018:2021   */\n      dup5\n        /* \"#utility.yul\":2014:2030   */\n      add\n        /* \"#utility.yul\":2011:2036   */\n      gt\n        /* \"#utility.yul\":2008:2120   */\n      iszero\n      tag_118\n      jumpi\n        /* \"#utility.yul\":2039:2118   */\n      tag_119\n      tag_53\n      jump\t// in\n    tag_119:\n        /* \"#utility.yul\":2008:2120   */\n    tag_118:\n        /* \"#utility.yul\":2129:2183   */\n      tag_120\n        /* \"#utility.yul\":2176:2182   */\n      dup5\n        /* \"#utility.yul\":2171:2174   */\n      dup3\n        /* \"#utility.yul\":2166:2169   */\n      dup6\n        /* \"#utility.yul\":2129:2183   */\n      tag_59\n      jump\t// in\n    tag_120:\n        /* \"#utility.yul\":1848:2189   */\n      pop\n        /* \"#utility.yul\":1764:2189   */\n      swap4\n      swap3\n      pop\n      pop\n      pop\n      jump\t// out\n        /* \"#utility.yul\":2209:2549   */\n    tag_61:\n        /* \"#utility.yul\":2265:2270   */\n      0x00\n        /* \"#utility.yul\":2314:2317   */\n      dup3\n        /* \"#utility.yul\":2307:2311   */\n      0x1f\n        /* \"#utility.yul\":2299:2305   */\n      dup4\n        /* \"#utility.yul\":2295:2312   */\n      add\n        /* \"#utility.yul\":2291:2318   */\n      slt\n        /* \"#utility.yul\":2281:2403   */\n      tag_122\n      jumpi\n        /* \"#utility.yul\":2322:2401   */\n      tag_123\n      tag_52\n      jump\t// in\n    tag_123:\n        /* \"#utility.yul\":2281:2403   */\n    tag_122:\n        /* \"#utility.yul\":2439:2445   */\n      dup2\n        /* \"#utility.yul\":2426:2446   */\n      calldataload\n        /* \"#utility.yul\":2464:2543   */\n      tag_124\n        /* \"#utility.yul\":2539:2542   */\n      dup5\n        /* \"#utility.yul\":2531:2537   */\n      dup3\n        /* \"#utility.yul\":2524:2528   */\n      0x20\n        /* \"#utility.yul\":2516:2522   */\n      dup7\n        /* \"#utility.yul\":2512:2529   */\n      add\n        /* \"#utility.yul\":2464:2543   */\n      tag_60\n      jump\t// in\n    tag_124:\n        /* \"#utility.yul\":2455:2543   */\n      swap2\n      pop\n        /* \"#utility.yul\":2271:2549   */\n      pop\n        /* \"#utility.yul\":2209:2549   */\n      swap3\n      swap2\n      pop\n      pop\n      jump\t// out\n        /* \"#utility.yul\":2555:3389   */\n    tag_8:\n        /* \"#utility.yul\":2643:2649   */\n      0x00\n        /* \"#utility.yul\":2651:2657   */\n      0x00\n        /* \"#utility.yul\":2700:2702   */\n      0x40\n        /* \"#utility.yul\":2688:2697   */\n      dup4\n        /* \"#utility.yul\":2679:2686   */\n      dup6\n        /* \"#utility.yul\":2675:2698   */\n      sub\n        /* \"#utility.yul\":2671:2703   */\n      slt\n        /* \"#utility.yul\":2668:2787   */\n      iszero\n      tag_126\n      jumpi\n        /* \"#utility.yul\":2706:2785   */\n      tag_127\n      tag_50\n      jump\t// in\n    tag_127:\n        /* \"#utility.yul\":2668:2787   */\n    tag_126:\n        /* \"#utility.yul\":2854:2855   */\n      0x00\n        /* \"#utility.yul\":2843:2852   */\n      dup4\n        /* \"#utility.yul\":2839:2856   */\n      add\n        /* \"#utility.yul\":2826:2857   */\n      calldataload\n        /* \"#utility.yul\":2884:2902   */\n      0xffffffffffffffff\n        /* \"#utility.yul\":2876:2882   */\n      dup2\n        /* \"#utility.yul\":2873:2903   */\n      gt\n        /* \"#utility.yul\":2870:2987   */\n      iszero\n      tag_128\n      jumpi\n        /* \"#utility.yul\":2906:2985   */\n      tag_129\n      tag_51\n      jump\t// in\n    tag_129:\n        /* \"#utility.yul\":2870:2987   */\n    tag_128:\n        /* \"#utility.yul\":3011:3074   */\n      tag_130\n        /* \"#utility.yul\":3066:3073   */\n      dup6\n        /* \"#utility.yul\":3057:3063   */\n      dup3\n        /* \"#utility.yul\":3046:3055   */\n      dup7\n        /* \"#utility.yul\":3042:3064   */\n      add\n        /* \"#utility.yul\":3011:3074   */\n      tag_61\n      jump\t// in\n    tag_130:\n        /* \"#utility.yul\":3001:3074   */\n      swap3\n      pop\n        /* \"#utility.yul\":2797:3084   */\n      pop\n        /* \"#utility.yul\":3151:3153   */\n      0x20\n        /* \"#utility.yul\":3140:3149   */\n      dup4\n        /* \"#utility.yul\":3136:3154   */\n      add\n        /* \"#utility.yul\":3123:3155   */\n      calldataload\n        /* \"#utility.yul\":3182:3200   */\n      0xffffffffffffffff\n        /* \"#utility.yul\":3174:3180   */\n      dup2\n        /* \"#utility.yul\":3171:3201   */\n      gt\n        /* \"#utility.yul\":3168:3285   */\n      iszero\n      tag_131\n      jumpi\n        /* \"#utility.yul\":3204:3283   */\n      tag_132\n      tag_51\n      jump\t// in\n    tag_132:\n        /* \"#utility.yul\":3168:3285   */\n    tag_131:\n        /* \"#utility.yul\":3309:3372   */\n      tag_133\n        /* \"#utility.yul\":3364:3371   */\n      dup6\n        /* \"#utility.yul\":3355:3361   */\n      dup3\n        /* \"#utility.yul\":3344:3353   */\n      dup7\n        /* \"#utility.yul\":3340:3362   */\n      add\n        /* \"#utility.yul\":3309:3372   */\n      tag_61\n      jump\t// in\n    tag_133:\n        /* \"#utility.yul\":3299:3372   */\n      swap2\n      pop\n        /* \"#utility.yul\":3094:3382   */\n      pop\n        /* \"#utility.yul\":2555:3389   */\n      swap3\n      pop\n      swap3\n      swap1\n      pop\n      jump\t// out\n        /* \"#utility.yul\":3395:3494   */\n    tag_62:\n        /* \"#utility.yul\":3447:3453   */\n      0x00\n        /* \"#utility.yul\":3481:3486   */\n      dup2\n        /* \"#utility.yul\":3475:3487   */\n      mload\n        /* \"#utility.yul\":3465:3487   */\n      swap1\n      pop\n        /* \"#utility.yul\":3395:3494   */\n      swap2\n      swap1\n      pop\n      jump\t// out\n        /* \"#utility.yul\":3500:3669   */\n    tag_63:\n        /* \"#utility.yul\":3584:3595   */\n      0x00\n        /* \"#utility.yul\":3618:3624   */\n      dup3\n        /* \"#utility.yul\":3613:3616   */\n      dup3\n        /* \"#utility.yul\":3606:3625   */\n      mstore\n        /* \"#utility.yul\":3658:3662   */\n      0x20\n        /* \"#utility.yul\":3653:3656   */\n      dup3\n        /* \"#utility.yul\":3649:3663   */\n      add\n        /* \"#utility.yul\":3634:3663   */\n      swap1\n      pop\n        /* \"#utility.yul\":3500:3669   */\n      swap3\n      swap2\n      pop\n      pop\n      jump\t// out\n        /* \"#utility.yul\":3675:3814   */\n    tag_64:\n        /* \"#utility.yul\":3764:3770   */\n      dup3\n        /* \"#utility.yul\":3759:3762   */\n      dup2\n        /* \"#utility.yul\":3754:3757   */\n      dup4\n        /* \"#utility.yul\":3748:3771   */\n      mcopy\n        /* \"#utility.yul\":3805:3806   */\n      0x00\n        /* \"#utility.yul\":3796:3802   */\n      dup4\n        /* \"#utility.yul\":3791:3794   */\n      dup4\n        /* \"#utility.yul\":3787:3803   */\n      add\n        /* \"#utility.yul\":3780:3807   */\n      mstore\n        /* \"#utility.yul\":3675:3814   */\n      pop\n      pop\n      pop\n      jump\t// out\n        /* \"#utility.yul\":3820:4197   */\n    tag_65:\n        /* \"#utility.yul\":3908:3911   */\n      0x00\n        /* \"#utility.yul\":3936:3975   */\n      tag_138\n        /* \"#utility.yul\":3969:3974   */\n      dup3\n        /* \"#utility.yul\":3936:3975   */\n      tag_62\n      jump\t// in\n    tag_138:\n        /* \"#utility.yul\":3991:4062   */\n      tag_139\n        /* \"#utility.yul\":4055:4061   */\n      dup2\n        /* \"#utility.yul\":4050:4053   */\n      dup6\n        /* \"#utility.yul\":3991:4062   */\n      tag_63\n      jump\t// in\n    tag_139:\n        /* \"#utility.yul\":3984:4062   */\n      swap4\n      pop\n        /* \"#utility.yul\":4071:4136   */\n      tag_140\n        /* \"#utility.yul\":4129:4135   */\n      dup2\n        /* \"#utility.yul\":4124:4127   */\n      dup6\n        /* \"#utility.yul\":4117:4121   */\n      0x20\n        /* \"#utility.yul\":4110:4115   */\n      dup7\n        /* \"#utility.yul\":4106:4122   */\n      add\n        /* \"#utility.yul\":4071:4136   */\n      tag_64\n      jump\t// in\n    tag_140:\n        /* \"#utility.yul\":4161:4190   */\n      tag_141\n        /* \"#utility.yul\":4183:4189   */\n      dup2\n        /* \"#utility.yul\":4161:4190   */\n      tag_54\n      jump\t// in\n    tag_141:\n        /* \"#utility.yul\":4156:4159   */\n      dup5\n        /* \"#utility.yul\":4152:4191   */\n      add\n        /* \"#utility.yul\":4145:4191   */\n      swap2\n      pop\n        /* \"#utility.yul\":3912:4197   */\n      pop\n        /* \"#utility.yul\":3820:4197   */\n      swap3\n      swap2\n      pop\n      pop\n      jump\t// out\n        /* \"#utility.yul\":4203:4292   */\n    tag_66:\n        /* \"#utility.yul\":4239:4246   */\n      0x00\n        /* \"#utility.yul\":4279:4285   */\n      0xffff\n        /* \"#utility.yul\":4272:4277   */\n      dup3\n        /* \"#utility.yul\":4268:4286   */\n      and\n        /* \"#utility.yul\":4257:4286   */\n      swap1\n      pop\n        /* \"#utility.yul\":4203:4292   */\n      swap2\n      swap1\n      pop\n      jump\t// out\n        /* \"#utility.yul\":4298:4413   */\n    tag_67:\n        /* \"#utility.yul\":4383:4406   */\n      tag_144\n        /* \"#utility.yul\":4400:4405   */\n      dup2\n        /* \"#utility.yul\":4383:4406   */\n      tag_66\n      jump\t// in\n    tag_144:\n        /* \"#utility.yul\":4378:4381   */\n      dup3\n        /* \"#utility.yul\":4371:4407   */\n      mstore\n        /* \"#utility.yul\":4298:4413   */\n      pop\n      pop\n      jump\t// out\n        /* \"#utility.yul\":4419:4509   */\n    tag_68:\n        /* \"#utility.yul\":4453:4460   */\n      0x00\n        /* \"#utility.yul\":4496:4501   */\n      dup2\n        /* \"#utility.yul\":4489:4502   */\n      iszero\n        /* \"#utility.yul\":4482:4503   */\n      iszero\n        /* \"#utility.yul\":4471:4503   */\n      swap1\n      pop\n        /* \"#utility.yul\":4419:4509   */\n      swap2\n      swap1\n      pop\n      jump\t// out\n        /* \"#utility.yul\":4515:4624   */\n    tag_69:\n        /* \"#utility.yul\":4596:4617   */\n      tag_147\n        /* \"#utility.yul\":4611:4616   */\n      dup2\n        /* \"#utility.yul\":4596:4617   */\n      tag_68\n      jump\t// in\n    tag_147:\n        /* \"#utility.yul\":4591:4594   */\n      dup3\n        /* \"#utility.yul\":4584:4618   */\n      mstore\n        /* \"#utility.yul\":4515:4624   */\n      pop\n      pop\n      jump\t// out\n        /* \"#utility.yul\":4630:5147   */\n    tag_11:\n        /* \"#utility.yul\":4791:4795   */\n      0x00\n        /* \"#utility.yul\":4829:4831   */\n      0x60\n        /* \"#utility.yul\":4818:4827   */\n      dup3\n        /* \"#utility.yul\":4814:4832   */\n      add\n        /* \"#utility.yul\":4806:4832   */\n      swap1\n      pop\n        /* \"#utility.yul\":4878:4887   */\n      dup2\n        /* \"#utility.yul\":4872:4876   */\n      dup2\n        /* \"#utility.yul\":4868:4888   */\n      sub\n        /* \"#utility.yul\":4864:4865   */\n      0x00\n        /* \"#utility.yul\":4853:4862   */\n      dup4\n        /* \"#utility.yul\":4849:4866   */\n      add\n        /* \"#utility.yul\":4842:4889   */\n      mstore\n        /* \"#utility.yul\":4906:4984   */\n      tag_149\n        /* \"#utility.yul\":4979:4983   */\n      dup2\n        /* \"#utility.yul\":4970:4976   */\n      dup7\n        /* \"#utility.yul\":4906:4984   */\n      tag_65\n      jump\t// in\n    tag_149:\n        /* \"#utility.yul\":4898:4984   */\n      swap1\n      pop\n        /* \"#utility.yul\":4994:5064   */\n      tag_150\n        /* \"#utility.yul\":5060:5062   */\n      0x20\n        /* \"#utility.yul\":5049:5058   */\n      dup4\n        /* \"#utility.yul\":5045:5063   */\n      add\n        /* \"#utility.yul\":5036:5042   */\n      dup6\n        /* \"#utility.yul\":4994:5064   */\n      tag_67\n      jump\t// in\n    tag_150:\n        /* \"#utility.yul\":5074:5140   */\n      tag_151\n        /* \"#utility.yul\":5136:5138   */\n      0x40\n        /* \"#utility.yul\":5125:5134   */\n      dup4\n        /* \"#utility.yul\":5121:5139   */\n      add\n        /* \"#utility.yul\":5112:5118   */\n      dup5\n        /* \"#utility.yul\":5074:5140   */\n      tag_69\n      jump\t// in\n    tag_151:\n        /* \"#utility.yul\":4630:5147   */\n      swap5\n      swap4\n      pop\n      pop\n      pop\n      pop\n      jump\t// out\n        /* \"#utility.yul\":5153:5230   */\n    tag_70:\n        /* \"#utility.yul\":5190:5197   */\n      0x00\n        /* \"#utility.yul\":5219:5224   */\n      dup2\n        /* \"#utility.yul\":5208:5224   */\n      swap1\n      pop\n        /* \"#utility.yul\":5153:5230   */\n      swap2\n      swap1\n      pop\n      jump\t// out\n        /* \"#utility.yul\":5236:5358   */\n    tag_71:\n        /* \"#utility.yul\":5309:5333   */\n      tag_154\n        /* \"#utility.yul\":5327:5332   */\n      dup2\n        /* \"#utility.yul\":5309:5333   */\n      tag_70\n      jump\t// in\n    tag_154:\n        /* \"#utility.yul\":5302:5307   */\n      dup2\n        /* \"#utility.yul\":5299:5334   */\n      eq\n        /* \"#utility.yul\":5289:5352   */\n      tag_155\n      jumpi\n        /* \"#utility.yul\":5348:5349   */\n      0x00\n        /* \"#utility.yul\":5345:5346   */\n      0x00\n        /* \"#utility.yul\":5338:5350   */\n      revert\n        /* \"#utility.yul\":5289:5352   */\n    tag_155:\n        /* \"#utility.yul\":5236:5358   */\n      pop\n      jump\t// out\n        /* \"#utility.yul\":5364:5503   */\n    tag_72:\n        /* \"#utility.yul\":5410:5415   */\n      0x00\n        /* \"#utility.yul\":5448:5454   */\n      dup2\n        /* \"#utility.yul\":5435:5455   */\n      calldataload\n        /* \"#utility.yul\":5426:5455   */\n      swap1\n      pop\n        /* \"#utility.yul\":5464:5497   */\n      tag_157\n        /* \"#utility.yul\":5491:5496   */\n      dup2\n        /* \"#utility.yul\":5464:5497   */\n      tag_71\n      jump\t// in\n    tag_157:\n        /* \"#utility.yul\":5364:5503   */\n      swap3\n      swap2\n      pop\n      pop\n      jump\t// out\n        /* \"#utility.yul\":5509:6163   */\n    tag_14:\n        /* \"#utility.yul\":5587:5593   */\n      0x00\n        /* \"#utility.yul\":5595:5601   */\n      0x00\n        /* \"#utility.yul\":5644:5646   */\n      0x40\n        /* \"#utility.yul\":5632:5641   */\n      dup4\n        /* \"#utility.yul\":5623:5630   */\n      dup6\n        /* \"#utility.yul\":5619:5642   */\n      sub\n        /* \"#utility.yul\":5615:5647   */\n      slt\n        /* \"#utility.yul\":5612:5731   */\n      iszero\n      tag_159\n      jumpi\n        /* \"#utility.yul\":5650:5729   */\n      tag_160\n      tag_50\n      jump\t// in\n    tag_160:\n        /* \"#utility.yul\":5612:5731   */\n    tag_159:\n        /* \"#utility.yul\":5798:5799   */\n      0x00\n        /* \"#utility.yul\":5787:5796   */\n      dup4\n        /* \"#utility.yul\":5783:5800   */\n      add\n        /* \"#utility.yul\":5770:5801   */\n      calldataload\n        /* \"#utility.yul\":5828:5846   */\n      0xffffffffffffffff\n        /* \"#utility.yul\":5820:5826   */\n      dup2\n        /* \"#utility.yul\":5817:5847   */\n      gt\n        /* \"#utility.yul\":5814:5931   */\n      iszero\n      tag_161\n      jumpi\n        /* \"#utility.yul\":5850:5929   */\n      tag_162\n      tag_51\n      jump\t// in\n    tag_162:\n        /* \"#utility.yul\":5814:5931   */\n    tag_161:\n        /* \"#utility.yul\":5955:6018   */\n      tag_163\n        /* \"#utility.yul\":6010:6017   */\n      dup6\n        /* \"#utility.yul\":6001:6007   */\n      dup3\n        /* \"#utility.yul\":5990:5999   */\n      dup7\n        /* \"#utility.yul\":5986:6008   */\n      add\n        /* \"#utility.yul\":5955:6018   */\n      tag_61\n      jump\t// in\n    tag_163:\n        /* \"#utility.yul\":5945:6018   */\n      swap3\n      pop\n        /* \"#utility.yul\":5741:6028   */\n      pop\n        /* \"#utility.yul\":6067:6069   */\n      0x20\n        /* \"#utility.yul\":6093:6146   */\n      tag_164\n        /* \"#utility.yul\":6138:6145   */\n      dup6\n        /* \"#utility.yul\":6129:6135   */\n      dup3\n        /* \"#utility.yul\":6118:6127   */\n      dup7\n        /* \"#utility.yul\":6114:6136   */\n      add\n        /* \"#utility.yul\":6093:6146   */\n      tag_72\n      jump\t// in\n    tag_164:\n        /* \"#utility.yul\":6083:6146   */\n      swap2\n      pop\n        /* \"#utility.yul\":6038:6156   */\n      pop\n        /* \"#utility.yul\":5509:6163   */\n      swap3\n      pop\n      swap3\n      swap1\n      pop\n      jump\t// out\n        /* \"#utility.yul\":6169:6482   */\n    tag_17:\n        /* \"#utility.yul\":6282:6286   */\n      0x00\n        /* \"#utility.yul\":6320:6322   */\n      0x20\n        /* \"#utility.yul\":6309:6318   */\n      dup3\n        /* \"#utility.yul\":6305:6323   */\n      add\n        /* \"#utility.yul\":6297:6323   */\n      swap1\n      pop\n        /* \"#utility.yul\":6369:6378   */\n      dup2\n        /* \"#utility.yul\":6363:6367   */\n      dup2\n        /* \"#utility.yul\":6359:6379   */\n      sub\n        /* \"#utility.yul\":6355:6356   */\n      0x00\n        /* \"#utility.yul\":6344:6353   */\n      dup4\n        /* \"#utility.yul\":6340:6357   */\n      add\n        /* \"#utility.yul\":6333:6380   */\n      mstore\n        /* \"#utility.yul\":6397:6475   */\n      tag_166\n        /* \"#utility.yul\":6470:6474   */\n      dup2\n        /* \"#utility.yul\":6461:6467   */\n      dup5\n        /* \"#utility.yul\":6397:6475   */\n      tag_65\n      jump\t// in\n    tag_166:\n        /* \"#utility.yul\":6389:6475   */\n      swap1\n      pop\n        /* \"#utility.yul\":6169:6482   */\n      swap3\n      swap2\n      pop\n      pop\n      jump\t// out\n        /* \"#utility.yul\":6488:6608   */\n    tag_73:\n        /* \"#utility.yul\":6560:6583   */\n      tag_168\n        /* \"#utility.yul\":6577:6582   */\n      dup2\n        /* \"#utility.yul\":6560:6583   */\n      tag_66\n      jump\t// in\n    tag_168:\n        /* \"#utility.yul\":6553:6558   */\n      dup2\n        /* \"#utility.yul\":6550:6584   */\n      eq\n        /* \"#utility.yul\":6540:6602   */\n      tag_169\n      jumpi\n        /* \"#utility.yul\":6598:6599   */\n      0x00\n        /* \"#utility.yul\":6595:6596   */\n      0x00\n        /* \"#utility.yul\":6588:6600   */\n      revert\n        /* \"#utility.yul\":6540:6602   */\n    tag_169:\n        /* \"#utility.yul\":6488:6608   */\n      pop\n      jump\t// out\n        /* \"#utility.yul\":6614:6751   */\n    tag_74:\n        /* \"#utility.yul\":6659:6664   */\n      0x00\n        /* \"#utility.yul\":6697:6703   */\n      dup2\n        /* \"#utility.yul\":6684:6704   */\n      calldataload\n        /* \"#utility.yul\":6675:6704   */\n      swap1\n      pop\n        /* \"#utility.yul\":6713:6745   */\n      tag_171\n        /* \"#utility.yul\":6739:6744   */\n      dup2\n        /* \"#utility.yul\":6713:6745   */\n      tag_73\n      jump\t// in\n    tag_171:\n        /* \"#utility.yul\":6614:6751   */\n      swap3\n      swap2\n      pop\n      pop\n      jump\t// out\n        /* \"#utility.yul\":6757:7734   */\n    tag_20:\n        /* \"#utility.yul\":6853:6859   */\n      0x00\n        /* \"#utility.yul\":6861:6867   */\n      0x00\n        /* \"#utility.yul\":6869:6875   */\n      0x00\n        /* \"#utility.yul\":6918:6920   */\n      0x60\n        /* \"#utility.yul\":6906:6915   */\n      dup5\n        /* \"#utility.yul\":6897:6904   */\n      dup7\n        /* \"#utility.yul\":6893:6916   */\n      sub\n        /* \"#utility.yul\":6889:6921   */\n      slt\n        /* \"#utility.yul\":6886:7005   */\n      iszero\n      tag_173\n      jumpi\n        /* \"#utility.yul\":6924:7003   */\n      tag_174\n      tag_50\n      jump\t// in\n    tag_174:\n        /* \"#utility.yul\":6886:7005   */\n    tag_173:\n        /* \"#utility.yul\":7072:7073   */\n      0x00\n        /* \"#utility.yul\":7061:7070   */\n      dup5\n        /* \"#utility.yul\":7057:7074   */\n      add\n        /* \"#utility.yul\":7044:7075   */\n      calldataload\n        /* \"#utility.yul\":7102:7120   */\n      0xffffffffffffffff\n        /* \"#utility.yul\":7094:7100   */\n      dup2\n        /* \"#utility.yul\":7091:7121   */\n      gt\n        /* \"#utility.yul\":7088:7205   */\n      iszero\n      tag_175\n      jumpi\n        /* \"#utility.yul\":7124:7203   */\n      tag_176\n      tag_51\n      jump\t// in\n    tag_176:\n        /* \"#utility.yul\":7088:7205   */\n    tag_175:\n        /* \"#utility.yul\":7229:7292   */\n      tag_177\n        /* \"#utility.yul\":7284:7291   */\n      dup7\n        /* \"#utility.yul\":7275:7281   */\n      dup3\n        /* \"#utility.yul\":7264:7273   */\n      dup8\n        /* \"#utility.yul\":7260:7282   */\n      add\n        /* \"#utility.yul\":7229:7292   */\n      tag_61\n      jump\t// in\n    tag_177:\n        /* \"#utility.yul\":7219:7292   */\n      swap4\n      pop\n        /* \"#utility.yul\":7015:7302   */\n      pop\n        /* \"#utility.yul\":7369:7371   */\n      0x20\n        /* \"#utility.yul\":7358:7367   */\n      dup5\n        /* \"#utility.yul\":7354:7372   */\n      add\n        /* \"#utility.yul\":7341:7373   */\n      calldataload\n        /* \"#utility.yul\":7400:7418   */\n      0xffffffffffffffff\n        /* \"#utility.yul\":7392:7398   */\n      dup2\n        /* \"#utility.yul\":7389:7419   */\n      gt\n        /* \"#utility.yul\":7386:7503   */\n      iszero\n      tag_178\n      jumpi\n        /* \"#utility.yul\":7422:7501   */\n      tag_179\n      tag_51\n      jump\t// in\n    tag_179:\n        /* \"#utility.yul\":7386:7503   */\n    tag_178:\n        /* \"#utility.yul\":7527:7590   */\n      tag_180\n        /* \"#utility.yul\":7582:7589   */\n      dup7\n        /* \"#utility.yul\":7573:7579   */\n      dup3\n        /* \"#utility.yul\":7562:7571   */\n      dup8\n        /* \"#utility.yul\":7558:7580   */\n      add\n        /* \"#utility.yul\":7527:7590   */\n      tag_61\n      jump\t// in\n    tag_180:\n        /* \"#utility.yul\":7517:7590   */\n      swap3\n      pop\n        /* \"#utility.yul\":7312:7600   */\n      pop\n        /* \"#utility.yul\":7639:7641   */\n      0x40\n        /* \"#utility.yul\":7665:7717   */\n      tag_181\n        /* \"#utility.yul\":7709:7716   */\n      dup7\n        /* \"#utility.yul\":7700:7706   */\n      dup3\n        /* \"#utility.yul\":7689:7698   */\n      dup8\n        /* \"#utility.yul\":7685:7707   */\n      add\n        /* \"#utility.yul\":7665:7717   */\n      tag_74\n      jump\t// in\n    tag_181:\n        /* \"#utility.yul\":7655:7717   */\n      swap2\n      pop\n        /* \"#utility.yul\":7610:7727   */\n      pop\n        /* \"#utility.yul\":6757:7734   */\n      swap3\n      pop\n      swap3\n      pop\n      swap3\n      jump\t// out\n        /* \"#utility.yul\":7740:7920   */\n    tag_75:\n        /* \"#utility.yul\":7788:7865   */\n      0x4e487b7100000000000000000000000000000000000000000000000000000000\n        /* \"#utility.yul\":7785:7786   */\n      0x00\n        /* \"#utility.yul\":7778:7866   */\n      mstore\n        /* \"#utility.yul\":7885:7889   */\n      0x22\n        /* \"#utility.yul\":7882:7883   */\n      0x04\n        /* \"#utility.yul\":7875:7890   */\n      mstore\n        /* \"#utility.yul\":7909:7913   */\n      0x24\n        /* \"#utility.yul\":7906:7907   */\n      0x00\n        /* \"#utility.yul\":7899:7914   */\n      revert\n        /* \"#utility.yul\":7926:8246   */\n    tag_23:\n        /* \"#utility.yul\":7970:7976   */\n      0x00\n        /* \"#utility.yul\":8007:8008   */\n      0x02\n        /* \"#utility.yul\":8001:8005   */\n      dup3\n        /* \"#utility.yul\":7997:8009   */\n      div\n        /* \"#utility.yul\":7987:8009   */\n      swap1\n      pop\n        /* \"#utility.yul\":8054:8055   */\n      0x01\n        /* \"#utility.yul\":8048:8052   */\n      dup3\n        /* \"#utility.yul\":8044:8056   */\n      and\n        /* \"#utility.yul\":8075:8093   */\n      dup1\n        /* \"#utility.yul\":8065:8146   */\n      tag_184\n      jumpi\n        /* \"#utility.yul\":8131:8135   */\n      0x7f\n        /* \"#utility.yul\":8123:8129   */\n      dup3\n        /* \"#utility.yul\":8119:8136   */\n      and\n        /* \"#utility.yul\":8109:8136   */\n      swap2\n      pop\n        /* \"#utility.yul\":8065:8146   */\n    tag_184:\n        /* \"#utility.yul\":8193:8195   */\n      0x20\n        /* \"#utility.yul\":8185:8191   */\n      dup3\n        /* \"#utility.yul\":8182:8196   */\n      lt\n        /* \"#utility.yul\":8162:8180   */\n      dup2\n        /* \"#utility.yul\":8159:8197   */\n      sub\n        /* \"#utility.yul\":8156:8240   */\n      tag_185\n      jumpi\n        /* \"#utility.yul\":8212:8230   */\n      tag_186\n      tag_75\n      jump\t// in\n    tag_186:\n        /* \"#utility.yul\":8156:8240   */\n    tag_185:\n        /* \"#utility.yul\":7977:8246   */\n      pop\n        /* \"#utility.yul\":7926:8246   */\n      swap2\n      swap1\n      pop\n      jump\t// out\n        /* \"#utility.yul\":8252:8400   */\n    tag_76:\n        /* \"#utility.yul\":8354:8365   */\n      0x00\n        /* \"#utility.yul\":8391:8394   */\n      dup2\n        /* \"#utility.yul\":8376:8394   */\n      swap1\n      pop\n        /* \"#utility.yul\":8252:8400   */\n      swap3\n      swap2\n      pop\n      pop\n      jump\t// out\n        /* \"#utility.yul\":8406:8796   */\n    tag_77:\n        /* \"#utility.yul\":8512:8515   */\n      0x00\n        /* \"#utility.yul\":8540:8579   */\n      tag_189\n        /* \"#utility.yul\":8573:8578   */\n      dup3\n        /* \"#utility.yul\":8540:8579   */\n      tag_62\n      jump\t// in\n    tag_189:\n        /* \"#utility.yul\":8595:8684   */\n      tag_190\n        /* \"#utility.yul\":8677:8683   */\n      dup2\n        /* \"#utility.yul\":8672:8675   */\n      dup6\n        /* \"#utility.yul\":8595:8684   */\n      tag_76\n      jump\t// in\n    tag_190:\n        /* \"#utility.yul\":8588:8684   */\n      swap4\n      pop\n        /* \"#utility.yul\":8693:8758   */\n      tag_191\n        /* \"#utility.yul\":8751:8757   */\n      dup2\n        /* \"#utility.yul\":8746:8749   */\n      dup6\n        /* \"#utility.yul\":8739:8743   */\n      0x20\n        /* \"#utility.yul\":8732:8737   */\n      dup7\n        /* \"#utility.yul\":8728:8744   */\n      add\n        /* \"#utility.yul\":8693:8758   */\n      tag_64\n      jump\t// in\n    tag_191:\n        /* \"#utility.yul\":8783:8789   */\n      dup1\n        /* \"#utility.yul\":8778:8781   */\n      dup5\n        /* \"#utility.yul\":8774:8790   */\n      add\n        /* \"#utility.yul\":8767:8790   */\n      swap2\n      pop\n        /* \"#utility.yul\":8516:8796   */\n      pop\n        /* \"#utility.yul\":8406:8796   */\n      swap3\n      swap2\n      pop\n      pop\n      jump\t// out\n        /* \"#utility.yul\":8802:9077   */\n    tag_37:\n        /* \"#utility.yul\":8934:8937   */\n      0x00\n        /* \"#utility.yul\":8956:9051   */\n      tag_193\n        /* \"#utility.yul\":9047:9050   */\n      dup3\n        /* \"#utility.yul\":9038:9044   */\n      dup5\n        /* \"#utility.yul\":8956:9051   */\n      tag_77\n      jump\t// in\n    tag_193:\n        /* \"#utility.yul\":8949:9051   */\n      swap2\n      pop\n        /* \"#utility.yul\":9068:9071   */\n      dup2\n        /* \"#utility.yul\":9061:9071   */\n      swap1\n      pop\n        /* \"#utility.yul\":8802:9077   */\n      swap3\n      swap2\n      pop\n      pop\n      jump\t// out\n        /* \"#utility.yul\":9083:9252   */\n    tag_78:\n        /* \"#utility.yul\":9223:9244   */\n      0x426f6f6b20616c72656164792065786973747300000000000000000000000000\n        /* \"#utility.yul\":9219:9220   */\n      0x00\n        /* \"#utility.yul\":9211:9217   */\n      dup3\n        /* \"#utility.yul\":9207:9221   */\n      add\n        /* \"#utility.yul\":9200:9245   */\n      mstore\n        /* \"#utility.yul\":9083:9252   */\n      pop\n      jump\t// out\n        /* \"#utility.yul\":9258:9624   */\n    tag_79:\n        /* \"#utility.yul\":9400:9403   */\n      0x00\n        /* \"#utility.yul\":9421:9488   */\n      tag_196\n        /* \"#utility.yul\":9485:9487   */\n      0x13\n        /* \"#utility.yul\":9480:9483   */\n      dup4\n        /* \"#utility.yul\":9421:9488   */\n      tag_63\n      jump\t// in\n    tag_196:\n        /* \"#utility.yul\":9414:9488   */\n      swap2\n      pop\n        /* \"#utility.yul\":9497:9590   */\n      tag_197\n        /* \"#utility.yul\":9586:9589   */\n      dup3\n        /* \"#utility.yul\":9497:9590   */\n      tag_78\n      jump\t// in\n    tag_197:\n        /* \"#utility.yul\":9615:9617   */\n      0x20\n        /* \"#utility.yul\":9610:9613   */\n      dup3\n        /* \"#utility.yul\":9606:9618   */\n      add\n        /* \"#utility.yul\":9599:9618   */\n      swap1\n      pop\n        /* \"#utility.yul\":9258:9624   */\n      swap2\n      swap1\n      pop\n      jump\t// out\n        /* \"#utility.yul\":9630:10049   */\n    tag_41:\n        /* \"#utility.yul\":9796:9800   */\n      0x00\n        /* \"#utility.yul\":9834:9836   */\n      0x20\n        /* \"#utility.yul\":9823:9832   */\n      dup3\n        /* \"#utility.yul\":9819:9837   */\n      add\n        /* \"#utility.yul\":9811:9837   */\n      swap1\n      pop\n        /* \"#utility.yul\":9883:9892   */\n      dup2\n        /* \"#utility.yul\":9877:9881   */\n      dup2\n        /* \"#utility.yul\":9873:9893   */\n      sub\n        /* \"#utility.yul\":9869:9870   */\n      0x00\n        /* \"#utility.yul\":9858:9867   */\n      dup4\n        /* \"#utility.yul\":9854:9871   */\n      add\n        /* \"#utility.yul\":9847:9894   */\n      mstore\n        /* \"#utility.yul\":9911:10042   */\n      tag_199\n        /* \"#utility.yul\":10037:10041   */\n      dup2\n        /* \"#utility.yul\":9911:10042   */\n      tag_79\n      jump\t// in\n    tag_199:\n        /* \"#utility.yul\":9903:10042   */\n      swap1\n      pop\n        /* \"#utility.yul\":9630:10049   */\n      swap2\n      swap1\n      pop\n      jump\t// out\n        /* \"#utility.yul\":10055:10196   */\n    tag_80:\n        /* \"#utility.yul\":10104:10108   */\n      0x00\n        /* \"#utility.yul\":10127:10130   */\n      dup2\n        /* \"#utility.yul\":10119:10130   */\n      swap1\n      pop\n        /* \"#utility.yul\":10150:10153   */\n      dup2\n        /* \"#utility.yul\":10147:10148   */\n      0x00\n        /* \"#utility.yul\":10140:10154   */\n      mstore\n        /* \"#utility.yul\":10184:10188   */\n      0x20\n        /* \"#utility.yul\":10181:10182   */\n      0x00\n        /* \"#utility.yul\":10171:10189   */\n      keccak256\n        /* \"#utility.yul\":10163:10189   */\n      swap1\n      pop\n        /* \"#utility.yul\":10055:10196   */\n      swap2\n      swap1\n      pop\n      jump\t// out\n        /* \"#utility.yul\":10202:10295   */\n    tag_81:\n        /* \"#utility.yul\":10239:10245   */\n      0x00\n        /* \"#utility.yul\":10286:10288   */\n      0x20\n        /* \"#utility.yul\":10281:10283   */\n      0x1f\n        /* \"#utility.yul\":10274:10279   */\n      dup4\n        /* \"#utility.yul\":10270:10284   */\n      add\n        /* \"#utility.yul\":10266:10289   */\n      div\n        /* \"#utility.yul\":10256:10289   */\n      swap1\n      pop\n        /* \"#utility.yul\":10202:10295   */\n      swap2\n      swap1\n      pop\n      jump\t// out\n        /* \"#utility.yul\":10301:10408   */\n    tag_82:\n        /* \"#utility.yul\":10345:10353   */\n      0x00\n        /* \"#utility.yul\":10395:10400   */\n      dup3\n        /* \"#utility.yul\":10389:10393   */\n      dup3\n        /* \"#utility.yul\":10385:10401   */\n      shl\n        /* \"#utility.yul\":10364:10401   */\n      swap1\n      pop\n        /* \"#utility.yul\":10301:10408   */\n      swap3\n      swap2\n      pop\n      pop\n      jump\t// out\n        /* \"#utility.yul\":10414:10807   */\n    tag_83:\n        /* \"#utility.yul\":10483:10489   */\n      0x00\n        /* \"#utility.yul\":10533:10534   */\n      0x08\n        /* \"#utility.yul\":10521:10531   */\n      dup4\n        /* \"#utility.yul\":10517:10535   */\n      mul\n        /* \"#utility.yul\":10556:10653   */\n      tag_204\n        /* \"#utility.yul\":10586:10652   */\n      0xffffffffffffffffffffffffffffffffffffffffffffffffffffffffffffffff\n        /* \"#utility.yul\":10575:10584   */\n      dup3\n        /* \"#utility.yul\":10556:10653   */\n      tag_82\n      jump\t// in\n    tag_204:\n        /* \"#utility.yul\":10674:10713   */\n      tag_205\n        /* \"#utility.yul\":10704:10712   */\n      dup7\n        /* \"#utility.yul\":10693:10702   */\n      dup4\n        /* \"#utility.yul\":10674:10713   */\n      tag_82\n      jump\t// in\n    tag_205:\n        /* \"#utility.yul\":10662:10713   */\n      swap6\n      pop\n        /* \"#utility.yul\":10746:10750   */\n      dup1\n        /* \"#utility.yul\":10742:10751   */\n      not\n        /* \"#utility.yul\":10735:10740   */\n      dup5\n        /* \"#utility.yul\":10731:10752   */\n      and\n        /* \"#utility.yul\":10722:10752   */\n      swap4\n      pop\n        /* \"#utility.yul\":10795:10799   */\n      dup1\n        /* \"#utility.yul\":10785:10793   */\n      dup7\n        /* \"#utility.yul\":10781:10800   */\n      and\n        /* \"#utility.yul\":10774:10779   */\n      dup5\n        /* \"#utility.yul\":10771:10801   */\n      or\n        /* \"#utility.yul\":10761:10801   */\n      swap3\n      pop\n        /* \"#utility.yul\":10490:10807   */\n      pop\n      pop\n        /* \"#utility.yul\":10414:10807   */\n      swap4\n      swap3\n      pop\n      pop\n      pop\n      jump\t// out\n        /* \"#utility.yul\":10813:10873   */\n    tag_84:\n        /* \"#utility.yul\":10841:10844   */\n      0x00\n        /* \"#utility.yul\":10862:10867   */\n      dup2\n        /* \"#utility.yul\":10855:10867   */\n      swap1\n      pop\n        /* \"#utility.yul\":10813:10873   */\n      swap2\n      swap1\n      pop\n      jump\t// out\n        /* \"#utility.yul\":10879:11021   */\n    tag_85:\n        /* \"#utility.yul\":10929:10938   */\n      0x00\n        /* \"#utility.yul\":10962:11015   */\n      tag_208\n        /* \"#utility.yul\":10980:11014   */\n      tag_209\n        /* \"#utility.yul\":10989:11013   */\n      tag_210\n        /* \"#utility.yul\":11007:11012   */\n      dup5\n        /* \"#utility.yul\":10989:11013   */\n      tag_70\n      jump\t// in\n    tag_210:\n        /* \"#utility.yul\":10980:11014   */\n      tag_84\n      jump\t// in\n    tag_209:\n        /* \"#utility.yul\":10962:11015   */\n      tag_70\n      jump\t// in\n    tag_208:\n        /* \"#utility.yul\":10949:11015   */\n      swap1\n      pop\n        /* \"#utility.yul\":10879:11021   */\n      swap2\n      swap1\n      pop\n      jump\t// out\n        /* \"#utility.yul\":11027:11102   */\n    tag_86:\n        /* \"#utility.yul\":11070:11073   */\n      0x00\n        /* \"#utility.yul\":11091:11096   */\n      dup2\n        /* \"#utility.yul\":11084:11096   */\n      swap1\n      pop\n        /* \"#utility.yul\":11027:11102   */\n      swap2\n      swap1\n      pop\n      jump\t// out\n        /* \"#utility.yul\":11108:11377   */\n    tag_87:\n        /* \"#utility.yul\":11218:11257   */\n      tag_213\n        /* \"#utility.yul\":11249:11256   */\n      dup4\n        /* \"#utility.yul\":11218:11257   */\n      tag_85\n      jump\t// in\n    tag_213:\n        /* \"#utility.yul\":11279:11370   */\n      tag_214\n        /* \"#utility.yul\":11328:11369   */\n      tag_215\n        /* \"#utility.yul\":11352:11368   */\n      dup3\n        /* \"#utility.yul\":11328:11369   */\n      tag_86\n      jump\t// in\n    tag_215:\n        /* \"#utility.yul\":11320:11326   */\n      dup5\n        /* \"#utility.yul\":11313:11317   */\n      dup5\n        /* \"#utility.yul\":11307:11318   */\n      sload\n        /* \"#utility.yul\":11279:11370   */\n      tag_83\n      jump\t// in\n    tag_214:\n        /* \"#utility.yul\":11273:11277   */\n      dup3\n        /* \"#utility.yul\":11266:11371   */\n      sstore\n        /* \"#utility.yul\":11184:11377   */\n      pop\n        /* \"#utility.yul\":11108:11377   */\n      pop\n      pop\n      pop\n      jump\t// out\n        /* \"#utility.yul\":11383:11456   */\n    tag_88:\n        /* \"#utility.yul\":11428:11431   */\n      0x00\n        /* \"#utility.yul\":11449:11450   */\n      0x00\n        /* \"#utility.yul\":11442:11450   */\n      swap1\n      pop\n        /* \"#utility.yul\":11383:11456   */\n      swap1\n      jump\t// out\n        /* \"#utility.yul\":11462:11651   */\n    tag_89:\n        /* \"#utility.yul\":11539:11571   */\n      tag_218\n      tag_88\n      jump\t// in\n    tag_218:\n        /* \"#utility.yul\":11580:11645   */\n      tag_219\n        /* \"#utility.yul\":11638:11644   */\n      dup2\n        /* \"#utility.yul\":11630:11636   */\n      dup5\n        /* \"#utility.yul\":11624:11628   */\n      dup5\n        /* \"#utility.yul\":11580:11645   */\n      tag_87\n      jump\t// in\n    tag_219:\n        /* \"#utility.yul\":11515:11651   */\n      pop\n        /* \"#utility.yul\":11462:11651   */\n      pop\n      pop\n      jump\t// out\n        /* \"#utility.yul\":11657:11843   */\n    tag_90:\n        /* \"#utility.yul\":11717:11837   */\n    tag_221:\n        /* \"#utility.yul\":11734:11737   */\n      dup2\n        /* \"#utility.yul\":11727:11732   */\n      dup2\n        /* \"#utility.yul\":11724:11738   */\n      lt\n        /* \"#utility.yul\":11717:11837   */\n      iszero\n      tag_223\n      jumpi\n        /* \"#utility.yul\":11788:11827   */\n      tag_224\n        /* \"#utility.yul\":11825:11826   */\n      0x00\n        /* \"#utility.yul\":11818:11823   */\n      dup3\n        /* \"#utility.yul\":11788:11827   */\n      tag_89\n      jump\t// in\n    tag_224:\n        /* \"#utility.yul\":11761:11762   */\n      0x01\n        /* \"#utility.yul\":11754:11759   */\n      dup2\n        /* \"#utility.yul\":11750:11763   */\n      add\n        /* \"#utility.yul\":11741:11763   */\n      swap1\n      pop\n        /* \"#utility.yul\":11717:11837   */\n      jump(tag_221)\n    tag_223:\n        /* \"#utility.yul\":11657:11843   */\n      pop\n      pop\n      jump\t// out\n        /* \"#utility.yul\":11849:12392   */\n    tag_91:\n        /* \"#utility.yul\":11950:11952   */\n      0x1f\n        /* \"#utility.yul\":11945:11948   */\n      dup3\n        /* \"#utility.yul\":11942:11953   */\n      gt\n        /* \"#utility.yul\":11939:12385   */\n      iszero\n      tag_226\n      jumpi\n        /* \"#utility.yul\":11984:12022   */\n      tag_227\n        /* \"#utility.yul\":12016:12021   */\n      dup2\n        /* \"#utility.yul\":11984:12022   */\n      tag_80\n      jump\t// in\n    tag_227:\n        /* \"#utility.yul\":12068:12097   */\n      tag_228\n        /* \"#utility.yul\":12086:12096   */\n      dup5\n        /* \"#utility.yul\":12068:12097   */\n      tag_81\n      jump\t// in\n    tag_228:\n        /* \"#utility.yul\":12058:12066   */\n      dup2\n        /* \"#utility.yul\":12054:12098   */\n      add\n        /* \"#utility.yul\":12251:12253   */\n      0x20\n        /* \"#utility.yul\":12239:12249   */\n      dup6\n        /* \"#utility.yul\":12236:12254   */\n      lt\n        /* \"#utility.yul\":12233:12282   */\n      iszero\n      tag_229\n      jumpi\n        /* \"#utility.yul\":12272:12280   */\n      dup2\n        /* \"#utility.yul\":12257:12280   */\n      swap1\n      pop\n        /* \"#utility.yul\":12233:12282   */\n    tag_229:\n        /* \"#utility.yul\":12295:12375   */\n      tag_230\n        /* \"#utility.yul\":12351:12373   */\n      tag_231\n        /* \"#utility.yul\":12369:12372   */\n      dup6\n        /* \"#utility.yul\":12351:12373   */\n      tag_81\n      jump\t// in\n    tag_231:\n        /* \"#utility.yul\":12341:12349   */\n      dup4\n        /* \"#utility.yul\":12337:12374   */\n      add\n        /* \"#utility.yul\":12324:12335   */\n      dup3\n        /* \"#utility.yul\":12295:12375   */\n      tag_90\n      jump\t// in\n    tag_230:\n        /* \"#utility.yul\":11954:12385   */\n      pop\n      pop\n        /* \"#utility.yul\":11939:12385   */\n    tag_226:\n        /* \"#utility.yul\":11849:12392   */\n      pop\n      pop\n      pop\n      jump\t// out\n        /* \"#utility.yul\":12398:12515   */\n    tag_92:\n        /* \"#utility.yul\":12452:12460   */\n      0x00\n        /* \"#utility.yul\":12502:12507   */\n      dup3\n        /* \"#utility.yul\":12496:12500   */\n      dup3\n        /* \"#utility.yul\":12492:12508   */\n      shr\n        /* \"#utility.yul\":12471:12508   */\n      swap1\n      pop\n        /* \"#utility.yul\":12398:12515   */\n      swap3\n      swap2\n      pop\n      pop\n      jump\t// out\n        /* \"#utility.yul\":12521:12690   */\n    tag_93:\n        /* \"#utility.yul\":12565:12571   */\n      0x00\n        /* \"#utility.yul\":12598:12649   */\n      tag_234\n        /* \"#utility.yul\":12646:12647   */\n      0x00\n        /* \"#utility.yul\":12642:12648   */\n      not\n        /* \"#utility.yul\":12634:12639   */\n      dup5\n        /* \"#utility.yul\":12631:12632   */\n      0x08\n        /* \"#utility.yul\":12627:12640   */\n      mul\n        /* \"#utility.yul\":12598:12649   */\n      tag_92\n      jump\t// in\n    tag_234:\n        /* \"#utility.yul\":12594:12650   */\n      not\n        /* \"#utility.yul\":12679:12683   */\n      dup1\n        /* \"#utility.yul\":12673:12677   */\n      dup4\n        /* \"#utility.yul\":12669:12684   */\n      and\n        /* \"#utility.yul\":12659:12684   */\n      swap2\n      pop\n        /* \"#utility.yul\":12572:12690   */\n      pop\n        /* \"#utility.yul\":12521:12690   */\n      swap3\n      swap2\n      pop\n      pop\n      jump\t// out\n        /* \"#utility.yul\":12695:12990   */\n    tag_94:\n        /* \"#utility.yul\":12771:12775   */\n      0x00\n        /* \"#utility.yul\":12917:12946   */\n      tag_236\n        /* \"#utility.yul\":12942:12945   */\n      dup4\n        /* \"#utility.yul\":12936:12940   */\n      dup4\n        /* \"#utility.yul\":12917:12946   */\n      tag_93\n      jump\t// in\n    tag_236:\n        /* \"#utility.yul\":12909:12946   */\n      swap2\n      pop\n        /* \"#utility.yul\":12979:12982   */\n      dup3\n        /* \"#utility.yul\":12976:12977   */\n      0x02\n        /* \"#utility.yul\":12972:12983   */\n      mul\n        /* \"#utility.yul\":12966:12970   */\n      dup3\n        /* \"#utility.yul\":12963:12984   */\n      or\n        /* \"#utility.yul\":12955:12984   */\n      swap1\n      pop\n        /* \"#utility.yul\":12695:12990   */\n      swap3\n      swap2\n      pop\n      pop\n      jump\t// out\n        /* \"#utility.yul\":12995:14390   */\n    tag_45:\n        /* \"#utility.yul\":13112:13149   */\n      tag_238\n        /* \"#utility.yul\":13145:13148   */\n      dup3\n        /* \"#utility.yul\":13112:13149   */\n      tag_62\n      jump\t// in\n    tag_238:\n        /* \"#utility.yul\":13214:13232   */\n      0xffffffffffffffff\n        /* \"#utility.yul\":13206:13212   */\n      dup2\n        /* \"#utility.yul\":13203:13233   */\n      gt\n        /* \"#utility.yul\":13200:13256   */\n      iszero\n      tag_239\n      jumpi\n        /* \"#utility.yul\":13236:13254   */\n      tag_240\n      tag_55\n      jump\t// in\n    tag_240:\n        /* \"#utility.yul\":13200:13256   */\n    tag_239:\n        /* \"#utility.yul\":13280:13318   */\n      tag_241\n        /* \"#utility.yul\":13312:13316   */\n      dup3\n        /* \"#utility.yul\":13306:13317   */\n      sload\n        /* \"#utility.yul\":13280:13318   */\n      tag_23\n      jump\t// in\n    tag_241:\n        /* \"#utility.yul\":13365:13432   */\n      tag_242\n        /* \"#utility.yul\":13425:13431   */\n      dup3\n        /* \"#utility.yul\":13417:13423   */\n      dup3\n        /* \"#utility.yul\":13411:13415   */\n      dup6\n        /* \"#utility.yul\":13365:13432   */\n      tag_91\n      jump\t// in\n    tag_242:\n        /* \"#utility.yul\":13459:13460   */\n      0x00\n        /* \"#utility.yul\":13483:13487   */\n      0x20\n        /* \"#utility.yul\":13470:13487   */\n      swap1\n      pop\n        /* \"#utility.yul\":13515:13517   */\n      0x1f\n        /* \"#utility.yul\":13507:13513   */\n      dup4\n        /* \"#utility.yul\":13504:13518   */\n      gt\n        /* \"#utility.yul\":13532:13533   */\n      0x01\n        /* \"#utility.yul\":13527:14145   */\n      dup2\n      eq\n      tag_244\n      jumpi\n        /* \"#utility.yul\":14189:14190   */\n      0x00\n        /* \"#utility.yul\":14206:14212   */\n      dup5\n        /* \"#utility.yul\":14203:14280   */\n      iszero\n      tag_245\n      jumpi\n        /* \"#utility.yul\":14255:14264   */\n      dup3\n        /* \"#utility.yul\":14250:14253   */\n      dup8\n        /* \"#utility.yul\":14246:14265   */\n      add\n        /* \"#utility.yul\":14240:14266   */\n      mload\n        /* \"#utility.yul\":14231:14266   */\n      swap1\n      pop\n        /* \"#utility.yul\":14203:14280   */\n    tag_245:\n        /* \"#utility.yul\":14306:14373   */\n      tag_246\n        /* \"#utility.yul\":14366:14372   */\n      dup6\n        /* \"#utility.yul\":14359:14364   */\n      dup3\n        /* \"#utility.yul\":14306:14373   */\n      tag_94\n      jump\t// in\n    tag_246:\n        /* \"#utility.yul\":14300:14304   */\n      dup7\n        /* \"#utility.yul\":14293:14374   */\n      sstore\n        /* \"#utility.yul\":14162:14384   */\n      pop\n        /* \"#utility.yul\":13497:14384   */\n      jump(tag_243)\n        /* \"#utility.yul\":13527:14145   */\n    tag_244:\n        /* \"#utility.yul\":13579:13583   */\n      0x1f\n        /* \"#utility.yul\":13575:13584   */\n      not\n        /* \"#utility.yul\":13567:13573   */\n      dup5\n        /* \"#utility.yul\":13563:13585   */\n      and\n        /* \"#utility.yul\":13613:13650   */\n      tag_247\n        /* \"#utility.yul\":13645:13649   */\n      dup7\n        /* \"#utility.yul\":13613:13650   */\n      tag_80\n      jump\t// in\n    tag_247:\n        /* \"#utility.yul\":13672:13673   */\n      0x00\n        /* \"#utility.yul\":13686:13894   */\n    tag_248:\n        /* \"#utility.yul\":13700:13707   */\n      dup3\n        /* \"#utility.yul\":13697:13698   */\n      dup2\n        /* \"#utility.yul\":13694:13708   */\n      lt\n        /* \"#utility.yul\":13686:13894   */\n      iszero\n      tag_250\n      jumpi\n        /* \"#utility.yul\":13779:13788   */\n      dup5\n        /* \"#utility.yul\":13774:13777   */\n      dup10\n        /* \"#utility.yul\":13770:13789   */\n      add\n        /* \"#utility.yul\":13764:13790   */\n      mload\n        /* \"#utility.yul\":13756:13762   */\n      dup3\n        /* \"#utility.yul\":13749:13791   */\n      sstore\n        /* \"#utility.yul\":13830:13831   */\n      0x01\n        /* \"#utility.yul\":13822:13828   */\n      dup3\n        /* \"#utility.yul\":13818:13832   */\n      add\n        /* \"#utility.yul\":13808:13832   */\n      swap2\n      pop\n        /* \"#utility.yul\":13877:13879   */\n      0x20\n        /* \"#utility.yul\":13866:13875   */\n      dup6\n        /* \"#utility.yul\":13862:13880   */\n      add\n        /* \"#utility.yul\":13849:13880   */\n      swap5\n      pop\n        /* \"#utility.yul\":13723:13727   */\n      0x20\n        /* \"#utility.yul\":13720:13721   */\n      dup2\n        /* \"#utility.yul\":13716:13728   */\n      add\n        /* \"#utility.yul\":13711:13728   */\n      swap1\n      pop\n        /* \"#utility.yul\":13686:13894   */\n      jump(tag_248)\n    tag_250:\n        /* \"#utility.yul\":13922:13928   */\n      dup7\n        /* \"#utility.yul\":13913:13920   */\n      dup4\n        /* \"#utility.yul\":13910:13929   */\n      lt\n        /* \"#utility.yul\":13907:14086   */\n      iszero\n      tag_251\n      jumpi\n        /* \"#utility.yul\":13980:13989   */\n      dup5\n        /* \"#utility.yul\":13975:13978   */\n      dup10\n        /* \"#utility.yul\":13971:13990   */\n      add\n        /* \"#utility.yul\":13965:13991   */\n      mload\n        /* \"#utility.yul\":14023:14071   */\n      tag_252\n        /* \"#utility.yul\":14065:14069   */\n      0x1f\n        /* \"#utility.yul\":14057:14063   */\n      dup10\n        /* \"#utility.yul\":14053:14070   */\n      and\n        /* \"#utility.yul\":14042:14051   */\n      dup3\n        /* \"#utility.yul\":14023:14071   */\n      tag_93\n      jump\t// in\n    tag_252:\n        /* \"#utility.yul\":14015:14021   */\n      dup4\n        /* \"#utility.yul\":14008:14072   */\n      sstore\n        /* \"#utility.yul\":13930:14086   */\n      pop\n        /* \"#utility.yul\":13907:14086   */\n    tag_251:\n        /* \"#utility.yul\":14132:14133   */\n      0x01\n        /* \"#utility.yul\":14128:14129   */\n      0x02\n        /* \"#utility.yul\":14120:14126   */\n      dup9\n        /* \"#utility.yul\":14116:14130   */\n      mul\n        /* \"#utility.yul\":14112:14134   */\n      add\n        /* \"#utility.yul\":14106:14110   */\n      dup9\n        /* \"#utility.yul\":14099:14135   */\n      sstore\n        /* \"#utility.yul\":13534:14145   */\n      pop\n      pop\n      pop\n        /* \"#utility.yul\":13497:14384   */\n    tag_243:\n      pop\n        /* \"#utility.yul\":13087:14390   */\n      pop\n      pop\n      pop\n        /* \"#utility.yul\":12995:14390   */\n      pop\n      pop\n      jump\t// out\n\n    auxdata: 0xa26469706673582212203ddc00799f701eb38da61a69bba5b9bb7e51717e92d9abc7616dbb91b301140064736f6c634300081f0033\n}\n",
				"bytecode": {
					"linkReferences": {},
					"object": "6080604052348015600e575f5ffd5b50610bc98061001c5f395ff3fe608060405234801561000f575f5ffd5b506004361061003f575f3560e01c806312b2f1ad14610043578063a673c0b614610075578063cd80723a146100a5575b5f5ffd5b61005d60048036038101906100589190610568565b6100c1565b60405161006c93929190610674565b60405180910390f35b61008f600480360381019061008a91906106e3565b6101c1565b60405161009c919061073d565b60405180910390f35b6100bf60048036038101906100ba9190610787565b61028a565b005b5f82805160208101820180518482526020830160208501208183528095505050505050818051602081018201805184825260208301602085012081835280955050505050505f9150915050805f01805461011a9061083c565b80601f01602080910402602001604051908101604052809291908181526020018280546101469061083c565b80156101915780601f1061016857610100808354040283529160200191610191565b820191905f5260205f20905b81548152906001019060200180831161017457829003601f168201915b505050505090806001015f9054906101000a900461ffff16908060010160029054906101000a900460ff16905083565b60018280516020810182018051848252602083016020850120818352809550505050505081815481106101f2575f80fd5b905f5260205f20015f9150915050805461020b9061083c565b80601f01602080910402602001604051908101604052809291908181526020018280546102379061083c565b80156102825780601f1061025957610100808354040283529160200191610282565b820191905f5260205f20905b81548152906001019060200180831161026557829003601f168201915b505050505081565b5f8360405161029991906108a6565b9081526020016040518091039020826040516102b591906108a6565b908152602001604051809103902060010160029054906101000a900460ff1615610314576040517f08c379a000000000000000000000000000000000000000000000000000000000815260040161030b90610906565b60405180910390fd5b60405180606001604052808381526020018261ffff168152602001600115158152505f8460405161034591906108a6565b90815260200160405180910390208360405161036191906108a6565b90815260200160405180910390205f820151815f0190816103829190610ac4565b506020820151816001015f6101000a81548161ffff021916908361ffff16021790555060408201518160010160026101000a81548160ff0219169083151502179055509050506001836040516103d891906108a6565b908152602001604051809103902082908060018154018082558091505060019003905f5260205f20015f9091909190915090816104159190610ac4565b50505050565b5f604051905090565b5f5ffd5b5f5ffd5b5f5ffd5b5f5ffd5b5f601f19601f8301169050919050565b7f4e487b71000000000000000000000000000000000000000000000000000000005f52604160045260245ffd5b61047a82610434565b810181811067ffffffffffffffff8211171561049957610498610444565b5b80604052505050565b5f6104ab61041b565b90506104b78282610471565b919050565b5f67ffffffffffffffff8211156104d6576104d5610444565b5b6104df82610434565b9050602081019050919050565b828183375f83830152505050565b5f61050c610507846104bc565b6104a2565b90508281526020810184848401111561052857610527610430565b5b6105338482856104ec565b509392505050565b5f82601f83011261054f5761054e61042c565b5b813561055f8482602086016104fa565b91505092915050565b5f5f6040838503121561057e5761057d610424565b5b5f83013567ffffffffffffffff81111561059b5761059a610428565b5b6105a78582860161053b565b925050602083013567ffffffffffffffff8111156105c8576105c7610428565b5b6105d48582860161053b565b9150509250929050565b5f81519050919050565b5f82825260208201905092915050565b8281835e5f83830152505050565b5f610610826105de565b61061a81856105e8565b935061062a8185602086016105f8565b61063381610434565b840191505092915050565b5f61ffff82169050919050565b6106548161063e565b82525050565b5f8115159050919050565b61066e8161065a565b82525050565b5f6060820190508181035f83015261068c8186610606565b905061069b602083018561064b565b6106a86040830184610665565b949350505050565b5f819050919050565b6106c2816106b0565b81146106cc575f5ffd5b50565b5f813590506106dd816106b9565b92915050565b5f5f604083850312156106f9576106f8610424565b5b5f83013567ffffffffffffffff81111561071657610715610428565b5b6107228582860161053b565b9250506020610733858286016106cf565b9150509250929050565b5f6020820190508181035f8301526107558184610606565b905092915050565b6107668161063e565b8114610770575f5ffd5b50565b5f813590506107818161075d565b92915050565b5f5f5f6060848603121561079e5761079d610424565b5b5f84013567ffffffffffffffff8111156107bb576107ba610428565b5b6107c78682870161053b565b935050602084013567ffffffffffffffff8111156107e8576107e7610428565b5b6107f48682870161053b565b925050604061080586828701610773565b9150509250925092565b7f4e487b71000000000000000000000000000000000000000000000000000000005f52602260045260245ffd5b5f600282049050600182168061085357607f821691505b6020821081036108665761086561080f565b5b50919050565b5f81905092915050565b5f610880826105de565b61088a818561086c565b935061089a8185602086016105f8565b80840191505092915050565b5f6108b18284610876565b915081905092915050565b7f426f6f6b20616c726561647920657869737473000000000000000000000000005f82015250565b5f6108f06013836105e8565b91506108fb826108bc565b602082019050919050565b5f6020820190508181035f83015261091d816108e4565b9050919050565b5f819050815f5260205f209050919050565b5f6020601f8301049050919050565b5f82821b905092915050565b5f600883026109807fffffffffffffffffffffffffffffffffffffffffffffffffffffffffffffffff82610945565b61098a8683610945565b95508019841693508086168417925050509392505050565b5f819050919050565b5f6109c56109c06109bb846106b0565b6109a2565b6106b0565b9050919050565b5f819050919050565b6109de836109ab565b6109f26109ea826109cc565b848454610951565b825550505050565b5f5f905090565b610a096109fa565b610a148184846109d5565b505050565b5b81811015610a3757610a2c5f82610a01565b600181019050610a1a565b5050565b601f821115610a7c57610a4d81610924565b610a5684610936565b81016020851015610a65578190505b610a79610a7185610936565b830182610a19565b50505b505050565b5f82821c905092915050565b5f610a9c5f1984600802610a81565b1980831691505092915050565b5f610ab48383610a8d565b9150826002028217905092915050565b610acd826105de565b67ffffffffffffffff811115610ae657610ae5610444565b5b610af0825461083c565b610afb828285610a3b565b5f60209050601f831160018114610b2c575f8415610b1a578287015190505b610b248582610aa9565b865550610b8b565b601f198416610b3a86610924565b5f5b82811015610b6157848901518255600182019150602085019450602081019050610b3c565b86831015610b7e5784890151610b7a601f891682610a8d565b8355505b6001600288020188555050505b50505050505056fea26469706673582212203ddc00799f701eb38da61a69bba5b9bb7e51717e92d9abc7616dbb91b301140064736f6c634300081f0033",
					"opcodes": "PUSH1 0x80 PUSH1 0x40 MSTORE CALLVALUE DUP1 ISZERO PUSH1 0xE JUMPI PUSH0 PUSH0 REVERT JUMPDEST POP PUSH2 0xBC9 DUP1 PUSH2 0x1C PUSH0 CODECOPY PUSH0 RETURN INVALID PUSH1 0x80 PUSH1 0x40 MSTORE CALLVALUE DUP1 ISZERO PUSH2 0xF JUMPI PUSH0 PUSH0 REVERT JUMPDEST POP PUSH1 0x4 CALLDATASIZE LT PUSH2 0x3F JUMPI PUSH0 CALLDATALOAD PUSH1 0xE0 SHR DUP1 PUSH4 0x12B2F1AD EQ PUSH2 0x43 JUMPI DUP1 PUSH4 0xA673C0B6 EQ PUSH2 0x75 JUMPI DUP1 PUSH4 0xCD80723A EQ PUSH2 0xA5 JUMPI JUMPDEST PUSH0 PUSH0 REVERT JUMPDEST PUSH2 0x5D PUSH1 0x4 DUP1 CALLDATASIZE SUB DUP2 ADD SWAP1 PUSH2 0x58 SWAP2 SWAP1 PUSH2 0x568 JUMP JUMPDEST PUSH2 0xC1 JUMP JUMPDEST PUSH1 0x40 MLOAD PUSH2 0x6C SWAP4 SWAP3 SWAP2 SWAP1 PUSH2 0x674 JUMP JUMPDEST PUSH1 0x40 MLOAD DUP1 SWAP2 SUB SWAP1 RETURN JUMPDEST PUSH2 0x8F PUSH1 0x4 DUP1 CALLDATASIZE SUB DUP2 ADD SWAP1 PUSH2 0x8A SWAP2 SWAP1 PUSH2 0x6E3 JUMP JUMPDEST PUSH2 0x1C1 JUMP JUMPDEST PUSH1 0x40 MLOAD PUSH2 0x9C SWAP2 SWAP1 PUSH2 0x73D JUMP JUMPDEST PUSH1 0x40 MLOAD DUP1 SWAP2 SUB SWAP1 RETURN JUMPDEST PUSH2 0xBF PUSH1 0x4 DUP1 CALLDATASIZE SUB DUP2 ADD SWAP1 PUSH2 0xBA SWAP2 SWAP1 PUSH2 0x787 JUMP JUMPDEST PUSH2 0x28A JUMP JUMPDEST STOP JUMPDEST PUSH0 DUP3 DUP1 MLOAD PUSH1 0x20 DUP2 ADD DUP3 ADD DUP1 MLOAD DUP5 DUP3 MSTORE PUSH1 0x20 DUP4 ADD PUSH1 0x20 DUP6 ADD KECCAK256 DUP2 DUP4 MSTORE DUP1 SWAP6 POP POP POP POP POP POP DUP2 DUP1 MLOAD PUSH1 0x20 DUP2 ADD DUP3 ADD DUP1 MLOAD DUP5 DUP3 MSTORE PUSH1 0x20 DUP4 ADD PUSH1 0x20 DUP6 ADD KECCAK256 DUP2 DUP4 MSTORE DUP1 SWAP6 POP POP POP POP POP POP PUSH0 SWAP2 POP SWAP2 POP POP DUP1 PUSH0 ADD DUP1 SLOAD PUSH2 0x11A SWAP1 PUSH2 0x83C JUMP JUMPDEST DUP1 PUSH1 0x1F ADD PUSH1 0x20 DUP1 SWAP2 DIV MUL PUSH1 0x20 ADD PUSH1 0x40 MLOAD SWAP1 DUP2 ADD PUSH1 0x40 MSTORE DUP1 SWAP3 SWAP2 SWAP1 DUP2 DUP2 MSTORE PUSH1 0x20 ADD DUP3 DUP1 SLOAD PUSH2 0x146 SWAP1 PUSH2 0x83C JUMP JUMPDEST DUP1 ISZERO PUSH2 0x191 JUMPI DUP1 PUSH1 0x1F LT PUSH2 0x168 JUMPI PUSH2 0x100 DUP1 DUP4 SLOAD DIV MUL DUP4 MSTORE SWAP2 PUSH1 0x20 ADD SWAP2 PUSH2 0x191 JUMP JUMPDEST DUP3 ADD SWAP2 SWAP1 PUSH0 MSTORE PUSH1 0x20 PUSH0 KECCAK256 SWAP1 JUMPDEST DUP2 SLOAD DUP2 MSTORE SWAP1 PUSH1 0x1 ADD SWAP1 PUSH1 0x20 ADD DUP1 DUP4 GT PUSH2 0x174 JUMPI DUP3 SWAP1 SUB PUSH1 0x1F AND DUP3 ADD SWAP2 JUMPDEST POP POP POP POP POP SWAP1 DUP1 PUSH1 0x1 ADD PUSH0 SWAP1 SLOAD SWAP1 PUSH2 0x100 EXP SWAP1 DIV PUSH2 0xFFFF AND SWAP1 DUP1 PUSH1 0x1 ADD PUSH1 0x2 SWAP1 SLOAD SWAP1 PUSH2 0x100 EXP SWAP1 DIV PUSH1 0xFF AND SWAP1 POP DUP4 JUMP JUMPDEST PUSH1 0x1 DUP3 DUP1 MLOAD PUSH1 0x20 DUP2 ADD DUP3 ADD DUP1 MLOAD DUP5 DUP3 MSTORE PUSH1 0x20 DUP4 ADD PUSH1 0x20 DUP6 ADD KECCAK256 DUP2 DUP4 MSTORE DUP1 SWAP6 POP POP POP POP POP POP DUP2 DUP2 SLOAD DUP2 LT PUSH2 0x1F2 JUMPI PUSH0 DUP1 REVERT JUMPDEST SWAP1 PUSH0 MSTORE PUSH1 0x20 PUSH0 KECCAK256 ADD PUSH0 SWAP2 POP SWAP2 POP POP DUP1 SLOAD PUSH2 0x20B SWAP1 PUSH2 0x83C JUMP JUMPDEST DUP1 PUSH1 0x1F ADD PUSH1 0x20 DUP1 SWAP2 DIV MUL PUSH1 0x20 ADD PUSH1 0x40 MLOAD SWAP1 DUP2 ADD PUSH1 0x40 MSTORE DUP1 SWAP3 SWAP2 SWAP1 DUP2 DUP2 MSTORE PUSH1 0x20 ADD DUP3 DUP1 SLOAD PUSH2 0x237 SWAP1 PUSH2 0x83C JUMP JUMPDEST DUP1 ISZERO PUSH2 0x282 JUMPI DUP1 PUSH1 0x1F LT PUSH2 0x259 JUMPI PUSH2 0x100 DUP1 DUP4 SLOAD DIV MUL DUP4 MSTORE SWAP2 PUSH1 0x20 ADD SWAP2 PUSH2 0x282 JUMP JUMPDEST DUP3 ADD SWAP2 SWAP1 PUSH0 MSTORE PUSH1 0x20 PUSH0 KECCAK256 SWAP1 JUMPDEST DUP2 SLOAD DUP2 MSTORE SWAP1 PUSH1 0x1 ADD SWAP1 PUSH1 0x20 ADD DUP1 DUP4 GT PUSH2 0x265 JUMPI DUP3 SWAP1 SUB PUSH1 0x1F AND DUP3 ADD SWAP2 JUMPDEST POP POP POP POP POP DUP2 JUMP JUMPDEST PUSH0 DUP4 PUSH1 0x40 MLOAD PUSH2 0x299 SWAP2 SWAP1 PUSH2 0x8A6 JUMP JUMPDEST SWAP1 DUP2 MSTORE PUSH1 0x20 ADD PUSH1 0x40 MLOAD DUP1 SWAP2 SUB SWAP1 KECCAK256 DUP3 PUSH1 0x40 MLOAD PUSH2 0x2B5 SWAP2 SWAP1 PUSH2 0x8A6 JUMP JUMPDEST SWAP1 DUP2 MSTORE PUSH1 0x20 ADD PUSH1 0x40 MLOAD DUP1 SWAP2 SUB SWAP1 KECCAK256 PUSH1 0x1 ADD PUSH1 0x2 SWAP1 SLOAD SWAP1 PUSH2 0x100 EXP SWAP1 DIV PUSH1 0xFF AND ISZERO PUSH2 0x314 JUMPI PUSH1 0x40 MLOAD PUSH32 0x8C379A000000000000000000000000000000000000000000000000000000000 DUP2 MSTORE PUSH1 0x4 ADD PUSH2 0x30B SWAP1 PUSH2 0x906 JUMP JUMPDEST PUSH1 0x40 MLOAD DUP1 SWAP2 SUB SWAP1 REVERT JUMPDEST PUSH1 0x40 MLOAD DUP1 PUSH1 0x60 ADD PUSH1 0x40 MSTORE DUP1 DUP4 DUP2 MSTORE PUSH1 0x20 ADD DUP3 PUSH2 0xFFFF AND DUP2 MSTORE PUSH1 0x20 ADD PUSH1 0x1 ISZERO ISZERO DUP2 MSTORE POP PUSH0 DUP5 PUSH1 0x40 MLOAD PUSH2 0x345 SWAP2 SWAP1 PUSH2 0x8A6 JUMP JUMPDEST SWAP1 DUP2 MSTORE PUSH1 0x20 ADD PUSH1 0x40 MLOAD DUP1 SWAP2 SUB SWAP1 KECCAK256 DUP4 PUSH1 0x40 MLOAD PUSH2 0x361 SWAP2 SWAP1 PUSH2 0x8A6 JUMP JUMPDEST SWAP1 DUP2 MSTORE PUSH1 0x20 ADD PUSH1 0x40 MLOAD DUP1 SWAP2 SUB SWAP1 KECCAK256 PUSH0 DUP3 ADD MLOAD DUP2 PUSH0 ADD SWAP1 DUP2 PUSH2 0x382 SWAP2 SWAP1 PUSH2 0xAC4 JUMP JUMPDEST POP PUSH1 0x20 DUP3 ADD MLOAD DUP2 PUSH1 0x1 ADD PUSH0 PUSH2 0x100 EXP DUP2 SLOAD DUP2 PUSH2 0xFFFF MUL NOT AND SWAP1 DUP4 PUSH2 0xFFFF AND MUL OR SWAP1 SSTORE POP PUSH1 0x40 DUP3 ADD MLOAD DUP2 PUSH1 0x1 ADD PUSH1 0x2 PUSH2 0x100 EXP DUP2 SLOAD DUP2 PUSH1 0xFF MUL NOT AND SWAP1 DUP4 ISZERO ISZERO MUL OR SWAP1 SSTORE POP SWAP1 POP POP PUSH1 0x1 DUP4 PUSH1 0x40 MLOAD PUSH2 0x3D8 SWAP2 SWAP1 PUSH2 0x8A6 JUMP JUMPDEST SWAP1 DUP2 MSTORE PUSH1 0x20 ADD PUSH1 0x40 MLOAD DUP1 SWAP2 SUB SWAP1 KECCAK256 DUP3 SWAP1 DUP1 PUSH1 0x1 DUP2 SLOAD ADD DUP1 DUP3 SSTORE DUP1 SWAP2 POP POP PUSH1 0x1 SWAP1 SUB SWAP1 PUSH0 MSTORE PUSH1 0x20 PUSH0 KECCAK256 ADD PUSH0 SWAP1 SWAP2 SWAP1 SWAP2 SWAP1 SWAP2 POP SWAP1 DUP2 PUSH2 0x415 SWAP2 SWAP1 PUSH2 0xAC4 JUMP JUMPDEST POP POP POP POP JUMP JUMPDEST PUSH0 PUSH1 0x40 MLOAD SWAP1 POP SWAP1 JUMP JUMPDEST PUSH0 PUSH0 REVERT JUMPDEST PUSH0 PUSH0 REVERT JUMPDEST PUSH0 PUSH0 REVERT JUMPDEST PUSH0 PUSH0 REVERT JUMPDEST PUSH0 PUSH1 0x1F NOT PUSH1 0x1F DUP4 ADD AND SWAP1 POP SWAP2 SWAP1 POP JUMP JUMPDEST PUSH32 0x4E487B7100000000000000000000000000000000000000000000000000000000 PUSH0 MSTORE PUSH1 0x41 PUSH1 0x4 MSTORE PUSH1 0x24 PUSH0 REVERT JUMPDEST PUSH2 0x47A DUP3 PUSH2 0x434 JUMP JUMPDEST DUP2 ADD DUP2 DUP2 LT PUSH8 0xFFFFFFFFFFFFFFFF DUP3 GT OR ISZERO PUSH2 0x499 JUMPI PUSH2 0x498 PUSH2 0x444 JUMP JUMPDEST JUMPDEST DUP1 PUSH1 0x40 MSTORE POP POP POP JUMP JUMPDEST PUSH0 PUSH2 0x4AB PUSH2 0x41B JUMP JUMPDEST SWAP1 POP PUSH2 0x4B7 DUP3 DUP3 PUSH2 0x471 JUMP JUMPDEST SWAP2 SWAP1 POP JUMP JUMPDEST PUSH0 PUSH8 0xFFFFFFFFFFFFFFFF DUP3 GT ISZERO PUSH2 0x4D6 JUMPI PUSH2 0x4D5 PUSH2 0x444 JUMP JUMPDEST JUMPDEST PUSH2 0x4DF DUP3 PUSH2 0x434 JUMP JUMPDEST SWAP1 POP PUSH1 0x20 DUP2 ADD SWAP1 POP SWAP2 SWAP1 POP JUMP JUMPDEST DUP3 DUP2 DUP4 CALLDATACOPY PUSH0 DUP4 DUP4 ADD MSTORE POP POP POP JUMP JUMPDEST PUSH0 PUSH2 0x50C PUSH2 0x507 DUP5 PUSH2 0x4BC JUMP JUMPDEST PUSH2 0x4A2 JUMP JUMPDEST SWAP1 POP DUP3 DUP2 MSTORE PUSH1 0x20 DUP2 ADD DUP5 DUP5 DUP5 ADD GT ISZERO PUSH2 0x528 JUMPI PUSH2 0x527 PUSH2 0x430 JUMP JUMPDEST JUMPDEST PUSH2 0x533 DUP5 DUP3 DUP6 PUSH2 0x4EC JUMP JUMPDEST POP SWAP4 SWAP3 POP POP POP JUMP JUMPDEST PUSH0 DUP3 PUSH1 0x1F DUP4 ADD SLT PUSH2 0x54F JUMPI PUSH2 0x54E PUSH2 0x42C JUMP JUMPDEST JUMPDEST DUP2 CALLDATALOAD PUSH2 0x55F DUP5 DUP3 PUSH1 0x20 DUP7 ADD PUSH2 0x4FA JUMP JUMPDEST SWAP2 POP POP SWAP3 SWAP2 POP POP JUMP JUMPDEST PUSH0 PUSH0 PUSH1 0x40 DUP4 DUP6 SUB SLT ISZERO PUSH2 0x57E JUMPI PUSH2 0x57D PUSH2 0x424 JUMP JUMPDEST JUMPDEST PUSH0 DUP4 ADD CALLDATALOAD PUSH8 0xFFFFFFFFFFFFFFFF DUP2 GT ISZERO PUSH2 0x59B JUMPI PUSH2 0x59A PUSH2 0x428 JUMP JUMPDEST JUMPDEST PUSH2 0x5A7 DUP6 DUP3 DUP7 ADD PUSH2 0x53B JUMP JUMPDEST SWAP3 POP POP PUSH1 0x20 DUP4 ADD CALLDATALOAD PUSH8 0xFFFFFFFFFFFFFFFF DUP2 GT ISZERO PUSH2 0x5C8 JUMPI PUSH2 0x5C7 PUSH2 0x428 JUMP JUMPDEST JUMPDEST PUSH2 0x5D4 DUP6 DUP3 DUP7 ADD PUSH2 0x53B JUMP JUMPDEST SWAP2 POP POP SWAP3 POP SWAP3 SWAP1 POP JUMP JUMPDEST PUSH0 DUP2 MLOAD SWAP1 POP SWAP2 SWAP1 POP JUMP JUMPDEST PUSH0 DUP3 DUP3 MSTORE PUSH1 0x20 DUP3 ADD SWAP1 POP SWAP3 SWAP2 POP POP JUMP JUMPDEST DUP3 DUP2 DUP4 MCOPY PUSH0 DUP4 DUP4 ADD MSTORE POP POP POP JUMP JUMPDEST PUSH0 PUSH2 0x610 DUP3 PUSH2 0x5DE JUMP JUMPDEST PUSH2 0x61A DUP2 DUP6 PUSH2 0x5E8 JUMP JUMPDEST SWAP4 POP PUSH2 0x62A DUP2 DUP6 PUSH1 0x20 DUP7 ADD PUSH2 0x5F8 JUMP JUMPDEST PUSH2 0x633 DUP2 PUSH2 0x434 JUMP JUMPDEST DUP5 ADD SWAP2 POP POP SWAP3 SWAP2 POP POP JUMP JUMPDEST PUSH0 PUSH2 0xFFFF DUP3 AND SWAP1 POP SWAP2 SWAP1 POP JUMP JUMPDEST PUSH2 0x654 DUP2 PUSH2 0x63E JUMP JUMPDEST DUP3 MSTORE POP POP JUMP JUMPDEST PUSH0 DUP2 ISZERO ISZERO SWAP1 POP SWAP2 SWAP1 POP JUMP JUMPDEST PUSH2 0x66E DUP2 PUSH2 0x65A JUMP JUMPDEST DUP3 MSTORE POP POP JUMP JUMPDEST PUSH0 PUSH1 0x60 DUP3 ADD SWAP1 POP DUP2 DUP2 SUB PUSH0 DUP4 ADD MSTORE PUSH2 0x68C DUP2 DUP7 PUSH2 0x606 JUMP JUMPDEST SWAP1 POP PUSH2 0x69B PUSH1 0x20 DUP4 ADD DUP6 PUSH2 0x64B JUMP JUMPDEST PUSH2 0x6A8 PUSH1 0x40 DUP4 ADD DUP5 PUSH2 0x665 JUMP JUMPDEST SWAP5 SWAP4 POP POP POP POP JUMP JUMPDEST PUSH0 DUP2 SWAP1 POP SWAP2 SWAP1 POP JUMP JUMPDEST PUSH2 0x6C2 DUP2 PUSH2 0x6B0 JUMP JUMPDEST DUP2 EQ PUSH2 0x6CC JUMPI PUSH0 PUSH0 REVERT JUMPDEST POP JUMP JUMPDEST PUSH0 DUP2 CALLDATALOAD SWAP1 POP PUSH2 0x6DD DUP2 PUSH2 0x6B9 JUMP JUMPDEST SWAP3 SWAP2 POP POP JUMP JUMPDEST PUSH0 PUSH0 PUSH1 0x40 DUP4 DUP6 SUB SLT ISZERO PUSH2 0x6F9 JUMPI PUSH2 0x6F8 PUSH2 0x424 JUMP JUMPDEST JUMPDEST PUSH0 DUP4 ADD CALLDATALOAD PUSH8 0xFFFFFFFFFFFFFFFF DUP2 GT ISZERO PUSH2 0x716 JUMPI PUSH2 0x715 PUSH2 0x428 JUMP JUMPDEST JUMPDEST PUSH2 0x722 DUP6 DUP3 DUP7 ADD PUSH2 0x53B JUMP JUMPDEST SWAP3 POP POP PUSH1 0x20 PUSH2 0x733 DUP6 DUP3 DUP7 ADD PUSH2 0x6CF JUMP JUMPDEST SWAP2 POP POP SWAP3 POP SWAP3 SWAP1 POP JUMP JUMPDEST PUSH0 PUSH1 0x20 DUP3 ADD SWAP1 POP DUP2 DUP2 SUB PUSH0 DUP4 ADD MSTORE PUSH2 0x755 DUP2 DUP5 PUSH2 0x606 JUMP JUMPDEST SWAP1 POP SWAP3 SWAP2 POP POP JUMP JUMPDEST PUSH2 0x766 DUP2 PUSH2 0x63E JUMP JUMPDEST DUP2 EQ PUSH2 0x770 JUMPI PUSH0 PUSH0 REVERT JUMPDEST POP JUMP JUMPDEST PUSH0 DUP2 CALLDATALOAD SWAP1 POP PUSH2 0x781 DUP2 PUSH2 0x75D JUMP JUMPDEST SWAP3 SWAP2 POP POP JUMP JUMPDEST PUSH0 PUSH0 PUSH0 PUSH1 0x60 DUP5 DUP7 SUB SLT ISZERO PUSH2 0x79E JUMPI PUSH2 0x79D PUSH2 0x424 JUMP JUMPDEST JUMPDEST PUSH0 DUP5 ADD CALLDATALOAD PUSH8 0xFFFFFFFFFFFFFFFF DUP2 GT ISZERO PUSH2 0x7BB JUMPI PUSH2 0x7BA PUSH2 0x428 JUMP JUMPDEST JUMPDEST PUSH2 0x7C7 DUP7 DUP3 DUP8 ADD PUSH2 0x53B JUMP JUMPDEST SWAP4 POP POP PUSH1 0x20 DUP5 ADD CALLDATALOAD PUSH8 0xFFFFFFFFFFFFFFFF DUP2 GT ISZERO PUSH2 0x7E8 JUMPI PUSH2 0x7E7 PUSH2 0x428 JUMP JUMPDEST JUMPDEST PUSH2 0x7F4 DUP7 DUP3 DUP8 ADD PUSH2 0x53B JUMP JUMPDEST SWAP3 POP POP PUSH1 0x40 PUSH2 0x805 DUP7 DUP3 DUP8 ADD PUSH2 0x773 JUMP JUMPDEST SWAP2 POP POP SWAP3 POP SWAP3 POP SWAP3 JUMP JUMPDEST PUSH32 0x4E487B7100000000000000000000000000000000000000000000000000000000 PUSH0 MSTORE PUSH1 0x22 PUSH1 0x4 MSTORE PUSH1 0x24 PUSH0 REVERT JUMPDEST PUSH0 PUSH1 0x2 DUP3 DIV SWAP1 POP PUSH1 0x1 DUP3 AND DUP1 PUSH2 0x853 JUMPI PUSH1 0x7F DUP3 AND SWAP2 POP JUMPDEST PUSH1 0x20 DUP3 LT DUP2 SUB PUSH2 0x866 JUMPI PUSH2 0x865 PUSH2 0x80F JUMP JUMPDEST JUMPDEST POP SWAP2 SWAP1 POP JUMP JUMPDEST PUSH0 DUP2 SWAP1 POP SWAP3 SWAP2 POP POP JUMP JUMPDEST PUSH0 PUSH2 0x880 DUP3 PUSH2 0x5DE JUMP JUMPDEST PUSH2 0x88A DUP2 DUP6 PUSH2 0x86C JUMP JUMPDEST SWAP4 POP PUSH2 0x89A DUP2 DUP6 PUSH1 0x20 DUP7 ADD PUSH2 0x5F8 JUMP JUMPDEST DUP1 DUP5 ADD SWAP2 POP POP SWAP3 SWAP2 POP POP JUMP JUMPDEST PUSH0 PUSH2 0x8B1 DUP3 DUP5 PUSH2 0x876 JUMP JUMPDEST SWAP2 POP DUP2 SWAP1 POP SWAP3 SWAP2 POP POP JUMP JUMPDEST PUSH32 0x426F6F6B20616C72656164792065786973747300000000000000000000000000 PUSH0 DUP3 ADD MSTORE POP JUMP JUMPDEST PUSH0 PUSH2 0x8F0 PUSH1 0x13 DUP4 PUSH2 0x5E8 JUMP JUMPDEST SWAP2 POP PUSH2 0x8FB DUP3 PUSH2 0x8BC JUMP JUMPDEST PUSH1 0x20 DUP3 ADD SWAP1 POP SWAP2 SWAP1 POP JUMP JUMPDEST PUSH0 PUSH1 0x20 DUP3 ADD SWAP1 POP DUP2 DUP2 SUB PUSH0 DUP4 ADD MSTORE PUSH2 0x91D DUP2 PUSH2 0x8E4 JUMP JUMPDEST SWAP1 POP SWAP2 SWAP1 POP JUMP JUMPDEST PUSH0 DUP2 SWAP1 POP DUP2 PUSH0 MSTORE PUSH1 0x20 PUSH0 KECCAK256 SWAP1 POP SWAP2 SWAP1 POP JUMP JUMPDEST PUSH0 PUSH1 0x20 PUSH1 0x1F DUP4 ADD DIV SWAP1 POP SWAP2 SWAP1 POP JUMP JUMPDEST PUSH0 DUP3 DUP3 SHL SWAP1 POP SWAP3 SWAP2 POP POP JUMP JUMPDEST PUSH0 PUSH1 0x8 DUP4 MUL PUSH2 0x980 PUSH32 0xFFFFFFFFFFFFFFFFFFFFFFFFFFFFFFFFFFFFFFFFFFFFFFFFFFFFFFFFFFFFFFFF DUP3 PUSH2 0x945 JUMP JUMPDEST PUSH2 0x98A DUP7 DUP4 PUSH2 0x945 JUMP JUMPDEST SWAP6 POP DUP1 NOT DUP5 AND SWAP4 POP DUP1 DUP7 AND DUP5 OR SWAP3 POP POP POP SWAP4 SWAP3 POP POP POP JUMP JUMPDEST PUSH0 DUP2 SWAP1 POP SWAP2 SWAP1 POP JUMP JUMPDEST PUSH0 PUSH2 0x9C5 PUSH2 0x9C0 PUSH2 0x9BB DUP5 PUSH2 0x6B0 JUMP JUMPDEST PUSH2 0x9A2 JUMP JUMPDEST PUSH2 0x6B0 JUMP JUMPDEST SWAP1 POP SWAP2 SWAP1 POP JUMP JUMPDEST PUSH0 DUP2 SWAP1 POP SWAP2 SWAP1 POP JUMP JUMPDEST PUSH2 0x9DE DUP4 PUSH2 0x9AB JUMP JUMPDEST PUSH2 0x9F2 PUSH2 0x9EA DUP3 PUSH2 0x9CC JUMP JUMPDEST DUP5 DUP5 SLOAD PUSH2 0x951 JUMP JUMPDEST DUP3 SSTORE POP POP POP POP JUMP JUMPDEST PUSH0 PUSH0 SWAP1 POP SWAP1 JUMP JUMPDEST PUSH2 0xA09 PUSH2 0x9FA JUMP JUMPDEST PUSH2 0xA14 DUP2 DUP5 DUP5 PUSH2 0x9D5 JUMP JUMPDEST POP POP POP JUMP JUMPDEST JUMPDEST DUP2 DUP2 LT ISZERO PUSH2 0xA37 JUMPI PUSH2 0xA2C PUSH0 DUP3 PUSH2 0xA01 JUMP JUMPDEST PUSH1 0x1 DUP2 ADD SWAP1 POP PUSH2 0xA1A JUMP JUMPDEST POP POP JUMP JUMPDEST PUSH1 0x1F DUP3 GT ISZERO PUSH2 0xA7C JUMPI PUSH2 0xA4D DUP2 PUSH2 0x924 JUMP JUMPDEST PUSH2 0xA56 DUP5 PUSH2 0x936 JUMP JUMPDEST DUP2 ADD PUSH1 0x20 DUP6 LT ISZERO PUSH2 0xA65 JUMPI DUP2 SWAP1 POP JUMPDEST PUSH2 0xA79 PUSH2 0xA71 DUP6 PUSH2 0x936 JUMP JUMPDEST DUP4 ADD DUP3 PUSH2 0xA19 JUMP JUMPDEST POP POP JUMPDEST POP POP POP JUMP JUMPDEST PUSH0 DUP3 DUP3 SHR SWAP1 POP SWAP3 SWAP2 POP POP JUMP JUMPDEST PUSH0 PUSH2 0xA9C PUSH0 NOT DUP5 PUSH1 0x8 MUL PUSH2 0xA81 JUMP JUMPDEST NOT DUP1 DUP4 AND SWAP2 POP POP SWAP3 SWAP2 POP POP JUMP JUMPDEST PUSH0 PUSH2 0xAB4 DUP4 DUP4 PUSH2 0xA8D JUMP JUMPDEST SWAP2 POP DUP3 PUSH1 0x2 MUL DUP3 OR SWAP1 POP SWAP3 SWAP2 POP POP JUMP JUMPDEST PUSH2 0xACD DUP3 PUSH2 0x5DE JUMP JUMPDEST PUSH8 0xFFFFFFFFFFFFFFFF DUP2 GT ISZERO PUSH2 0xAE6 JUMPI PUSH2 0xAE5 PUSH2 0x444 JUMP JUMPDEST JUMPDEST PUSH2 0xAF0 DUP3 SLOAD PUSH2 0x83C JUMP JUMPDEST PUSH2 0xAFB DUP3 DUP3 DUP6 PUSH2 0xA3B JUMP JUMPDEST PUSH0 PUSH1 0x20 SWAP1 POP PUSH1 0x1F DUP4 GT PUSH1 0x1 DUP2 EQ PUSH2 0xB2C JUMPI PUSH0 DUP5 ISZERO PUSH2 0xB1A JUMPI DUP3 DUP8 ADD MLOAD SWAP1 POP JUMPDEST PUSH2 0xB24 DUP6 DUP3 PUSH2 0xAA9 JUMP JUMPDEST DUP7 SSTORE POP PUSH2 0xB8B JUMP JUMPDEST PUSH1 0x1F NOT DUP5 AND PUSH2 0xB3A DUP7 PUSH2 0x924 JUMP JUMPDEST PUSH0 JUMPDEST DUP3 DUP2 LT ISZERO PUSH2 0xB61 JUMPI DUP5 DUP10 ADD MLOAD DUP3 SSTORE PUSH1 0x1 DUP3 ADD SWAP2 POP PUSH1 0x20 DUP6 ADD SWAP5 POP PUSH1 0x20 DUP2 ADD SWAP1 POP PUSH2 0xB3C JUMP JUMPDEST DUP7 DUP4 LT ISZERO PUSH2 0xB7E JUMPI DUP5 DUP10 ADD MLOAD PUSH2 0xB7A PUSH1 0x1F DUP10 AND DUP3 PUSH2 0xA8D JUMP JUMPDEST DUP4 SSTORE POP JUMPDEST PUSH1 0x1 PUSH1 0x2 DUP9 MUL ADD DUP9 SSTORE POP POP POP JUMPDEST POP POP POP POP POP POP JUMP INVALID LOG2 PUSH5 0x6970667358 0x22 SLT KECCAK256 RETURNDATASIZE 0xDC STOP PUSH26 0x9F701EB38DA61A69BBA5B9BB7E51717E92D9ABC7616DBB91B301 EQ STOP PUSH5 0x736F6C6343 STOP ADDMOD 0x1F STOP CALLER "
				},
				"gasEstimates": {
					"creation": {
						"codeDepositCost": "603400",
						"executionCost": "636",
						"totalCost": "604036"
					},
					"external": {
						"addBook(string,string,uint16)": "infinite",
						"authorBooks(string,string)": "infinite",
						"authorBooksTitles(string,uint256)": "infinite"
					}
				},
				"methodIdentifiers": {
					"addBook(string,string,uint16)": "cd80723a",
					"authorBooks(string,string)": "12b2f1ad",
					"authorBooksTitles(string,uint256)": "a673c0b6"
				}
			},
			"storageLayout": {
				"storage": [
					{
						"astId": 15,
						"contract": "contracts/Lektion3/MappingLibrary.sol:MappingLibrary",
						"label": "authorBooks",
						"offset": 0,
						"slot": "0",
						"type": "t_mapping(t_string_memory_ptr,t_mapping(t_string_memory_ptr,t_struct(Book)8_storage))"
					},
					{
						"astId": 20,
						"contract": "contracts/Lektion3/MappingLibrary.sol:MappingLibrary",
						"label": "authorBooksTitles",
						"offset": 0,
						"slot": "1",
						"type": "t_mapping(t_string_memory_ptr,t_array(t_string_storage)dyn_storage)"
					}
				],
				"types": {
					"t_array(t_string_storage)dyn_storage": {
						"base": "t_string_storage",
						"encoding": "dynamic_array",
						"label": "string[]",
						"numberOfBytes": "32"
					},
					"t_bool": {
						"encoding": "inplace",
						"label": "bool",
						"numberOfBytes": "1"
					},
					"t_mapping(t_string_memory_ptr,t_array(t_string_storage)dyn_storage)": {
						"encoding": "mapping",
						"key": "t_string_memory_ptr",
						"label": "mapping(string => string[])",
						"numberOfBytes": "32",
						"value": "t_array(t_string_storage)dyn_storage"
					},
					"t_mapping(t_string_memory_ptr,t_mapping(t_string_memory_ptr,t_struct(Book)8_storage))": {
						"encoding": "mapping",
						"key": "t_string_memory_ptr",
						"label": "mapping(string => mapping(string => struct MappingLibrary.Book))",
						"numberOfBytes": "32",
						"value": "t_mapping(t_string_memory_ptr,t_struct(Book)8_storage)"
					},
					"t_mapping(t_string_memory_ptr,t_struct(Book)8_storage)": {
						"encoding": "mapping",
						"key": "t_string_memory_ptr",
						"label": "mapping(string => struct MappingLibrary.Book)",
						"numberOfBytes": "32",
						"value": "t_struct(Book)8_storage"
					},
					"t_string_memory_ptr": {
						"encoding": "bytes",
						"label": "string",
						"numberOfBytes": "32"
					},
					"t_string_storage": {
						"encoding": "bytes",
						"label": "string",
						"numberOfBytes": "32"
					},
					"t_struct(Book)8_storage": {
						"encoding": "inplace",
						"label": "struct MappingLibrary.Book",
						"members": [
							{
								"astId": 3,
								"contract": "contracts/Lektion3/MappingLibrary.sol:MappingLibrary",
								"label": "title",
								"offset": 0,
								"slot": "0",
								"type": "t_string_storage"
							},
							{
								"astId": 5,
								"contract": "contracts/Lektion3/MappingLibrary.sol:MappingLibrary",
								"label": "year",
								"offset": 0,
								"slot": "1",
								"type": "t_uint16"
							},
							{
								"astId": 7,
								"contract": "contracts/Lektion3/MappingLibrary.sol:MappingLibrary",
								"label": "exist",
								"offset": 2,
								"slot": "1",
								"type": "t_bool"
							}
						],
						"numberOfBytes": "64"
					},
					"t_uint16": {
						"encoding": "inplace",
						"label": "uint16",
						"numberOfBytes": "2"
					}
				}
			},
			"userdoc": {
				"kind": "user",
				"methods": {},
				"version": 1
			}
		}
	}
}