{
	"contracts/Lektion4/FallbackReceive.sol": {
		"FallbackReceive": {
			"abi": [
				{
					"anonymous": false,
					"inputs": [
						{
							"indexed": true,
							"internalType": "address",
							"name": "accountAddress",
							"type": "address"
						},
						{
							"indexed": false,
							"internalType": "uint256",
							"name": "amount",
							"type": "uint256"
						}
					],
					"name": "DepositMade",
					"type": "event"
				},
				{
					"anonymous": false,
					"inputs": [
						{
							"indexed": true,
							"internalType": "address",
							"name": "accountAddress",
							"type": "address"
						}
					],
					"name": "FallbackFunctionCalled",
					"type": "event"
				},
				{
					"anonymous": false,
					"inputs": [
						{
							"indexed": true,
							"internalType": "address",
							"name": "accountAddress",
							"type": "address"
						},
						{
							"indexed": false,
							"internalType": "uint256",
							"name": "amount",
							"type": "uint256"
						}
					],
					"name": "WithdrawalMade",
					"type": "event"
				},
				{
					"stateMutability": "nonpayable",
					"type": "fallback"
				},
				{
					"inputs": [],
					"name": "contractBalance",
					"outputs": [
						{
							"internalType": "uint256",
							"name": "",
							"type": "uint256"
						}
					],
					"stateMutability": "view",
					"type": "function"
				},
				{
					"inputs": [],
					"name": "deposit",
					"outputs": [],
					"stateMutability": "payable",
					"type": "function"
				},
				{
					"inputs": [
						{
							"internalType": "uint256",
							"name": "withdrawAmount",
							"type": "uint256"
						}
					],
					"name": "withdraw",
					"outputs": [],
					"stateMutability": "nonpayable",
					"type": "function"
				},
				{
					"stateMutability": "payable",
					"type": "receive"
				}
			],
			"devdoc": {
				"kind": "dev",
				"methods": {},
				"version": 1
			},
			"evm": {
				"assembly": "    /* \"contracts/Lektion4/FallbackReceive.sol\":60:1854  contract FallbackReceive {... */\n  mstore(0x40, 0x80)\n  callvalue\n  dup1\n  iszero\n  tag_1\n  jumpi\n  revert(0x00, 0x00)\ntag_1:\n  pop\n  dataSize(sub_0)\n  dup1\n  dataOffset(sub_0)\n  0x00\n  codecopy\n  0x00\n  return\nstop\n\nsub_0: assembly {\n        /* \"contracts/Lektion4/FallbackReceive.sol\":60:1854  contract FallbackReceive {... */\n      mstore(0x40, 0x80)\n      jumpi(tag_1, lt(calldatasize, 0x04))\n      shr(0xe0, calldataload(0x00))\n      dup1\n      0x2e1a7d4d\n      eq\n      tag_3\n      jumpi\n      dup1\n      0x8b7afe2e\n      eq\n      tag_4\n      jumpi\n      dup1\n      0xd0e30db0\n      eq\n      tag_5\n      jumpi\n      jump(tag_2)\n    tag_1:\n      jumpi(tag_2, calldatasize)\n        /* \"contracts/Lektion4/FallbackReceive.sol\":994:1003  deposit() */\n      tag_8\n        /* \"contracts/Lektion4/FallbackReceive.sol\":994:1001  deposit */\n      tag_9\n        /* \"contracts/Lektion4/FallbackReceive.sol\":994:1003  deposit() */\n      jump\t// in\n    tag_8:\n        /* \"contracts/Lektion4/FallbackReceive.sol\":60:1854  contract FallbackReceive {... */\n      stop\n    tag_2:\n      callvalue\n      dup1\n      iszero\n      tag_10\n      jumpi\n      revert(0x00, 0x00)\n    tag_10:\n      pop\n        /* \"contracts/Lektion4/FallbackReceive.sol\":844:854  msg.sender */\n      caller\n        /* \"contracts/Lektion4/FallbackReceive.sol\":821:855  FallbackFunctionCalled(msg.sender) */\n      0xffffffffffffffffffffffffffffffffffffffff\n      and\n      0x9d48d12169042e23acdbe28d3f76be01a120e20184216de5a65d1162d51271fd\n      mload(0x40)\n      mload(0x40)\n      dup1\n      swap2\n      sub\n      swap1\n      log2\n        /* \"contracts/Lektion4/FallbackReceive.sol\":866:940  revert(\"The function you tried to call does not exist. Please try again!\") */\n      mload(0x40)\n      0x08c379a000000000000000000000000000000000000000000000000000000000\n      dup2\n      mstore\n      0x04\n      add\n      tag_13\n      swap1\n      tag_14\n      jump\t// in\n    tag_13:\n      mload(0x40)\n      dup1\n      swap2\n      sub\n      swap1\n      revert\n        /* \"contracts/Lektion4/FallbackReceive.sol\":1266:1851  function withdraw(uint withdrawAmount) public noReentrancy hasSufficientBalance(withdrawAmount) {... */\n    tag_3:\n      callvalue\n      dup1\n      iszero\n      tag_15\n      jumpi\n      revert(0x00, 0x00)\n    tag_15:\n      pop\n      tag_16\n      0x04\n      dup1\n      calldatasize\n      sub\n      dup2\n      add\n      swap1\n      tag_17\n      swap2\n      swap1\n      tag_18\n      jump\t// in\n    tag_17:\n      tag_19\n      jump\t// in\n    tag_16:\n      stop\n        /* \"contracts/Lektion4/FallbackReceive.sol\":92:119  uint public contractBalance */\n    tag_4:\n      callvalue\n      dup1\n      iszero\n      tag_20\n      jumpi\n      revert(0x00, 0x00)\n    tag_20:\n      pop\n      tag_21\n      tag_22\n      jump\t// in\n    tag_21:\n      mload(0x40)\n      tag_23\n      swap2\n      swap1\n      tag_24\n      jump\t// in\n    tag_23:\n      mload(0x40)\n      dup1\n      swap2\n      sub\n      swap1\n      return\n        /* \"contracts/Lektion4/FallbackReceive.sol\":1019:1258  function deposit() public payable {... */\n    tag_5:\n      tag_25\n      tag_9\n      jump\t// in\n    tag_25:\n      stop\n    tag_9:\n        /* \"contracts/Lektion4/FallbackReceive.sol\":1089:1098  msg.value */\n      callvalue\n        /* \"contracts/Lektion4/FallbackReceive.sol\":1064:1073  _balances */\n      0x01\n        /* \"contracts/Lektion4/FallbackReceive.sol\":1064:1085  _balances[msg.sender] */\n      0x00\n        /* \"contracts/Lektion4/FallbackReceive.sol\":1074:1084  msg.sender */\n      caller\n        /* \"contracts/Lektion4/FallbackReceive.sol\":1064:1085  _balances[msg.sender] */\n      0xffffffffffffffffffffffffffffffffffffffff\n      and\n      0xffffffffffffffffffffffffffffffffffffffff\n      and\n      dup2\n      mstore\n      0x20\n      add\n      swap1\n      dup2\n      mstore\n      0x20\n      add\n      0x00\n      keccak256\n      0x00\n        /* \"contracts/Lektion4/FallbackReceive.sol\":1064:1098  _balances[msg.sender] += msg.value */\n      dup3\n      dup3\n      sload\n      tag_27\n      swap2\n      swap1\n      tag_28\n      jump\t// in\n    tag_27:\n      swap3\n      pop\n      pop\n      dup2\n      swap1\n      sstore\n      pop\n        /* \"contracts/Lektion4/FallbackReceive.sol\":1128:1137  msg.value */\n      callvalue\n        /* \"contracts/Lektion4/FallbackReceive.sol\":1109:1124  contractBalance */\n      0x00\n      0x00\n        /* \"contracts/Lektion4/FallbackReceive.sol\":1109:1137  contractBalance += msg.value */\n      dup3\n      dup3\n      sload\n      tag_29\n      swap2\n      swap1\n      tag_28\n      jump\t// in\n    tag_29:\n      swap3\n      pop\n      pop\n      dup2\n      swap1\n      sstore\n      pop\n        /* \"contracts/Lektion4/FallbackReceive.sol\":1176:1197  address(this).balance */\n      selfbalance\n        /* \"contracts/Lektion4/FallbackReceive.sol\":1157:1172  contractBalance */\n      sload(0x00)\n        /* \"contracts/Lektion4/FallbackReceive.sol\":1157:1197  contractBalance == address(this).balance */\n      eq\n        /* \"contracts/Lektion4/FallbackReceive.sol\":1150:1198  assert(contractBalance == address(this).balance) */\n      tag_30\n      jumpi\n      tag_31\n      tag_32\n      jump\t// in\n    tag_31:\n    tag_30:\n        /* \"contracts/Lektion4/FallbackReceive.sol\":1228:1238  msg.sender */\n      caller\n        /* \"contracts/Lektion4/FallbackReceive.sol\":1216:1250  DepositMade(msg.sender, msg.value) */\n      0xffffffffffffffffffffffffffffffffffffffff\n      and\n      0xd15c9547ea5c06670c0010ce19bc32d54682a4b3801ece7f3ab0c3f17106b4bb\n        /* \"contracts/Lektion4/FallbackReceive.sol\":1240:1249  msg.value */\n      callvalue\n        /* \"contracts/Lektion4/FallbackReceive.sol\":1216:1250  DepositMade(msg.sender, msg.value) */\n      mload(0x40)\n      tag_33\n      swap2\n      swap1\n      tag_24\n      jump\t// in\n    tag_33:\n      mload(0x40)\n      dup1\n      swap2\n      sub\n      swap1\n      log2\n        /* \"contracts/Lektion4/FallbackReceive.sol\":1019:1258  function deposit() public payable {... */\n      jump\t// out\n        /* \"contracts/Lektion4/FallbackReceive.sol\":1266:1851  function withdraw(uint withdrawAmount) public noReentrancy hasSufficientBalance(withdrawAmount) {... */\n    tag_19:\n        /* \"contracts/Lektion4/FallbackReceive.sol\":459:466  _locked */\n      0x02\n      0x00\n      swap1\n      sload\n      swap1\n      0x0100\n      exp\n      swap1\n      div\n      0xff\n      and\n        /* \"contracts/Lektion4/FallbackReceive.sol\":458:466  !_locked */\n      iszero\n        /* \"contracts/Lektion4/FallbackReceive.sol\":450:513  require(!_locked, \"Stop making reentrancy calls. Please hold!\") */\n      tag_35\n      jumpi\n      mload(0x40)\n      0x08c379a000000000000000000000000000000000000000000000000000000000\n      dup2\n      mstore\n      0x04\n      add\n      tag_36\n      swap1\n      tag_37\n      jump\t// in\n    tag_36:\n      mload(0x40)\n      dup1\n      swap2\n      sub\n      swap1\n      revert\n    tag_35:\n        /* \"contracts/Lektion4/FallbackReceive.sol\":534:538  true */\n      0x01\n        /* \"contracts/Lektion4/FallbackReceive.sol\":524:531  _locked */\n      0x02\n      0x00\n        /* \"contracts/Lektion4/FallbackReceive.sol\":524:538  _locked = true */\n      0x0100\n      exp\n      dup2\n      sload\n      dup2\n      0xff\n      mul\n      not\n      and\n      swap1\n      dup4\n      iszero\n      iszero\n      mul\n      or\n      swap1\n      sstore\n      pop\n        /* \"contracts/Lektion4/FallbackReceive.sol\":1346:1360  withdrawAmount */\n      dup1\n        /* \"contracts/Lektion4/FallbackReceive.sol\":687:701  withdrawAmount */\n      dup1\n        /* \"contracts/Lektion4/FallbackReceive.sol\":662:671  _balances */\n      0x01\n        /* \"contracts/Lektion4/FallbackReceive.sol\":662:683  _balances[msg.sender] */\n      0x00\n        /* \"contracts/Lektion4/FallbackReceive.sol\":672:682  msg.sender */\n      caller\n        /* \"contracts/Lektion4/FallbackReceive.sol\":662:683  _balances[msg.sender] */\n      0xffffffffffffffffffffffffffffffffffffffff\n      and\n      0xffffffffffffffffffffffffffffffffffffffff\n      and\n      dup2\n      mstore\n      0x20\n      add\n      swap1\n      dup2\n      mstore\n      0x20\n      add\n      0x00\n      keccak256\n      sload\n        /* \"contracts/Lektion4/FallbackReceive.sol\":662:701  _balances[msg.sender] >= withdrawAmount */\n      lt\n      iszero\n        /* \"contracts/Lektion4/FallbackReceive.sol\":654:757  require(_balances[msg.sender] >= withdrawAmount, \"You have an insufficient balance, please try again!\") */\n      tag_39\n      jumpi\n      mload(0x40)\n      0x08c379a000000000000000000000000000000000000000000000000000000000\n      dup2\n      mstore\n      0x04\n      add\n      tag_40\n      swap1\n      tag_41\n      jump\t// in\n    tag_40:\n      mload(0x40)\n      dup1\n      swap2\n      sub\n      swap1\n      revert\n    tag_39:\n        /* \"contracts/Lektion4/FallbackReceive.sol\":1393:1400  1 ether */\n      0x0de0b6b3a7640000\n        /* \"contracts/Lektion4/FallbackReceive.sol\":1376:1390  withdrawAmount */\n      dup3\n        /* \"contracts/Lektion4/FallbackReceive.sol\":1376:1400  withdrawAmount > 1 ether */\n      gt\n        /* \"contracts/Lektion4/FallbackReceive.sol\":1373:1484  if(withdrawAmount > 1 ether) {... */\n      iszero\n      tag_43\n      jumpi\n        /* \"contracts/Lektion4/FallbackReceive.sol\":1417:1472  revert(\"You cannot withdraw more than 1 ETH at a time\") */\n      mload(0x40)\n      0x08c379a000000000000000000000000000000000000000000000000000000000\n      dup2\n      mstore\n      0x04\n      add\n      tag_44\n      swap1\n      tag_45\n      jump\t// in\n    tag_44:\n      mload(0x40)\n      dup1\n      swap2\n      sub\n      swap1\n      revert\n        /* \"contracts/Lektion4/FallbackReceive.sol\":1373:1484  if(withdrawAmount > 1 ether) {... */\n    tag_43:\n        /* \"contracts/Lektion4/FallbackReceive.sol\":1521:1535  withdrawAmount */\n      dup2\n        /* \"contracts/Lektion4/FallbackReceive.sol\":1496:1505  _balances */\n      0x01\n        /* \"contracts/Lektion4/FallbackReceive.sol\":1496:1517  _balances[msg.sender] */\n      0x00\n        /* \"contracts/Lektion4/FallbackReceive.sol\":1506:1516  msg.sender */\n      caller\n        /* \"contracts/Lektion4/FallbackReceive.sol\":1496:1517  _balances[msg.sender] */\n      0xffffffffffffffffffffffffffffffffffffffff\n      and\n      0xffffffffffffffffffffffffffffffffffffffff\n      and\n      dup2\n      mstore\n      0x20\n      add\n      swap1\n      dup2\n      mstore\n      0x20\n      add\n      0x00\n      keccak256\n      0x00\n        /* \"contracts/Lektion4/FallbackReceive.sol\":1496:1535  _balances[msg.sender] -= withdrawAmount */\n      dup3\n      dup3\n      sload\n      tag_46\n      swap2\n      swap1\n      tag_47\n      jump\t// in\n    tag_46:\n      swap3\n      pop\n      pop\n      dup2\n      swap1\n      sstore\n      pop\n        /* \"contracts/Lektion4/FallbackReceive.sol\":1565:1579  withdrawAmount */\n      dup2\n        /* \"contracts/Lektion4/FallbackReceive.sol\":1546:1561  contractBalance */\n      0x00\n      0x00\n        /* \"contracts/Lektion4/FallbackReceive.sol\":1546:1579  contractBalance -= withdrawAmount */\n      dup3\n      dup3\n      sload\n      tag_48\n      swap2\n      swap1\n      tag_47\n      jump\t// in\n    tag_48:\n      swap3\n      pop\n      pop\n      dup2\n      swap1\n      sstore\n      pop\n        /* \"contracts/Lektion4/FallbackReceive.sol\":1593:1605  bool success */\n      0x00\n        /* \"contracts/Lektion4/FallbackReceive.sol\":1619:1629  msg.sender */\n      caller\n        /* \"contracts/Lektion4/FallbackReceive.sol\":1611:1635  payable(msg.sender).call */\n      0xffffffffffffffffffffffffffffffffffffffff\n      and\n        /* \"contracts/Lektion4/FallbackReceive.sol\":1643:1657  withdrawAmount */\n      dup4\n        /* \"contracts/Lektion4/FallbackReceive.sol\":1611:1662  payable(msg.sender).call{value: withdrawAmount}(\"\") */\n      mload(0x40)\n      tag_49\n      swap1\n      tag_50\n      jump\t// in\n    tag_49:\n      0x00\n      mload(0x40)\n      dup1\n      dup4\n      sub\n      dup2\n      dup6\n      dup8\n      gas\n      call\n      swap3\n      pop\n      pop\n      pop\n      returndatasize\n      dup1\n      0x00\n      dup2\n      eq\n      tag_53\n      jumpi\n      mload(0x40)\n      swap2\n      pop\n      and(add(returndatasize, 0x3f), not(0x1f))\n      dup3\n      add\n      0x40\n      mstore\n      returndatasize\n      dup3\n      mstore\n      returndatasize\n      0x00\n      0x20\n      dup5\n      add\n      returndatacopy\n      jump(tag_52)\n    tag_53:\n      0x60\n      swap2\n      pop\n    tag_52:\n      pop\n        /* \"contracts/Lektion4/FallbackReceive.sol\":1592:1662  (bool success, ) = payable(msg.sender).call{value: withdrawAmount}(\"\") */\n      pop\n      swap1\n      pop\n        /* \"contracts/Lektion4/FallbackReceive.sol\":1681:1688  success */\n      dup1\n        /* \"contracts/Lektion4/FallbackReceive.sol\":1673:1711  require(success, \"Transaction Failed\") */\n      tag_54\n      jumpi\n      mload(0x40)\n      0x08c379a000000000000000000000000000000000000000000000000000000000\n      dup2\n      mstore\n      0x04\n      add\n      tag_55\n      swap1\n      tag_56\n      jump\t// in\n    tag_55:\n      mload(0x40)\n      dup1\n      swap2\n      sub\n      swap1\n      revert\n    tag_54:\n        /* \"contracts/Lektion4/FallbackReceive.sol\":1750:1771  address(this).balance */\n      selfbalance\n        /* \"contracts/Lektion4/FallbackReceive.sol\":1731:1746  contractBalance */\n      sload(0x00)\n        /* \"contracts/Lektion4/FallbackReceive.sol\":1731:1771  contractBalance == address(this).balance */\n      eq\n        /* \"contracts/Lektion4/FallbackReceive.sol\":1724:1772  assert(contractBalance == address(this).balance) */\n      tag_57\n      jumpi\n      tag_58\n      tag_32\n      jump\t// in\n    tag_58:\n    tag_57:\n        /* \"contracts/Lektion4/FallbackReceive.sol\":1805:1815  msg.sender */\n      caller\n        /* \"contracts/Lektion4/FallbackReceive.sol\":1790:1832  WithdrawalMade(msg.sender, withdrawAmount) */\n      0xffffffffffffffffffffffffffffffffffffffff\n      and\n      0xbc158bb64f05d6383aea69bbb0b20c1bbf4b7a18f63359c5649b7c39e29d3884\n        /* \"contracts/Lektion4/FallbackReceive.sol\":1817:1831  withdrawAmount */\n      dup5\n        /* \"contracts/Lektion4/FallbackReceive.sol\":1790:1832  WithdrawalMade(msg.sender, withdrawAmount) */\n      mload(0x40)\n      tag_59\n      swap2\n      swap1\n      tag_24\n      jump\t// in\n    tag_59:\n      mload(0x40)\n      dup1\n      swap2\n      sub\n      swap1\n      log2\n        /* \"contracts/Lektion4/FallbackReceive.sol\":1362:1851  {... */\n      pop\n        /* \"contracts/Lektion4/FallbackReceive.sol\":549:550  _ */\n      pop\n        /* \"contracts/Lektion4/FallbackReceive.sol\":571:576  false */\n      0x00\n        /* \"contracts/Lektion4/FallbackReceive.sol\":561:568  _locked */\n      0x02\n      0x00\n        /* \"contracts/Lektion4/FallbackReceive.sol\":561:576  _locked = false */\n      0x0100\n      exp\n      dup2\n      sload\n      dup2\n      0xff\n      mul\n      not\n      and\n      swap1\n      dup4\n      iszero\n      iszero\n      mul\n      or\n      swap1\n      sstore\n      pop\n        /* \"contracts/Lektion4/FallbackReceive.sol\":1266:1851  function withdraw(uint withdrawAmount) public noReentrancy hasSufficientBalance(withdrawAmount) {... */\n      pop\n      jump\t// out\n        /* \"contracts/Lektion4/FallbackReceive.sol\":92:119  uint public contractBalance */\n    tag_22:\n      sload(0x00)\n      dup2\n      jump\t// out\n        /* \"#utility.yul\":7:176   */\n    tag_60:\n        /* \"#utility.yul\":91:102   */\n      0x00\n        /* \"#utility.yul\":125:131   */\n      dup3\n        /* \"#utility.yul\":120:123   */\n      dup3\n        /* \"#utility.yul\":113:132   */\n      mstore\n        /* \"#utility.yul\":165:169   */\n      0x20\n        /* \"#utility.yul\":160:163   */\n      dup3\n        /* \"#utility.yul\":156:170   */\n      add\n        /* \"#utility.yul\":141:170   */\n      swap1\n      pop\n        /* \"#utility.yul\":7:176   */\n      swap3\n      swap2\n      pop\n      pop\n      jump\t// out\n        /* \"#utility.yul\":182:433   */\n    tag_61:\n        /* \"#utility.yul\":322:356   */\n      0x5468652066756e6374696f6e20796f7520747269656420746f2063616c6c2064\n        /* \"#utility.yul\":318:319   */\n      0x00\n        /* \"#utility.yul\":310:316   */\n      dup3\n        /* \"#utility.yul\":306:320   */\n      add\n        /* \"#utility.yul\":299:357   */\n      mstore\n        /* \"#utility.yul\":391:425   */\n      0x6f6573206e6f742065786973742e20506c656173652074727920616761696e21\n        /* \"#utility.yul\":386:388   */\n      0x20\n        /* \"#utility.yul\":378:384   */\n      dup3\n        /* \"#utility.yul\":374:389   */\n      add\n        /* \"#utility.yul\":367:426   */\n      mstore\n        /* \"#utility.yul\":182:433   */\n      pop\n      jump\t// out\n        /* \"#utility.yul\":439:805   */\n    tag_62:\n        /* \"#utility.yul\":581:584   */\n      0x00\n        /* \"#utility.yul\":602:669   */\n      tag_86\n        /* \"#utility.yul\":666:668   */\n      0x40\n        /* \"#utility.yul\":661:664   */\n      dup4\n        /* \"#utility.yul\":602:669   */\n      tag_60\n      jump\t// in\n    tag_86:\n        /* \"#utility.yul\":595:669   */\n      swap2\n      pop\n        /* \"#utility.yul\":678:771   */\n      tag_87\n        /* \"#utility.yul\":767:770   */\n      dup3\n        /* \"#utility.yul\":678:771   */\n      tag_61\n      jump\t// in\n    tag_87:\n        /* \"#utility.yul\":796:798   */\n      0x40\n        /* \"#utility.yul\":791:794   */\n      dup3\n        /* \"#utility.yul\":787:799   */\n      add\n        /* \"#utility.yul\":780:799   */\n      swap1\n      pop\n        /* \"#utility.yul\":439:805   */\n      swap2\n      swap1\n      pop\n      jump\t// out\n        /* \"#utility.yul\":811:1230   */\n    tag_14:\n        /* \"#utility.yul\":977:981   */\n      0x00\n        /* \"#utility.yul\":1015:1017   */\n      0x20\n        /* \"#utility.yul\":1004:1013   */\n      dup3\n        /* \"#utility.yul\":1000:1018   */\n      add\n        /* \"#utility.yul\":992:1018   */\n      swap1\n      pop\n        /* \"#utility.yul\":1064:1073   */\n      dup2\n        /* \"#utility.yul\":1058:1062   */\n      dup2\n        /* \"#utility.yul\":1054:1074   */\n      sub\n        /* \"#utility.yul\":1050:1051   */\n      0x00\n        /* \"#utility.yul\":1039:1048   */\n      dup4\n        /* \"#utility.yul\":1035:1052   */\n      add\n        /* \"#utility.yul\":1028:1075   */\n      mstore\n        /* \"#utility.yul\":1092:1223   */\n      tag_89\n        /* \"#utility.yul\":1218:1222   */\n      dup2\n        /* \"#utility.yul\":1092:1223   */\n      tag_62\n      jump\t// in\n    tag_89:\n        /* \"#utility.yul\":1084:1223   */\n      swap1\n      pop\n        /* \"#utility.yul\":811:1230   */\n      swap2\n      swap1\n      pop\n      jump\t// out\n        /* \"#utility.yul\":1317:1434   */\n    tag_64:\n        /* \"#utility.yul\":1426:1427   */\n      0x00\n        /* \"#utility.yul\":1423:1424   */\n      0x00\n        /* \"#utility.yul\":1416:1428   */\n      revert\n        /* \"#utility.yul\":1563:1640   */\n    tag_66:\n        /* \"#utility.yul\":1600:1607   */\n      0x00\n        /* \"#utility.yul\":1629:1634   */\n      dup2\n        /* \"#utility.yul\":1618:1634   */\n      swap1\n      pop\n        /* \"#utility.yul\":1563:1640   */\n      swap2\n      swap1\n      pop\n      jump\t// out\n        /* \"#utility.yul\":1646:1768   */\n    tag_67:\n        /* \"#utility.yul\":1719:1743   */\n      tag_95\n        /* \"#utility.yul\":1737:1742   */\n      dup2\n        /* \"#utility.yul\":1719:1743   */\n      tag_66\n      jump\t// in\n    tag_95:\n        /* \"#utility.yul\":1712:1717   */\n      dup2\n        /* \"#utility.yul\":1709:1744   */\n      eq\n        /* \"#utility.yul\":1699:1762   */\n      tag_96\n      jumpi\n        /* \"#utility.yul\":1758:1759   */\n      0x00\n        /* \"#utility.yul\":1755:1756   */\n      0x00\n        /* \"#utility.yul\":1748:1760   */\n      revert\n        /* \"#utility.yul\":1699:1762   */\n    tag_96:\n        /* \"#utility.yul\":1646:1768   */\n      pop\n      jump\t// out\n        /* \"#utility.yul\":1774:1913   */\n    tag_68:\n        /* \"#utility.yul\":1820:1825   */\n      0x00\n        /* \"#utility.yul\":1858:1864   */\n      dup2\n        /* \"#utility.yul\":1845:1865   */\n      calldataload\n        /* \"#utility.yul\":1836:1865   */\n      swap1\n      pop\n        /* \"#utility.yul\":1874:1907   */\n      tag_98\n        /* \"#utility.yul\":1901:1906   */\n      dup2\n        /* \"#utility.yul\":1874:1907   */\n      tag_67\n      jump\t// in\n    tag_98:\n        /* \"#utility.yul\":1774:1913   */\n      swap3\n      swap2\n      pop\n      pop\n      jump\t// out\n        /* \"#utility.yul\":1919:2248   */\n    tag_18:\n        /* \"#utility.yul\":1978:1984   */\n      0x00\n        /* \"#utility.yul\":2027:2029   */\n      0x20\n        /* \"#utility.yul\":2015:2024   */\n      dup3\n        /* \"#utility.yul\":2006:2013   */\n      dup5\n        /* \"#utility.yul\":2002:2025   */\n      sub\n        /* \"#utility.yul\":1998:2030   */\n      slt\n        /* \"#utility.yul\":1995:2114   */\n      iszero\n      tag_100\n      jumpi\n        /* \"#utility.yul\":2033:2112   */\n      tag_101\n      tag_64\n      jump\t// in\n    tag_101:\n        /* \"#utility.yul\":1995:2114   */\n    tag_100:\n        /* \"#utility.yul\":2153:2154   */\n      0x00\n        /* \"#utility.yul\":2178:2231   */\n      tag_102\n        /* \"#utility.yul\":2223:2230   */\n      dup5\n        /* \"#utility.yul\":2214:2220   */\n      dup3\n        /* \"#utility.yul\":2203:2212   */\n      dup6\n        /* \"#utility.yul\":2199:2221   */\n      add\n        /* \"#utility.yul\":2178:2231   */\n      tag_68\n      jump\t// in\n    tag_102:\n        /* \"#utility.yul\":2168:2231   */\n      swap2\n      pop\n        /* \"#utility.yul\":2124:2241   */\n      pop\n        /* \"#utility.yul\":1919:2248   */\n      swap3\n      swap2\n      pop\n      pop\n      jump\t// out\n        /* \"#utility.yul\":2254:2372   */\n    tag_69:\n        /* \"#utility.yul\":2341:2365   */\n      tag_104\n        /* \"#utility.yul\":2359:2364   */\n      dup2\n        /* \"#utility.yul\":2341:2365   */\n      tag_66\n      jump\t// in\n    tag_104:\n        /* \"#utility.yul\":2336:2339   */\n      dup3\n        /* \"#utility.yul\":2329:2366   */\n      mstore\n        /* \"#utility.yul\":2254:2372   */\n      pop\n      pop\n      jump\t// out\n        /* \"#utility.yul\":2378:2600   */\n    tag_24:\n        /* \"#utility.yul\":2471:2475   */\n      0x00\n        /* \"#utility.yul\":2509:2511   */\n      0x20\n        /* \"#utility.yul\":2498:2507   */\n      dup3\n        /* \"#utility.yul\":2494:2512   */\n      add\n        /* \"#utility.yul\":2486:2512   */\n      swap1\n      pop\n        /* \"#utility.yul\":2522:2593   */\n      tag_106\n        /* \"#utility.yul\":2590:2591   */\n      0x00\n        /* \"#utility.yul\":2579:2588   */\n      dup4\n        /* \"#utility.yul\":2575:2592   */\n      add\n        /* \"#utility.yul\":2566:2572   */\n      dup5\n        /* \"#utility.yul\":2522:2593   */\n      tag_69\n      jump\t// in\n    tag_106:\n        /* \"#utility.yul\":2378:2600   */\n      swap3\n      swap2\n      pop\n      pop\n      jump\t// out\n        /* \"#utility.yul\":2606:2786   */\n    tag_70:\n        /* \"#utility.yul\":2654:2731   */\n      0x4e487b7100000000000000000000000000000000000000000000000000000000\n        /* \"#utility.yul\":2651:2652   */\n      0x00\n        /* \"#utility.yul\":2644:2732   */\n      mstore\n        /* \"#utility.yul\":2751:2755   */\n      0x11\n        /* \"#utility.yul\":2748:2749   */\n      0x04\n        /* \"#utility.yul\":2741:2756   */\n      mstore\n        /* \"#utility.yul\":2775:2779   */\n      0x24\n        /* \"#utility.yul\":2772:2773   */\n      0x00\n        /* \"#utility.yul\":2765:2780   */\n      revert\n        /* \"#utility.yul\":2792:2983   */\n    tag_28:\n        /* \"#utility.yul\":2832:2835   */\n      0x00\n        /* \"#utility.yul\":2851:2871   */\n      tag_109\n        /* \"#utility.yul\":2869:2870   */\n      dup3\n        /* \"#utility.yul\":2851:2871   */\n      tag_66\n      jump\t// in\n    tag_109:\n        /* \"#utility.yul\":2846:2871   */\n      swap2\n      pop\n        /* \"#utility.yul\":2885:2905   */\n      tag_110\n        /* \"#utility.yul\":2903:2904   */\n      dup4\n        /* \"#utility.yul\":2885:2905   */\n      tag_66\n      jump\t// in\n    tag_110:\n        /* \"#utility.yul\":2880:2905   */\n      swap3\n      pop\n        /* \"#utility.yul\":2928:2929   */\n      dup3\n        /* \"#utility.yul\":2925:2926   */\n      dup3\n        /* \"#utility.yul\":2921:2930   */\n      add\n        /* \"#utility.yul\":2914:2930   */\n      swap1\n      pop\n        /* \"#utility.yul\":2949:2952   */\n      dup1\n        /* \"#utility.yul\":2946:2947   */\n      dup3\n        /* \"#utility.yul\":2943:2953   */\n      gt\n        /* \"#utility.yul\":2940:2976   */\n      iszero\n      tag_111\n      jumpi\n        /* \"#utility.yul\":2956:2974   */\n      tag_112\n      tag_70\n      jump\t// in\n    tag_112:\n        /* \"#utility.yul\":2940:2976   */\n    tag_111:\n        /* \"#utility.yul\":2792:2983   */\n      swap3\n      swap2\n      pop\n      pop\n      jump\t// out\n        /* \"#utility.yul\":2989:3169   */\n    tag_32:\n        /* \"#utility.yul\":3037:3114   */\n      0x4e487b7100000000000000000000000000000000000000000000000000000000\n        /* \"#utility.yul\":3034:3035   */\n      0x00\n        /* \"#utility.yul\":3027:3115   */\n      mstore\n        /* \"#utility.yul\":3134:3138   */\n      0x01\n        /* \"#utility.yul\":3131:3132   */\n      0x04\n        /* \"#utility.yul\":3124:3139   */\n      mstore\n        /* \"#utility.yul\":3158:3162   */\n      0x24\n        /* \"#utility.yul\":3155:3156   */\n      0x00\n        /* \"#utility.yul\":3148:3163   */\n      revert\n        /* \"#utility.yul\":3175:3404   */\n    tag_71:\n        /* \"#utility.yul\":3315:3349   */\n      0x53746f70206d616b696e67207265656e7472616e63792063616c6c732e20506c\n        /* \"#utility.yul\":3311:3312   */\n      0x00\n        /* \"#utility.yul\":3303:3309   */\n      dup3\n        /* \"#utility.yul\":3299:3313   */\n      add\n        /* \"#utility.yul\":3292:3350   */\n      mstore\n        /* \"#utility.yul\":3384:3396   */\n      0x6561736520686f6c642100000000000000000000000000000000000000000000\n        /* \"#utility.yul\":3379:3381   */\n      0x20\n        /* \"#utility.yul\":3371:3377   */\n      dup3\n        /* \"#utility.yul\":3367:3382   */\n      add\n        /* \"#utility.yul\":3360:3397   */\n      mstore\n        /* \"#utility.yul\":3175:3404   */\n      pop\n      jump\t// out\n        /* \"#utility.yul\":3410:3776   */\n    tag_72:\n        /* \"#utility.yul\":3552:3555   */\n      0x00\n        /* \"#utility.yul\":3573:3640   */\n      tag_116\n        /* \"#utility.yul\":3637:3639   */\n      0x2a\n        /* \"#utility.yul\":3632:3635   */\n      dup4\n        /* \"#utility.yul\":3573:3640   */\n      tag_60\n      jump\t// in\n    tag_116:\n        /* \"#utility.yul\":3566:3640   */\n      swap2\n      pop\n        /* \"#utility.yul\":3649:3742   */\n      tag_117\n        /* \"#utility.yul\":3738:3741   */\n      dup3\n        /* \"#utility.yul\":3649:3742   */\n      tag_71\n      jump\t// in\n    tag_117:\n        /* \"#utility.yul\":3767:3769   */\n      0x40\n        /* \"#utility.yul\":3762:3765   */\n      dup3\n        /* \"#utility.yul\":3758:3770   */\n      add\n        /* \"#utility.yul\":3751:3770   */\n      swap1\n      pop\n        /* \"#utility.yul\":3410:3776   */\n      swap2\n      swap1\n      pop\n      jump\t// out\n        /* \"#utility.yul\":3782:4201   */\n    tag_37:\n        /* \"#utility.yul\":3948:3952   */\n      0x00\n        /* \"#utility.yul\":3986:3988   */\n      0x20\n        /* \"#utility.yul\":3975:3984   */\n      dup3\n        /* \"#utility.yul\":3971:3989   */\n      add\n        /* \"#utility.yul\":3963:3989   */\n      swap1\n      pop\n        /* \"#utility.yul\":4035:4044   */\n      dup2\n        /* \"#utility.yul\":4029:4033   */\n      dup2\n        /* \"#utility.yul\":4025:4045   */\n      sub\n        /* \"#utility.yul\":4021:4022   */\n      0x00\n        /* \"#utility.yul\":4010:4019   */\n      dup4\n        /* \"#utility.yul\":4006:4023   */\n      add\n        /* \"#utility.yul\":3999:4046   */\n      mstore\n        /* \"#utility.yul\":4063:4194   */\n      tag_119\n        /* \"#utility.yul\":4189:4193   */\n      dup2\n        /* \"#utility.yul\":4063:4194   */\n      tag_72\n      jump\t// in\n    tag_119:\n        /* \"#utility.yul\":4055:4194   */\n      swap1\n      pop\n        /* \"#utility.yul\":3782:4201   */\n      swap2\n      swap1\n      pop\n      jump\t// out\n        /* \"#utility.yul\":4207:4445   */\n    tag_73:\n        /* \"#utility.yul\":4347:4381   */\n      0x596f75206861766520616e20696e73756666696369656e742062616c616e6365\n        /* \"#utility.yul\":4343:4344   */\n      0x00\n        /* \"#utility.yul\":4335:4341   */\n      dup3\n        /* \"#utility.yul\":4331:4345   */\n      add\n        /* \"#utility.yul\":4324:4382   */\n      mstore\n        /* \"#utility.yul\":4416:4437   */\n      0x2c20706c656173652074727920616761696e2100000000000000000000000000\n        /* \"#utility.yul\":4411:4413   */\n      0x20\n        /* \"#utility.yul\":4403:4409   */\n      dup3\n        /* \"#utility.yul\":4399:4414   */\n      add\n        /* \"#utility.yul\":4392:4438   */\n      mstore\n        /* \"#utility.yul\":4207:4445   */\n      pop\n      jump\t// out\n        /* \"#utility.yul\":4451:4817   */\n    tag_74:\n        /* \"#utility.yul\":4593:4596   */\n      0x00\n        /* \"#utility.yul\":4614:4681   */\n      tag_122\n        /* \"#utility.yul\":4678:4680   */\n      0x33\n        /* \"#utility.yul\":4673:4676   */\n      dup4\n        /* \"#utility.yul\":4614:4681   */\n      tag_60\n      jump\t// in\n    tag_122:\n        /* \"#utility.yul\":4607:4681   */\n      swap2\n      pop\n        /* \"#utility.yul\":4690:4783   */\n      tag_123\n        /* \"#utility.yul\":4779:4782   */\n      dup3\n        /* \"#utility.yul\":4690:4783   */\n      tag_73\n      jump\t// in\n    tag_123:\n        /* \"#utility.yul\":4808:4810   */\n      0x40\n        /* \"#utility.yul\":4803:4806   */\n      dup3\n        /* \"#utility.yul\":4799:4811   */\n      add\n        /* \"#utility.yul\":4792:4811   */\n      swap1\n      pop\n        /* \"#utility.yul\":4451:4817   */\n      swap2\n      swap1\n      pop\n      jump\t// out\n        /* \"#utility.yul\":4823:5242   */\n    tag_41:\n        /* \"#utility.yul\":4989:4993   */\n      0x00\n        /* \"#utility.yul\":5027:5029   */\n      0x20\n        /* \"#utility.yul\":5016:5025   */\n      dup3\n        /* \"#utility.yul\":5012:5030   */\n      add\n        /* \"#utility.yul\":5004:5030   */\n      swap1\n      pop\n        /* \"#utility.yul\":5076:5085   */\n      dup2\n        /* \"#utility.yul\":5070:5074   */\n      dup2\n        /* \"#utility.yul\":5066:5086   */\n      sub\n        /* \"#utility.yul\":5062:5063   */\n      0x00\n        /* \"#utility.yul\":5051:5060   */\n      dup4\n        /* \"#utility.yul\":5047:5064   */\n      add\n        /* \"#utility.yul\":5040:5087   */\n      mstore\n        /* \"#utility.yul\":5104:5235   */\n      tag_125\n        /* \"#utility.yul\":5230:5234   */\n      dup2\n        /* \"#utility.yul\":5104:5235   */\n      tag_74\n      jump\t// in\n    tag_125:\n        /* \"#utility.yul\":5096:5235   */\n      swap1\n      pop\n        /* \"#utility.yul\":4823:5242   */\n      swap2\n      swap1\n      pop\n      jump\t// out\n        /* \"#utility.yul\":5248:5480   */\n    tag_75:\n        /* \"#utility.yul\":5388:5422   */\n      0x596f752063616e6e6f74207769746864726177206d6f7265207468616e203120\n        /* \"#utility.yul\":5384:5385   */\n      0x00\n        /* \"#utility.yul\":5376:5382   */\n      dup3\n        /* \"#utility.yul\":5372:5386   */\n      add\n        /* \"#utility.yul\":5365:5423   */\n      mstore\n        /* \"#utility.yul\":5457:5472   */\n      0x45544820617420612074696d6500000000000000000000000000000000000000\n        /* \"#utility.yul\":5452:5454   */\n      0x20\n        /* \"#utility.yul\":5444:5450   */\n      dup3\n        /* \"#utility.yul\":5440:5455   */\n      add\n        /* \"#utility.yul\":5433:5473   */\n      mstore\n        /* \"#utility.yul\":5248:5480   */\n      pop\n      jump\t// out\n        /* \"#utility.yul\":5486:5852   */\n    tag_76:\n        /* \"#utility.yul\":5628:5631   */\n      0x00\n        /* \"#utility.yul\":5649:5716   */\n      tag_128\n        /* \"#utility.yul\":5713:5715   */\n      0x2d\n        /* \"#utility.yul\":5708:5711   */\n      dup4\n        /* \"#utility.yul\":5649:5716   */\n      tag_60\n      jump\t// in\n    tag_128:\n        /* \"#utility.yul\":5642:5716   */\n      swap2\n      pop\n        /* \"#utility.yul\":5725:5818   */\n      tag_129\n        /* \"#utility.yul\":5814:5817   */\n      dup3\n        /* \"#utility.yul\":5725:5818   */\n      tag_75\n      jump\t// in\n    tag_129:\n        /* \"#utility.yul\":5843:5845   */\n      0x40\n        /* \"#utility.yul\":5838:5841   */\n      dup3\n        /* \"#utility.yul\":5834:5846   */\n      add\n        /* \"#utility.yul\":5827:5846   */\n      swap1\n      pop\n        /* \"#utility.yul\":5486:5852   */\n      swap2\n      swap1\n      pop\n      jump\t// out\n        /* \"#utility.yul\":5858:6277   */\n    tag_45:\n        /* \"#utility.yul\":6024:6028   */\n      0x00\n        /* \"#utility.yul\":6062:6064   */\n      0x20\n        /* \"#utility.yul\":6051:6060   */\n      dup3\n        /* \"#utility.yul\":6047:6065   */\n      add\n        /* \"#utility.yul\":6039:6065   */\n      swap1\n      pop\n        /* \"#utility.yul\":6111:6120   */\n      dup2\n        /* \"#utility.yul\":6105:6109   */\n      dup2\n        /* \"#utility.yul\":6101:6121   */\n      sub\n        /* \"#utility.yul\":6097:6098   */\n      0x00\n        /* \"#utility.yul\":6086:6095   */\n      dup4\n        /* \"#utility.yul\":6082:6099   */\n      add\n        /* \"#utility.yul\":6075:6122   */\n      mstore\n        /* \"#utility.yul\":6139:6270   */\n      tag_131\n        /* \"#utility.yul\":6265:6269   */\n      dup2\n        /* \"#utility.yul\":6139:6270   */\n      tag_76\n      jump\t// in\n    tag_131:\n        /* \"#utility.yul\":6131:6270   */\n      swap1\n      pop\n        /* \"#utility.yul\":5858:6277   */\n      swap2\n      swap1\n      pop\n      jump\t// out\n        /* \"#utility.yul\":6283:6477   */\n    tag_47:\n        /* \"#utility.yul\":6323:6327   */\n      0x00\n        /* \"#utility.yul\":6343:6363   */\n      tag_133\n        /* \"#utility.yul\":6361:6362   */\n      dup3\n        /* \"#utility.yul\":6343:6363   */\n      tag_66\n      jump\t// in\n    tag_133:\n        /* \"#utility.yul\":6338:6363   */\n      swap2\n      pop\n        /* \"#utility.yul\":6377:6397   */\n      tag_134\n        /* \"#utility.yul\":6395:6396   */\n      dup4\n        /* \"#utility.yul\":6377:6397   */\n      tag_66\n      jump\t// in\n    tag_134:\n        /* \"#utility.yul\":6372:6397   */\n      swap3\n      pop\n        /* \"#utility.yul\":6421:6422   */\n      dup3\n        /* \"#utility.yul\":6418:6419   */\n      dup3\n        /* \"#utility.yul\":6414:6423   */\n      sub\n        /* \"#utility.yul\":6406:6423   */\n      swap1\n      pop\n        /* \"#utility.yul\":6445:6446   */\n      dup2\n        /* \"#utility.yul\":6439:6443   */\n      dup2\n        /* \"#utility.yul\":6436:6447   */\n      gt\n        /* \"#utility.yul\":6433:6470   */\n      iszero\n      tag_135\n      jumpi\n        /* \"#utility.yul\":6450:6468   */\n      tag_136\n      tag_70\n      jump\t// in\n    tag_136:\n        /* \"#utility.yul\":6433:6470   */\n    tag_135:\n        /* \"#utility.yul\":6283:6477   */\n      swap3\n      swap2\n      pop\n      pop\n      jump\t// out\n        /* \"#utility.yul\":6483:6630   */\n    tag_77:\n        /* \"#utility.yul\":6584:6595   */\n      0x00\n        /* \"#utility.yul\":6621:6624   */\n      dup2\n        /* \"#utility.yul\":6606:6624   */\n      swap1\n      pop\n        /* \"#utility.yul\":6483:6630   */\n      swap3\n      swap2\n      pop\n      pop\n      jump\t// out\n        /* \"#utility.yul\":6636:6750   */\n    tag_78:\n      pop\n      jump\t// out\n        /* \"#utility.yul\":6756:7154   */\n    tag_79:\n        /* \"#utility.yul\":6915:6918   */\n      0x00\n        /* \"#utility.yul\":6936:7019   */\n      tag_140\n        /* \"#utility.yul\":7017:7018   */\n      0x00\n        /* \"#utility.yul\":7012:7015   */\n      dup4\n        /* \"#utility.yul\":6936:7019   */\n      tag_77\n      jump\t// in\n    tag_140:\n        /* \"#utility.yul\":6929:7019   */\n      swap2\n      pop\n        /* \"#utility.yul\":7028:7121   */\n      tag_141\n        /* \"#utility.yul\":7117:7120   */\n      dup3\n        /* \"#utility.yul\":7028:7121   */\n      tag_78\n      jump\t// in\n    tag_141:\n        /* \"#utility.yul\":7146:7147   */\n      0x00\n        /* \"#utility.yul\":7141:7144   */\n      dup3\n        /* \"#utility.yul\":7137:7148   */\n      add\n        /* \"#utility.yul\":7130:7148   */\n      swap1\n      pop\n        /* \"#utility.yul\":6756:7154   */\n      swap2\n      swap1\n      pop\n      jump\t// out\n        /* \"#utility.yul\":7160:7539   */\n    tag_50:\n        /* \"#utility.yul\":7344:7347   */\n      0x00\n        /* \"#utility.yul\":7366:7513   */\n      tag_143\n        /* \"#utility.yul\":7509:7512   */\n      dup3\n        /* \"#utility.yul\":7366:7513   */\n      tag_79\n      jump\t// in\n    tag_143:\n        /* \"#utility.yul\":7359:7513   */\n      swap2\n      pop\n        /* \"#utility.yul\":7530:7533   */\n      dup2\n        /* \"#utility.yul\":7523:7533   */\n      swap1\n      pop\n        /* \"#utility.yul\":7160:7539   */\n      swap2\n      swap1\n      pop\n      jump\t// out\n        /* \"#utility.yul\":7545:7713   */\n    tag_80:\n        /* \"#utility.yul\":7685:7705   */\n      0x5472616e73616374696f6e204661696c65640000000000000000000000000000\n        /* \"#utility.yul\":7681:7682   */\n      0x00\n        /* \"#utility.yul\":7673:7679   */\n      dup3\n        /* \"#utility.yul\":7669:7683   */\n      add\n        /* \"#utility.yul\":7662:7706   */\n      mstore\n        /* \"#utility.yul\":7545:7713   */\n      pop\n      jump\t// out\n        /* \"#utility.yul\":7719:8085   */\n    tag_81:\n        /* \"#utility.yul\":7861:7864   */\n      0x00\n        /* \"#utility.yul\":7882:7949   */\n      tag_146\n        /* \"#utility.yul\":7946:7948   */\n      0x12\n        /* \"#utility.yul\":7941:7944   */\n      dup4\n        /* \"#utility.yul\":7882:7949   */\n      tag_60\n      jump\t// in\n    tag_146:\n        /* \"#utility.yul\":7875:7949   */\n      swap2\n      pop\n        /* \"#utility.yul\":7958:8051   */\n      tag_147\n        /* \"#utility.yul\":8047:8050   */\n      dup3\n        /* \"#utility.yul\":7958:8051   */\n      tag_80\n      jump\t// in\n    tag_147:\n        /* \"#utility.yul\":8076:8078   */\n      0x20\n        /* \"#utility.yul\":8071:8074   */\n      dup3\n        /* \"#utility.yul\":8067:8079   */\n      add\n        /* \"#utility.yul\":8060:8079   */\n      swap1\n      pop\n        /* \"#utility.yul\":7719:8085   */\n      swap2\n      swap1\n      pop\n      jump\t// out\n        /* \"#utility.yul\":8091:8510   */\n    tag_56:\n        /* \"#utility.yul\":8257:8261   */\n      0x00\n        /* \"#utility.yul\":8295:8297   */\n      0x20\n        /* \"#utility.yul\":8284:8293   */\n      dup3\n        /* \"#utility.yul\":8280:8298   */\n      add\n        /* \"#utility.yul\":8272:8298   */\n      swap1\n      pop\n        /* \"#utility.yul\":8344:8353   */\n      dup2\n        /* \"#utility.yul\":8338:8342   */\n      dup2\n        /* \"#utility.yul\":8334:8354   */\n      sub\n        /* \"#utility.yul\":8330:8331   */\n      0x00\n        /* \"#utility.yul\":8319:8328   */\n      dup4\n        /* \"#utility.yul\":8315:8332   */\n      add\n        /* \"#utility.yul\":8308:8355   */\n      mstore\n        /* \"#utility.yul\":8372:8503   */\n      tag_149\n        /* \"#utility.yul\":8498:8502   */\n      dup2\n        /* \"#utility.yul\":8372:8503   */\n      tag_81\n      jump\t// in\n    tag_149:\n        /* \"#utility.yul\":8364:8503   */\n      swap1\n      pop\n        /* \"#utility.yul\":8091:8510   */\n      swap2\n      swap1\n      pop\n      jump\t// out\n\n    auxdata: 0xa264697066735822122011b4a15c886c09d2a44500a5fc43fe87b1ef5f0486c8d14e1a41fd6c86b4c4dd64736f6c634300081f0033\n}\n",
				"bytecode": {
					"linkReferences": {},
					"object": "6080604052348015600e575f5ffd5b506109318061001c5f395ff3fe608060405260043610610037575f3560e01c80632e1a7d4d146100d05780638b7afe2e146100f8578063d0e30db01461012257610046565b366100465761004461012c565b005b348015610051575f5ffd5b503373ffffffffffffffffffffffffffffffffffffffff167f9d48d12169042e23acdbe28d3f76be01a120e20184216de5a65d1162d51271fd60405160405180910390a26040517f08c379a00000000000000000000000000000000000000000000000000000000081526004016100c790610540565b60405180910390fd5b3480156100db575f5ffd5b506100f660048036038101906100f19190610595565b6101f7565b005b348015610103575f5ffd5b5061010c6104bb565b60405161011991906105cf565b60405180910390f35b61012a61012c565b005b3460015f3373ffffffffffffffffffffffffffffffffffffffff1673ffffffffffffffffffffffffffffffffffffffff1681526020019081526020015f205f8282546101789190610615565b92505081905550345f5f82825461018f9190610615565b92505081905550475f54146101a7576101a6610648565b5b3373ffffffffffffffffffffffffffffffffffffffff167fd15c9547ea5c06670c0010ce19bc32d54682a4b3801ece7f3ab0c3f17106b4bb346040516101ed91906105cf565b60405180910390a2565b60025f9054906101000a900460ff1615610246576040517f08c379a000000000000000000000000000000000000000000000000000000000815260040161023d906106e5565b60405180910390fd5b600160025f6101000a81548160ff021916908315150217905550808060015f3373ffffffffffffffffffffffffffffffffffffffff1673ffffffffffffffffffffffffffffffffffffffff1681526020019081526020015f205410156102e1576040517f08c379a00000000000000000000000000000000000000000000000000000000081526004016102d890610773565b60405180910390fd5b670de0b6b3a764000082111561032c576040517f08c379a000000000000000000000000000000000000000000000000000000000815260040161032390610801565b60405180910390fd5b8160015f3373ffffffffffffffffffffffffffffffffffffffff1673ffffffffffffffffffffffffffffffffffffffff1681526020019081526020015f205f828254610378919061081f565b92505081905550815f5f82825461038f919061081f565b925050819055505f3373ffffffffffffffffffffffffffffffffffffffff16836040516103bb9061087f565b5f6040518083038185875af1925050503d805f81146103f5576040519150601f19603f3d011682016040523d82523d5f602084013e6103fa565b606091505b505090508061043e576040517f08c379a0000000000000000000000000000000000000000000000000000000008152600401610435906108dd565b60405180910390fd5b475f541461044f5761044e610648565b5b3373ffffffffffffffffffffffffffffffffffffffff167fbc158bb64f05d6383aea69bbb0b20c1bbf4b7a18f63359c5649b7c39e29d38848460405161049591906105cf565b60405180910390a250505f60025f6101000a81548160ff02191690831515021790555050565b5f5481565b5f82825260208201905092915050565b7f5468652066756e6374696f6e20796f7520747269656420746f2063616c6c20645f8201527f6f6573206e6f742065786973742e20506c656173652074727920616761696e21602082015250565b5f61052a6040836104c0565b9150610535826104d0565b604082019050919050565b5f6020820190508181035f8301526105578161051e565b9050919050565b5f5ffd5b5f819050919050565b61057481610562565b811461057e575f5ffd5b50565b5f8135905061058f8161056b565b92915050565b5f602082840312156105aa576105a961055e565b5b5f6105b784828501610581565b91505092915050565b6105c981610562565b82525050565b5f6020820190506105e25f8301846105c0565b92915050565b7f4e487b71000000000000000000000000000000000000000000000000000000005f52601160045260245ffd5b5f61061f82610562565b915061062a83610562565b9250828201905080821115610642576106416105e8565b5b92915050565b7f4e487b71000000000000000000000000000000000000000000000000000000005f52600160045260245ffd5b7f53746f70206d616b696e67207265656e7472616e63792063616c6c732e20506c5f8201527f6561736520686f6c642100000000000000000000000000000000000000000000602082015250565b5f6106cf602a836104c0565b91506106da82610675565b604082019050919050565b5f6020820190508181035f8301526106fc816106c3565b9050919050565b7f596f75206861766520616e20696e73756666696369656e742062616c616e63655f8201527f2c20706c656173652074727920616761696e2100000000000000000000000000602082015250565b5f61075d6033836104c0565b915061076882610703565b604082019050919050565b5f6020820190508181035f83015261078a81610751565b9050919050565b7f596f752063616e6e6f74207769746864726177206d6f7265207468616e2031205f8201527f45544820617420612074696d6500000000000000000000000000000000000000602082015250565b5f6107eb602d836104c0565b91506107f682610791565b604082019050919050565b5f6020820190508181035f830152610818816107df565b9050919050565b5f61082982610562565b915061083483610562565b925082820390508181111561084c5761084b6105e8565b5b92915050565b5f81905092915050565b50565b5f61086a5f83610852565b91506108758261085c565b5f82019050919050565b5f6108898261085f565b9150819050919050565b7f5472616e73616374696f6e204661696c656400000000000000000000000000005f82015250565b5f6108c76012836104c0565b91506108d282610893565b602082019050919050565b5f6020820190508181035f8301526108f4816108bb565b905091905056fea264697066735822122011b4a15c886c09d2a44500a5fc43fe87b1ef5f0486c8d14e1a41fd6c86b4c4dd64736f6c634300081f0033",
					"opcodes": "PUSH1 0x80 PUSH1 0x40 MSTORE CALLVALUE DUP1 ISZERO PUSH1 0xE JUMPI PUSH0 PUSH0 REVERT JUMPDEST POP PUSH2 0x931 DUP1 PUSH2 0x1C PUSH0 CODECOPY PUSH0 RETURN INVALID PUSH1 0x80 PUSH1 0x40 MSTORE PUSH1 0x4 CALLDATASIZE LT PUSH2 0x37 JUMPI PUSH0 CALLDATALOAD PUSH1 0xE0 SHR DUP1 PUSH4 0x2E1A7D4D EQ PUSH2 0xD0 JUMPI DUP1 PUSH4 0x8B7AFE2E EQ PUSH2 0xF8 JUMPI DUP1 PUSH4 0xD0E30DB0 EQ PUSH2 0x122 JUMPI PUSH2 0x46 JUMP JUMPDEST CALLDATASIZE PUSH2 0x46 JUMPI PUSH2 0x44 PUSH2 0x12C JUMP JUMPDEST STOP JUMPDEST CALLVALUE DUP1 ISZERO PUSH2 0x51 JUMPI PUSH0 PUSH0 REVERT JUMPDEST POP CALLER PUSH20 0xFFFFFFFFFFFFFFFFFFFFFFFFFFFFFFFFFFFFFFFF AND PUSH32 0x9D48D12169042E23ACDBE28D3F76BE01A120E20184216DE5A65D1162D51271FD PUSH1 0x40 MLOAD PUSH1 0x40 MLOAD DUP1 SWAP2 SUB SWAP1 LOG2 PUSH1 0x40 MLOAD PUSH32 0x8C379A000000000000000000000000000000000000000000000000000000000 DUP2 MSTORE PUSH1 0x4 ADD PUSH2 0xC7 SWAP1 PUSH2 0x540 JUMP JUMPDEST PUSH1 0x40 MLOAD DUP1 SWAP2 SUB SWAP1 REVERT JUMPDEST CALLVALUE DUP1 ISZERO PUSH2 0xDB JUMPI PUSH0 PUSH0 REVERT JUMPDEST POP PUSH2 0xF6 PUSH1 0x4 DUP1 CALLDATASIZE SUB DUP2 ADD SWAP1 PUSH2 0xF1 SWAP2 SWAP1 PUSH2 0x595 JUMP JUMPDEST PUSH2 0x1F7 JUMP JUMPDEST STOP JUMPDEST CALLVALUE DUP1 ISZERO PUSH2 0x103 JUMPI PUSH0 PUSH0 REVERT JUMPDEST POP PUSH2 0x10C PUSH2 0x4BB JUMP JUMPDEST PUSH1 0x40 MLOAD PUSH2 0x119 SWAP2 SWAP1 PUSH2 0x5CF JUMP JUMPDEST PUSH1 0x40 MLOAD DUP1 SWAP2 SUB SWAP1 RETURN JUMPDEST PUSH2 0x12A PUSH2 0x12C JUMP JUMPDEST STOP JUMPDEST CALLVALUE PUSH1 0x1 PUSH0 CALLER PUSH20 0xFFFFFFFFFFFFFFFFFFFFFFFFFFFFFFFFFFFFFFFF AND PUSH20 0xFFFFFFFFFFFFFFFFFFFFFFFFFFFFFFFFFFFFFFFF AND DUP2 MSTORE PUSH1 0x20 ADD SWAP1 DUP2 MSTORE PUSH1 0x20 ADD PUSH0 KECCAK256 PUSH0 DUP3 DUP3 SLOAD PUSH2 0x178 SWAP2 SWAP1 PUSH2 0x615 JUMP JUMPDEST SWAP3 POP POP DUP2 SWAP1 SSTORE POP CALLVALUE PUSH0 PUSH0 DUP3 DUP3 SLOAD PUSH2 0x18F SWAP2 SWAP1 PUSH2 0x615 JUMP JUMPDEST SWAP3 POP POP DUP2 SWAP1 SSTORE POP SELFBALANCE PUSH0 SLOAD EQ PUSH2 0x1A7 JUMPI PUSH2 0x1A6 PUSH2 0x648 JUMP JUMPDEST JUMPDEST CALLER PUSH20 0xFFFFFFFFFFFFFFFFFFFFFFFFFFFFFFFFFFFFFFFF AND PUSH32 0xD15C9547EA5C06670C0010CE19BC32D54682A4B3801ECE7F3AB0C3F17106B4BB CALLVALUE PUSH1 0x40 MLOAD PUSH2 0x1ED SWAP2 SWAP1 PUSH2 0x5CF JUMP JUMPDEST PUSH1 0x40 MLOAD DUP1 SWAP2 SUB SWAP1 LOG2 JUMP JUMPDEST PUSH1 0x2 PUSH0 SWAP1 SLOAD SWAP1 PUSH2 0x100 EXP SWAP1 DIV PUSH1 0xFF AND ISZERO PUSH2 0x246 JUMPI PUSH1 0x40 MLOAD PUSH32 0x8C379A000000000000000000000000000000000000000000000000000000000 DUP2 MSTORE PUSH1 0x4 ADD PUSH2 0x23D SWAP1 PUSH2 0x6E5 JUMP JUMPDEST PUSH1 0x40 MLOAD DUP1 SWAP2 SUB SWAP1 REVERT JUMPDEST PUSH1 0x1 PUSH1 0x2 PUSH0 PUSH2 0x100 EXP DUP2 SLOAD DUP2 PUSH1 0xFF MUL NOT AND SWAP1 DUP4 ISZERO ISZERO MUL OR SWAP1 SSTORE POP DUP1 DUP1 PUSH1 0x1 PUSH0 CALLER PUSH20 0xFFFFFFFFFFFFFFFFFFFFFFFFFFFFFFFFFFFFFFFF AND PUSH20 0xFFFFFFFFFFFFFFFFFFFFFFFFFFFFFFFFFFFFFFFF AND DUP2 MSTORE PUSH1 0x20 ADD SWAP1 DUP2 MSTORE PUSH1 0x20 ADD PUSH0 KECCAK256 SLOAD LT ISZERO PUSH2 0x2E1 JUMPI PUSH1 0x40 MLOAD PUSH32 0x8C379A000000000000000000000000000000000000000000000000000000000 DUP2 MSTORE PUSH1 0x4 ADD PUSH2 0x2D8 SWAP1 PUSH2 0x773 JUMP JUMPDEST PUSH1 0x40 MLOAD DUP1 SWAP2 SUB SWAP1 REVERT JUMPDEST PUSH8 0xDE0B6B3A7640000 DUP3 GT ISZERO PUSH2 0x32C JUMPI PUSH1 0x40 MLOAD PUSH32 0x8C379A000000000000000000000000000000000000000000000000000000000 DUP2 MSTORE PUSH1 0x4 ADD PUSH2 0x323 SWAP1 PUSH2 0x801 JUMP JUMPDEST PUSH1 0x40 MLOAD DUP1 SWAP2 SUB SWAP1 REVERT JUMPDEST DUP2 PUSH1 0x1 PUSH0 CALLER PUSH20 0xFFFFFFFFFFFFFFFFFFFFFFFFFFFFFFFFFFFFFFFF AND PUSH20 0xFFFFFFFFFFFFFFFFFFFFFFFFFFFFFFFFFFFFFFFF AND DUP2 MSTORE PUSH1 0x20 ADD SWAP1 DUP2 MSTORE PUSH1 0x20 ADD PUSH0 KECCAK256 PUSH0 DUP3 DUP3 SLOAD PUSH2 0x378 SWAP2 SWAP1 PUSH2 0x81F JUMP JUMPDEST SWAP3 POP POP DUP2 SWAP1 SSTORE POP DUP2 PUSH0 PUSH0 DUP3 DUP3 SLOAD PUSH2 0x38F SWAP2 SWAP1 PUSH2 0x81F JUMP JUMPDEST SWAP3 POP POP DUP2 SWAP1 SSTORE POP PUSH0 CALLER PUSH20 0xFFFFFFFFFFFFFFFFFFFFFFFFFFFFFFFFFFFFFFFF AND DUP4 PUSH1 0x40 MLOAD PUSH2 0x3BB SWAP1 PUSH2 0x87F JUMP JUMPDEST PUSH0 PUSH1 0x40 MLOAD DUP1 DUP4 SUB DUP2 DUP6 DUP8 GAS CALL SWAP3 POP POP POP RETURNDATASIZE DUP1 PUSH0 DUP2 EQ PUSH2 0x3F5 JUMPI PUSH1 0x40 MLOAD SWAP2 POP PUSH1 0x1F NOT PUSH1 0x3F RETURNDATASIZE ADD AND DUP3 ADD PUSH1 0x40 MSTORE RETURNDATASIZE DUP3 MSTORE RETURNDATASIZE PUSH0 PUSH1 0x20 DUP5 ADD RETURNDATACOPY PUSH2 0x3FA JUMP JUMPDEST PUSH1 0x60 SWAP2 POP JUMPDEST POP POP SWAP1 POP DUP1 PUSH2 0x43E JUMPI PUSH1 0x40 MLOAD PUSH32 0x8C379A000000000000000000000000000000000000000000000000000000000 DUP2 MSTORE PUSH1 0x4 ADD PUSH2 0x435 SWAP1 PUSH2 0x8DD JUMP JUMPDEST PUSH1 0x40 MLOAD DUP1 SWAP2 SUB SWAP1 REVERT JUMPDEST SELFBALANCE PUSH0 SLOAD EQ PUSH2 0x44F JUMPI PUSH2 0x44E PUSH2 0x648 JUMP JUMPDEST JUMPDEST CALLER PUSH20 0xFFFFFFFFFFFFFFFFFFFFFFFFFFFFFFFFFFFFFFFF AND PUSH32 0xBC158BB64F05D6383AEA69BBB0B20C1BBF4B7A18F63359C5649B7C39E29D3884 DUP5 PUSH1 0x40 MLOAD PUSH2 0x495 SWAP2 SWAP1 PUSH2 0x5CF JUMP JUMPDEST PUSH1 0x40 MLOAD DUP1 SWAP2 SUB SWAP1 LOG2 POP POP PUSH0 PUSH1 0x2 PUSH0 PUSH2 0x100 EXP DUP2 SLOAD DUP2 PUSH1 0xFF MUL NOT AND SWAP1 DUP4 ISZERO ISZERO MUL OR SWAP1 SSTORE POP POP JUMP JUMPDEST PUSH0 SLOAD DUP2 JUMP JUMPDEST PUSH0 DUP3 DUP3 MSTORE PUSH1 0x20 DUP3 ADD SWAP1 POP SWAP3 SWAP2 POP POP JUMP JUMPDEST PUSH32 0x5468652066756E6374696F6E20796F7520747269656420746F2063616C6C2064 PUSH0 DUP3 ADD MSTORE PUSH32 0x6F6573206E6F742065786973742E20506C656173652074727920616761696E21 PUSH1 0x20 DUP3 ADD MSTORE POP JUMP JUMPDEST PUSH0 PUSH2 0x52A PUSH1 0x40 DUP4 PUSH2 0x4C0 JUMP JUMPDEST SWAP2 POP PUSH2 0x535 DUP3 PUSH2 0x4D0 JUMP JUMPDEST PUSH1 0x40 DUP3 ADD SWAP1 POP SWAP2 SWAP1 POP JUMP JUMPDEST PUSH0 PUSH1 0x20 DUP3 ADD SWAP1 POP DUP2 DUP2 SUB PUSH0 DUP4 ADD MSTORE PUSH2 0x557 DUP2 PUSH2 0x51E JUMP JUMPDEST SWAP1 POP SWAP2 SWAP1 POP JUMP JUMPDEST PUSH0 PUSH0 REVERT JUMPDEST PUSH0 DUP2 SWAP1 POP SWAP2 SWAP1 POP JUMP JUMPDEST PUSH2 0x574 DUP2 PUSH2 0x562 JUMP JUMPDEST DUP2 EQ PUSH2 0x57E JUMPI PUSH0 PUSH0 REVERT JUMPDEST POP JUMP JUMPDEST PUSH0 DUP2 CALLDATALOAD SWAP1 POP PUSH2 0x58F DUP2 PUSH2 0x56B JUMP JUMPDEST SWAP3 SWAP2 POP POP JUMP JUMPDEST PUSH0 PUSH1 0x20 DUP3 DUP5 SUB SLT ISZERO PUSH2 0x5AA JUMPI PUSH2 0x5A9 PUSH2 0x55E JUMP JUMPDEST JUMPDEST PUSH0 PUSH2 0x5B7 DUP5 DUP3 DUP6 ADD PUSH2 0x581 JUMP JUMPDEST SWAP2 POP POP SWAP3 SWAP2 POP POP JUMP JUMPDEST PUSH2 0x5C9 DUP2 PUSH2 0x562 JUMP JUMPDEST DUP3 MSTORE POP POP JUMP JUMPDEST PUSH0 PUSH1 0x20 DUP3 ADD SWAP1 POP PUSH2 0x5E2 PUSH0 DUP4 ADD DUP5 PUSH2 0x5C0 JUMP JUMPDEST SWAP3 SWAP2 POP POP JUMP JUMPDEST PUSH32 0x4E487B7100000000000000000000000000000000000000000000000000000000 PUSH0 MSTORE PUSH1 0x11 PUSH1 0x4 MSTORE PUSH1 0x24 PUSH0 REVERT JUMPDEST PUSH0 PUSH2 0x61F DUP3 PUSH2 0x562 JUMP JUMPDEST SWAP2 POP PUSH2 0x62A DUP4 PUSH2 0x562 JUMP JUMPDEST SWAP3 POP DUP3 DUP3 ADD SWAP1 POP DUP1 DUP3 GT ISZERO PUSH2 0x642 JUMPI PUSH2 0x641 PUSH2 0x5E8 JUMP JUMPDEST JUMPDEST SWAP3 SWAP2 POP POP JUMP JUMPDEST PUSH32 0x4E487B7100000000000000000000000000000000000000000000000000000000 PUSH0 MSTORE PUSH1 0x1 PUSH1 0x4 MSTORE PUSH1 0x24 PUSH0 REVERT JUMPDEST PUSH32 0x53746F70206D616B696E67207265656E7472616E63792063616C6C732E20506C PUSH0 DUP3 ADD MSTORE PUSH32 0x6561736520686F6C642100000000000000000000000000000000000000000000 PUSH1 0x20 DUP3 ADD MSTORE POP JUMP JUMPDEST PUSH0 PUSH2 0x6CF PUSH1 0x2A DUP4 PUSH2 0x4C0 JUMP JUMPDEST SWAP2 POP PUSH2 0x6DA DUP3 PUSH2 0x675 JUMP JUMPDEST PUSH1 0x40 DUP3 ADD SWAP1 POP SWAP2 SWAP1 POP JUMP JUMPDEST PUSH0 PUSH1 0x20 DUP3 ADD SWAP1 POP DUP2 DUP2 SUB PUSH0 DUP4 ADD MSTORE PUSH2 0x6FC DUP2 PUSH2 0x6C3 JUMP JUMPDEST SWAP1 POP SWAP2 SWAP1 POP JUMP JUMPDEST PUSH32 0x596F75206861766520616E20696E73756666696369656E742062616C616E6365 PUSH0 DUP3 ADD MSTORE PUSH32 0x2C20706C656173652074727920616761696E2100000000000000000000000000 PUSH1 0x20 DUP3 ADD MSTORE POP JUMP JUMPDEST PUSH0 PUSH2 0x75D PUSH1 0x33 DUP4 PUSH2 0x4C0 JUMP JUMPDEST SWAP2 POP PUSH2 0x768 DUP3 PUSH2 0x703 JUMP JUMPDEST PUSH1 0x40 DUP3 ADD SWAP1 POP SWAP2 SWAP1 POP JUMP JUMPDEST PUSH0 PUSH1 0x20 DUP3 ADD SWAP1 POP DUP2 DUP2 SUB PUSH0 DUP4 ADD MSTORE PUSH2 0x78A DUP2 PUSH2 0x751 JUMP JUMPDEST SWAP1 POP SWAP2 SWAP1 POP JUMP JUMPDEST PUSH32 0x596F752063616E6E6F74207769746864726177206D6F7265207468616E203120 PUSH0 DUP3 ADD MSTORE PUSH32 0x45544820617420612074696D6500000000000000000000000000000000000000 PUSH1 0x20 DUP3 ADD MSTORE POP JUMP JUMPDEST PUSH0 PUSH2 0x7EB PUSH1 0x2D DUP4 PUSH2 0x4C0 JUMP JUMPDEST SWAP2 POP PUSH2 0x7F6 DUP3 PUSH2 0x791 JUMP JUMPDEST PUSH1 0x40 DUP3 ADD SWAP1 POP SWAP2 SWAP1 POP JUMP JUMPDEST PUSH0 PUSH1 0x20 DUP3 ADD SWAP1 POP DUP2 DUP2 SUB PUSH0 DUP4 ADD MSTORE PUSH2 0x818 DUP2 PUSH2 0x7DF JUMP JUMPDEST SWAP1 POP SWAP2 SWAP1 POP JUMP JUMPDEST PUSH0 PUSH2 0x829 DUP3 PUSH2 0x562 JUMP JUMPDEST SWAP2 POP PUSH2 0x834 DUP4 PUSH2 0x562 JUMP JUMPDEST SWAP3 POP DUP3 DUP3 SUB SWAP1 POP DUP2 DUP2 GT ISZERO PUSH2 0x84C JUMPI PUSH2 0x84B PUSH2 0x5E8 JUMP JUMPDEST JUMPDEST SWAP3 SWAP2 POP POP JUMP JUMPDEST PUSH0 DUP2 SWAP1 POP SWAP3 SWAP2 POP POP JUMP JUMPDEST POP JUMP JUMPDEST PUSH0 PUSH2 0x86A PUSH0 DUP4 PUSH2 0x852 JUMP JUMPDEST SWAP2 POP PUSH2 0x875 DUP3 PUSH2 0x85C JUMP JUMPDEST PUSH0 DUP3 ADD SWAP1 POP SWAP2 SWAP1 POP JUMP JUMPDEST PUSH0 PUSH2 0x889 DUP3 PUSH2 0x85F JUMP JUMPDEST SWAP2 POP DUP2 SWAP1 POP SWAP2 SWAP1 POP JUMP JUMPDEST PUSH32 0x5472616E73616374696F6E204661696C65640000000000000000000000000000 PUSH0 DUP3 ADD MSTORE POP JUMP JUMPDEST PUSH0 PUSH2 0x8C7 PUSH1 0x12 DUP4 PUSH2 0x4C0 JUMP JUMPDEST SWAP2 POP PUSH2 0x8D2 DUP3 PUSH2 0x893 JUMP JUMPDEST PUSH1 0x20 DUP3 ADD SWAP1 POP SWAP2 SWAP1 POP JUMP JUMPDEST PUSH0 PUSH1 0x20 DUP3 ADD SWAP1 POP DUP2 DUP2 SUB PUSH0 DUP4 ADD MSTORE PUSH2 0x8F4 DUP2 PUSH2 0x8BB JUMP JUMPDEST SWAP1 POP SWAP2 SWAP1 POP JUMP INVALID LOG2 PUSH5 0x6970667358 0x22 SLT KECCAK256 GT 0xB4 LOG1 TLOAD DUP9 PUSH13 0x9D2A44500A5FC43FE87B1EF5F DIV DUP7 0xC8 DATALOADN 0x4E1A COINBASE REVERT PUSH13 0x86B4C4DD64736F6C634300081F STOP CALLER "
				},
				"gasEstimates": {
					"creation": {
						"codeDepositCost": "470600",
						"executionCost": "503",
						"totalCost": "471103"
					},
					"external": {
						"": "1624",
						"contractBalance()": "2424",
						"deposit()": "infinite",
						"withdraw(uint256)": "infinite"
					}
				},
				"methodIdentifiers": {
					"contractBalance()": "8b7afe2e",
					"deposit()": "d0e30db0",
					"withdraw(uint256)": "2e1a7d4d"
				}
			},
			"storageLayout": {
				"storage": [
					{
						"astId": 3,
						"contract": "contracts/Lektion4/FallbackReceive.sol:FallbackReceive",
						"label": "contractBalance",
						"offset": 0,
						"slot": "0",
						"type": "t_uint256"
					},
					{
						"astId": 7,
						"contract": "contracts/Lektion4/FallbackReceive.sol:FallbackReceive",
						"label": "_balances",
						"offset": 0,
						"slot": "1",
						"type": "t_mapping(t_address,t_uint256)"
					},
					{
						"astId": 9,
						"contract": "contracts/Lektion4/FallbackReceive.sol:FallbackReceive",
						"label": "_locked",
						"offset": 0,
						"slot": "2",
						"type": "t_bool"
					}
				],
				"types": {
					"t_address": {
						"encoding": "inplace",
						"label": "address",
						"numberOfBytes": "20"
					},
					"t_bool": {
						"encoding": "inplace",
						"label": "bool",
						"numberOfBytes": "1"
					},
					"t_mapping(t_address,t_uint256)": {
						"encoding": "mapping",
						"key": "t_address",
						"label": "mapping(address => uint256)",
						"numberOfBytes": "32",
						"value": "t_uint256"
					},
					"t_uint256": {
						"encoding": "inplace",
						"label": "uint256",
						"numberOfBytes": "32"
					}
				}
			},
			"userdoc": {
				"kind": "user",
				"methods": {},
				"version": 1
			}
		}
	}
}