{
	"contracts/Lektion4/AccessControl.sol": {
		"AccessControl": {
			"abi": [
				{
					"inputs": [],
					"stateMutability": "nonpayable",
					"type": "constructor"
				},
				{
					"inputs": [
						{
							"internalType": "address",
							"name": "",
							"type": "address"
						}
					],
					"name": "admins",
					"outputs": [
						{
							"internalType": "bool",
							"name": "",
							"type": "bool"
						}
					],
					"stateMutability": "view",
					"type": "function"
				},
				{
					"inputs": [
						{
							"internalType": "address",
							"name": "account",
							"type": "address"
						}
					],
					"name": "assignRole",
					"outputs": [],
					"stateMutability": "nonpayable",
					"type": "function"
				},
				{
					"inputs": [
						{
							"internalType": "address",
							"name": "account",
							"type": "address"
						},
						{
							"internalType": "string",
							"name": "role",
							"type": "string"
						}
					],
					"name": "assignRole",
					"outputs": [],
					"stateMutability": "nonpayable",
					"type": "function"
				},
				{
					"inputs": [
						{
							"internalType": "address",
							"name": "",
							"type": "address"
						}
					],
					"name": "members",
					"outputs": [
						{
							"internalType": "bool",
							"name": "",
							"type": "bool"
						}
					],
					"stateMutability": "view",
					"type": "function"
				},
				{
					"inputs": [
						{
							"internalType": "address",
							"name": "",
							"type": "address"
						}
					],
					"name": "supporters",
					"outputs": [
						{
							"internalType": "bool",
							"name": "",
							"type": "bool"
						}
					],
					"stateMutability": "view",
					"type": "function"
				}
			],
			"devdoc": {
				"kind": "dev",
				"methods": {},
				"version": 1
			},
			"evm": {
				"assembly": "    /* \"contracts/Lektion4/AccessControl.sol\":60:937  contract AccessControl {... */\n  mstore(0x40, 0x80)\n    /* \"contracts/Lektion4/AccessControl.sol\":236:294  constructor() {... */\n  callvalue\n  dup1\n  iszero\n  tag_1\n  jumpi\n  revert(0x00, 0x00)\ntag_1:\n  pop\n    /* \"contracts/Lektion4/AccessControl.sol\":282:286  true */\n  0x01\n    /* \"contracts/Lektion4/AccessControl.sol\":261:267  admins */\n  0x00\n    /* \"contracts/Lektion4/AccessControl.sol\":261:279  admins[msg.sender] */\n  0x00\n    /* \"contracts/Lektion4/AccessControl.sol\":268:278  msg.sender */\n  caller\n    /* \"contracts/Lektion4/AccessControl.sol\":261:279  admins[msg.sender] */\n  0xffffffffffffffffffffffffffffffffffffffff\n  and\n  0xffffffffffffffffffffffffffffffffffffffff\n  and\n  dup2\n  mstore\n  0x20\n  add\n  swap1\n  dup2\n  mstore\n  0x20\n  add\n  0x00\n  keccak256\n  0x00\n    /* \"contracts/Lektion4/AccessControl.sol\":261:286  admins[msg.sender] = true */\n  0x0100\n  exp\n  dup2\n  sload\n  dup2\n  0xff\n  mul\n  not\n  and\n  swap1\n  dup4\n  iszero\n  iszero\n  mul\n  or\n  swap1\n  sstore\n  pop\n    /* \"contracts/Lektion4/AccessControl.sol\":60:937  contract AccessControl {... */\n  dataSize(sub_0)\n  dup1\n  dataOffset(sub_0)\n  0x00\n  codecopy\n  0x00\n  return\nstop\n\nsub_0: assembly {\n        /* \"contracts/Lektion4/AccessControl.sol\":60:937  contract AccessControl {... */\n      mstore(0x40, 0x80)\n      callvalue\n      dup1\n      iszero\n      tag_1\n      jumpi\n      revert(0x00, 0x00)\n    tag_1:\n      pop\n      jumpi(tag_2, lt(calldatasize, 0x04))\n      shr(0xe0, calldataload(0x00))\n      dup1\n      0x08ae4b0c\n      eq\n      tag_3\n      jumpi\n      dup1\n      0x429b62e5\n      eq\n      tag_4\n      jumpi\n      dup1\n      0x647c75e2\n      eq\n      tag_5\n      jumpi\n      dup1\n      0x65e88c5a\n      eq\n      tag_6\n      jumpi\n      dup1\n      0xb7dfcbee\n      eq\n      tag_7\n      jumpi\n    tag_2:\n      revert(0x00, 0x00)\n        /* \"contracts/Lektion4/AccessControl.sol\":184:223  mapping(address => bool) public members */\n    tag_3:\n      tag_8\n      0x04\n      dup1\n      calldatasize\n      sub\n      dup2\n      add\n      swap1\n      tag_9\n      swap2\n      swap1\n      tag_10\n      jump\t// in\n    tag_9:\n      tag_11\n      jump\t// in\n    tag_8:\n      mload(0x40)\n      tag_12\n      swap2\n      swap1\n      tag_13\n      jump\t// in\n    tag_12:\n      mload(0x40)\n      dup1\n      swap2\n      sub\n      swap1\n      return\n        /* \"contracts/Lektion4/AccessControl.sol\":90:128  mapping(address => bool) public admins */\n    tag_4:\n      tag_14\n      0x04\n      dup1\n      calldatasize\n      sub\n      dup2\n      add\n      swap1\n      tag_15\n      swap2\n      swap1\n      tag_10\n      jump\t// in\n    tag_15:\n      tag_16\n      jump\t// in\n    tag_14:\n      mload(0x40)\n      tag_17\n      swap2\n      swap1\n      tag_13\n      jump\t// in\n    tag_17:\n      mload(0x40)\n      dup1\n      swap2\n      sub\n      swap1\n      return\n        /* \"contracts/Lektion4/AccessControl.sol\":135:177  mapping(address => bool) public supporters */\n    tag_5:\n      tag_18\n      0x04\n      dup1\n      calldatasize\n      sub\n      dup2\n      add\n      swap1\n      tag_19\n      swap2\n      swap1\n      tag_10\n      jump\t// in\n    tag_19:\n      tag_20\n      jump\t// in\n    tag_18:\n      mload(0x40)\n      tag_21\n      swap2\n      swap1\n      tag_13\n      jump\t// in\n    tag_21:\n      mload(0x40)\n      dup1\n      swap2\n      sub\n      swap1\n      return\n        /* \"contracts/Lektion4/AccessControl.sol\":444:539  function assignRole(address account) public onlyAdmin {... */\n    tag_6:\n      tag_22\n      0x04\n      dup1\n      calldatasize\n      sub\n      dup2\n      add\n      swap1\n      tag_23\n      swap2\n      swap1\n      tag_10\n      jump\t// in\n    tag_23:\n      tag_24\n      jump\t// in\n    tag_22:\n      stop\n        /* \"contracts/Lektion4/AccessControl.sol\":547:934  function assignRole(address account, string memory role) public onlyAdmin {... */\n    tag_7:\n      tag_25\n      0x04\n      dup1\n      calldatasize\n      sub\n      dup2\n      add\n      swap1\n      tag_26\n      swap2\n      swap1\n      tag_27\n      jump\t// in\n    tag_26:\n      tag_28\n      jump\t// in\n    tag_25:\n      stop\n        /* \"contracts/Lektion4/AccessControl.sol\":184:223  mapping(address => bool) public members */\n    tag_11:\n      mstore(0x20, 0x02)\n      dup1\n      0x00\n      mstore\n      keccak256(0x00, 0x40)\n      0x00\n      swap2\n      pop\n      sload\n      swap1\n      0x0100\n      exp\n      swap1\n      div\n      0xff\n      and\n      dup2\n      jump\t// out\n        /* \"contracts/Lektion4/AccessControl.sol\":90:128  mapping(address => bool) public admins */\n    tag_16:\n      mstore(0x20, 0x00)\n      dup1\n      0x00\n      mstore\n      keccak256(0x00, 0x40)\n      0x00\n      swap2\n      pop\n      sload\n      swap1\n      0x0100\n      exp\n      swap1\n      div\n      0xff\n      and\n      dup2\n      jump\t// out\n        /* \"contracts/Lektion4/AccessControl.sol\":135:177  mapping(address => bool) public supporters */\n    tag_20:\n      mstore(0x20, 0x01)\n      dup1\n      0x00\n      mstore\n      keccak256(0x00, 0x40)\n      0x00\n      swap2\n      pop\n      sload\n      swap1\n      0x0100\n      exp\n      swap1\n      div\n      0xff\n      and\n      dup2\n      jump\t// out\n        /* \"contracts/Lektion4/AccessControl.sol\":444:539  function assignRole(address account) public onlyAdmin {... */\n    tag_24:\n        /* \"contracts/Lektion4/AccessControl.sol\":342:348  admins */\n      0x00\n        /* \"contracts/Lektion4/AccessControl.sol\":342:360  admins[msg.sender] */\n      0x00\n        /* \"contracts/Lektion4/AccessControl.sol\":349:359  msg.sender */\n      caller\n        /* \"contracts/Lektion4/AccessControl.sol\":342:360  admins[msg.sender] */\n      0xffffffffffffffffffffffffffffffffffffffff\n      and\n      0xffffffffffffffffffffffffffffffffffffffff\n      and\n      dup2\n      mstore\n      0x20\n      add\n      swap1\n      dup2\n      mstore\n      0x20\n      add\n      0x00\n      keccak256\n      0x00\n      swap1\n      sload\n      swap1\n      0x0100\n      exp\n      swap1\n      div\n      0xff\n      and\n        /* \"contracts/Lektion4/AccessControl.sol\":334:416  require(admins[msg.sender], \"You are not an admin and cannot call this function!\") */\n      tag_30\n      jumpi\n      mload(0x40)\n      0x08c379a000000000000000000000000000000000000000000000000000000000\n      dup2\n      mstore\n      0x04\n      add\n      tag_31\n      swap1\n      tag_32\n      jump\t// in\n    tag_31:\n      mload(0x40)\n      dup1\n      swap2\n      sub\n      swap1\n      revert\n    tag_30:\n        /* \"contracts/Lektion4/AccessControl.sol\":527:531  true */\n      0x01\n        /* \"contracts/Lektion4/AccessControl.sol\":509:515  admins */\n      0x00\n        /* \"contracts/Lektion4/AccessControl.sol\":509:524  admins[account] */\n      0x00\n        /* \"contracts/Lektion4/AccessControl.sol\":516:523  account */\n      dup4\n        /* \"contracts/Lektion4/AccessControl.sol\":509:524  admins[account] */\n      0xffffffffffffffffffffffffffffffffffffffff\n      and\n      0xffffffffffffffffffffffffffffffffffffffff\n      and\n      dup2\n      mstore\n      0x20\n      add\n      swap1\n      dup2\n      mstore\n      0x20\n      add\n      0x00\n      keccak256\n      0x00\n        /* \"contracts/Lektion4/AccessControl.sol\":509:531  admins[account] = true */\n      0x0100\n      exp\n      dup2\n      sload\n      dup2\n      0xff\n      mul\n      not\n      and\n      swap1\n      dup4\n      iszero\n      iszero\n      mul\n      or\n      swap1\n      sstore\n      pop\n        /* \"contracts/Lektion4/AccessControl.sol\":444:539  function assignRole(address account) public onlyAdmin {... */\n      pop\n      jump\t// out\n        /* \"contracts/Lektion4/AccessControl.sol\":547:934  function assignRole(address account, string memory role) public onlyAdmin {... */\n    tag_28:\n        /* \"contracts/Lektion4/AccessControl.sol\":342:348  admins */\n      0x00\n        /* \"contracts/Lektion4/AccessControl.sol\":342:360  admins[msg.sender] */\n      0x00\n        /* \"contracts/Lektion4/AccessControl.sol\":349:359  msg.sender */\n      caller\n        /* \"contracts/Lektion4/AccessControl.sol\":342:360  admins[msg.sender] */\n      0xffffffffffffffffffffffffffffffffffffffff\n      and\n      0xffffffffffffffffffffffffffffffffffffffff\n      and\n      dup2\n      mstore\n      0x20\n      add\n      swap1\n      dup2\n      mstore\n      0x20\n      add\n      0x00\n      keccak256\n      0x00\n      swap1\n      sload\n      swap1\n      0x0100\n      exp\n      swap1\n      div\n      0xff\n      and\n        /* \"contracts/Lektion4/AccessControl.sol\":334:416  require(admins[msg.sender], \"You are not an admin and cannot call this function!\") */\n      tag_35\n      jumpi\n      mload(0x40)\n      0x08c379a000000000000000000000000000000000000000000000000000000000\n      dup2\n      mstore\n      0x04\n      add\n      tag_36\n      swap1\n      tag_32\n      jump\t// in\n    tag_36:\n      mload(0x40)\n      dup1\n      swap2\n      sub\n      swap1\n      revert\n    tag_35:\n        /* \"contracts/Lektion4/AccessControl.sol\":662:684  keccak256(\"Supporter\") */\n      0x5ef9831df088a0efbda56ebfb1eede7cd760892d7fba4af14e8ae83b687464a0\n        /* \"contracts/Lektion4/AccessControl.sol\":652:656  role */\n      dup2\n        /* \"contracts/Lektion4/AccessControl.sol\":636:658  keccak256(bytes(role)) */\n      dup1\n      mload\n      swap1\n      0x20\n      add\n      keccak256\n        /* \"contracts/Lektion4/AccessControl.sol\":636:684  keccak256(bytes(role)) == keccak256(\"Supporter\") */\n      sub\n        /* \"contracts/Lektion4/AccessControl.sol\":632:927  if (keccak256(bytes(role)) == keccak256(\"Supporter\")) {... */\n      tag_38\n      jumpi\n        /* \"contracts/Lektion4/AccessControl.sol\":723:727  true */\n      0x01\n        /* \"contracts/Lektion4/AccessControl.sol\":701:711  supporters */\n      dup1\n        /* \"contracts/Lektion4/AccessControl.sol\":701:720  supporters[account] */\n      0x00\n        /* \"contracts/Lektion4/AccessControl.sol\":712:719  account */\n      dup5\n        /* \"contracts/Lektion4/AccessControl.sol\":701:720  supporters[account] */\n      0xffffffffffffffffffffffffffffffffffffffff\n      and\n      0xffffffffffffffffffffffffffffffffffffffff\n      and\n      dup2\n      mstore\n      0x20\n      add\n      swap1\n      dup2\n      mstore\n      0x20\n      add\n      0x00\n      keccak256\n      0x00\n        /* \"contracts/Lektion4/AccessControl.sol\":701:727  supporters[account] = true */\n      0x0100\n      exp\n      dup2\n      sload\n      dup2\n      0xff\n      mul\n      not\n      and\n      swap1\n      dup4\n      iszero\n      iszero\n      mul\n      or\n      swap1\n      sstore\n      pop\n        /* \"contracts/Lektion4/AccessControl.sol\":632:927  if (keccak256(bytes(role)) == keccak256(\"Supporter\")) {... */\n      jump(tag_39)\n    tag_38:\n        /* \"contracts/Lektion4/AccessControl.sol\":775:794  keccak256(\"Member\") */\n      0x93c1ab880d2046e0a9451da42bccc54129542dea4bfd2a7a4e40c9fe6490f972\n        /* \"contracts/Lektion4/AccessControl.sol\":765:769  role */\n      dup2\n        /* \"contracts/Lektion4/AccessControl.sol\":749:771  keccak256(bytes(role)) */\n      dup1\n      mload\n      swap1\n      0x20\n      add\n      keccak256\n        /* \"contracts/Lektion4/AccessControl.sol\":749:794  keccak256(bytes(role)) == keccak256(\"Member\") */\n      sub\n        /* \"contracts/Lektion4/AccessControl.sol\":745:927  if (keccak256(bytes(role)) == keccak256(\"Member\")) {... */\n      tag_40\n      jumpi\n        /* \"contracts/Lektion4/AccessControl.sol\":830:834  true */\n      0x01\n        /* \"contracts/Lektion4/AccessControl.sol\":811:818  members */\n      0x02\n        /* \"contracts/Lektion4/AccessControl.sol\":811:827  members[account] */\n      0x00\n        /* \"contracts/Lektion4/AccessControl.sol\":819:826  account */\n      dup5\n        /* \"contracts/Lektion4/AccessControl.sol\":811:827  members[account] */\n      0xffffffffffffffffffffffffffffffffffffffff\n      and\n      0xffffffffffffffffffffffffffffffffffffffff\n      and\n      dup2\n      mstore\n      0x20\n      add\n      swap1\n      dup2\n      mstore\n      0x20\n      add\n      0x00\n      keccak256\n      0x00\n        /* \"contracts/Lektion4/AccessControl.sol\":811:834  members[account] = true */\n      0x0100\n      exp\n      dup2\n      sload\n      dup2\n      0xff\n      mul\n      not\n      and\n      swap1\n      dup4\n      iszero\n      iszero\n      mul\n      or\n      swap1\n      sstore\n      pop\n        /* \"contracts/Lektion4/AccessControl.sol\":745:927  if (keccak256(bytes(role)) == keccak256(\"Member\")) {... */\n      jump(tag_41)\n    tag_40:\n        /* \"contracts/Lektion4/AccessControl.sol\":867:915  revert(\"Role does not exist. Please try again!\") */\n      mload(0x40)\n      0x08c379a000000000000000000000000000000000000000000000000000000000\n      dup2\n      mstore\n      0x04\n      add\n      tag_42\n      swap1\n      tag_43\n      jump\t// in\n    tag_42:\n      mload(0x40)\n      dup1\n      swap2\n      sub\n      swap1\n      revert\n        /* \"contracts/Lektion4/AccessControl.sol\":745:927  if (keccak256(bytes(role)) == keccak256(\"Member\")) {... */\n    tag_41:\n        /* \"contracts/Lektion4/AccessControl.sol\":632:927  if (keccak256(bytes(role)) == keccak256(\"Supporter\")) {... */\n    tag_39:\n        /* \"contracts/Lektion4/AccessControl.sol\":547:934  function assignRole(address account, string memory role) public onlyAdmin {... */\n      pop\n      pop\n      jump\t// out\n        /* \"#utility.yul\":7:82   */\n    tag_44:\n        /* \"#utility.yul\":40:46   */\n      0x00\n        /* \"#utility.yul\":73:75   */\n      0x40\n        /* \"#utility.yul\":67:76   */\n      mload\n        /* \"#utility.yul\":57:76   */\n      swap1\n      pop\n        /* \"#utility.yul\":7:82   */\n      swap1\n      jump\t// out\n        /* \"#utility.yul\":88:205   */\n    tag_45:\n        /* \"#utility.yul\":197:198   */\n      0x00\n        /* \"#utility.yul\":194:195   */\n      0x00\n        /* \"#utility.yul\":187:199   */\n      revert\n        /* \"#utility.yul\":211:328   */\n    tag_46:\n        /* \"#utility.yul\":320:321   */\n      0x00\n        /* \"#utility.yul\":317:318   */\n      0x00\n        /* \"#utility.yul\":310:322   */\n      revert\n        /* \"#utility.yul\":334:460   */\n    tag_47:\n        /* \"#utility.yul\":371:378   */\n      0x00\n        /* \"#utility.yul\":411:453   */\n      0xffffffffffffffffffffffffffffffffffffffff\n        /* \"#utility.yul\":404:409   */\n      dup3\n        /* \"#utility.yul\":400:454   */\n      and\n        /* \"#utility.yul\":389:454   */\n      swap1\n      pop\n        /* \"#utility.yul\":334:460   */\n      swap2\n      swap1\n      pop\n      jump\t// out\n        /* \"#utility.yul\":466:562   */\n    tag_48:\n        /* \"#utility.yul\":503:510   */\n      0x00\n        /* \"#utility.yul\":532:556   */\n      tag_74\n        /* \"#utility.yul\":550:555   */\n      dup3\n        /* \"#utility.yul\":532:556   */\n      tag_47\n      jump\t// in\n    tag_74:\n        /* \"#utility.yul\":521:556   */\n      swap1\n      pop\n        /* \"#utility.yul\":466:562   */\n      swap2\n      swap1\n      pop\n      jump\t// out\n        /* \"#utility.yul\":568:690   */\n    tag_49:\n        /* \"#utility.yul\":641:665   */\n      tag_76\n        /* \"#utility.yul\":659:664   */\n      dup2\n        /* \"#utility.yul\":641:665   */\n      tag_48\n      jump\t// in\n    tag_76:\n        /* \"#utility.yul\":634:639   */\n      dup2\n        /* \"#utility.yul\":631:666   */\n      eq\n        /* \"#utility.yul\":621:684   */\n      tag_77\n      jumpi\n        /* \"#utility.yul\":680:681   */\n      0x00\n        /* \"#utility.yul\":677:678   */\n      0x00\n        /* \"#utility.yul\":670:682   */\n      revert\n        /* \"#utility.yul\":621:684   */\n    tag_77:\n        /* \"#utility.yul\":568:690   */\n      pop\n      jump\t// out\n        /* \"#utility.yul\":696:835   */\n    tag_50:\n        /* \"#utility.yul\":742:747   */\n      0x00\n        /* \"#utility.yul\":780:786   */\n      dup2\n        /* \"#utility.yul\":767:787   */\n      calldataload\n        /* \"#utility.yul\":758:787   */\n      swap1\n      pop\n        /* \"#utility.yul\":796:829   */\n      tag_79\n        /* \"#utility.yul\":823:828   */\n      dup2\n        /* \"#utility.yul\":796:829   */\n      tag_49\n      jump\t// in\n    tag_79:\n        /* \"#utility.yul\":696:835   */\n      swap3\n      swap2\n      pop\n      pop\n      jump\t// out\n        /* \"#utility.yul\":841:1170   */\n    tag_10:\n        /* \"#utility.yul\":900:906   */\n      0x00\n        /* \"#utility.yul\":949:951   */\n      0x20\n        /* \"#utility.yul\":937:946   */\n      dup3\n        /* \"#utility.yul\":928:935   */\n      dup5\n        /* \"#utility.yul\":924:947   */\n      sub\n        /* \"#utility.yul\":920:952   */\n      slt\n        /* \"#utility.yul\":917:1036   */\n      iszero\n      tag_81\n      jumpi\n        /* \"#utility.yul\":955:1034   */\n      tag_82\n      tag_45\n      jump\t// in\n    tag_82:\n        /* \"#utility.yul\":917:1036   */\n    tag_81:\n        /* \"#utility.yul\":1075:1076   */\n      0x00\n        /* \"#utility.yul\":1100:1153   */\n      tag_83\n        /* \"#utility.yul\":1145:1152   */\n      dup5\n        /* \"#utility.yul\":1136:1142   */\n      dup3\n        /* \"#utility.yul\":1125:1134   */\n      dup6\n        /* \"#utility.yul\":1121:1143   */\n      add\n        /* \"#utility.yul\":1100:1153   */\n      tag_50\n      jump\t// in\n    tag_83:\n        /* \"#utility.yul\":1090:1153   */\n      swap2\n      pop\n        /* \"#utility.yul\":1046:1163   */\n      pop\n        /* \"#utility.yul\":841:1170   */\n      swap3\n      swap2\n      pop\n      pop\n      jump\t// out\n        /* \"#utility.yul\":1176:1266   */\n    tag_51:\n        /* \"#utility.yul\":1210:1217   */\n      0x00\n        /* \"#utility.yul\":1253:1258   */\n      dup2\n        /* \"#utility.yul\":1246:1259   */\n      iszero\n        /* \"#utility.yul\":1239:1260   */\n      iszero\n        /* \"#utility.yul\":1228:1260   */\n      swap1\n      pop\n        /* \"#utility.yul\":1176:1266   */\n      swap2\n      swap1\n      pop\n      jump\t// out\n        /* \"#utility.yul\":1272:1381   */\n    tag_52:\n        /* \"#utility.yul\":1353:1374   */\n      tag_86\n        /* \"#utility.yul\":1368:1373   */\n      dup2\n        /* \"#utility.yul\":1353:1374   */\n      tag_51\n      jump\t// in\n    tag_86:\n        /* \"#utility.yul\":1348:1351   */\n      dup3\n        /* \"#utility.yul\":1341:1375   */\n      mstore\n        /* \"#utility.yul\":1272:1381   */\n      pop\n      pop\n      jump\t// out\n        /* \"#utility.yul\":1387:1597   */\n    tag_13:\n        /* \"#utility.yul\":1474:1478   */\n      0x00\n        /* \"#utility.yul\":1512:1514   */\n      0x20\n        /* \"#utility.yul\":1501:1510   */\n      dup3\n        /* \"#utility.yul\":1497:1515   */\n      add\n        /* \"#utility.yul\":1489:1515   */\n      swap1\n      pop\n        /* \"#utility.yul\":1525:1590   */\n      tag_88\n        /* \"#utility.yul\":1587:1588   */\n      0x00\n        /* \"#utility.yul\":1576:1585   */\n      dup4\n        /* \"#utility.yul\":1572:1589   */\n      add\n        /* \"#utility.yul\":1563:1569   */\n      dup5\n        /* \"#utility.yul\":1525:1590   */\n      tag_52\n      jump\t// in\n    tag_88:\n        /* \"#utility.yul\":1387:1597   */\n      swap3\n      swap2\n      pop\n      pop\n      jump\t// out\n        /* \"#utility.yul\":1603:1720   */\n    tag_53:\n        /* \"#utility.yul\":1712:1713   */\n      0x00\n        /* \"#utility.yul\":1709:1710   */\n      0x00\n        /* \"#utility.yul\":1702:1714   */\n      revert\n        /* \"#utility.yul\":1726:1843   */\n    tag_54:\n        /* \"#utility.yul\":1835:1836   */\n      0x00\n        /* \"#utility.yul\":1832:1833   */\n      0x00\n        /* \"#utility.yul\":1825:1837   */\n      revert\n        /* \"#utility.yul\":1849:1951   */\n    tag_55:\n        /* \"#utility.yul\":1890:1896   */\n      0x00\n        /* \"#utility.yul\":1941:1943   */\n      0x1f\n        /* \"#utility.yul\":1937:1944   */\n      not\n        /* \"#utility.yul\":1932:1934   */\n      0x1f\n        /* \"#utility.yul\":1925:1930   */\n      dup4\n        /* \"#utility.yul\":1921:1935   */\n      add\n        /* \"#utility.yul\":1917:1945   */\n      and\n        /* \"#utility.yul\":1907:1945   */\n      swap1\n      pop\n        /* \"#utility.yul\":1849:1951   */\n      swap2\n      swap1\n      pop\n      jump\t// out\n        /* \"#utility.yul\":1957:2137   */\n    tag_56:\n        /* \"#utility.yul\":2005:2082   */\n      0x4e487b7100000000000000000000000000000000000000000000000000000000\n        /* \"#utility.yul\":2002:2003   */\n      0x00\n        /* \"#utility.yul\":1995:2083   */\n      mstore\n        /* \"#utility.yul\":2102:2106   */\n      0x41\n        /* \"#utility.yul\":2099:2100   */\n      0x04\n        /* \"#utility.yul\":2092:2107   */\n      mstore\n        /* \"#utility.yul\":2126:2130   */\n      0x24\n        /* \"#utility.yul\":2123:2124   */\n      0x00\n        /* \"#utility.yul\":2116:2131   */\n      revert\n        /* \"#utility.yul\":2143:2424   */\n    tag_57:\n        /* \"#utility.yul\":2226:2253   */\n      tag_94\n        /* \"#utility.yul\":2248:2252   */\n      dup3\n        /* \"#utility.yul\":2226:2253   */\n      tag_55\n      jump\t// in\n    tag_94:\n        /* \"#utility.yul\":2218:2224   */\n      dup2\n        /* \"#utility.yul\":2214:2254   */\n      add\n        /* \"#utility.yul\":2356:2362   */\n      dup2\n        /* \"#utility.yul\":2344:2354   */\n      dup2\n        /* \"#utility.yul\":2341:2363   */\n      lt\n        /* \"#utility.yul\":2320:2338   */\n      0xffffffffffffffff\n        /* \"#utility.yul\":2308:2318   */\n      dup3\n        /* \"#utility.yul\":2305:2339   */\n      gt\n        /* \"#utility.yul\":2302:2364   */\n      or\n        /* \"#utility.yul\":2299:2387   */\n      iszero\n      tag_95\n      jumpi\n        /* \"#utility.yul\":2367:2385   */\n      tag_96\n      tag_56\n      jump\t// in\n    tag_96:\n        /* \"#utility.yul\":2299:2387   */\n    tag_95:\n        /* \"#utility.yul\":2407:2417   */\n      dup1\n        /* \"#utility.yul\":2403:2405   */\n      0x40\n        /* \"#utility.yul\":2396:2418   */\n      mstore\n        /* \"#utility.yul\":2186:2424   */\n      pop\n        /* \"#utility.yul\":2143:2424   */\n      pop\n      pop\n      jump\t// out\n        /* \"#utility.yul\":2430:2559   */\n    tag_58:\n        /* \"#utility.yul\":2464:2470   */\n      0x00\n        /* \"#utility.yul\":2491:2511   */\n      tag_98\n      tag_44\n      jump\t// in\n    tag_98:\n        /* \"#utility.yul\":2481:2511   */\n      swap1\n      pop\n        /* \"#utility.yul\":2520:2553   */\n      tag_99\n        /* \"#utility.yul\":2548:2552   */\n      dup3\n        /* \"#utility.yul\":2540:2546   */\n      dup3\n        /* \"#utility.yul\":2520:2553   */\n      tag_57\n      jump\t// in\n    tag_99:\n        /* \"#utility.yul\":2430:2559   */\n      swap2\n      swap1\n      pop\n      jump\t// out\n        /* \"#utility.yul\":2565:2873   */\n    tag_59:\n        /* \"#utility.yul\":2627:2631   */\n      0x00\n        /* \"#utility.yul\":2717:2735   */\n      0xffffffffffffffff\n        /* \"#utility.yul\":2709:2715   */\n      dup3\n        /* \"#utility.yul\":2706:2736   */\n      gt\n        /* \"#utility.yul\":2703:2759   */\n      iszero\n      tag_101\n      jumpi\n        /* \"#utility.yul\":2739:2757   */\n      tag_102\n      tag_56\n      jump\t// in\n    tag_102:\n        /* \"#utility.yul\":2703:2759   */\n    tag_101:\n        /* \"#utility.yul\":2777:2806   */\n      tag_103\n        /* \"#utility.yul\":2799:2805   */\n      dup3\n        /* \"#utility.yul\":2777:2806   */\n      tag_55\n      jump\t// in\n    tag_103:\n        /* \"#utility.yul\":2769:2806   */\n      swap1\n      pop\n        /* \"#utility.yul\":2861:2865   */\n      0x20\n        /* \"#utility.yul\":2855:2859   */\n      dup2\n        /* \"#utility.yul\":2851:2866   */\n      add\n        /* \"#utility.yul\":2843:2866   */\n      swap1\n      pop\n        /* \"#utility.yul\":2565:2873   */\n      swap2\n      swap1\n      pop\n      jump\t// out\n        /* \"#utility.yul\":2879:3027   */\n    tag_60:\n        /* \"#utility.yul\":2977:2983   */\n      dup3\n        /* \"#utility.yul\":2972:2975   */\n      dup2\n        /* \"#utility.yul\":2967:2970   */\n      dup4\n        /* \"#utility.yul\":2954:2984   */\n      calldatacopy\n        /* \"#utility.yul\":3018:3019   */\n      0x00\n        /* \"#utility.yul\":3009:3015   */\n      dup4\n        /* \"#utility.yul\":3004:3007   */\n      dup4\n        /* \"#utility.yul\":3000:3016   */\n      add\n        /* \"#utility.yul\":2993:3020   */\n      mstore\n        /* \"#utility.yul\":2879:3027   */\n      pop\n      pop\n      pop\n      jump\t// out\n        /* \"#utility.yul\":3033:3458   */\n    tag_61:\n        /* \"#utility.yul\":3111:3116   */\n      0x00\n        /* \"#utility.yul\":3136:3202   */\n      tag_106\n        /* \"#utility.yul\":3152:3201   */\n      tag_107\n        /* \"#utility.yul\":3194:3200   */\n      dup5\n        /* \"#utility.yul\":3152:3201   */\n      tag_59\n      jump\t// in\n    tag_107:\n        /* \"#utility.yul\":3136:3202   */\n      tag_58\n      jump\t// in\n    tag_106:\n        /* \"#utility.yul\":3127:3202   */\n      swap1\n      pop\n        /* \"#utility.yul\":3225:3231   */\n      dup3\n        /* \"#utility.yul\":3218:3223   */\n      dup2\n        /* \"#utility.yul\":3211:3232   */\n      mstore\n        /* \"#utility.yul\":3263:3267   */\n      0x20\n        /* \"#utility.yul\":3256:3261   */\n      dup2\n        /* \"#utility.yul\":3252:3268   */\n      add\n        /* \"#utility.yul\":3301:3304   */\n      dup5\n        /* \"#utility.yul\":3292:3298   */\n      dup5\n        /* \"#utility.yul\":3287:3290   */\n      dup5\n        /* \"#utility.yul\":3283:3299   */\n      add\n        /* \"#utility.yul\":3280:3305   */\n      gt\n        /* \"#utility.yul\":3277:3389   */\n      iszero\n      tag_108\n      jumpi\n        /* \"#utility.yul\":3308:3387   */\n      tag_109\n      tag_54\n      jump\t// in\n    tag_109:\n        /* \"#utility.yul\":3277:3389   */\n    tag_108:\n        /* \"#utility.yul\":3398:3452   */\n      tag_110\n        /* \"#utility.yul\":3445:3451   */\n      dup5\n        /* \"#utility.yul\":3440:3443   */\n      dup3\n        /* \"#utility.yul\":3435:3438   */\n      dup6\n        /* \"#utility.yul\":3398:3452   */\n      tag_60\n      jump\t// in\n    tag_110:\n        /* \"#utility.yul\":3117:3458   */\n      pop\n        /* \"#utility.yul\":3033:3458   */\n      swap4\n      swap3\n      pop\n      pop\n      pop\n      jump\t// out\n        /* \"#utility.yul\":3478:3818   */\n    tag_62:\n        /* \"#utility.yul\":3534:3539   */\n      0x00\n        /* \"#utility.yul\":3583:3586   */\n      dup3\n        /* \"#utility.yul\":3576:3580   */\n      0x1f\n        /* \"#utility.yul\":3568:3574   */\n      dup4\n        /* \"#utility.yul\":3564:3581   */\n      add\n        /* \"#utility.yul\":3560:3587   */\n      slt\n        /* \"#utility.yul\":3550:3672   */\n      tag_112\n      jumpi\n        /* \"#utility.yul\":3591:3670   */\n      tag_113\n      tag_53\n      jump\t// in\n    tag_113:\n        /* \"#utility.yul\":3550:3672   */\n    tag_112:\n        /* \"#utility.yul\":3708:3714   */\n      dup2\n        /* \"#utility.yul\":3695:3715   */\n      calldataload\n        /* \"#utility.yul\":3733:3812   */\n      tag_114\n        /* \"#utility.yul\":3808:3811   */\n      dup5\n        /* \"#utility.yul\":3800:3806   */\n      dup3\n        /* \"#utility.yul\":3793:3797   */\n      0x20\n        /* \"#utility.yul\":3785:3791   */\n      dup7\n        /* \"#utility.yul\":3781:3798   */\n      add\n        /* \"#utility.yul\":3733:3812   */\n      tag_61\n      jump\t// in\n    tag_114:\n        /* \"#utility.yul\":3724:3812   */\n      swap2\n      pop\n        /* \"#utility.yul\":3540:3818   */\n      pop\n        /* \"#utility.yul\":3478:3818   */\n      swap3\n      swap2\n      pop\n      pop\n      jump\t// out\n        /* \"#utility.yul\":3824:4478   */\n    tag_27:\n        /* \"#utility.yul\":3902:3908   */\n      0x00\n        /* \"#utility.yul\":3910:3916   */\n      0x00\n        /* \"#utility.yul\":3959:3961   */\n      0x40\n        /* \"#utility.yul\":3947:3956   */\n      dup4\n        /* \"#utility.yul\":3938:3945   */\n      dup6\n        /* \"#utility.yul\":3934:3957   */\n      sub\n        /* \"#utility.yul\":3930:3962   */\n      slt\n        /* \"#utility.yul\":3927:4046   */\n      iszero\n      tag_116\n      jumpi\n        /* \"#utility.yul\":3965:4044   */\n      tag_117\n      tag_45\n      jump\t// in\n    tag_117:\n        /* \"#utility.yul\":3927:4046   */\n    tag_116:\n        /* \"#utility.yul\":4085:4086   */\n      0x00\n        /* \"#utility.yul\":4110:4163   */\n      tag_118\n        /* \"#utility.yul\":4155:4162   */\n      dup6\n        /* \"#utility.yul\":4146:4152   */\n      dup3\n        /* \"#utility.yul\":4135:4144   */\n      dup7\n        /* \"#utility.yul\":4131:4153   */\n      add\n        /* \"#utility.yul\":4110:4163   */\n      tag_50\n      jump\t// in\n    tag_118:\n        /* \"#utility.yul\":4100:4163   */\n      swap3\n      pop\n        /* \"#utility.yul\":4056:4173   */\n      pop\n        /* \"#utility.yul\":4240:4242   */\n      0x20\n        /* \"#utility.yul\":4229:4238   */\n      dup4\n        /* \"#utility.yul\":4225:4243   */\n      add\n        /* \"#utility.yul\":4212:4244   */\n      calldataload\n        /* \"#utility.yul\":4271:4289   */\n      0xffffffffffffffff\n        /* \"#utility.yul\":4263:4269   */\n      dup2\n        /* \"#utility.yul\":4260:4290   */\n      gt\n        /* \"#utility.yul\":4257:4374   */\n      iszero\n      tag_119\n      jumpi\n        /* \"#utility.yul\":4293:4372   */\n      tag_120\n      tag_46\n      jump\t// in\n    tag_120:\n        /* \"#utility.yul\":4257:4374   */\n    tag_119:\n        /* \"#utility.yul\":4398:4461   */\n      tag_121\n        /* \"#utility.yul\":4453:4460   */\n      dup6\n        /* \"#utility.yul\":4444:4450   */\n      dup3\n        /* \"#utility.yul\":4433:4442   */\n      dup7\n        /* \"#utility.yul\":4429:4451   */\n      add\n        /* \"#utility.yul\":4398:4461   */\n      tag_62\n      jump\t// in\n    tag_121:\n        /* \"#utility.yul\":4388:4461   */\n      swap2\n      pop\n        /* \"#utility.yul\":4183:4471   */\n      pop\n        /* \"#utility.yul\":3824:4478   */\n      swap3\n      pop\n      swap3\n      swap1\n      pop\n      jump\t// out\n        /* \"#utility.yul\":4484:4653   */\n    tag_63:\n        /* \"#utility.yul\":4568:4579   */\n      0x00\n        /* \"#utility.yul\":4602:4608   */\n      dup3\n        /* \"#utility.yul\":4597:4600   */\n      dup3\n        /* \"#utility.yul\":4590:4609   */\n      mstore\n        /* \"#utility.yul\":4642:4646   */\n      0x20\n        /* \"#utility.yul\":4637:4640   */\n      dup3\n        /* \"#utility.yul\":4633:4647   */\n      add\n        /* \"#utility.yul\":4618:4647   */\n      swap1\n      pop\n        /* \"#utility.yul\":4484:4653   */\n      swap3\n      swap2\n      pop\n      pop\n      jump\t// out\n        /* \"#utility.yul\":4659:4897   */\n    tag_64:\n        /* \"#utility.yul\":4799:4833   */\n      0x596f7520617265206e6f7420616e2061646d696e20616e642063616e6e6f7420\n        /* \"#utility.yul\":4795:4796   */\n      0x00\n        /* \"#utility.yul\":4787:4793   */\n      dup3\n        /* \"#utility.yul\":4783:4797   */\n      add\n        /* \"#utility.yul\":4776:4834   */\n      mstore\n        /* \"#utility.yul\":4868:4889   */\n      0x63616c6c20746869732066756e6374696f6e2100000000000000000000000000\n        /* \"#utility.yul\":4863:4865   */\n      0x20\n        /* \"#utility.yul\":4855:4861   */\n      dup3\n        /* \"#utility.yul\":4851:4866   */\n      add\n        /* \"#utility.yul\":4844:4890   */\n      mstore\n        /* \"#utility.yul\":4659:4897   */\n      pop\n      jump\t// out\n        /* \"#utility.yul\":4903:5269   */\n    tag_65:\n        /* \"#utility.yul\":5045:5048   */\n      0x00\n        /* \"#utility.yul\":5066:5133   */\n      tag_125\n        /* \"#utility.yul\":5130:5132   */\n      0x33\n        /* \"#utility.yul\":5125:5128   */\n      dup4\n        /* \"#utility.yul\":5066:5133   */\n      tag_63\n      jump\t// in\n    tag_125:\n        /* \"#utility.yul\":5059:5133   */\n      swap2\n      pop\n        /* \"#utility.yul\":5142:5235   */\n      tag_126\n        /* \"#utility.yul\":5231:5234   */\n      dup3\n        /* \"#utility.yul\":5142:5235   */\n      tag_64\n      jump\t// in\n    tag_126:\n        /* \"#utility.yul\":5260:5262   */\n      0x40\n        /* \"#utility.yul\":5255:5258   */\n      dup3\n        /* \"#utility.yul\":5251:5263   */\n      add\n        /* \"#utility.yul\":5244:5263   */\n      swap1\n      pop\n        /* \"#utility.yul\":4903:5269   */\n      swap2\n      swap1\n      pop\n      jump\t// out\n        /* \"#utility.yul\":5275:5694   */\n    tag_32:\n        /* \"#utility.yul\":5441:5445   */\n      0x00\n        /* \"#utility.yul\":5479:5481   */\n      0x20\n        /* \"#utility.yul\":5468:5477   */\n      dup3\n        /* \"#utility.yul\":5464:5482   */\n      add\n        /* \"#utility.yul\":5456:5482   */\n      swap1\n      pop\n        /* \"#utility.yul\":5528:5537   */\n      dup2\n        /* \"#utility.yul\":5522:5526   */\n      dup2\n        /* \"#utility.yul\":5518:5538   */\n      sub\n        /* \"#utility.yul\":5514:5515   */\n      0x00\n        /* \"#utility.yul\":5503:5512   */\n      dup4\n        /* \"#utility.yul\":5499:5516   */\n      add\n        /* \"#utility.yul\":5492:5539   */\n      mstore\n        /* \"#utility.yul\":5556:5687   */\n      tag_128\n        /* \"#utility.yul\":5682:5686   */\n      dup2\n        /* \"#utility.yul\":5556:5687   */\n      tag_65\n      jump\t// in\n    tag_128:\n        /* \"#utility.yul\":5548:5687   */\n      swap1\n      pop\n        /* \"#utility.yul\":5275:5694   */\n      swap2\n      swap1\n      pop\n      jump\t// out\n        /* \"#utility.yul\":5700:5925   */\n    tag_66:\n        /* \"#utility.yul\":5840:5874   */\n      0x526f6c6520646f6573206e6f742065786973742e20506c656173652074727920\n        /* \"#utility.yul\":5836:5837   */\n      0x00\n        /* \"#utility.yul\":5828:5834   */\n      dup3\n        /* \"#utility.yul\":5824:5838   */\n      add\n        /* \"#utility.yul\":5817:5875   */\n      mstore\n        /* \"#utility.yul\":5909:5917   */\n      0x616761696e210000000000000000000000000000000000000000000000000000\n        /* \"#utility.yul\":5904:5906   */\n      0x20\n        /* \"#utility.yul\":5896:5902   */\n      dup3\n        /* \"#utility.yul\":5892:5907   */\n      add\n        /* \"#utility.yul\":5885:5918   */\n      mstore\n        /* \"#utility.yul\":5700:5925   */\n      pop\n      jump\t// out\n        /* \"#utility.yul\":5931:6297   */\n    tag_67:\n        /* \"#utility.yul\":6073:6076   */\n      0x00\n        /* \"#utility.yul\":6094:6161   */\n      tag_131\n        /* \"#utility.yul\":6158:6160   */\n      0x26\n        /* \"#utility.yul\":6153:6156   */\n      dup4\n        /* \"#utility.yul\":6094:6161   */\n      tag_63\n      jump\t// in\n    tag_131:\n        /* \"#utility.yul\":6087:6161   */\n      swap2\n      pop\n        /* \"#utility.yul\":6170:6263   */\n      tag_132\n        /* \"#utility.yul\":6259:6262   */\n      dup3\n        /* \"#utility.yul\":6170:6263   */\n      tag_66\n      jump\t// in\n    tag_132:\n        /* \"#utility.yul\":6288:6290   */\n      0x40\n        /* \"#utility.yul\":6283:6286   */\n      dup3\n        /* \"#utility.yul\":6279:6291   */\n      add\n        /* \"#utility.yul\":6272:6291   */\n      swap1\n      pop\n        /* \"#utility.yul\":5931:6297   */\n      swap2\n      swap1\n      pop\n      jump\t// out\n        /* \"#utility.yul\":6303:6722   */\n    tag_43:\n        /* \"#utility.yul\":6469:6473   */\n      0x00\n        /* \"#utility.yul\":6507:6509   */\n      0x20\n        /* \"#utility.yul\":6496:6505   */\n      dup3\n        /* \"#utility.yul\":6492:6510   */\n      add\n        /* \"#utility.yul\":6484:6510   */\n      swap1\n      pop\n        /* \"#utility.yul\":6556:6565   */\n      dup2\n        /* \"#utility.yul\":6550:6554   */\n      dup2\n        /* \"#utility.yul\":6546:6566   */\n      sub\n        /* \"#utility.yul\":6542:6543   */\n      0x00\n        /* \"#utility.yul\":6531:6540   */\n      dup4\n        /* \"#utility.yul\":6527:6544   */\n      add\n        /* \"#utility.yul\":6520:6567   */\n      mstore\n        /* \"#utility.yul\":6584:6715   */\n      tag_134\n        /* \"#utility.yul\":6710:6714   */\n      dup2\n        /* \"#utility.yul\":6584:6715   */\n      tag_67\n      jump\t// in\n    tag_134:\n        /* \"#utility.yul\":6576:6715   */\n      swap1\n      pop\n        /* \"#utility.yul\":6303:6722   */\n      swap2\n      swap1\n      pop\n      jump\t// out\n\n    auxdata: 0xa26469706673582212207cd4d125be538e3d08ca1f801e324be2add16945ef18e4cf4ce64126e995eb0964736f6c634300081f0033\n}\n",
				"bytecode": {
					"linkReferences": {},
					"object": "6080604052348015600e575f5ffd5b5060015f5f3373ffffffffffffffffffffffffffffffffffffffff1673ffffffffffffffffffffffffffffffffffffffff1681526020019081526020015f205f6101000a81548160ff0219169083151502179055506107ee806100705f395ff3fe608060405234801561000f575f5ffd5b5060043610610055575f3560e01c806308ae4b0c14610059578063429b62e514610089578063647c75e2146100b957806365e88c5a146100e9578063b7dfcbee14610105575b5f5ffd5b610073600480360381019061006e9190610498565b610121565b60405161008091906104dd565b60405180910390f35b6100a3600480360381019061009e9190610498565b61013e565b6040516100b091906104dd565b60405180910390f35b6100d360048036038101906100ce9190610498565b61015a565b6040516100e091906104dd565b60405180910390f35b61010360048036038101906100fe9190610498565b610177565b005b61011f600480360381019061011a9190610632565b610256565b005b6002602052805f5260405f205f915054906101000a900460ff1681565b5f602052805f5260405f205f915054906101000a900460ff1681565b6001602052805f5260405f205f915054906101000a900460ff1681565b5f5f3373ffffffffffffffffffffffffffffffffffffffff1673ffffffffffffffffffffffffffffffffffffffff1681526020019081526020015f205f9054906101000a900460ff166101ff576040517f08c379a00000000000000000000000000000000000000000000000000000000081526004016101f69061070c565b60405180910390fd5b60015f5f8373ffffffffffffffffffffffffffffffffffffffff1673ffffffffffffffffffffffffffffffffffffffff1681526020019081526020015f205f6101000a81548160ff02191690831515021790555050565b5f5f3373ffffffffffffffffffffffffffffffffffffffff1673ffffffffffffffffffffffffffffffffffffffff1681526020019081526020015f205f9054906101000a900460ff166102de576040517f08c379a00000000000000000000000000000000000000000000000000000000081526004016102d59061070c565b60405180910390fd5b7f5ef9831df088a0efbda56ebfb1eede7cd760892d7fba4af14e8ae83b687464a0818051906020012003610365576001805f8473ffffffffffffffffffffffffffffffffffffffff1673ffffffffffffffffffffffffffffffffffffffff1681526020019081526020015f205f6101000a81548160ff021916908315150217905550610429565b7f93c1ab880d2046e0a9451da42bccc54129542dea4bfd2a7a4e40c9fe6490f9728180519060200120036103ed57600160025f8473ffffffffffffffffffffffffffffffffffffffff1673ffffffffffffffffffffffffffffffffffffffff1681526020019081526020015f205f6101000a81548160ff021916908315150217905550610428565b6040517f08c379a000000000000000000000000000000000000000000000000000000000815260040161041f9061079a565b60405180910390fd5b5b5050565b5f604051905090565b5f5ffd5b5f5ffd5b5f73ffffffffffffffffffffffffffffffffffffffff82169050919050565b5f6104678261043e565b9050919050565b6104778161045d565b8114610481575f5ffd5b50565b5f813590506104928161046e565b92915050565b5f602082840312156104ad576104ac610436565b5b5f6104ba84828501610484565b91505092915050565b5f8115159050919050565b6104d7816104c3565b82525050565b5f6020820190506104f05f8301846104ce565b92915050565b5f5ffd5b5f5ffd5b5f601f19601f8301169050919050565b7f4e487b71000000000000000000000000000000000000000000000000000000005f52604160045260245ffd5b610544826104fe565b810181811067ffffffffffffffff821117156105635761056261050e565b5b80604052505050565b5f61057561042d565b9050610581828261053b565b919050565b5f67ffffffffffffffff8211156105a05761059f61050e565b5b6105a9826104fe565b9050602081019050919050565b828183375f83830152505050565b5f6105d66105d184610586565b61056c565b9050828152602081018484840111156105f2576105f16104fa565b5b6105fd8482856105b6565b509392505050565b5f82601f830112610619576106186104f6565b5b81356106298482602086016105c4565b91505092915050565b5f5f6040838503121561064857610647610436565b5b5f61065585828601610484565b925050602083013567ffffffffffffffff8111156106765761067561043a565b5b61068285828601610605565b9150509250929050565b5f82825260208201905092915050565b7f596f7520617265206e6f7420616e2061646d696e20616e642063616e6e6f74205f8201527f63616c6c20746869732066756e6374696f6e2100000000000000000000000000602082015250565b5f6106f660338361068c565b91506107018261069c565b604082019050919050565b5f6020820190508181035f830152610723816106ea565b9050919050565b7f526f6c6520646f6573206e6f742065786973742e20506c6561736520747279205f8201527f616761696e210000000000000000000000000000000000000000000000000000602082015250565b5f61078460268361068c565b915061078f8261072a565b604082019050919050565b5f6020820190508181035f8301526107b181610778565b905091905056fea26469706673582212207cd4d125be538e3d08ca1f801e324be2add16945ef18e4cf4ce64126e995eb0964736f6c634300081f0033",
					"opcodes": "PUSH1 0x80 PUSH1 0x40 MSTORE CALLVALUE DUP1 ISZERO PUSH1 0xE JUMPI PUSH0 PUSH0 REVERT JUMPDEST POP PUSH1 0x1 PUSH0 PUSH0 CALLER PUSH20 0xFFFFFFFFFFFFFFFFFFFFFFFFFFFFFFFFFFFFFFFF AND PUSH20 0xFFFFFFFFFFFFFFFFFFFFFFFFFFFFFFFFFFFFFFFF AND DUP2 MSTORE PUSH1 0x20 ADD SWAP1 DUP2 MSTORE PUSH1 0x20 ADD PUSH0 KECCAK256 PUSH0 PUSH2 0x100 EXP DUP2 SLOAD DUP2 PUSH1 0xFF MUL NOT AND SWAP1 DUP4 ISZERO ISZERO MUL OR SWAP1 SSTORE POP PUSH2 0x7EE DUP1 PUSH2 0x70 PUSH0 CODECOPY PUSH0 RETURN INVALID PUSH1 0x80 PUSH1 0x40 MSTORE CALLVALUE DUP1 ISZERO PUSH2 0xF JUMPI PUSH0 PUSH0 REVERT JUMPDEST POP PUSH1 0x4 CALLDATASIZE LT PUSH2 0x55 JUMPI PUSH0 CALLDATALOAD PUSH1 0xE0 SHR DUP1 PUSH4 0x8AE4B0C EQ PUSH2 0x59 JUMPI DUP1 PUSH4 0x429B62E5 EQ PUSH2 0x89 JUMPI DUP1 PUSH4 0x647C75E2 EQ PUSH2 0xB9 JUMPI DUP1 PUSH4 0x65E88C5A EQ PUSH2 0xE9 JUMPI DUP1 PUSH4 0xB7DFCBEE EQ PUSH2 0x105 JUMPI JUMPDEST PUSH0 PUSH0 REVERT JUMPDEST PUSH2 0x73 PUSH1 0x4 DUP1 CALLDATASIZE SUB DUP2 ADD SWAP1 PUSH2 0x6E SWAP2 SWAP1 PUSH2 0x498 JUMP JUMPDEST PUSH2 0x121 JUMP JUMPDEST PUSH1 0x40 MLOAD PUSH2 0x80 SWAP2 SWAP1 PUSH2 0x4DD JUMP JUMPDEST PUSH1 0x40 MLOAD DUP1 SWAP2 SUB SWAP1 RETURN JUMPDEST PUSH2 0xA3 PUSH1 0x4 DUP1 CALLDATASIZE SUB DUP2 ADD SWAP1 PUSH2 0x9E SWAP2 SWAP1 PUSH2 0x498 JUMP JUMPDEST PUSH2 0x13E JUMP JUMPDEST PUSH1 0x40 MLOAD PUSH2 0xB0 SWAP2 SWAP1 PUSH2 0x4DD JUMP JUMPDEST PUSH1 0x40 MLOAD DUP1 SWAP2 SUB SWAP1 RETURN JUMPDEST PUSH2 0xD3 PUSH1 0x4 DUP1 CALLDATASIZE SUB DUP2 ADD SWAP1 PUSH2 0xCE SWAP2 SWAP1 PUSH2 0x498 JUMP JUMPDEST PUSH2 0x15A JUMP JUMPDEST PUSH1 0x40 MLOAD PUSH2 0xE0 SWAP2 SWAP1 PUSH2 0x4DD JUMP JUMPDEST PUSH1 0x40 MLOAD DUP1 SWAP2 SUB SWAP1 RETURN JUMPDEST PUSH2 0x103 PUSH1 0x4 DUP1 CALLDATASIZE SUB DUP2 ADD SWAP1 PUSH2 0xFE SWAP2 SWAP1 PUSH2 0x498 JUMP JUMPDEST PUSH2 0x177 JUMP JUMPDEST STOP JUMPDEST PUSH2 0x11F PUSH1 0x4 DUP1 CALLDATASIZE SUB DUP2 ADD SWAP1 PUSH2 0x11A SWAP2 SWAP1 PUSH2 0x632 JUMP JUMPDEST PUSH2 0x256 JUMP JUMPDEST STOP JUMPDEST PUSH1 0x2 PUSH1 0x20 MSTORE DUP1 PUSH0 MSTORE PUSH1 0x40 PUSH0 KECCAK256 PUSH0 SWAP2 POP SLOAD SWAP1 PUSH2 0x100 EXP SWAP1 DIV PUSH1 0xFF AND DUP2 JUMP JUMPDEST PUSH0 PUSH1 0x20 MSTORE DUP1 PUSH0 MSTORE PUSH1 0x40 PUSH0 KECCAK256 PUSH0 SWAP2 POP SLOAD SWAP1 PUSH2 0x100 EXP SWAP1 DIV PUSH1 0xFF AND DUP2 JUMP JUMPDEST PUSH1 0x1 PUSH1 0x20 MSTORE DUP1 PUSH0 MSTORE PUSH1 0x40 PUSH0 KECCAK256 PUSH0 SWAP2 POP SLOAD SWAP1 PUSH2 0x100 EXP SWAP1 DIV PUSH1 0xFF AND DUP2 JUMP JUMPDEST PUSH0 PUSH0 CALLER PUSH20 0xFFFFFFFFFFFFFFFFFFFFFFFFFFFFFFFFFFFFFFFF AND PUSH20 0xFFFFFFFFFFFFFFFFFFFFFFFFFFFFFFFFFFFFFFFF AND DUP2 MSTORE PUSH1 0x20 ADD SWAP1 DUP2 MSTORE PUSH1 0x20 ADD PUSH0 KECCAK256 PUSH0 SWAP1 SLOAD SWAP1 PUSH2 0x100 EXP SWAP1 DIV PUSH1 0xFF AND PUSH2 0x1FF JUMPI PUSH1 0x40 MLOAD PUSH32 0x8C379A000000000000000000000000000000000000000000000000000000000 DUP2 MSTORE PUSH1 0x4 ADD PUSH2 0x1F6 SWAP1 PUSH2 0x70C JUMP JUMPDEST PUSH1 0x40 MLOAD DUP1 SWAP2 SUB SWAP1 REVERT JUMPDEST PUSH1 0x1 PUSH0 PUSH0 DUP4 PUSH20 0xFFFFFFFFFFFFFFFFFFFFFFFFFFFFFFFFFFFFFFFF AND PUSH20 0xFFFFFFFFFFFFFFFFFFFFFFFFFFFFFFFFFFFFFFFF AND DUP2 MSTORE PUSH1 0x20 ADD SWAP1 DUP2 MSTORE PUSH1 0x20 ADD PUSH0 KECCAK256 PUSH0 PUSH2 0x100 EXP DUP2 SLOAD DUP2 PUSH1 0xFF MUL NOT AND SWAP1 DUP4 ISZERO ISZERO MUL OR SWAP1 SSTORE POP POP JUMP JUMPDEST PUSH0 PUSH0 CALLER PUSH20 0xFFFFFFFFFFFFFFFFFFFFFFFFFFFFFFFFFFFFFFFF AND PUSH20 0xFFFFFFFFFFFFFFFFFFFFFFFFFFFFFFFFFFFFFFFF AND DUP2 MSTORE PUSH1 0x20 ADD SWAP1 DUP2 MSTORE PUSH1 0x20 ADD PUSH0 KECCAK256 PUSH0 SWAP1 SLOAD SWAP1 PUSH2 0x100 EXP SWAP1 DIV PUSH1 0xFF AND PUSH2 0x2DE JUMPI PUSH1 0x40 MLOAD PUSH32 0x8C379A000000000000000000000000000000000000000000000000000000000 DUP2 MSTORE PUSH1 0x4 ADD PUSH2 0x2D5 SWAP1 PUSH2 0x70C JUMP JUMPDEST PUSH1 0x40 MLOAD DUP1 SWAP2 SUB SWAP1 REVERT JUMPDEST PUSH32 0x5EF9831DF088A0EFBDA56EBFB1EEDE7CD760892D7FBA4AF14E8AE83B687464A0 DUP2 DUP1 MLOAD SWAP1 PUSH1 0x20 ADD KECCAK256 SUB PUSH2 0x365 JUMPI PUSH1 0x1 DUP1 PUSH0 DUP5 PUSH20 0xFFFFFFFFFFFFFFFFFFFFFFFFFFFFFFFFFFFFFFFF AND PUSH20 0xFFFFFFFFFFFFFFFFFFFFFFFFFFFFFFFFFFFFFFFF AND DUP2 MSTORE PUSH1 0x20 ADD SWAP1 DUP2 MSTORE PUSH1 0x20 ADD PUSH0 KECCAK256 PUSH0 PUSH2 0x100 EXP DUP2 SLOAD DUP2 PUSH1 0xFF MUL NOT AND SWAP1 DUP4 ISZERO ISZERO MUL OR SWAP1 SSTORE POP PUSH2 0x429 JUMP JUMPDEST PUSH32 0x93C1AB880D2046E0A9451DA42BCCC54129542DEA4BFD2A7A4E40C9FE6490F972 DUP2 DUP1 MLOAD SWAP1 PUSH1 0x20 ADD KECCAK256 SUB PUSH2 0x3ED JUMPI PUSH1 0x1 PUSH1 0x2 PUSH0 DUP5 PUSH20 0xFFFFFFFFFFFFFFFFFFFFFFFFFFFFFFFFFFFFFFFF AND PUSH20 0xFFFFFFFFFFFFFFFFFFFFFFFFFFFFFFFFFFFFFFFF AND DUP2 MSTORE PUSH1 0x20 ADD SWAP1 DUP2 MSTORE PUSH1 0x20 ADD PUSH0 KECCAK256 PUSH0 PUSH2 0x100 EXP DUP2 SLOAD DUP2 PUSH1 0xFF MUL NOT AND SWAP1 DUP4 ISZERO ISZERO MUL OR SWAP1 SSTORE POP PUSH2 0x428 JUMP JUMPDEST PUSH1 0x40 MLOAD PUSH32 0x8C379A000000000000000000000000000000000000000000000000000000000 DUP2 MSTORE PUSH1 0x4 ADD PUSH2 0x41F SWAP1 PUSH2 0x79A JUMP JUMPDEST PUSH1 0x40 MLOAD DUP1 SWAP2 SUB SWAP1 REVERT JUMPDEST JUMPDEST POP POP JUMP JUMPDEST PUSH0 PUSH1 0x40 MLOAD SWAP1 POP SWAP1 JUMP JUMPDEST PUSH0 PUSH0 REVERT JUMPDEST PUSH0 PUSH0 REVERT JUMPDEST PUSH0 PUSH20 0xFFFFFFFFFFFFFFFFFFFFFFFFFFFFFFFFFFFFFFFF DUP3 AND SWAP1 POP SWAP2 SWAP1 POP JUMP JUMPDEST PUSH0 PUSH2 0x467 DUP3 PUSH2 0x43E JUMP JUMPDEST SWAP1 POP SWAP2 SWAP1 POP JUMP JUMPDEST PUSH2 0x477 DUP2 PUSH2 0x45D JUMP JUMPDEST DUP2 EQ PUSH2 0x481 JUMPI PUSH0 PUSH0 REVERT JUMPDEST POP JUMP JUMPDEST PUSH0 DUP2 CALLDATALOAD SWAP1 POP PUSH2 0x492 DUP2 PUSH2 0x46E JUMP JUMPDEST SWAP3 SWAP2 POP POP JUMP JUMPDEST PUSH0 PUSH1 0x20 DUP3 DUP5 SUB SLT ISZERO PUSH2 0x4AD JUMPI PUSH2 0x4AC PUSH2 0x436 JUMP JUMPDEST JUMPDEST PUSH0 PUSH2 0x4BA DUP5 DUP3 DUP6 ADD PUSH2 0x484 JUMP JUMPDEST SWAP2 POP POP SWAP3 SWAP2 POP POP JUMP JUMPDEST PUSH0 DUP2 ISZERO ISZERO SWAP1 POP SWAP2 SWAP1 POP JUMP JUMPDEST PUSH2 0x4D7 DUP2 PUSH2 0x4C3 JUMP JUMPDEST DUP3 MSTORE POP POP JUMP JUMPDEST PUSH0 PUSH1 0x20 DUP3 ADD SWAP1 POP PUSH2 0x4F0 PUSH0 DUP4 ADD DUP5 PUSH2 0x4CE JUMP JUMPDEST SWAP3 SWAP2 POP POP JUMP JUMPDEST PUSH0 PUSH0 REVERT JUMPDEST PUSH0 PUSH0 REVERT JUMPDEST PUSH0 PUSH1 0x1F NOT PUSH1 0x1F DUP4 ADD AND SWAP1 POP SWAP2 SWAP1 POP JUMP JUMPDEST PUSH32 0x4E487B7100000000000000000000000000000000000000000000000000000000 PUSH0 MSTORE PUSH1 0x41 PUSH1 0x4 MSTORE PUSH1 0x24 PUSH0 REVERT JUMPDEST PUSH2 0x544 DUP3 PUSH2 0x4FE JUMP JUMPDEST DUP2 ADD DUP2 DUP2 LT PUSH8 0xFFFFFFFFFFFFFFFF DUP3 GT OR ISZERO PUSH2 0x563 JUMPI PUSH2 0x562 PUSH2 0x50E JUMP JUMPDEST JUMPDEST DUP1 PUSH1 0x40 MSTORE POP POP POP JUMP JUMPDEST PUSH0 PUSH2 0x575 PUSH2 0x42D JUMP JUMPDEST SWAP1 POP PUSH2 0x581 DUP3 DUP3 PUSH2 0x53B JUMP JUMPDEST SWAP2 SWAP1 POP JUMP JUMPDEST PUSH0 PUSH8 0xFFFFFFFFFFFFFFFF DUP3 GT ISZERO PUSH2 0x5A0 JUMPI PUSH2 0x59F PUSH2 0x50E JUMP JUMPDEST JUMPDEST PUSH2 0x5A9 DUP3 PUSH2 0x4FE JUMP JUMPDEST SWAP1 POP PUSH1 0x20 DUP2 ADD SWAP1 POP SWAP2 SWAP1 POP JUMP JUMPDEST DUP3 DUP2 DUP4 CALLDATACOPY PUSH0 DUP4 DUP4 ADD MSTORE POP POP POP JUMP JUMPDEST PUSH0 PUSH2 0x5D6 PUSH2 0x5D1 DUP5 PUSH2 0x586 JUMP JUMPDEST PUSH2 0x56C JUMP JUMPDEST SWAP1 POP DUP3 DUP2 MSTORE PUSH1 0x20 DUP2 ADD DUP5 DUP5 DUP5 ADD GT ISZERO PUSH2 0x5F2 JUMPI PUSH2 0x5F1 PUSH2 0x4FA JUMP JUMPDEST JUMPDEST PUSH2 0x5FD DUP5 DUP3 DUP6 PUSH2 0x5B6 JUMP JUMPDEST POP SWAP4 SWAP3 POP POP POP JUMP JUMPDEST PUSH0 DUP3 PUSH1 0x1F DUP4 ADD SLT PUSH2 0x619 JUMPI PUSH2 0x618 PUSH2 0x4F6 JUMP JUMPDEST JUMPDEST DUP2 CALLDATALOAD PUSH2 0x629 DUP5 DUP3 PUSH1 0x20 DUP7 ADD PUSH2 0x5C4 JUMP JUMPDEST SWAP2 POP POP SWAP3 SWAP2 POP POP JUMP JUMPDEST PUSH0 PUSH0 PUSH1 0x40 DUP4 DUP6 SUB SLT ISZERO PUSH2 0x648 JUMPI PUSH2 0x647 PUSH2 0x436 JUMP JUMPDEST JUMPDEST PUSH0 PUSH2 0x655 DUP6 DUP3 DUP7 ADD PUSH2 0x484 JUMP JUMPDEST SWAP3 POP POP PUSH1 0x20 DUP4 ADD CALLDATALOAD PUSH8 0xFFFFFFFFFFFFFFFF DUP2 GT ISZERO PUSH2 0x676 JUMPI PUSH2 0x675 PUSH2 0x43A JUMP JUMPDEST JUMPDEST PUSH2 0x682 DUP6 DUP3 DUP7 ADD PUSH2 0x605 JUMP JUMPDEST SWAP2 POP POP SWAP3 POP SWAP3 SWAP1 POP JUMP JUMPDEST PUSH0 DUP3 DUP3 MSTORE PUSH1 0x20 DUP3 ADD SWAP1 POP SWAP3 SWAP2 POP POP JUMP JUMPDEST PUSH32 0x596F7520617265206E6F7420616E2061646D696E20616E642063616E6E6F7420 PUSH0 DUP3 ADD MSTORE PUSH32 0x63616C6C20746869732066756E6374696F6E2100000000000000000000000000 PUSH1 0x20 DUP3 ADD MSTORE POP JUMP JUMPDEST PUSH0 PUSH2 0x6F6 PUSH1 0x33 DUP4 PUSH2 0x68C JUMP JUMPDEST SWAP2 POP PUSH2 0x701 DUP3 PUSH2 0x69C JUMP JUMPDEST PUSH1 0x40 DUP3 ADD SWAP1 POP SWAP2 SWAP1 POP JUMP JUMPDEST PUSH0 PUSH1 0x20 DUP3 ADD SWAP1 POP DUP2 DUP2 SUB PUSH0 DUP4 ADD MSTORE PUSH2 0x723 DUP2 PUSH2 0x6EA JUMP JUMPDEST SWAP1 POP SWAP2 SWAP1 POP JUMP JUMPDEST PUSH32 0x526F6C6520646F6573206E6F742065786973742E20506C656173652074727920 PUSH0 DUP3 ADD MSTORE PUSH32 0x616761696E210000000000000000000000000000000000000000000000000000 PUSH1 0x20 DUP3 ADD MSTORE POP JUMP JUMPDEST PUSH0 PUSH2 0x784 PUSH1 0x26 DUP4 PUSH2 0x68C JUMP JUMPDEST SWAP2 POP PUSH2 0x78F DUP3 PUSH2 0x72A JUMP JUMPDEST PUSH1 0x40 DUP3 ADD SWAP1 POP SWAP2 SWAP1 POP JUMP JUMPDEST PUSH0 PUSH1 0x20 DUP3 ADD SWAP1 POP DUP2 DUP2 SUB PUSH0 DUP4 ADD MSTORE PUSH2 0x7B1 DUP2 PUSH2 0x778 JUMP JUMPDEST SWAP1 POP SWAP2 SWAP1 POP JUMP INVALID LOG2 PUSH5 0x6970667358 0x22 SLT KECCAK256 PUSH29 0xD4D125BE538E3D08CA1F801E324BE2ADD16945EF18E4CF4CE64126E995 0xEB MULMOD PUSH5 0x736F6C6343 STOP ADDMOD 0x1F STOP CALLER "
				},
				"gasEstimates": {
					"creation": {
						"codeDepositCost": "406000",
						"executionCost": "24793",
						"totalCost": "430793"
					},
					"external": {
						"admins(address)": "2832",
						"assignRole(address)": "27084",
						"assignRole(address,string)": "infinite",
						"members(address)": "2811",
						"supporters(address)": "2855"
					}
				},
				"methodIdentifiers": {
					"admins(address)": "429b62e5",
					"assignRole(address)": "65e88c5a",
					"assignRole(address,string)": "b7dfcbee",
					"members(address)": "08ae4b0c",
					"supporters(address)": "647c75e2"
				}
			},
			"storageLayout": {
				"storage": [
					{
						"astId": 5,
						"contract": "contracts/Lektion4/AccessControl.sol:AccessControl",
						"label": "admins",
						"offset": 0,
						"slot": "0",
						"type": "t_mapping(t_address,t_bool)"
					},
					{
						"astId": 9,
						"contract": "contracts/Lektion4/AccessControl.sol:AccessControl",
						"label": "supporters",
						"offset": 0,
						"slot": "1",
						"type": "t_mapping(t_address,t_bool)"
					},
					{
						"astId": 13,
						"contract": "contracts/Lektion4/AccessControl.sol:AccessControl",
						"label": "members",
						"offset": 0,
						"slot": "2",
						"type": "t_mapping(t_address,t_bool)"
					}
				],
				"types": {
					"t_address": {
						"encoding": "inplace",
						"label": "address",
						"numberOfBytes": "20"
					},
					"t_bool": {
						"encoding": "inplace",
						"label": "bool",
						"numberOfBytes": "1"
					},
					"t_mapping(t_address,t_bool)": {
						"encoding": "mapping",
						"key": "t_address",
						"label": "mapping(address => bool)",
						"numberOfBytes": "32",
						"value": "t_bool"
					}
				}
			},
			"userdoc": {
				"kind": "user",
				"methods": {},
				"version": 1
			}
		}
	}
}