{
	"contracts/Lektion2/LibraryLimit.sol": {
		"LibraryLimit": {
			"abi": [
				{
					"inputs": [
						{
							"internalType": "string",
							"name": "bookTitle",
							"type": "string"
						},
						{
							"internalType": "string",
							"name": "bookAuthor",
							"type": "string"
						},
						{
							"internalType": "uint16",
							"name": "bookYear",
							"type": "uint16"
						}
					],
					"name": "addBook",
					"outputs": [],
					"stateMutability": "nonpayable",
					"type": "function"
				},
				{
					"inputs": [],
					"name": "bookCount",
					"outputs": [
						{
							"internalType": "uint256",
							"name": "",
							"type": "uint256"
						}
					],
					"stateMutability": "view",
					"type": "function"
				},
				{
					"inputs": [
						{
							"internalType": "uint256",
							"name": "",
							"type": "uint256"
						}
					],
					"name": "books",
					"outputs": [
						{
							"internalType": "string",
							"name": "Title",
							"type": "string"
						},
						{
							"internalType": "string",
							"name": "Author",
							"type": "string"
						},
						{
							"internalType": "uint16",
							"name": "year",
							"type": "uint16"
						}
					],
					"stateMutability": "view",
					"type": "function"
				}
			],
			"devdoc": {
				"kind": "dev",
				"methods": {},
				"version": 1
			},
			"evm": {
				"assembly": "    /* \"contracts/Lektion2/LibraryLimit.sol\":60:439  contract LibraryLimit {... */\n  mstore(0x40, 0x80)\n    /* \"contracts/Lektion2/LibraryLimit.sol\":237:238  0 */\n  0x00\n    /* \"contracts/Lektion2/LibraryLimit.sol\":213:238  uint public bookCount = 0 */\n  0x0f\n  sstore\n    /* \"contracts/Lektion2/LibraryLimit.sol\":60:439  contract LibraryLimit {... */\n  callvalue\n  dup1\n  iszero\n  tag_1\n  jumpi\n  revert(0x00, 0x00)\ntag_1:\n  pop\n  dataSize(sub_0)\n  dup1\n  dataOffset(sub_0)\n  0x00\n  codecopy\n  0x00\n  return\nstop\n\nsub_0: assembly {\n        /* \"contracts/Lektion2/LibraryLimit.sol\":60:439  contract LibraryLimit {... */\n      mstore(0x40, 0x80)\n      callvalue\n      dup1\n      iszero\n      tag_1\n      jumpi\n      revert(0x00, 0x00)\n    tag_1:\n      pop\n      jumpi(tag_2, lt(calldatasize, 0x04))\n      shr(0xe0, calldataload(0x00))\n      dup1\n      0x68744046\n      eq\n      tag_3\n      jumpi\n      dup1\n      0xb905ad78\n      eq\n      tag_4\n      jumpi\n      dup1\n      0xcd80723a\n      eq\n      tag_5\n      jumpi\n    tag_2:\n      revert(0x00, 0x00)\n        /* \"contracts/Lektion2/LibraryLimit.sol\":186:206  Book[5] public books */\n    tag_3:\n      tag_6\n      0x04\n      dup1\n      calldatasize\n      sub\n      dup2\n      add\n      swap1\n      tag_7\n      swap2\n      swap1\n      tag_8\n      jump\t// in\n    tag_7:\n      tag_9\n      jump\t// in\n    tag_6:\n      mload(0x40)\n      tag_10\n      swap4\n      swap3\n      swap2\n      swap1\n      tag_11\n      jump\t// in\n    tag_10:\n      mload(0x40)\n      dup1\n      swap2\n      sub\n      swap1\n      return\n        /* \"contracts/Lektion2/LibraryLimit.sol\":213:238  uint public bookCount = 0 */\n    tag_4:\n      tag_12\n      tag_13\n      jump\t// in\n    tag_12:\n      mload(0x40)\n      tag_14\n      swap2\n      swap1\n      tag_15\n      jump\t// in\n    tag_14:\n      mload(0x40)\n      dup1\n      swap2\n      sub\n      swap1\n      return\n        /* \"contracts/Lektion2/LibraryLimit.sol\":247:436  function addBook(string memory bookTitle, string memory bookAuthor, uint16 bookYear) public {... */\n    tag_5:\n      tag_16\n      0x04\n      dup1\n      calldatasize\n      sub\n      dup2\n      add\n      swap1\n      tag_17\n      swap2\n      swap1\n      tag_18\n      jump\t// in\n    tag_17:\n      tag_19\n      jump\t// in\n    tag_16:\n      stop\n        /* \"contracts/Lektion2/LibraryLimit.sol\":186:206  Book[5] public books */\n    tag_9:\n      0x00\n      dup2\n      0x05\n      dup2\n      lt\n      tag_20\n      jumpi\n      0x00\n      dup1\n      revert\n    tag_20:\n      0x03\n      mul\n      add\n      0x00\n      swap2\n      pop\n      swap1\n      pop\n      dup1\n      0x00\n      add\n      dup1\n      sload\n      tag_22\n      swap1\n      tag_23\n      jump\t// in\n    tag_22:\n      dup1\n      0x1f\n      add\n      0x20\n      dup1\n      swap2\n      div\n      mul\n      0x20\n      add\n      mload(0x40)\n      swap1\n      dup2\n      add\n      0x40\n      mstore\n      dup1\n      swap3\n      swap2\n      swap1\n      dup2\n      dup2\n      mstore\n      0x20\n      add\n      dup3\n      dup1\n      sload\n      tag_24\n      swap1\n      tag_23\n      jump\t// in\n    tag_24:\n      dup1\n      iszero\n      tag_25\n      jumpi\n      dup1\n      0x1f\n      lt\n      tag_26\n      jumpi\n      0x0100\n      dup1\n      dup4\n      sload\n      div\n      mul\n      dup4\n      mstore\n      swap2\n      0x20\n      add\n      swap2\n      jump(tag_25)\n    tag_26:\n      dup3\n      add\n      swap2\n      swap1\n      0x00\n      mstore\n      keccak256(0x00, 0x20)\n      swap1\n    tag_27:\n      dup2\n      sload\n      dup2\n      mstore\n      swap1\n      0x01\n      add\n      swap1\n      0x20\n      add\n      dup1\n      dup4\n      gt\n      tag_27\n      jumpi\n      dup3\n      swap1\n      sub\n      0x1f\n      and\n      dup3\n      add\n      swap2\n    tag_25:\n      pop\n      pop\n      pop\n      pop\n      pop\n      swap1\n      dup1\n      0x01\n      add\n      dup1\n      sload\n      tag_28\n      swap1\n      tag_23\n      jump\t// in\n    tag_28:\n      dup1\n      0x1f\n      add\n      0x20\n      dup1\n      swap2\n      div\n      mul\n      0x20\n      add\n      mload(0x40)\n      swap1\n      dup2\n      add\n      0x40\n      mstore\n      dup1\n      swap3\n      swap2\n      swap1\n      dup2\n      dup2\n      mstore\n      0x20\n      add\n      dup3\n      dup1\n      sload\n      tag_29\n      swap1\n      tag_23\n      jump\t// in\n    tag_29:\n      dup1\n      iszero\n      tag_30\n      jumpi\n      dup1\n      0x1f\n      lt\n      tag_31\n      jumpi\n      0x0100\n      dup1\n      dup4\n      sload\n      div\n      mul\n      dup4\n      mstore\n      swap2\n      0x20\n      add\n      swap2\n      jump(tag_30)\n    tag_31:\n      dup3\n      add\n      swap2\n      swap1\n      0x00\n      mstore\n      keccak256(0x00, 0x20)\n      swap1\n    tag_32:\n      dup2\n      sload\n      dup2\n      mstore\n      swap1\n      0x01\n      add\n      swap1\n      0x20\n      add\n      dup1\n      dup4\n      gt\n      tag_32\n      jumpi\n      dup3\n      swap1\n      sub\n      0x1f\n      and\n      dup3\n      add\n      swap2\n    tag_30:\n      pop\n      pop\n      pop\n      pop\n      pop\n      swap1\n      dup1\n      0x02\n      add\n      0x00\n      swap1\n      sload\n      swap1\n      0x0100\n      exp\n      swap1\n      div\n      0xffff\n      and\n      swap1\n      pop\n      dup4\n      jump\t// out\n        /* \"contracts/Lektion2/LibraryLimit.sol\":213:238  uint public bookCount = 0 */\n    tag_13:\n      sload(0x0f)\n      dup2\n      jump\t// out\n        /* \"contracts/Lektion2/LibraryLimit.sol\":247:436  function addBook(string memory bookTitle, string memory bookAuthor, uint16 bookYear) public {... */\n    tag_19:\n        /* \"contracts/Lektion2/LibraryLimit.sol\":369:406  Book(bookTitle, bookAuthor, bookYear) */\n      mload(0x40)\n      dup1\n      0x60\n      add\n      0x40\n      mstore\n      dup1\n        /* \"contracts/Lektion2/LibraryLimit.sol\":374:383  bookTitle */\n      dup5\n        /* \"contracts/Lektion2/LibraryLimit.sol\":369:406  Book(bookTitle, bookAuthor, bookYear) */\n      dup2\n      mstore\n      0x20\n      add\n        /* \"contracts/Lektion2/LibraryLimit.sol\":385:395  bookAuthor */\n      dup4\n        /* \"contracts/Lektion2/LibraryLimit.sol\":369:406  Book(bookTitle, bookAuthor, bookYear) */\n      dup2\n      mstore\n      0x20\n      add\n        /* \"contracts/Lektion2/LibraryLimit.sol\":397:405  bookYear */\n      dup3\n        /* \"contracts/Lektion2/LibraryLimit.sol\":369:406  Book(bookTitle, bookAuthor, bookYear) */\n      0xffff\n      and\n      dup2\n      mstore\n      pop\n        /* \"contracts/Lektion2/LibraryLimit.sol\":350:355  books */\n      0x00\n        /* \"contracts/Lektion2/LibraryLimit.sol\":356:365  bookCount */\n      sload(0x0f)\n        /* \"contracts/Lektion2/LibraryLimit.sol\":350:366  books[bookCount] */\n      0x05\n      dup2\n      lt\n      tag_34\n      jumpi\n      tag_35\n      tag_36\n      jump\t// in\n    tag_35:\n    tag_34:\n      0x03\n      mul\n      add\n        /* \"contracts/Lektion2/LibraryLimit.sol\":350:406  books[bookCount] = Book(bookTitle, bookAuthor, bookYear) */\n      0x00\n      dup3\n      add\n      mload\n      dup2\n      0x00\n      add\n      swap1\n      dup2\n      tag_38\n      swap2\n      swap1\n      tag_39\n      jump\t// in\n    tag_38:\n      pop\n      0x20\n      dup3\n      add\n      mload\n      dup2\n      0x01\n      add\n      swap1\n      dup2\n      tag_40\n      swap2\n      swap1\n      tag_39\n      jump\t// in\n    tag_40:\n      pop\n      0x40\n      dup3\n      add\n      mload\n      dup2\n      0x02\n      add\n      exp(0x0100, 0x00)\n      dup2\n      sload\n      dup2\n      0xffff\n      mul\n      not\n      and\n      swap1\n      dup4\n      0xffff\n      and\n      mul\n      or\n      swap1\n      sstore\n      pop\n      swap1\n      pop\n      pop\n        /* \"contracts/Lektion2/LibraryLimit.sol\":417:426  bookCount */\n      0x0f\n      0x00\n        /* \"contracts/Lektion2/LibraryLimit.sol\":417:428  bookCount++ */\n      dup2\n      sload\n      dup1\n      swap3\n      swap2\n      swap1\n      tag_41\n      swap1\n      tag_42\n      jump\t// in\n    tag_41:\n      swap2\n      swap1\n      pop\n      sstore\n      pop\n        /* \"contracts/Lektion2/LibraryLimit.sol\":247:436  function addBook(string memory bookTitle, string memory bookAuthor, uint16 bookYear) public {... */\n      pop\n      pop\n      pop\n      jump\t// out\n        /* \"#utility.yul\":7:82   */\n    tag_43:\n        /* \"#utility.yul\":40:46   */\n      0x00\n        /* \"#utility.yul\":73:75   */\n      0x40\n        /* \"#utility.yul\":67:76   */\n      mload\n        /* \"#utility.yul\":57:76   */\n      swap1\n      pop\n        /* \"#utility.yul\":7:82   */\n      swap1\n      jump\t// out\n        /* \"#utility.yul\":88:205   */\n    tag_44:\n        /* \"#utility.yul\":197:198   */\n      0x00\n        /* \"#utility.yul\":194:195   */\n      0x00\n        /* \"#utility.yul\":187:199   */\n      revert\n        /* \"#utility.yul\":211:328   */\n    tag_45:\n        /* \"#utility.yul\":320:321   */\n      0x00\n        /* \"#utility.yul\":317:318   */\n      0x00\n        /* \"#utility.yul\":310:322   */\n      revert\n        /* \"#utility.yul\":334:411   */\n    tag_46:\n        /* \"#utility.yul\":371:378   */\n      0x00\n        /* \"#utility.yul\":400:405   */\n      dup2\n        /* \"#utility.yul\":389:405   */\n      swap1\n      pop\n        /* \"#utility.yul\":334:411   */\n      swap2\n      swap1\n      pop\n      jump\t// out\n        /* \"#utility.yul\":417:539   */\n    tag_47:\n        /* \"#utility.yul\":490:514   */\n      tag_91\n        /* \"#utility.yul\":508:513   */\n      dup2\n        /* \"#utility.yul\":490:514   */\n      tag_46\n      jump\t// in\n    tag_91:\n        /* \"#utility.yul\":483:488   */\n      dup2\n        /* \"#utility.yul\":480:515   */\n      eq\n        /* \"#utility.yul\":470:533   */\n      tag_92\n      jumpi\n        /* \"#utility.yul\":529:530   */\n      0x00\n        /* \"#utility.yul\":526:527   */\n      0x00\n        /* \"#utility.yul\":519:531   */\n      revert\n        /* \"#utility.yul\":470:533   */\n    tag_92:\n        /* \"#utility.yul\":417:539   */\n      pop\n      jump\t// out\n        /* \"#utility.yul\":545:684   */\n    tag_48:\n        /* \"#utility.yul\":591:596   */\n      0x00\n        /* \"#utility.yul\":629:635   */\n      dup2\n        /* \"#utility.yul\":616:636   */\n      calldataload\n        /* \"#utility.yul\":607:636   */\n      swap1\n      pop\n        /* \"#utility.yul\":645:678   */\n      tag_94\n        /* \"#utility.yul\":672:677   */\n      dup2\n        /* \"#utility.yul\":645:678   */\n      tag_47\n      jump\t// in\n    tag_94:\n        /* \"#utility.yul\":545:684   */\n      swap3\n      swap2\n      pop\n      pop\n      jump\t// out\n        /* \"#utility.yul\":690:1019   */\n    tag_8:\n        /* \"#utility.yul\":749:755   */\n      0x00\n        /* \"#utility.yul\":798:800   */\n      0x20\n        /* \"#utility.yul\":786:795   */\n      dup3\n        /* \"#utility.yul\":777:784   */\n      dup5\n        /* \"#utility.yul\":773:796   */\n      sub\n        /* \"#utility.yul\":769:801   */\n      slt\n        /* \"#utility.yul\":766:885   */\n      iszero\n      tag_96\n      jumpi\n        /* \"#utility.yul\":804:883   */\n      tag_97\n      tag_44\n      jump\t// in\n    tag_97:\n        /* \"#utility.yul\":766:885   */\n    tag_96:\n        /* \"#utility.yul\":924:925   */\n      0x00\n        /* \"#utility.yul\":949:1002   */\n      tag_98\n        /* \"#utility.yul\":994:1001   */\n      dup5\n        /* \"#utility.yul\":985:991   */\n      dup3\n        /* \"#utility.yul\":974:983   */\n      dup6\n        /* \"#utility.yul\":970:992   */\n      add\n        /* \"#utility.yul\":949:1002   */\n      tag_48\n      jump\t// in\n    tag_98:\n        /* \"#utility.yul\":939:1002   */\n      swap2\n      pop\n        /* \"#utility.yul\":895:1012   */\n      pop\n        /* \"#utility.yul\":690:1019   */\n      swap3\n      swap2\n      pop\n      pop\n      jump\t// out\n        /* \"#utility.yul\":1025:1124   */\n    tag_49:\n        /* \"#utility.yul\":1077:1083   */\n      0x00\n        /* \"#utility.yul\":1111:1116   */\n      dup2\n        /* \"#utility.yul\":1105:1117   */\n      mload\n        /* \"#utility.yul\":1095:1117   */\n      swap1\n      pop\n        /* \"#utility.yul\":1025:1124   */\n      swap2\n      swap1\n      pop\n      jump\t// out\n        /* \"#utility.yul\":1130:1299   */\n    tag_50:\n        /* \"#utility.yul\":1214:1225   */\n      0x00\n        /* \"#utility.yul\":1248:1254   */\n      dup3\n        /* \"#utility.yul\":1243:1246   */\n      dup3\n        /* \"#utility.yul\":1236:1255   */\n      mstore\n        /* \"#utility.yul\":1288:1292   */\n      0x20\n        /* \"#utility.yul\":1283:1286   */\n      dup3\n        /* \"#utility.yul\":1279:1293   */\n      add\n        /* \"#utility.yul\":1264:1293   */\n      swap1\n      pop\n        /* \"#utility.yul\":1130:1299   */\n      swap3\n      swap2\n      pop\n      pop\n      jump\t// out\n        /* \"#utility.yul\":1305:1444   */\n    tag_51:\n        /* \"#utility.yul\":1394:1400   */\n      dup3\n        /* \"#utility.yul\":1389:1392   */\n      dup2\n        /* \"#utility.yul\":1384:1387   */\n      dup4\n        /* \"#utility.yul\":1378:1401   */\n      mcopy\n        /* \"#utility.yul\":1435:1436   */\n      0x00\n        /* \"#utility.yul\":1426:1432   */\n      dup4\n        /* \"#utility.yul\":1421:1424   */\n      dup4\n        /* \"#utility.yul\":1417:1433   */\n      add\n        /* \"#utility.yul\":1410:1437   */\n      mstore\n        /* \"#utility.yul\":1305:1444   */\n      pop\n      pop\n      pop\n      jump\t// out\n        /* \"#utility.yul\":1450:1552   */\n    tag_52:\n        /* \"#utility.yul\":1491:1497   */\n      0x00\n        /* \"#utility.yul\":1542:1544   */\n      0x1f\n        /* \"#utility.yul\":1538:1545   */\n      not\n        /* \"#utility.yul\":1533:1535   */\n      0x1f\n        /* \"#utility.yul\":1526:1531   */\n      dup4\n        /* \"#utility.yul\":1522:1536   */\n      add\n        /* \"#utility.yul\":1518:1546   */\n      and\n        /* \"#utility.yul\":1508:1546   */\n      swap1\n      pop\n        /* \"#utility.yul\":1450:1552   */\n      swap2\n      swap1\n      pop\n      jump\t// out\n        /* \"#utility.yul\":1558:1935   */\n    tag_53:\n        /* \"#utility.yul\":1646:1649   */\n      0x00\n        /* \"#utility.yul\":1674:1713   */\n      tag_104\n        /* \"#utility.yul\":1707:1712   */\n      dup3\n        /* \"#utility.yul\":1674:1713   */\n      tag_49\n      jump\t// in\n    tag_104:\n        /* \"#utility.yul\":1729:1800   */\n      tag_105\n        /* \"#utility.yul\":1793:1799   */\n      dup2\n        /* \"#utility.yul\":1788:1791   */\n      dup6\n        /* \"#utility.yul\":1729:1800   */\n      tag_50\n      jump\t// in\n    tag_105:\n        /* \"#utility.yul\":1722:1800   */\n      swap4\n      pop\n        /* \"#utility.yul\":1809:1874   */\n      tag_106\n        /* \"#utility.yul\":1867:1873   */\n      dup2\n        /* \"#utility.yul\":1862:1865   */\n      dup6\n        /* \"#utility.yul\":1855:1859   */\n      0x20\n        /* \"#utility.yul\":1848:1853   */\n      dup7\n        /* \"#utility.yul\":1844:1860   */\n      add\n        /* \"#utility.yul\":1809:1874   */\n      tag_51\n      jump\t// in\n    tag_106:\n        /* \"#utility.yul\":1899:1928   */\n      tag_107\n        /* \"#utility.yul\":1921:1927   */\n      dup2\n        /* \"#utility.yul\":1899:1928   */\n      tag_52\n      jump\t// in\n    tag_107:\n        /* \"#utility.yul\":1894:1897   */\n      dup5\n        /* \"#utility.yul\":1890:1929   */\n      add\n        /* \"#utility.yul\":1883:1929   */\n      swap2\n      pop\n        /* \"#utility.yul\":1650:1935   */\n      pop\n        /* \"#utility.yul\":1558:1935   */\n      swap3\n      swap2\n      pop\n      pop\n      jump\t// out\n        /* \"#utility.yul\":1941:2030   */\n    tag_54:\n        /* \"#utility.yul\":1977:1984   */\n      0x00\n        /* \"#utility.yul\":2017:2023   */\n      0xffff\n        /* \"#utility.yul\":2010:2015   */\n      dup3\n        /* \"#utility.yul\":2006:2024   */\n      and\n        /* \"#utility.yul\":1995:2024   */\n      swap1\n      pop\n        /* \"#utility.yul\":1941:2030   */\n      swap2\n      swap1\n      pop\n      jump\t// out\n        /* \"#utility.yul\":2036:2151   */\n    tag_55:\n        /* \"#utility.yul\":2121:2144   */\n      tag_110\n        /* \"#utility.yul\":2138:2143   */\n      dup2\n        /* \"#utility.yul\":2121:2144   */\n      tag_54\n      jump\t// in\n    tag_110:\n        /* \"#utility.yul\":2116:2119   */\n      dup3\n        /* \"#utility.yul\":2109:2145   */\n      mstore\n        /* \"#utility.yul\":2036:2151   */\n      pop\n      pop\n      jump\t// out\n        /* \"#utility.yul\":2157:2777   */\n    tag_11:\n        /* \"#utility.yul\":2344:2348   */\n      0x00\n        /* \"#utility.yul\":2382:2384   */\n      0x60\n        /* \"#utility.yul\":2371:2380   */\n      dup3\n        /* \"#utility.yul\":2367:2385   */\n      add\n        /* \"#utility.yul\":2359:2385   */\n      swap1\n      pop\n        /* \"#utility.yul\":2431:2440   */\n      dup2\n        /* \"#utility.yul\":2425:2429   */\n      dup2\n        /* \"#utility.yul\":2421:2441   */\n      sub\n        /* \"#utility.yul\":2417:2418   */\n      0x00\n        /* \"#utility.yul\":2406:2415   */\n      dup4\n        /* \"#utility.yul\":2402:2419   */\n      add\n        /* \"#utility.yul\":2395:2442   */\n      mstore\n        /* \"#utility.yul\":2459:2537   */\n      tag_112\n        /* \"#utility.yul\":2532:2536   */\n      dup2\n        /* \"#utility.yul\":2523:2529   */\n      dup7\n        /* \"#utility.yul\":2459:2537   */\n      tag_53\n      jump\t// in\n    tag_112:\n        /* \"#utility.yul\":2451:2537   */\n      swap1\n      pop\n        /* \"#utility.yul\":2584:2593   */\n      dup2\n        /* \"#utility.yul\":2578:2582   */\n      dup2\n        /* \"#utility.yul\":2574:2594   */\n      sub\n        /* \"#utility.yul\":2569:2571   */\n      0x20\n        /* \"#utility.yul\":2558:2567   */\n      dup4\n        /* \"#utility.yul\":2554:2572   */\n      add\n        /* \"#utility.yul\":2547:2595   */\n      mstore\n        /* \"#utility.yul\":2612:2690   */\n      tag_113\n        /* \"#utility.yul\":2685:2689   */\n      dup2\n        /* \"#utility.yul\":2676:2682   */\n      dup6\n        /* \"#utility.yul\":2612:2690   */\n      tag_53\n      jump\t// in\n    tag_113:\n        /* \"#utility.yul\":2604:2690   */\n      swap1\n      pop\n        /* \"#utility.yul\":2700:2770   */\n      tag_114\n        /* \"#utility.yul\":2766:2768   */\n      0x40\n        /* \"#utility.yul\":2755:2764   */\n      dup4\n        /* \"#utility.yul\":2751:2769   */\n      add\n        /* \"#utility.yul\":2742:2748   */\n      dup5\n        /* \"#utility.yul\":2700:2770   */\n      tag_55\n      jump\t// in\n    tag_114:\n        /* \"#utility.yul\":2157:2777   */\n      swap5\n      swap4\n      pop\n      pop\n      pop\n      pop\n      jump\t// out\n        /* \"#utility.yul\":2783:2901   */\n    tag_56:\n        /* \"#utility.yul\":2870:2894   */\n      tag_116\n        /* \"#utility.yul\":2888:2893   */\n      dup2\n        /* \"#utility.yul\":2870:2894   */\n      tag_46\n      jump\t// in\n    tag_116:\n        /* \"#utility.yul\":2865:2868   */\n      dup3\n        /* \"#utility.yul\":2858:2895   */\n      mstore\n        /* \"#utility.yul\":2783:2901   */\n      pop\n      pop\n      jump\t// out\n        /* \"#utility.yul\":2907:3129   */\n    tag_15:\n        /* \"#utility.yul\":3000:3004   */\n      0x00\n        /* \"#utility.yul\":3038:3040   */\n      0x20\n        /* \"#utility.yul\":3027:3036   */\n      dup3\n        /* \"#utility.yul\":3023:3041   */\n      add\n        /* \"#utility.yul\":3015:3041   */\n      swap1\n      pop\n        /* \"#utility.yul\":3051:3122   */\n      tag_118\n        /* \"#utility.yul\":3119:3120   */\n      0x00\n        /* \"#utility.yul\":3108:3117   */\n      dup4\n        /* \"#utility.yul\":3104:3121   */\n      add\n        /* \"#utility.yul\":3095:3101   */\n      dup5\n        /* \"#utility.yul\":3051:3122   */\n      tag_56\n      jump\t// in\n    tag_118:\n        /* \"#utility.yul\":2907:3129   */\n      swap3\n      swap2\n      pop\n      pop\n      jump\t// out\n        /* \"#utility.yul\":3135:3252   */\n    tag_57:\n        /* \"#utility.yul\":3244:3245   */\n      0x00\n        /* \"#utility.yul\":3241:3242   */\n      0x00\n        /* \"#utility.yul\":3234:3246   */\n      revert\n        /* \"#utility.yul\":3258:3375   */\n    tag_58:\n        /* \"#utility.yul\":3367:3368   */\n      0x00\n        /* \"#utility.yul\":3364:3365   */\n      0x00\n        /* \"#utility.yul\":3357:3369   */\n      revert\n        /* \"#utility.yul\":3381:3561   */\n    tag_59:\n        /* \"#utility.yul\":3429:3506   */\n      0x4e487b7100000000000000000000000000000000000000000000000000000000\n        /* \"#utility.yul\":3426:3427   */\n      0x00\n        /* \"#utility.yul\":3419:3507   */\n      mstore\n        /* \"#utility.yul\":3526:3530   */\n      0x41\n        /* \"#utility.yul\":3523:3524   */\n      0x04\n        /* \"#utility.yul\":3516:3531   */\n      mstore\n        /* \"#utility.yul\":3550:3554   */\n      0x24\n        /* \"#utility.yul\":3547:3548   */\n      0x00\n        /* \"#utility.yul\":3540:3555   */\n      revert\n        /* \"#utility.yul\":3567:3848   */\n    tag_60:\n        /* \"#utility.yul\":3650:3677   */\n      tag_123\n        /* \"#utility.yul\":3672:3676   */\n      dup3\n        /* \"#utility.yul\":3650:3677   */\n      tag_52\n      jump\t// in\n    tag_123:\n        /* \"#utility.yul\":3642:3648   */\n      dup2\n        /* \"#utility.yul\":3638:3678   */\n      add\n        /* \"#utility.yul\":3780:3786   */\n      dup2\n        /* \"#utility.yul\":3768:3778   */\n      dup2\n        /* \"#utility.yul\":3765:3787   */\n      lt\n        /* \"#utility.yul\":3744:3762   */\n      0xffffffffffffffff\n        /* \"#utility.yul\":3732:3742   */\n      dup3\n        /* \"#utility.yul\":3729:3763   */\n      gt\n        /* \"#utility.yul\":3726:3788   */\n      or\n        /* \"#utility.yul\":3723:3811   */\n      iszero\n      tag_124\n      jumpi\n        /* \"#utility.yul\":3791:3809   */\n      tag_125\n      tag_59\n      jump\t// in\n    tag_125:\n        /* \"#utility.yul\":3723:3811   */\n    tag_124:\n        /* \"#utility.yul\":3831:3841   */\n      dup1\n        /* \"#utility.yul\":3827:3829   */\n      0x40\n        /* \"#utility.yul\":3820:3842   */\n      mstore\n        /* \"#utility.yul\":3610:3848   */\n      pop\n        /* \"#utility.yul\":3567:3848   */\n      pop\n      pop\n      jump\t// out\n        /* \"#utility.yul\":3854:3983   */\n    tag_61:\n        /* \"#utility.yul\":3888:3894   */\n      0x00\n        /* \"#utility.yul\":3915:3935   */\n      tag_127\n      tag_43\n      jump\t// in\n    tag_127:\n        /* \"#utility.yul\":3905:3935   */\n      swap1\n      pop\n        /* \"#utility.yul\":3944:3977   */\n      tag_128\n        /* \"#utility.yul\":3972:3976   */\n      dup3\n        /* \"#utility.yul\":3964:3970   */\n      dup3\n        /* \"#utility.yul\":3944:3977   */\n      tag_60\n      jump\t// in\n    tag_128:\n        /* \"#utility.yul\":3854:3983   */\n      swap2\n      swap1\n      pop\n      jump\t// out\n        /* \"#utility.yul\":3989:4297   */\n    tag_62:\n        /* \"#utility.yul\":4051:4055   */\n      0x00\n        /* \"#utility.yul\":4141:4159   */\n      0xffffffffffffffff\n        /* \"#utility.yul\":4133:4139   */\n      dup3\n        /* \"#utility.yul\":4130:4160   */\n      gt\n        /* \"#utility.yul\":4127:4183   */\n      iszero\n      tag_130\n      jumpi\n        /* \"#utility.yul\":4163:4181   */\n      tag_131\n      tag_59\n      jump\t// in\n    tag_131:\n        /* \"#utility.yul\":4127:4183   */\n    tag_130:\n        /* \"#utility.yul\":4201:4230   */\n      tag_132\n        /* \"#utility.yul\":4223:4229   */\n      dup3\n        /* \"#utility.yul\":4201:4230   */\n      tag_52\n      jump\t// in\n    tag_132:\n        /* \"#utility.yul\":4193:4230   */\n      swap1\n      pop\n        /* \"#utility.yul\":4285:4289   */\n      0x20\n        /* \"#utility.yul\":4279:4283   */\n      dup2\n        /* \"#utility.yul\":4275:4290   */\n      add\n        /* \"#utility.yul\":4267:4290   */\n      swap1\n      pop\n        /* \"#utility.yul\":3989:4297   */\n      swap2\n      swap1\n      pop\n      jump\t// out\n        /* \"#utility.yul\":4303:4451   */\n    tag_63:\n        /* \"#utility.yul\":4401:4407   */\n      dup3\n        /* \"#utility.yul\":4396:4399   */\n      dup2\n        /* \"#utility.yul\":4391:4394   */\n      dup4\n        /* \"#utility.yul\":4378:4408   */\n      calldatacopy\n        /* \"#utility.yul\":4442:4443   */\n      0x00\n        /* \"#utility.yul\":4433:4439   */\n      dup4\n        /* \"#utility.yul\":4428:4431   */\n      dup4\n        /* \"#utility.yul\":4424:4440   */\n      add\n        /* \"#utility.yul\":4417:4444   */\n      mstore\n        /* \"#utility.yul\":4303:4451   */\n      pop\n      pop\n      pop\n      jump\t// out\n        /* \"#utility.yul\":4457:4882   */\n    tag_64:\n        /* \"#utility.yul\":4535:4540   */\n      0x00\n        /* \"#utility.yul\":4560:4626   */\n      tag_135\n        /* \"#utility.yul\":4576:4625   */\n      tag_136\n        /* \"#utility.yul\":4618:4624   */\n      dup5\n        /* \"#utility.yul\":4576:4625   */\n      tag_62\n      jump\t// in\n    tag_136:\n        /* \"#utility.yul\":4560:4626   */\n      tag_61\n      jump\t// in\n    tag_135:\n        /* \"#utility.yul\":4551:4626   */\n      swap1\n      pop\n        /* \"#utility.yul\":4649:4655   */\n      dup3\n        /* \"#utility.yul\":4642:4647   */\n      dup2\n        /* \"#utility.yul\":4635:4656   */\n      mstore\n        /* \"#utility.yul\":4687:4691   */\n      0x20\n        /* \"#utility.yul\":4680:4685   */\n      dup2\n        /* \"#utility.yul\":4676:4692   */\n      add\n        /* \"#utility.yul\":4725:4728   */\n      dup5\n        /* \"#utility.yul\":4716:4722   */\n      dup5\n        /* \"#utility.yul\":4711:4714   */\n      dup5\n        /* \"#utility.yul\":4707:4723   */\n      add\n        /* \"#utility.yul\":4704:4729   */\n      gt\n        /* \"#utility.yul\":4701:4813   */\n      iszero\n      tag_137\n      jumpi\n        /* \"#utility.yul\":4732:4811   */\n      tag_138\n      tag_58\n      jump\t// in\n    tag_138:\n        /* \"#utility.yul\":4701:4813   */\n    tag_137:\n        /* \"#utility.yul\":4822:4876   */\n      tag_139\n        /* \"#utility.yul\":4869:4875   */\n      dup5\n        /* \"#utility.yul\":4864:4867   */\n      dup3\n        /* \"#utility.yul\":4859:4862   */\n      dup6\n        /* \"#utility.yul\":4822:4876   */\n      tag_63\n      jump\t// in\n    tag_139:\n        /* \"#utility.yul\":4541:4882   */\n      pop\n        /* \"#utility.yul\":4457:4882   */\n      swap4\n      swap3\n      pop\n      pop\n      pop\n      jump\t// out\n        /* \"#utility.yul\":4902:5242   */\n    tag_65:\n        /* \"#utility.yul\":4958:4963   */\n      0x00\n        /* \"#utility.yul\":5007:5010   */\n      dup3\n        /* \"#utility.yul\":5000:5004   */\n      0x1f\n        /* \"#utility.yul\":4992:4998   */\n      dup4\n        /* \"#utility.yul\":4988:5005   */\n      add\n        /* \"#utility.yul\":4984:5011   */\n      slt\n        /* \"#utility.yul\":4974:5096   */\n      tag_141\n      jumpi\n        /* \"#utility.yul\":5015:5094   */\n      tag_142\n      tag_57\n      jump\t// in\n    tag_142:\n        /* \"#utility.yul\":4974:5096   */\n    tag_141:\n        /* \"#utility.yul\":5132:5138   */\n      dup2\n        /* \"#utility.yul\":5119:5139   */\n      calldataload\n        /* \"#utility.yul\":5157:5236   */\n      tag_143\n        /* \"#utility.yul\":5232:5235   */\n      dup5\n        /* \"#utility.yul\":5224:5230   */\n      dup3\n        /* \"#utility.yul\":5217:5221   */\n      0x20\n        /* \"#utility.yul\":5209:5215   */\n      dup7\n        /* \"#utility.yul\":5205:5222   */\n      add\n        /* \"#utility.yul\":5157:5236   */\n      tag_64\n      jump\t// in\n    tag_143:\n        /* \"#utility.yul\":5148:5236   */\n      swap2\n      pop\n        /* \"#utility.yul\":4964:5242   */\n      pop\n        /* \"#utility.yul\":4902:5242   */\n      swap3\n      swap2\n      pop\n      pop\n      jump\t// out\n        /* \"#utility.yul\":5248:5368   */\n    tag_66:\n        /* \"#utility.yul\":5320:5343   */\n      tag_145\n        /* \"#utility.yul\":5337:5342   */\n      dup2\n        /* \"#utility.yul\":5320:5343   */\n      tag_54\n      jump\t// in\n    tag_145:\n        /* \"#utility.yul\":5313:5318   */\n      dup2\n        /* \"#utility.yul\":5310:5344   */\n      eq\n        /* \"#utility.yul\":5300:5362   */\n      tag_146\n      jumpi\n        /* \"#utility.yul\":5358:5359   */\n      0x00\n        /* \"#utility.yul\":5355:5356   */\n      0x00\n        /* \"#utility.yul\":5348:5360   */\n      revert\n        /* \"#utility.yul\":5300:5362   */\n    tag_146:\n        /* \"#utility.yul\":5248:5368   */\n      pop\n      jump\t// out\n        /* \"#utility.yul\":5374:5511   */\n    tag_67:\n        /* \"#utility.yul\":5419:5424   */\n      0x00\n        /* \"#utility.yul\":5457:5463   */\n      dup2\n        /* \"#utility.yul\":5444:5464   */\n      calldataload\n        /* \"#utility.yul\":5435:5464   */\n      swap1\n      pop\n        /* \"#utility.yul\":5473:5505   */\n      tag_148\n        /* \"#utility.yul\":5499:5504   */\n      dup2\n        /* \"#utility.yul\":5473:5505   */\n      tag_66\n      jump\t// in\n    tag_148:\n        /* \"#utility.yul\":5374:5511   */\n      swap3\n      swap2\n      pop\n      pop\n      jump\t// out\n        /* \"#utility.yul\":5517:6494   */\n    tag_18:\n        /* \"#utility.yul\":5613:5619   */\n      0x00\n        /* \"#utility.yul\":5621:5627   */\n      0x00\n        /* \"#utility.yul\":5629:5635   */\n      0x00\n        /* \"#utility.yul\":5678:5680   */\n      0x60\n        /* \"#utility.yul\":5666:5675   */\n      dup5\n        /* \"#utility.yul\":5657:5664   */\n      dup7\n        /* \"#utility.yul\":5653:5676   */\n      sub\n        /* \"#utility.yul\":5649:5681   */\n      slt\n        /* \"#utility.yul\":5646:5765   */\n      iszero\n      tag_150\n      jumpi\n        /* \"#utility.yul\":5684:5763   */\n      tag_151\n      tag_44\n      jump\t// in\n    tag_151:\n        /* \"#utility.yul\":5646:5765   */\n    tag_150:\n        /* \"#utility.yul\":5832:5833   */\n      0x00\n        /* \"#utility.yul\":5821:5830   */\n      dup5\n        /* \"#utility.yul\":5817:5834   */\n      add\n        /* \"#utility.yul\":5804:5835   */\n      calldataload\n        /* \"#utility.yul\":5862:5880   */\n      0xffffffffffffffff\n        /* \"#utility.yul\":5854:5860   */\n      dup2\n        /* \"#utility.yul\":5851:5881   */\n      gt\n        /* \"#utility.yul\":5848:5965   */\n      iszero\n      tag_152\n      jumpi\n        /* \"#utility.yul\":5884:5963   */\n      tag_153\n      tag_45\n      jump\t// in\n    tag_153:\n        /* \"#utility.yul\":5848:5965   */\n    tag_152:\n        /* \"#utility.yul\":5989:6052   */\n      tag_154\n        /* \"#utility.yul\":6044:6051   */\n      dup7\n        /* \"#utility.yul\":6035:6041   */\n      dup3\n        /* \"#utility.yul\":6024:6033   */\n      dup8\n        /* \"#utility.yul\":6020:6042   */\n      add\n        /* \"#utility.yul\":5989:6052   */\n      tag_65\n      jump\t// in\n    tag_154:\n        /* \"#utility.yul\":5979:6052   */\n      swap4\n      pop\n        /* \"#utility.yul\":5775:6062   */\n      pop\n        /* \"#utility.yul\":6129:6131   */\n      0x20\n        /* \"#utility.yul\":6118:6127   */\n      dup5\n        /* \"#utility.yul\":6114:6132   */\n      add\n        /* \"#utility.yul\":6101:6133   */\n      calldataload\n        /* \"#utility.yul\":6160:6178   */\n      0xffffffffffffffff\n        /* \"#utility.yul\":6152:6158   */\n      dup2\n        /* \"#utility.yul\":6149:6179   */\n      gt\n        /* \"#utility.yul\":6146:6263   */\n      iszero\n      tag_155\n      jumpi\n        /* \"#utility.yul\":6182:6261   */\n      tag_156\n      tag_45\n      jump\t// in\n    tag_156:\n        /* \"#utility.yul\":6146:6263   */\n    tag_155:\n        /* \"#utility.yul\":6287:6350   */\n      tag_157\n        /* \"#utility.yul\":6342:6349   */\n      dup7\n        /* \"#utility.yul\":6333:6339   */\n      dup3\n        /* \"#utility.yul\":6322:6331   */\n      dup8\n        /* \"#utility.yul\":6318:6340   */\n      add\n        /* \"#utility.yul\":6287:6350   */\n      tag_65\n      jump\t// in\n    tag_157:\n        /* \"#utility.yul\":6277:6350   */\n      swap3\n      pop\n        /* \"#utility.yul\":6072:6360   */\n      pop\n        /* \"#utility.yul\":6399:6401   */\n      0x40\n        /* \"#utility.yul\":6425:6477   */\n      tag_158\n        /* \"#utility.yul\":6469:6476   */\n      dup7\n        /* \"#utility.yul\":6460:6466   */\n      dup3\n        /* \"#utility.yul\":6449:6458   */\n      dup8\n        /* \"#utility.yul\":6445:6467   */\n      add\n        /* \"#utility.yul\":6425:6477   */\n      tag_67\n      jump\t// in\n    tag_158:\n        /* \"#utility.yul\":6415:6477   */\n      swap2\n      pop\n        /* \"#utility.yul\":6370:6487   */\n      pop\n        /* \"#utility.yul\":5517:6494   */\n      swap3\n      pop\n      swap3\n      pop\n      swap3\n      jump\t// out\n        /* \"#utility.yul\":6500:6680   */\n    tag_68:\n        /* \"#utility.yul\":6548:6625   */\n      0x4e487b7100000000000000000000000000000000000000000000000000000000\n        /* \"#utility.yul\":6545:6546   */\n      0x00\n        /* \"#utility.yul\":6538:6626   */\n      mstore\n        /* \"#utility.yul\":6645:6649   */\n      0x22\n        /* \"#utility.yul\":6642:6643   */\n      0x04\n        /* \"#utility.yul\":6635:6650   */\n      mstore\n        /* \"#utility.yul\":6669:6673   */\n      0x24\n        /* \"#utility.yul\":6666:6667   */\n      0x00\n        /* \"#utility.yul\":6659:6674   */\n      revert\n        /* \"#utility.yul\":6686:7006   */\n    tag_23:\n        /* \"#utility.yul\":6730:6736   */\n      0x00\n        /* \"#utility.yul\":6767:6768   */\n      0x02\n        /* \"#utility.yul\":6761:6765   */\n      dup3\n        /* \"#utility.yul\":6757:6769   */\n      div\n        /* \"#utility.yul\":6747:6769   */\n      swap1\n      pop\n        /* \"#utility.yul\":6814:6815   */\n      0x01\n        /* \"#utility.yul\":6808:6812   */\n      dup3\n        /* \"#utility.yul\":6804:6816   */\n      and\n        /* \"#utility.yul\":6835:6853   */\n      dup1\n        /* \"#utility.yul\":6825:6906   */\n      tag_161\n      jumpi\n        /* \"#utility.yul\":6891:6895   */\n      0x7f\n        /* \"#utility.yul\":6883:6889   */\n      dup3\n        /* \"#utility.yul\":6879:6896   */\n      and\n        /* \"#utility.yul\":6869:6896   */\n      swap2\n      pop\n        /* \"#utility.yul\":6825:6906   */\n    tag_161:\n        /* \"#utility.yul\":6953:6955   */\n      0x20\n        /* \"#utility.yul\":6945:6951   */\n      dup3\n        /* \"#utility.yul\":6942:6956   */\n      lt\n        /* \"#utility.yul\":6922:6940   */\n      dup2\n        /* \"#utility.yul\":6919:6957   */\n      sub\n        /* \"#utility.yul\":6916:7000   */\n      tag_162\n      jumpi\n        /* \"#utility.yul\":6972:6990   */\n      tag_163\n      tag_68\n      jump\t// in\n    tag_163:\n        /* \"#utility.yul\":6916:7000   */\n    tag_162:\n        /* \"#utility.yul\":6737:7006   */\n      pop\n        /* \"#utility.yul\":6686:7006   */\n      swap2\n      swap1\n      pop\n      jump\t// out\n        /* \"#utility.yul\":7012:7192   */\n    tag_36:\n        /* \"#utility.yul\":7060:7137   */\n      0x4e487b7100000000000000000000000000000000000000000000000000000000\n        /* \"#utility.yul\":7057:7058   */\n      0x00\n        /* \"#utility.yul\":7050:7138   */\n      mstore\n        /* \"#utility.yul\":7157:7161   */\n      0x32\n        /* \"#utility.yul\":7154:7155   */\n      0x04\n        /* \"#utility.yul\":7147:7162   */\n      mstore\n        /* \"#utility.yul\":7181:7185   */\n      0x24\n        /* \"#utility.yul\":7178:7179   */\n      0x00\n        /* \"#utility.yul\":7171:7186   */\n      revert\n        /* \"#utility.yul\":7198:7339   */\n    tag_69:\n        /* \"#utility.yul\":7247:7251   */\n      0x00\n        /* \"#utility.yul\":7270:7273   */\n      dup2\n        /* \"#utility.yul\":7262:7273   */\n      swap1\n      pop\n        /* \"#utility.yul\":7293:7296   */\n      dup2\n        /* \"#utility.yul\":7290:7291   */\n      0x00\n        /* \"#utility.yul\":7283:7297   */\n      mstore\n        /* \"#utility.yul\":7327:7331   */\n      0x20\n        /* \"#utility.yul\":7324:7325   */\n      0x00\n        /* \"#utility.yul\":7314:7332   */\n      keccak256\n        /* \"#utility.yul\":7306:7332   */\n      swap1\n      pop\n        /* \"#utility.yul\":7198:7339   */\n      swap2\n      swap1\n      pop\n      jump\t// out\n        /* \"#utility.yul\":7345:7438   */\n    tag_70:\n        /* \"#utility.yul\":7382:7388   */\n      0x00\n        /* \"#utility.yul\":7429:7431   */\n      0x20\n        /* \"#utility.yul\":7424:7426   */\n      0x1f\n        /* \"#utility.yul\":7417:7422   */\n      dup4\n        /* \"#utility.yul\":7413:7427   */\n      add\n        /* \"#utility.yul\":7409:7432   */\n      div\n        /* \"#utility.yul\":7399:7432   */\n      swap1\n      pop\n        /* \"#utility.yul\":7345:7438   */\n      swap2\n      swap1\n      pop\n      jump\t// out\n        /* \"#utility.yul\":7444:7551   */\n    tag_71:\n        /* \"#utility.yul\":7488:7496   */\n      0x00\n        /* \"#utility.yul\":7538:7543   */\n      dup3\n        /* \"#utility.yul\":7532:7536   */\n      dup3\n        /* \"#utility.yul\":7528:7544   */\n      shl\n        /* \"#utility.yul\":7507:7544   */\n      swap1\n      pop\n        /* \"#utility.yul\":7444:7551   */\n      swap3\n      swap2\n      pop\n      pop\n      jump\t// out\n        /* \"#utility.yul\":7557:7950   */\n    tag_72:\n        /* \"#utility.yul\":7626:7632   */\n      0x00\n        /* \"#utility.yul\":7676:7677   */\n      0x08\n        /* \"#utility.yul\":7664:7674   */\n      dup4\n        /* \"#utility.yul\":7660:7678   */\n      mul\n        /* \"#utility.yul\":7699:7796   */\n      tag_169\n        /* \"#utility.yul\":7729:7795   */\n      0xffffffffffffffffffffffffffffffffffffffffffffffffffffffffffffffff\n        /* \"#utility.yul\":7718:7727   */\n      dup3\n        /* \"#utility.yul\":7699:7796   */\n      tag_71\n      jump\t// in\n    tag_169:\n        /* \"#utility.yul\":7817:7856   */\n      tag_170\n        /* \"#utility.yul\":7847:7855   */\n      dup7\n        /* \"#utility.yul\":7836:7845   */\n      dup4\n        /* \"#utility.yul\":7817:7856   */\n      tag_71\n      jump\t// in\n    tag_170:\n        /* \"#utility.yul\":7805:7856   */\n      swap6\n      pop\n        /* \"#utility.yul\":7889:7893   */\n      dup1\n        /* \"#utility.yul\":7885:7894   */\n      not\n        /* \"#utility.yul\":7878:7883   */\n      dup5\n        /* \"#utility.yul\":7874:7895   */\n      and\n        /* \"#utility.yul\":7865:7895   */\n      swap4\n      pop\n        /* \"#utility.yul\":7938:7942   */\n      dup1\n        /* \"#utility.yul\":7928:7936   */\n      dup7\n        /* \"#utility.yul\":7924:7943   */\n      and\n        /* \"#utility.yul\":7917:7922   */\n      dup5\n        /* \"#utility.yul\":7914:7944   */\n      or\n        /* \"#utility.yul\":7904:7944   */\n      swap3\n      pop\n        /* \"#utility.yul\":7633:7950   */\n      pop\n      pop\n        /* \"#utility.yul\":7557:7950   */\n      swap4\n      swap3\n      pop\n      pop\n      pop\n      jump\t// out\n        /* \"#utility.yul\":7956:8016   */\n    tag_73:\n        /* \"#utility.yul\":7984:7987   */\n      0x00\n        /* \"#utility.yul\":8005:8010   */\n      dup2\n        /* \"#utility.yul\":7998:8010   */\n      swap1\n      pop\n        /* \"#utility.yul\":7956:8016   */\n      swap2\n      swap1\n      pop\n      jump\t// out\n        /* \"#utility.yul\":8022:8164   */\n    tag_74:\n        /* \"#utility.yul\":8072:8081   */\n      0x00\n        /* \"#utility.yul\":8105:8158   */\n      tag_173\n        /* \"#utility.yul\":8123:8157   */\n      tag_174\n        /* \"#utility.yul\":8132:8156   */\n      tag_175\n        /* \"#utility.yul\":8150:8155   */\n      dup5\n        /* \"#utility.yul\":8132:8156   */\n      tag_46\n      jump\t// in\n    tag_175:\n        /* \"#utility.yul\":8123:8157   */\n      tag_73\n      jump\t// in\n    tag_174:\n        /* \"#utility.yul\":8105:8158   */\n      tag_46\n      jump\t// in\n    tag_173:\n        /* \"#utility.yul\":8092:8158   */\n      swap1\n      pop\n        /* \"#utility.yul\":8022:8164   */\n      swap2\n      swap1\n      pop\n      jump\t// out\n        /* \"#utility.yul\":8170:8245   */\n    tag_75:\n        /* \"#utility.yul\":8213:8216   */\n      0x00\n        /* \"#utility.yul\":8234:8239   */\n      dup2\n        /* \"#utility.yul\":8227:8239   */\n      swap1\n      pop\n        /* \"#utility.yul\":8170:8245   */\n      swap2\n      swap1\n      pop\n      jump\t// out\n        /* \"#utility.yul\":8251:8520   */\n    tag_76:\n        /* \"#utility.yul\":8361:8400   */\n      tag_178\n        /* \"#utility.yul\":8392:8399   */\n      dup4\n        /* \"#utility.yul\":8361:8400   */\n      tag_74\n      jump\t// in\n    tag_178:\n        /* \"#utility.yul\":8422:8513   */\n      tag_179\n        /* \"#utility.yul\":8471:8512   */\n      tag_180\n        /* \"#utility.yul\":8495:8511   */\n      dup3\n        /* \"#utility.yul\":8471:8512   */\n      tag_75\n      jump\t// in\n    tag_180:\n        /* \"#utility.yul\":8463:8469   */\n      dup5\n        /* \"#utility.yul\":8456:8460   */\n      dup5\n        /* \"#utility.yul\":8450:8461   */\n      sload\n        /* \"#utility.yul\":8422:8513   */\n      tag_72\n      jump\t// in\n    tag_179:\n        /* \"#utility.yul\":8416:8420   */\n      dup3\n        /* \"#utility.yul\":8409:8514   */\n      sstore\n        /* \"#utility.yul\":8327:8520   */\n      pop\n        /* \"#utility.yul\":8251:8520   */\n      pop\n      pop\n      pop\n      jump\t// out\n        /* \"#utility.yul\":8526:8599   */\n    tag_77:\n        /* \"#utility.yul\":8571:8574   */\n      0x00\n        /* \"#utility.yul\":8592:8593   */\n      0x00\n        /* \"#utility.yul\":8585:8593   */\n      swap1\n      pop\n        /* \"#utility.yul\":8526:8599   */\n      swap1\n      jump\t// out\n        /* \"#utility.yul\":8605:8794   */\n    tag_78:\n        /* \"#utility.yul\":8682:8714   */\n      tag_183\n      tag_77\n      jump\t// in\n    tag_183:\n        /* \"#utility.yul\":8723:8788   */\n      tag_184\n        /* \"#utility.yul\":8781:8787   */\n      dup2\n        /* \"#utility.yul\":8773:8779   */\n      dup5\n        /* \"#utility.yul\":8767:8771   */\n      dup5\n        /* \"#utility.yul\":8723:8788   */\n      tag_76\n      jump\t// in\n    tag_184:\n        /* \"#utility.yul\":8658:8794   */\n      pop\n        /* \"#utility.yul\":8605:8794   */\n      pop\n      pop\n      jump\t// out\n        /* \"#utility.yul\":8800:8986   */\n    tag_79:\n        /* \"#utility.yul\":8860:8980   */\n    tag_186:\n        /* \"#utility.yul\":8877:8880   */\n      dup2\n        /* \"#utility.yul\":8870:8875   */\n      dup2\n        /* \"#utility.yul\":8867:8881   */\n      lt\n        /* \"#utility.yul\":8860:8980   */\n      iszero\n      tag_188\n      jumpi\n        /* \"#utility.yul\":8931:8970   */\n      tag_189\n        /* \"#utility.yul\":8968:8969   */\n      0x00\n        /* \"#utility.yul\":8961:8966   */\n      dup3\n        /* \"#utility.yul\":8931:8970   */\n      tag_78\n      jump\t// in\n    tag_189:\n        /* \"#utility.yul\":8904:8905   */\n      0x01\n        /* \"#utility.yul\":8897:8902   */\n      dup2\n        /* \"#utility.yul\":8893:8906   */\n      add\n        /* \"#utility.yul\":8884:8906   */\n      swap1\n      pop\n        /* \"#utility.yul\":8860:8980   */\n      jump(tag_186)\n    tag_188:\n        /* \"#utility.yul\":8800:8986   */\n      pop\n      pop\n      jump\t// out\n        /* \"#utility.yul\":8992:9535   */\n    tag_80:\n        /* \"#utility.yul\":9093:9095   */\n      0x1f\n        /* \"#utility.yul\":9088:9091   */\n      dup3\n        /* \"#utility.yul\":9085:9096   */\n      gt\n        /* \"#utility.yul\":9082:9528   */\n      iszero\n      tag_191\n      jumpi\n        /* \"#utility.yul\":9127:9165   */\n      tag_192\n        /* \"#utility.yul\":9159:9164   */\n      dup2\n        /* \"#utility.yul\":9127:9165   */\n      tag_69\n      jump\t// in\n    tag_192:\n        /* \"#utility.yul\":9211:9240   */\n      tag_193\n        /* \"#utility.yul\":9229:9239   */\n      dup5\n        /* \"#utility.yul\":9211:9240   */\n      tag_70\n      jump\t// in\n    tag_193:\n        /* \"#utility.yul\":9201:9209   */\n      dup2\n        /* \"#utility.yul\":9197:9241   */\n      add\n        /* \"#utility.yul\":9394:9396   */\n      0x20\n        /* \"#utility.yul\":9382:9392   */\n      dup6\n        /* \"#utility.yul\":9379:9397   */\n      lt\n        /* \"#utility.yul\":9376:9425   */\n      iszero\n      tag_194\n      jumpi\n        /* \"#utility.yul\":9415:9423   */\n      dup2\n        /* \"#utility.yul\":9400:9423   */\n      swap1\n      pop\n        /* \"#utility.yul\":9376:9425   */\n    tag_194:\n        /* \"#utility.yul\":9438:9518   */\n      tag_195\n        /* \"#utility.yul\":9494:9516   */\n      tag_196\n        /* \"#utility.yul\":9512:9515   */\n      dup6\n        /* \"#utility.yul\":9494:9516   */\n      tag_70\n      jump\t// in\n    tag_196:\n        /* \"#utility.yul\":9484:9492   */\n      dup4\n        /* \"#utility.yul\":9480:9517   */\n      add\n        /* \"#utility.yul\":9467:9478   */\n      dup3\n        /* \"#utility.yul\":9438:9518   */\n      tag_79\n      jump\t// in\n    tag_195:\n        /* \"#utility.yul\":9097:9528   */\n      pop\n      pop\n        /* \"#utility.yul\":9082:9528   */\n    tag_191:\n        /* \"#utility.yul\":8992:9535   */\n      pop\n      pop\n      pop\n      jump\t// out\n        /* \"#utility.yul\":9541:9658   */\n    tag_81:\n        /* \"#utility.yul\":9595:9603   */\n      0x00\n        /* \"#utility.yul\":9645:9650   */\n      dup3\n        /* \"#utility.yul\":9639:9643   */\n      dup3\n        /* \"#utility.yul\":9635:9651   */\n      shr\n        /* \"#utility.yul\":9614:9651   */\n      swap1\n      pop\n        /* \"#utility.yul\":9541:9658   */\n      swap3\n      swap2\n      pop\n      pop\n      jump\t// out\n        /* \"#utility.yul\":9664:9833   */\n    tag_82:\n        /* \"#utility.yul\":9708:9714   */\n      0x00\n        /* \"#utility.yul\":9741:9792   */\n      tag_199\n        /* \"#utility.yul\":9789:9790   */\n      0x00\n        /* \"#utility.yul\":9785:9791   */\n      not\n        /* \"#utility.yul\":9777:9782   */\n      dup5\n        /* \"#utility.yul\":9774:9775   */\n      0x08\n        /* \"#utility.yul\":9770:9783   */\n      mul\n        /* \"#utility.yul\":9741:9792   */\n      tag_81\n      jump\t// in\n    tag_199:\n        /* \"#utility.yul\":9737:9793   */\n      not\n        /* \"#utility.yul\":9822:9826   */\n      dup1\n        /* \"#utility.yul\":9816:9820   */\n      dup4\n        /* \"#utility.yul\":9812:9827   */\n      and\n        /* \"#utility.yul\":9802:9827   */\n      swap2\n      pop\n        /* \"#utility.yul\":9715:9833   */\n      pop\n        /* \"#utility.yul\":9664:9833   */\n      swap3\n      swap2\n      pop\n      pop\n      jump\t// out\n        /* \"#utility.yul\":9838:10133   */\n    tag_83:\n        /* \"#utility.yul\":9914:9918   */\n      0x00\n        /* \"#utility.yul\":10060:10089   */\n      tag_201\n        /* \"#utility.yul\":10085:10088   */\n      dup4\n        /* \"#utility.yul\":10079:10083   */\n      dup4\n        /* \"#utility.yul\":10060:10089   */\n      tag_82\n      jump\t// in\n    tag_201:\n        /* \"#utility.yul\":10052:10089   */\n      swap2\n      pop\n        /* \"#utility.yul\":10122:10125   */\n      dup3\n        /* \"#utility.yul\":10119:10120   */\n      0x02\n        /* \"#utility.yul\":10115:10126   */\n      mul\n        /* \"#utility.yul\":10109:10113   */\n      dup3\n        /* \"#utility.yul\":10106:10127   */\n      or\n        /* \"#utility.yul\":10098:10127   */\n      swap1\n      pop\n        /* \"#utility.yul\":9838:10133   */\n      swap3\n      swap2\n      pop\n      pop\n      jump\t// out\n        /* \"#utility.yul\":10138:11533   */\n    tag_39:\n        /* \"#utility.yul\":10255:10292   */\n      tag_203\n        /* \"#utility.yul\":10288:10291   */\n      dup3\n        /* \"#utility.yul\":10255:10292   */\n      tag_49\n      jump\t// in\n    tag_203:\n        /* \"#utility.yul\":10357:10375   */\n      0xffffffffffffffff\n        /* \"#utility.yul\":10349:10355   */\n      dup2\n        /* \"#utility.yul\":10346:10376   */\n      gt\n        /* \"#utility.yul\":10343:10399   */\n      iszero\n      tag_204\n      jumpi\n        /* \"#utility.yul\":10379:10397   */\n      tag_205\n      tag_59\n      jump\t// in\n    tag_205:\n        /* \"#utility.yul\":10343:10399   */\n    tag_204:\n        /* \"#utility.yul\":10423:10461   */\n      tag_206\n        /* \"#utility.yul\":10455:10459   */\n      dup3\n        /* \"#utility.yul\":10449:10460   */\n      sload\n        /* \"#utility.yul\":10423:10461   */\n      tag_23\n      jump\t// in\n    tag_206:\n        /* \"#utility.yul\":10508:10575   */\n      tag_207\n        /* \"#utility.yul\":10568:10574   */\n      dup3\n        /* \"#utility.yul\":10560:10566   */\n      dup3\n        /* \"#utility.yul\":10554:10558   */\n      dup6\n        /* \"#utility.yul\":10508:10575   */\n      tag_80\n      jump\t// in\n    tag_207:\n        /* \"#utility.yul\":10602:10603   */\n      0x00\n        /* \"#utility.yul\":10626:10630   */\n      0x20\n        /* \"#utility.yul\":10613:10630   */\n      swap1\n      pop\n        /* \"#utility.yul\":10658:10660   */\n      0x1f\n        /* \"#utility.yul\":10650:10656   */\n      dup4\n        /* \"#utility.yul\":10647:10661   */\n      gt\n        /* \"#utility.yul\":10675:10676   */\n      0x01\n        /* \"#utility.yul\":10670:11288   */\n      dup2\n      eq\n      tag_209\n      jumpi\n        /* \"#utility.yul\":11332:11333   */\n      0x00\n        /* \"#utility.yul\":11349:11355   */\n      dup5\n        /* \"#utility.yul\":11346:11423   */\n      iszero\n      tag_210\n      jumpi\n        /* \"#utility.yul\":11398:11407   */\n      dup3\n        /* \"#utility.yul\":11393:11396   */\n      dup8\n        /* \"#utility.yul\":11389:11408   */\n      add\n        /* \"#utility.yul\":11383:11409   */\n      mload\n        /* \"#utility.yul\":11374:11409   */\n      swap1\n      pop\n        /* \"#utility.yul\":11346:11423   */\n    tag_210:\n        /* \"#utility.yul\":11449:11516   */\n      tag_211\n        /* \"#utility.yul\":11509:11515   */\n      dup6\n        /* \"#utility.yul\":11502:11507   */\n      dup3\n        /* \"#utility.yul\":11449:11516   */\n      tag_83\n      jump\t// in\n    tag_211:\n        /* \"#utility.yul\":11443:11447   */\n      dup7\n        /* \"#utility.yul\":11436:11517   */\n      sstore\n        /* \"#utility.yul\":11305:11527   */\n      pop\n        /* \"#utility.yul\":10640:11527   */\n      jump(tag_208)\n        /* \"#utility.yul\":10670:11288   */\n    tag_209:\n        /* \"#utility.yul\":10722:10726   */\n      0x1f\n        /* \"#utility.yul\":10718:10727   */\n      not\n        /* \"#utility.yul\":10710:10716   */\n      dup5\n        /* \"#utility.yul\":10706:10728   */\n      and\n        /* \"#utility.yul\":10756:10793   */\n      tag_212\n        /* \"#utility.yul\":10788:10792   */\n      dup7\n        /* \"#utility.yul\":10756:10793   */\n      tag_69\n      jump\t// in\n    tag_212:\n        /* \"#utility.yul\":10815:10816   */\n      0x00\n        /* \"#utility.yul\":10829:11037   */\n    tag_213:\n        /* \"#utility.yul\":10843:10850   */\n      dup3\n        /* \"#utility.yul\":10840:10841   */\n      dup2\n        /* \"#utility.yul\":10837:10851   */\n      lt\n        /* \"#utility.yul\":10829:11037   */\n      iszero\n      tag_215\n      jumpi\n        /* \"#utility.yul\":10922:10931   */\n      dup5\n        /* \"#utility.yul\":10917:10920   */\n      dup10\n        /* \"#utility.yul\":10913:10932   */\n      add\n        /* \"#utility.yul\":10907:10933   */\n      mload\n        /* \"#utility.yul\":10899:10905   */\n      dup3\n        /* \"#utility.yul\":10892:10934   */\n      sstore\n        /* \"#utility.yul\":10973:10974   */\n      0x01\n        /* \"#utility.yul\":10965:10971   */\n      dup3\n        /* \"#utility.yul\":10961:10975   */\n      add\n        /* \"#utility.yul\":10951:10975   */\n      swap2\n      pop\n        /* \"#utility.yul\":11020:11022   */\n      0x20\n        /* \"#utility.yul\":11009:11018   */\n      dup6\n        /* \"#utility.yul\":11005:11023   */\n      add\n        /* \"#utility.yul\":10992:11023   */\n      swap5\n      pop\n        /* \"#utility.yul\":10866:10870   */\n      0x20\n        /* \"#utility.yul\":10863:10864   */\n      dup2\n        /* \"#utility.yul\":10859:10871   */\n      add\n        /* \"#utility.yul\":10854:10871   */\n      swap1\n      pop\n        /* \"#utility.yul\":10829:11037   */\n      jump(tag_213)\n    tag_215:\n        /* \"#utility.yul\":11065:11071   */\n      dup7\n        /* \"#utility.yul\":11056:11063   */\n      dup4\n        /* \"#utility.yul\":11053:11072   */\n      lt\n        /* \"#utility.yul\":11050:11229   */\n      iszero\n      tag_216\n      jumpi\n        /* \"#utility.yul\":11123:11132   */\n      dup5\n        /* \"#utility.yul\":11118:11121   */\n      dup10\n        /* \"#utility.yul\":11114:11133   */\n      add\n        /* \"#utility.yul\":11108:11134   */\n      mload\n        /* \"#utility.yul\":11166:11214   */\n      tag_217\n        /* \"#utility.yul\":11208:11212   */\n      0x1f\n        /* \"#utility.yul\":11200:11206   */\n      dup10\n        /* \"#utility.yul\":11196:11213   */\n      and\n        /* \"#utility.yul\":11185:11194   */\n      dup3\n        /* \"#utility.yul\":11166:11214   */\n      tag_82\n      jump\t// in\n    tag_217:\n        /* \"#utility.yul\":11158:11164   */\n      dup4\n        /* \"#utility.yul\":11151:11215   */\n      sstore\n        /* \"#utility.yul\":11073:11229   */\n      pop\n        /* \"#utility.yul\":11050:11229   */\n    tag_216:\n        /* \"#utility.yul\":11275:11276   */\n      0x01\n        /* \"#utility.yul\":11271:11272   */\n      0x02\n        /* \"#utility.yul\":11263:11269   */\n      dup9\n        /* \"#utility.yul\":11259:11273   */\n      mul\n        /* \"#utility.yul\":11255:11277   */\n      add\n        /* \"#utility.yul\":11249:11253   */\n      dup9\n        /* \"#utility.yul\":11242:11278   */\n      sstore\n        /* \"#utility.yul\":10677:11288   */\n      pop\n      pop\n      pop\n        /* \"#utility.yul\":10640:11527   */\n    tag_208:\n      pop\n        /* \"#utility.yul\":10230:11533   */\n      pop\n      pop\n      pop\n        /* \"#utility.yul\":10138:11533   */\n      pop\n      pop\n      jump\t// out\n        /* \"#utility.yul\":11539:11719   */\n    tag_84:\n        /* \"#utility.yul\":11587:11664   */\n      0x4e487b7100000000000000000000000000000000000000000000000000000000\n        /* \"#utility.yul\":11584:11585   */\n      0x00\n        /* \"#utility.yul\":11577:11665   */\n      mstore\n        /* \"#utility.yul\":11684:11688   */\n      0x11\n        /* \"#utility.yul\":11681:11682   */\n      0x04\n        /* \"#utility.yul\":11674:11689   */\n      mstore\n        /* \"#utility.yul\":11708:11712   */\n      0x24\n        /* \"#utility.yul\":11705:11706   */\n      0x00\n        /* \"#utility.yul\":11698:11713   */\n      revert\n        /* \"#utility.yul\":11725:11958   */\n    tag_42:\n        /* \"#utility.yul\":11764:11767   */\n      0x00\n        /* \"#utility.yul\":11787:11811   */\n      tag_220\n        /* \"#utility.yul\":11805:11810   */\n      dup3\n        /* \"#utility.yul\":11787:11811   */\n      tag_46\n      jump\t// in\n    tag_220:\n        /* \"#utility.yul\":11778:11811   */\n      swap2\n      pop\n        /* \"#utility.yul\":11833:11899   */\n      0xffffffffffffffffffffffffffffffffffffffffffffffffffffffffffffffff\n        /* \"#utility.yul\":11826:11831   */\n      dup3\n        /* \"#utility.yul\":11823:11900   */\n      sub\n        /* \"#utility.yul\":11820:11923   */\n      tag_221\n      jumpi\n        /* \"#utility.yul\":11903:11921   */\n      tag_222\n      tag_84\n      jump\t// in\n    tag_222:\n        /* \"#utility.yul\":11820:11923   */\n    tag_221:\n        /* \"#utility.yul\":11950:11951   */\n      0x01\n        /* \"#utility.yul\":11943:11948   */\n      dup3\n        /* \"#utility.yul\":11939:11952   */\n      add\n        /* \"#utility.yul\":11932:11952   */\n      swap1\n      pop\n        /* \"#utility.yul\":11725:11958   */\n      swap2\n      swap1\n      pop\n      jump\t// out\n\n    auxdata: 0xa26469706673582212203c3b7a9692cbc05268e087fe0d7c3648d06657cfccd8499232c0cc8e004e92e364736f6c634300081f0033\n}\n",
				"bytecode": {
					"linkReferences": {},
					"object": "60806040525f600f553480156012575f5ffd5b50610984806100205f395ff3fe608060405234801561000f575f5ffd5b506004361061003f575f3560e01c80636874404614610043578063b905ad7814610075578063cd80723a14610093575b5f5ffd5b61005d600480360381019061005891906102e1565b6100af565b60405161006c93929190610398565b60405180910390f35b61007d6101f4565b60405161008a91906103ea565b60405180910390f35b6100ad60048036038101906100a89190610559565b6101fa565b005b5f81600581106100bd575f80fd5b600302015f91509050805f0180546100d49061060e565b80601f01602080910402602001604051908101604052809291908181526020018280546101009061060e565b801561014b5780601f106101225761010080835404028352916020019161014b565b820191905f5260205f20905b81548152906001019060200180831161012e57829003601f168201915b5050505050908060010180546101609061060e565b80601f016020809104026020016040519081016040528092919081815260200182805461018c9061060e565b80156101d75780601f106101ae576101008083540402835291602001916101d7565b820191905f5260205f20905b8154815290600101906020018083116101ba57829003601f168201915b505050505090806002015f9054906101000a900461ffff16905083565b600f5481565b60405180606001604052808481526020018381526020018261ffff168152505f600f546005811061022e5761022d61063e565b5b600302015f820151815f019081610245919061080b565b50602082015181600101908161025b919061080b565b506040820151816002015f6101000a81548161ffff021916908361ffff160217905550905050600f5f81548092919061029390610907565b9190505550505050565b5f604051905090565b5f5ffd5b5f5ffd5b5f819050919050565b6102c0816102ae565b81146102ca575f5ffd5b50565b5f813590506102db816102b7565b92915050565b5f602082840312156102f6576102f56102a6565b5b5f610303848285016102cd565b91505092915050565b5f81519050919050565b5f82825260208201905092915050565b8281835e5f83830152505050565b5f601f19601f8301169050919050565b5f61034e8261030c565b6103588185610316565b9350610368818560208601610326565b61037181610334565b840191505092915050565b5f61ffff82169050919050565b6103928161037c565b82525050565b5f6060820190508181035f8301526103b08186610344565b905081810360208301526103c48185610344565b90506103d36040830184610389565b949350505050565b6103e4816102ae565b82525050565b5f6020820190506103fd5f8301846103db565b92915050565b5f5ffd5b5f5ffd5b7f4e487b71000000000000000000000000000000000000000000000000000000005f52604160045260245ffd5b61044182610334565b810181811067ffffffffffffffff821117156104605761045f61040b565b5b80604052505050565b5f61047261029d565b905061047e8282610438565b919050565b5f67ffffffffffffffff82111561049d5761049c61040b565b5b6104a682610334565b9050602081019050919050565b828183375f83830152505050565b5f6104d36104ce84610483565b610469565b9050828152602081018484840111156104ef576104ee610407565b5b6104fa8482856104b3565b509392505050565b5f82601f83011261051657610515610403565b5b81356105268482602086016104c1565b91505092915050565b6105388161037c565b8114610542575f5ffd5b50565b5f813590506105538161052f565b92915050565b5f5f5f606084860312156105705761056f6102a6565b5b5f84013567ffffffffffffffff81111561058d5761058c6102aa565b5b61059986828701610502565b935050602084013567ffffffffffffffff8111156105ba576105b96102aa565b5b6105c686828701610502565b92505060406105d786828701610545565b9150509250925092565b7f4e487b71000000000000000000000000000000000000000000000000000000005f52602260045260245ffd5b5f600282049050600182168061062557607f821691505b602082108103610638576106376105e1565b5b50919050565b7f4e487b71000000000000000000000000000000000000000000000000000000005f52603260045260245ffd5b5f819050815f5260205f209050919050565b5f6020601f8301049050919050565b5f82821b905092915050565b5f600883026106c77fffffffffffffffffffffffffffffffffffffffffffffffffffffffffffffffff8261068c565b6106d1868361068c565b95508019841693508086168417925050509392505050565b5f819050919050565b5f61070c610707610702846102ae565b6106e9565b6102ae565b9050919050565b5f819050919050565b610725836106f2565b61073961073182610713565b848454610698565b825550505050565b5f5f905090565b610750610741565b61075b81848461071c565b505050565b5b8181101561077e576107735f82610748565b600181019050610761565b5050565b601f8211156107c3576107948161066b565b61079d8461067d565b810160208510156107ac578190505b6107c06107b88561067d565b830182610760565b50505b505050565b5f82821c905092915050565b5f6107e35f19846008026107c8565b1980831691505092915050565b5f6107fb83836107d4565b9150826002028217905092915050565b6108148261030c565b67ffffffffffffffff81111561082d5761082c61040b565b5b610837825461060e565b610842828285610782565b5f60209050601f831160018114610873575f8415610861578287015190505b61086b85826107f0565b8655506108d2565b601f1984166108818661066b565b5f5b828110156108a857848901518255600182019150602085019450602081019050610883565b868310156108c557848901516108c1601f8916826107d4565b8355505b6001600288020188555050505b505050505050565b7f4e487b71000000000000000000000000000000000000000000000000000000005f52601160045260245ffd5b5f610911826102ae565b91507fffffffffffffffffffffffffffffffffffffffffffffffffffffffffffffffff8203610943576109426108da565b5b60018201905091905056fea26469706673582212203c3b7a9692cbc05268e087fe0d7c3648d06657cfccd8499232c0cc8e004e92e364736f6c634300081f0033",
					"opcodes": "PUSH1 0x80 PUSH1 0x40 MSTORE PUSH0 PUSH1 0xF SSTORE CALLVALUE DUP1 ISZERO PUSH1 0x12 JUMPI PUSH0 PUSH0 REVERT JUMPDEST POP PUSH2 0x984 DUP1 PUSH2 0x20 PUSH0 CODECOPY PUSH0 RETURN INVALID PUSH1 0x80 PUSH1 0x40 MSTORE CALLVALUE DUP1 ISZERO PUSH2 0xF JUMPI PUSH0 PUSH0 REVERT JUMPDEST POP PUSH1 0x4 CALLDATASIZE LT PUSH2 0x3F JUMPI PUSH0 CALLDATALOAD PUSH1 0xE0 SHR DUP1 PUSH4 0x68744046 EQ PUSH2 0x43 JUMPI DUP1 PUSH4 0xB905AD78 EQ PUSH2 0x75 JUMPI DUP1 PUSH4 0xCD80723A EQ PUSH2 0x93 JUMPI JUMPDEST PUSH0 PUSH0 REVERT JUMPDEST PUSH2 0x5D PUSH1 0x4 DUP1 CALLDATASIZE SUB DUP2 ADD SWAP1 PUSH2 0x58 SWAP2 SWAP1 PUSH2 0x2E1 JUMP JUMPDEST PUSH2 0xAF JUMP JUMPDEST PUSH1 0x40 MLOAD PUSH2 0x6C SWAP4 SWAP3 SWAP2 SWAP1 PUSH2 0x398 JUMP JUMPDEST PUSH1 0x40 MLOAD DUP1 SWAP2 SUB SWAP1 RETURN JUMPDEST PUSH2 0x7D PUSH2 0x1F4 JUMP JUMPDEST PUSH1 0x40 MLOAD PUSH2 0x8A SWAP2 SWAP1 PUSH2 0x3EA JUMP JUMPDEST PUSH1 0x40 MLOAD DUP1 SWAP2 SUB SWAP1 RETURN JUMPDEST PUSH2 0xAD PUSH1 0x4 DUP1 CALLDATASIZE SUB DUP2 ADD SWAP1 PUSH2 0xA8 SWAP2 SWAP1 PUSH2 0x559 JUMP JUMPDEST PUSH2 0x1FA JUMP JUMPDEST STOP JUMPDEST PUSH0 DUP2 PUSH1 0x5 DUP2 LT PUSH2 0xBD JUMPI PUSH0 DUP1 REVERT JUMPDEST PUSH1 0x3 MUL ADD PUSH0 SWAP2 POP SWAP1 POP DUP1 PUSH0 ADD DUP1 SLOAD PUSH2 0xD4 SWAP1 PUSH2 0x60E JUMP JUMPDEST DUP1 PUSH1 0x1F ADD PUSH1 0x20 DUP1 SWAP2 DIV MUL PUSH1 0x20 ADD PUSH1 0x40 MLOAD SWAP1 DUP2 ADD PUSH1 0x40 MSTORE DUP1 SWAP3 SWAP2 SWAP1 DUP2 DUP2 MSTORE PUSH1 0x20 ADD DUP3 DUP1 SLOAD PUSH2 0x100 SWAP1 PUSH2 0x60E JUMP JUMPDEST DUP1 ISZERO PUSH2 0x14B JUMPI DUP1 PUSH1 0x1F LT PUSH2 0x122 JUMPI PUSH2 0x100 DUP1 DUP4 SLOAD DIV MUL DUP4 MSTORE SWAP2 PUSH1 0x20 ADD SWAP2 PUSH2 0x14B JUMP JUMPDEST DUP3 ADD SWAP2 SWAP1 PUSH0 MSTORE PUSH1 0x20 PUSH0 KECCAK256 SWAP1 JUMPDEST DUP2 SLOAD DUP2 MSTORE SWAP1 PUSH1 0x1 ADD SWAP1 PUSH1 0x20 ADD DUP1 DUP4 GT PUSH2 0x12E JUMPI DUP3 SWAP1 SUB PUSH1 0x1F AND DUP3 ADD SWAP2 JUMPDEST POP POP POP POP POP SWAP1 DUP1 PUSH1 0x1 ADD DUP1 SLOAD PUSH2 0x160 SWAP1 PUSH2 0x60E JUMP JUMPDEST DUP1 PUSH1 0x1F ADD PUSH1 0x20 DUP1 SWAP2 DIV MUL PUSH1 0x20 ADD PUSH1 0x40 MLOAD SWAP1 DUP2 ADD PUSH1 0x40 MSTORE DUP1 SWAP3 SWAP2 SWAP1 DUP2 DUP2 MSTORE PUSH1 0x20 ADD DUP3 DUP1 SLOAD PUSH2 0x18C SWAP1 PUSH2 0x60E JUMP JUMPDEST DUP1 ISZERO PUSH2 0x1D7 JUMPI DUP1 PUSH1 0x1F LT PUSH2 0x1AE JUMPI PUSH2 0x100 DUP1 DUP4 SLOAD DIV MUL DUP4 MSTORE SWAP2 PUSH1 0x20 ADD SWAP2 PUSH2 0x1D7 JUMP JUMPDEST DUP3 ADD SWAP2 SWAP1 PUSH0 MSTORE PUSH1 0x20 PUSH0 KECCAK256 SWAP1 JUMPDEST DUP2 SLOAD DUP2 MSTORE SWAP1 PUSH1 0x1 ADD SWAP1 PUSH1 0x20 ADD DUP1 DUP4 GT PUSH2 0x1BA JUMPI DUP3 SWAP1 SUB PUSH1 0x1F AND DUP3 ADD SWAP2 JUMPDEST POP POP POP POP POP SWAP1 DUP1 PUSH1 0x2 ADD PUSH0 SWAP1 SLOAD SWAP1 PUSH2 0x100 EXP SWAP1 DIV PUSH2 0xFFFF AND SWAP1 POP DUP4 JUMP JUMPDEST PUSH1 0xF SLOAD DUP2 JUMP JUMPDEST PUSH1 0x40 MLOAD DUP1 PUSH1 0x60 ADD PUSH1 0x40 MSTORE DUP1 DUP5 DUP2 MSTORE PUSH1 0x20 ADD DUP4 DUP2 MSTORE PUSH1 0x20 ADD DUP3 PUSH2 0xFFFF AND DUP2 MSTORE POP PUSH0 PUSH1 0xF SLOAD PUSH1 0x5 DUP2 LT PUSH2 0x22E JUMPI PUSH2 0x22D PUSH2 0x63E JUMP JUMPDEST JUMPDEST PUSH1 0x3 MUL ADD PUSH0 DUP3 ADD MLOAD DUP2 PUSH0 ADD SWAP1 DUP2 PUSH2 0x245 SWAP2 SWAP1 PUSH2 0x80B JUMP JUMPDEST POP PUSH1 0x20 DUP3 ADD MLOAD DUP2 PUSH1 0x1 ADD SWAP1 DUP2 PUSH2 0x25B SWAP2 SWAP1 PUSH2 0x80B JUMP JUMPDEST POP PUSH1 0x40 DUP3 ADD MLOAD DUP2 PUSH1 0x2 ADD PUSH0 PUSH2 0x100 EXP DUP2 SLOAD DUP2 PUSH2 0xFFFF MUL NOT AND SWAP1 DUP4 PUSH2 0xFFFF AND MUL OR SWAP1 SSTORE POP SWAP1 POP POP PUSH1 0xF PUSH0 DUP2 SLOAD DUP1 SWAP3 SWAP2 SWAP1 PUSH2 0x293 SWAP1 PUSH2 0x907 JUMP JUMPDEST SWAP2 SWAP1 POP SSTORE POP POP POP POP JUMP JUMPDEST PUSH0 PUSH1 0x40 MLOAD SWAP1 POP SWAP1 JUMP JUMPDEST PUSH0 PUSH0 REVERT JUMPDEST PUSH0 PUSH0 REVERT JUMPDEST PUSH0 DUP2 SWAP1 POP SWAP2 SWAP1 POP JUMP JUMPDEST PUSH2 0x2C0 DUP2 PUSH2 0x2AE JUMP JUMPDEST DUP2 EQ PUSH2 0x2CA JUMPI PUSH0 PUSH0 REVERT JUMPDEST POP JUMP JUMPDEST PUSH0 DUP2 CALLDATALOAD SWAP1 POP PUSH2 0x2DB DUP2 PUSH2 0x2B7 JUMP JUMPDEST SWAP3 SWAP2 POP POP JUMP JUMPDEST PUSH0 PUSH1 0x20 DUP3 DUP5 SUB SLT ISZERO PUSH2 0x2F6 JUMPI PUSH2 0x2F5 PUSH2 0x2A6 JUMP JUMPDEST JUMPDEST PUSH0 PUSH2 0x303 DUP5 DUP3 DUP6 ADD PUSH2 0x2CD JUMP JUMPDEST SWAP2 POP POP SWAP3 SWAP2 POP POP JUMP JUMPDEST PUSH0 DUP2 MLOAD SWAP1 POP SWAP2 SWAP1 POP JUMP JUMPDEST PUSH0 DUP3 DUP3 MSTORE PUSH1 0x20 DUP3 ADD SWAP1 POP SWAP3 SWAP2 POP POP JUMP JUMPDEST DUP3 DUP2 DUP4 MCOPY PUSH0 DUP4 DUP4 ADD MSTORE POP POP POP JUMP JUMPDEST PUSH0 PUSH1 0x1F NOT PUSH1 0x1F DUP4 ADD AND SWAP1 POP SWAP2 SWAP1 POP JUMP JUMPDEST PUSH0 PUSH2 0x34E DUP3 PUSH2 0x30C JUMP JUMPDEST PUSH2 0x358 DUP2 DUP6 PUSH2 0x316 JUMP JUMPDEST SWAP4 POP PUSH2 0x368 DUP2 DUP6 PUSH1 0x20 DUP7 ADD PUSH2 0x326 JUMP JUMPDEST PUSH2 0x371 DUP2 PUSH2 0x334 JUMP JUMPDEST DUP5 ADD SWAP2 POP POP SWAP3 SWAP2 POP POP JUMP JUMPDEST PUSH0 PUSH2 0xFFFF DUP3 AND SWAP1 POP SWAP2 SWAP1 POP JUMP JUMPDEST PUSH2 0x392 DUP2 PUSH2 0x37C JUMP JUMPDEST DUP3 MSTORE POP POP JUMP JUMPDEST PUSH0 PUSH1 0x60 DUP3 ADD SWAP1 POP DUP2 DUP2 SUB PUSH0 DUP4 ADD MSTORE PUSH2 0x3B0 DUP2 DUP7 PUSH2 0x344 JUMP JUMPDEST SWAP1 POP DUP2 DUP2 SUB PUSH1 0x20 DUP4 ADD MSTORE PUSH2 0x3C4 DUP2 DUP6 PUSH2 0x344 JUMP JUMPDEST SWAP1 POP PUSH2 0x3D3 PUSH1 0x40 DUP4 ADD DUP5 PUSH2 0x389 JUMP JUMPDEST SWAP5 SWAP4 POP POP POP POP JUMP JUMPDEST PUSH2 0x3E4 DUP2 PUSH2 0x2AE JUMP JUMPDEST DUP3 MSTORE POP POP JUMP JUMPDEST PUSH0 PUSH1 0x20 DUP3 ADD SWAP1 POP PUSH2 0x3FD PUSH0 DUP4 ADD DUP5 PUSH2 0x3DB JUMP JUMPDEST SWAP3 SWAP2 POP POP JUMP JUMPDEST PUSH0 PUSH0 REVERT JUMPDEST PUSH0 PUSH0 REVERT JUMPDEST PUSH32 0x4E487B7100000000000000000000000000000000000000000000000000000000 PUSH0 MSTORE PUSH1 0x41 PUSH1 0x4 MSTORE PUSH1 0x24 PUSH0 REVERT JUMPDEST PUSH2 0x441 DUP3 PUSH2 0x334 JUMP JUMPDEST DUP2 ADD DUP2 DUP2 LT PUSH8 0xFFFFFFFFFFFFFFFF DUP3 GT OR ISZERO PUSH2 0x460 JUMPI PUSH2 0x45F PUSH2 0x40B JUMP JUMPDEST JUMPDEST DUP1 PUSH1 0x40 MSTORE POP POP POP JUMP JUMPDEST PUSH0 PUSH2 0x472 PUSH2 0x29D JUMP JUMPDEST SWAP1 POP PUSH2 0x47E DUP3 DUP3 PUSH2 0x438 JUMP JUMPDEST SWAP2 SWAP1 POP JUMP JUMPDEST PUSH0 PUSH8 0xFFFFFFFFFFFFFFFF DUP3 GT ISZERO PUSH2 0x49D JUMPI PUSH2 0x49C PUSH2 0x40B JUMP JUMPDEST JUMPDEST PUSH2 0x4A6 DUP3 PUSH2 0x334 JUMP JUMPDEST SWAP1 POP PUSH1 0x20 DUP2 ADD SWAP1 POP SWAP2 SWAP1 POP JUMP JUMPDEST DUP3 DUP2 DUP4 CALLDATACOPY PUSH0 DUP4 DUP4 ADD MSTORE POP POP POP JUMP JUMPDEST PUSH0 PUSH2 0x4D3 PUSH2 0x4CE DUP5 PUSH2 0x483 JUMP JUMPDEST PUSH2 0x469 JUMP JUMPDEST SWAP1 POP DUP3 DUP2 MSTORE PUSH1 0x20 DUP2 ADD DUP5 DUP5 DUP5 ADD GT ISZERO PUSH2 0x4EF JUMPI PUSH2 0x4EE PUSH2 0x407 JUMP JUMPDEST JUMPDEST PUSH2 0x4FA DUP5 DUP3 DUP6 PUSH2 0x4B3 JUMP JUMPDEST POP SWAP4 SWAP3 POP POP POP JUMP JUMPDEST PUSH0 DUP3 PUSH1 0x1F DUP4 ADD SLT PUSH2 0x516 JUMPI PUSH2 0x515 PUSH2 0x403 JUMP JUMPDEST JUMPDEST DUP2 CALLDATALOAD PUSH2 0x526 DUP5 DUP3 PUSH1 0x20 DUP7 ADD PUSH2 0x4C1 JUMP JUMPDEST SWAP2 POP POP SWAP3 SWAP2 POP POP JUMP JUMPDEST PUSH2 0x538 DUP2 PUSH2 0x37C JUMP JUMPDEST DUP2 EQ PUSH2 0x542 JUMPI PUSH0 PUSH0 REVERT JUMPDEST POP JUMP JUMPDEST PUSH0 DUP2 CALLDATALOAD SWAP1 POP PUSH2 0x553 DUP2 PUSH2 0x52F JUMP JUMPDEST SWAP3 SWAP2 POP POP JUMP JUMPDEST PUSH0 PUSH0 PUSH0 PUSH1 0x60 DUP5 DUP7 SUB SLT ISZERO PUSH2 0x570 JUMPI PUSH2 0x56F PUSH2 0x2A6 JUMP JUMPDEST JUMPDEST PUSH0 DUP5 ADD CALLDATALOAD PUSH8 0xFFFFFFFFFFFFFFFF DUP2 GT ISZERO PUSH2 0x58D JUMPI PUSH2 0x58C PUSH2 0x2AA JUMP JUMPDEST JUMPDEST PUSH2 0x599 DUP7 DUP3 DUP8 ADD PUSH2 0x502 JUMP JUMPDEST SWAP4 POP POP PUSH1 0x20 DUP5 ADD CALLDATALOAD PUSH8 0xFFFFFFFFFFFFFFFF DUP2 GT ISZERO PUSH2 0x5BA JUMPI PUSH2 0x5B9 PUSH2 0x2AA JUMP JUMPDEST JUMPDEST PUSH2 0x5C6 DUP7 DUP3 DUP8 ADD PUSH2 0x502 JUMP JUMPDEST SWAP3 POP POP PUSH1 0x40 PUSH2 0x5D7 DUP7 DUP3 DUP8 ADD PUSH2 0x545 JUMP JUMPDEST SWAP2 POP POP SWAP3 POP SWAP3 POP SWAP3 JUMP JUMPDEST PUSH32 0x4E487B7100000000000000000000000000000000000000000000000000000000 PUSH0 MSTORE PUSH1 0x22 PUSH1 0x4 MSTORE PUSH1 0x24 PUSH0 REVERT JUMPDEST PUSH0 PUSH1 0x2 DUP3 DIV SWAP1 POP PUSH1 0x1 DUP3 AND DUP1 PUSH2 0x625 JUMPI PUSH1 0x7F DUP3 AND SWAP2 POP JUMPDEST PUSH1 0x20 DUP3 LT DUP2 SUB PUSH2 0x638 JUMPI PUSH2 0x637 PUSH2 0x5E1 JUMP JUMPDEST JUMPDEST POP SWAP2 SWAP1 POP JUMP JUMPDEST PUSH32 0x4E487B7100000000000000000000000000000000000000000000000000000000 PUSH0 MSTORE PUSH1 0x32 PUSH1 0x4 MSTORE PUSH1 0x24 PUSH0 REVERT JUMPDEST PUSH0 DUP2 SWAP1 POP DUP2 PUSH0 MSTORE PUSH1 0x20 PUSH0 KECCAK256 SWAP1 POP SWAP2 SWAP1 POP JUMP JUMPDEST PUSH0 PUSH1 0x20 PUSH1 0x1F DUP4 ADD DIV SWAP1 POP SWAP2 SWAP1 POP JUMP JUMPDEST PUSH0 DUP3 DUP3 SHL SWAP1 POP SWAP3 SWAP2 POP POP JUMP JUMPDEST PUSH0 PUSH1 0x8 DUP4 MUL PUSH2 0x6C7 PUSH32 0xFFFFFFFFFFFFFFFFFFFFFFFFFFFFFFFFFFFFFFFFFFFFFFFFFFFFFFFFFFFFFFFF DUP3 PUSH2 0x68C JUMP JUMPDEST PUSH2 0x6D1 DUP7 DUP4 PUSH2 0x68C JUMP JUMPDEST SWAP6 POP DUP1 NOT DUP5 AND SWAP4 POP DUP1 DUP7 AND DUP5 OR SWAP3 POP POP POP SWAP4 SWAP3 POP POP POP JUMP JUMPDEST PUSH0 DUP2 SWAP1 POP SWAP2 SWAP1 POP JUMP JUMPDEST PUSH0 PUSH2 0x70C PUSH2 0x707 PUSH2 0x702 DUP5 PUSH2 0x2AE JUMP JUMPDEST PUSH2 0x6E9 JUMP JUMPDEST PUSH2 0x2AE JUMP JUMPDEST SWAP1 POP SWAP2 SWAP1 POP JUMP JUMPDEST PUSH0 DUP2 SWAP1 POP SWAP2 SWAP1 POP JUMP JUMPDEST PUSH2 0x725 DUP4 PUSH2 0x6F2 JUMP JUMPDEST PUSH2 0x739 PUSH2 0x731 DUP3 PUSH2 0x713 JUMP JUMPDEST DUP5 DUP5 SLOAD PUSH2 0x698 JUMP JUMPDEST DUP3 SSTORE POP POP POP POP JUMP JUMPDEST PUSH0 PUSH0 SWAP1 POP SWAP1 JUMP JUMPDEST PUSH2 0x750 PUSH2 0x741 JUMP JUMPDEST PUSH2 0x75B DUP2 DUP5 DUP5 PUSH2 0x71C JUMP JUMPDEST POP POP POP JUMP JUMPDEST JUMPDEST DUP2 DUP2 LT ISZERO PUSH2 0x77E JUMPI PUSH2 0x773 PUSH0 DUP3 PUSH2 0x748 JUMP JUMPDEST PUSH1 0x1 DUP2 ADD SWAP1 POP PUSH2 0x761 JUMP JUMPDEST POP POP JUMP JUMPDEST PUSH1 0x1F DUP3 GT ISZERO PUSH2 0x7C3 JUMPI PUSH2 0x794 DUP2 PUSH2 0x66B JUMP JUMPDEST PUSH2 0x79D DUP5 PUSH2 0x67D JUMP JUMPDEST DUP2 ADD PUSH1 0x20 DUP6 LT ISZERO PUSH2 0x7AC JUMPI DUP2 SWAP1 POP JUMPDEST PUSH2 0x7C0 PUSH2 0x7B8 DUP6 PUSH2 0x67D JUMP JUMPDEST DUP4 ADD DUP3 PUSH2 0x760 JUMP JUMPDEST POP POP JUMPDEST POP POP POP JUMP JUMPDEST PUSH0 DUP3 DUP3 SHR SWAP1 POP SWAP3 SWAP2 POP POP JUMP JUMPDEST PUSH0 PUSH2 0x7E3 PUSH0 NOT DUP5 PUSH1 0x8 MUL PUSH2 0x7C8 JUMP JUMPDEST NOT DUP1 DUP4 AND SWAP2 POP POP SWAP3 SWAP2 POP POP JUMP JUMPDEST PUSH0 PUSH2 0x7FB DUP4 DUP4 PUSH2 0x7D4 JUMP JUMPDEST SWAP2 POP DUP3 PUSH1 0x2 MUL DUP3 OR SWAP1 POP SWAP3 SWAP2 POP POP JUMP JUMPDEST PUSH2 0x814 DUP3 PUSH2 0x30C JUMP JUMPDEST PUSH8 0xFFFFFFFFFFFFFFFF DUP2 GT ISZERO PUSH2 0x82D JUMPI PUSH2 0x82C PUSH2 0x40B JUMP JUMPDEST JUMPDEST PUSH2 0x837 DUP3 SLOAD PUSH2 0x60E JUMP JUMPDEST PUSH2 0x842 DUP3 DUP3 DUP6 PUSH2 0x782 JUMP JUMPDEST PUSH0 PUSH1 0x20 SWAP1 POP PUSH1 0x1F DUP4 GT PUSH1 0x1 DUP2 EQ PUSH2 0x873 JUMPI PUSH0 DUP5 ISZERO PUSH2 0x861 JUMPI DUP3 DUP8 ADD MLOAD SWAP1 POP JUMPDEST PUSH2 0x86B DUP6 DUP3 PUSH2 0x7F0 JUMP JUMPDEST DUP7 SSTORE POP PUSH2 0x8D2 JUMP JUMPDEST PUSH1 0x1F NOT DUP5 AND PUSH2 0x881 DUP7 PUSH2 0x66B JUMP JUMPDEST PUSH0 JUMPDEST DUP3 DUP2 LT ISZERO PUSH2 0x8A8 JUMPI DUP5 DUP10 ADD MLOAD DUP3 SSTORE PUSH1 0x1 DUP3 ADD SWAP2 POP PUSH1 0x20 DUP6 ADD SWAP5 POP PUSH1 0x20 DUP2 ADD SWAP1 POP PUSH2 0x883 JUMP JUMPDEST DUP7 DUP4 LT ISZERO PUSH2 0x8C5 JUMPI DUP5 DUP10 ADD MLOAD PUSH2 0x8C1 PUSH1 0x1F DUP10 AND DUP3 PUSH2 0x7D4 JUMP JUMPDEST DUP4 SSTORE POP JUMPDEST PUSH1 0x1 PUSH1 0x2 DUP9 MUL ADD DUP9 SSTORE POP POP POP JUMPDEST POP POP POP POP POP POP JUMP JUMPDEST PUSH32 0x4E487B7100000000000000000000000000000000000000000000000000000000 PUSH0 MSTORE PUSH1 0x11 PUSH1 0x4 MSTORE PUSH1 0x24 PUSH0 REVERT JUMPDEST PUSH0 PUSH2 0x911 DUP3 PUSH2 0x2AE JUMP JUMPDEST SWAP2 POP PUSH32 0xFFFFFFFFFFFFFFFFFFFFFFFFFFFFFFFFFFFFFFFFFFFFFFFFFFFFFFFFFFFFFFFF DUP3 SUB PUSH2 0x943 JUMPI PUSH2 0x942 PUSH2 0x8DA JUMP JUMPDEST JUMPDEST PUSH1 0x1 DUP3 ADD SWAP1 POP SWAP2 SWAP1 POP JUMP INVALID LOG2 PUSH5 0x6970667358 0x22 SLT KECCAK256 EXTCODECOPY EXTCODESIZE PUSH27 0x9692CBC05268E087FE0D7C3648D06657CFCCD8499232C0CC8E004E SWAP3 CALLF 0x6473 PUSH16 0x6C634300081F00330000000000000000 "
				},
				"gasEstimates": {
					"creation": {
						"codeDepositCost": "487200",
						"executionCost": "5527",
						"totalCost": "492727"
					},
					"external": {
						"addBook(string,string,uint16)": "infinite",
						"bookCount()": "2425",
						"books(uint256)": "infinite"
					}
				},
				"methodIdentifiers": {
					"addBook(string,string,uint16)": "cd80723a",
					"bookCount()": "b905ad78",
					"books(uint256)": "68744046"
				}
			},
			"storageLayout": {
				"storage": [
					{
						"astId": 13,
						"contract": "contracts/Lektion2/LibraryLimit.sol:LibraryLimit",
						"label": "books",
						"offset": 0,
						"slot": "0",
						"type": "t_array(t_struct(Book)8_storage)5_storage"
					},
					{
						"astId": 16,
						"contract": "contracts/Lektion2/LibraryLimit.sol:LibraryLimit",
						"label": "bookCount",
						"offset": 0,
						"slot": "15",
						"type": "t_uint256"
					}
				],
				"types": {
					"t_array(t_struct(Book)8_storage)5_storage": {
						"base": "t_struct(Book)8_storage",
						"encoding": "inplace",
						"label": "struct LibraryLimit.Book[5]",
						"numberOfBytes": "480"
					},
					"t_string_storage": {
						"encoding": "bytes",
						"label": "string",
						"numberOfBytes": "32"
					},
					"t_struct(Book)8_storage": {
						"encoding": "inplace",
						"label": "struct LibraryLimit.Book",
						"members": [
							{
								"astId": 3,
								"contract": "contracts/Lektion2/LibraryLimit.sol:LibraryLimit",
								"label": "Title",
								"offset": 0,
								"slot": "0",
								"type": "t_string_storage"
							},
							{
								"astId": 5,
								"contract": "contracts/Lektion2/LibraryLimit.sol:LibraryLimit",
								"label": "Author",
								"offset": 0,
								"slot": "1",
								"type": "t_string_storage"
							},
							{
								"astId": 7,
								"contract": "contracts/Lektion2/LibraryLimit.sol:LibraryLimit",
								"label": "year",
								"offset": 0,
								"slot": "2",
								"type": "t_uint16"
							}
						],
						"numberOfBytes": "96"
					},
					"t_uint16": {
						"encoding": "inplace",
						"label": "uint16",
						"numberOfBytes": "2"
					},
					"t_uint256": {
						"encoding": "inplace",
						"label": "uint256",
						"numberOfBytes": "32"
					}
				}
			},
			"userdoc": {
				"kind": "user",
				"methods": {},
				"version": 1
			}
		}
	}
}