{
	"contracts/Lektion4/Calculator.sol": {
		"Calculator": {
			"abi": [
				{
					"inputs": [
						{
							"internalType": "uint256",
							"name": "a",
							"type": "uint256"
						},
						{
							"internalType": "uint256",
							"name": "b",
							"type": "uint256"
						}
					],
					"name": "add",
					"outputs": [
						{
							"internalType": "uint256",
							"name": "",
							"type": "uint256"
						}
					],
					"stateMutability": "pure",
					"type": "function"
				},
				{
					"inputs": [
						{
							"internalType": "uint256",
							"name": "a",
							"type": "uint256"
						},
						{
							"internalType": "uint256",
							"name": "b",
							"type": "uint256"
						}
					],
					"name": "multiply",
					"outputs": [
						{
							"internalType": "uint256",
							"name": "",
							"type": "uint256"
						}
					],
					"stateMutability": "pure",
					"type": "function"
				},
				{
					"inputs": [
						{
							"internalType": "uint256",
							"name": "a",
							"type": "uint256"
						},
						{
							"internalType": "uint256",
							"name": "b",
							"type": "uint256"
						}
					],
					"name": "subtract",
					"outputs": [
						{
							"internalType": "uint256",
							"name": "",
							"type": "uint256"
						}
					],
					"stateMutability": "pure",
					"type": "function"
				}
			],
			"devdoc": {
				"kind": "dev",
				"methods": {},
				"version": 1
			},
			"evm": {
				"assembly": "    /* \"contracts/Lektion4/Calculator.sol\":391:897  contract Calculator {... */\n  mstore(0x40, 0x80)\n  callvalue\n  dup1\n  iszero\n  tag_1\n  jumpi\n  revert(0x00, 0x00)\ntag_1:\n  pop\n  dataSize(sub_0)\n  dup1\n  dataOffset(sub_0)\n  0x00\n  codecopy\n  0x00\n  return\nstop\n\nsub_0: assembly {\n        /* \"contracts/Lektion4/Calculator.sol\":391:897  contract Calculator {... */\n      mstore(0x40, 0x80)\n      callvalue\n      dup1\n      iszero\n      tag_1\n      jumpi\n      revert(0x00, 0x00)\n    tag_1:\n      pop\n      jumpi(tag_2, lt(calldatasize, 0x04))\n      shr(0xe0, calldataload(0x00))\n      dup1\n      0x165c4a16\n      eq\n      tag_3\n      jumpi\n      dup1\n      0x3ef5e445\n      eq\n      tag_4\n      jumpi\n      dup1\n      0x771602f7\n      eq\n      tag_5\n      jumpi\n    tag_2:\n      revert(0x00, 0x00)\n        /* \"contracts/Lektion4/Calculator.sol\":748:894  function multiply(uint a, uint b) public pure returns(uint) {... */\n    tag_3:\n      tag_6\n      0x04\n      dup1\n      calldatasize\n      sub\n      dup2\n      add\n      swap1\n      tag_7\n      swap2\n      swap1\n      tag_8\n      jump\t// in\n    tag_7:\n      tag_9\n      jump\t// in\n    tag_6:\n      mload(0x40)\n      tag_10\n      swap2\n      swap1\n      tag_11\n      jump\t// in\n    tag_10:\n      mload(0x40)\n      dup1\n      swap2\n      sub\n      swap1\n      return\n        /* \"contracts/Lektion4/Calculator.sol\":593:739  function subtract(uint a, uint b) public pure returns(uint) {... */\n    tag_4:\n      tag_12\n      0x04\n      dup1\n      calldatasize\n      sub\n      dup2\n      add\n      swap1\n      tag_13\n      swap2\n      swap1\n      tag_8\n      jump\t// in\n    tag_13:\n      tag_14\n      jump\t// in\n    tag_12:\n      mload(0x40)\n      tag_15\n      swap2\n      swap1\n      tag_11\n      jump\t// in\n    tag_15:\n      mload(0x40)\n      dup1\n      swap2\n      sub\n      swap1\n      return\n        /* \"contracts/Lektion4/Calculator.sol\":453:584  function add(uint a, uint b) public pure returns(uint) {... */\n    tag_5:\n      tag_16\n      0x04\n      dup1\n      calldatasize\n      sub\n      dup2\n      add\n      swap1\n      tag_17\n      swap2\n      swap1\n      tag_8\n      jump\t// in\n    tag_17:\n      tag_18\n      jump\t// in\n    tag_16:\n      mload(0x40)\n      tag_19\n      swap2\n      swap1\n      tag_11\n      jump\t// in\n    tag_19:\n      mload(0x40)\n      dup1\n      swap2\n      sub\n      swap1\n      return\n        /* \"contracts/Lektion4/Calculator.sol\":748:894  function multiply(uint a, uint b) public pure returns(uint) {... */\n    tag_9:\n        /* \"contracts/Lektion4/Calculator.sol\":802:806  uint */\n      0x00\n        /* \"contracts/Lektion4/Calculator.sol\":872:886  a._multiply(b) */\n      tag_21\n        /* \"contracts/Lektion4/Calculator.sol\":884:885  b */\n      dup3\n        /* \"contracts/Lektion4/Calculator.sol\":872:873  a */\n      dup5\n        /* \"contracts/Lektion4/Calculator.sol\":872:883  a._multiply */\n      tag_22\n      swap1\n        /* \"contracts/Lektion4/Calculator.sol\":872:886  a._multiply(b) */\n      swap2\n      swap1\n      0xffffffff\n      and\n      jump\t// in\n    tag_21:\n        /* \"contracts/Lektion4/Calculator.sol\":865:886  return a._multiply(b) */\n      swap1\n      pop\n        /* \"contracts/Lektion4/Calculator.sol\":748:894  function multiply(uint a, uint b) public pure returns(uint) {... */\n      swap3\n      swap2\n      pop\n      pop\n      jump\t// out\n        /* \"contracts/Lektion4/Calculator.sol\":593:739  function subtract(uint a, uint b) public pure returns(uint) {... */\n    tag_14:\n        /* \"contracts/Lektion4/Calculator.sol\":647:651  uint */\n      0x00\n        /* \"contracts/Lektion4/Calculator.sol\":717:731  a._subtract(b) */\n      tag_24\n        /* \"contracts/Lektion4/Calculator.sol\":729:730  b */\n      dup3\n        /* \"contracts/Lektion4/Calculator.sol\":717:718  a */\n      dup5\n        /* \"contracts/Lektion4/Calculator.sol\":717:728  a._subtract */\n      tag_25\n      swap1\n        /* \"contracts/Lektion4/Calculator.sol\":717:731  a._subtract(b) */\n      swap2\n      swap1\n      0xffffffff\n      and\n      jump\t// in\n    tag_24:\n        /* \"contracts/Lektion4/Calculator.sol\":710:731  return a._subtract(b) */\n      swap1\n      pop\n        /* \"contracts/Lektion4/Calculator.sol\":593:739  function subtract(uint a, uint b) public pure returns(uint) {... */\n      swap3\n      swap2\n      pop\n      pop\n      jump\t// out\n        /* \"contracts/Lektion4/Calculator.sol\":453:584  function add(uint a, uint b) public pure returns(uint) {... */\n    tag_18:\n        /* \"contracts/Lektion4/Calculator.sol\":502:506  uint */\n      0x00\n        /* \"contracts/Lektion4/Calculator.sol\":567:576  a._add(b) */\n      tag_27\n        /* \"contracts/Lektion4/Calculator.sol\":574:575  b */\n      dup3\n        /* \"contracts/Lektion4/Calculator.sol\":567:568  a */\n      dup5\n        /* \"contracts/Lektion4/Calculator.sol\":567:573  a._add */\n      tag_28\n      swap1\n        /* \"contracts/Lektion4/Calculator.sol\":567:576  a._add(b) */\n      swap2\n      swap1\n      0xffffffff\n      and\n      jump\t// in\n    tag_27:\n        /* \"contracts/Lektion4/Calculator.sol\":560:576  return a._add(b) */\n      swap1\n      pop\n        /* \"contracts/Lektion4/Calculator.sol\":453:584  function add(uint a, uint b) public pure returns(uint) {... */\n      swap3\n      swap2\n      pop\n      pop\n      jump\t// out\n        /* \"contracts/Lektion4/Calculator.sol\":290:384  function _multiply(uint a, uint b) internal pure returns(uint) {... */\n    tag_22:\n        /* \"contracts/Lektion4/Calculator.sol\":347:351  uint */\n      0x00\n        /* \"contracts/Lektion4/Calculator.sol\":375:376  b */\n      dup2\n        /* \"contracts/Lektion4/Calculator.sol\":371:372  a */\n      dup4\n        /* \"contracts/Lektion4/Calculator.sol\":371:376  a * b */\n      tag_30\n      swap2\n      swap1\n      tag_31\n      jump\t// in\n    tag_30:\n        /* \"contracts/Lektion4/Calculator.sol\":364:376  return a * b */\n      swap1\n      pop\n        /* \"contracts/Lektion4/Calculator.sol\":290:384  function _multiply(uint a, uint b) internal pure returns(uint) {... */\n      swap3\n      swap2\n      pop\n      pop\n      jump\t// out\n        /* \"contracts/Lektion4/Calculator.sol\":188:282  function _subtract(uint a, uint b) internal pure returns(uint) {... */\n    tag_25:\n        /* \"contracts/Lektion4/Calculator.sol\":245:249  uint */\n      0x00\n        /* \"contracts/Lektion4/Calculator.sol\":273:274  b */\n      dup2\n        /* \"contracts/Lektion4/Calculator.sol\":269:270  a */\n      dup4\n        /* \"contracts/Lektion4/Calculator.sol\":269:274  a - b */\n      tag_33\n      swap2\n      swap1\n      tag_34\n      jump\t// in\n    tag_33:\n        /* \"contracts/Lektion4/Calculator.sol\":262:274  return a - b */\n      swap1\n      pop\n        /* \"contracts/Lektion4/Calculator.sol\":188:282  function _subtract(uint a, uint b) internal pure returns(uint) {... */\n      swap3\n      swap2\n      pop\n      pop\n      jump\t// out\n        /* \"contracts/Lektion4/Calculator.sol\":87:176  function _add(uint a, uint b) internal pure returns(uint) {... */\n    tag_28:\n        /* \"contracts/Lektion4/Calculator.sol\":139:143  uint */\n      0x00\n        /* \"contracts/Lektion4/Calculator.sol\":167:168  b */\n      dup2\n        /* \"contracts/Lektion4/Calculator.sol\":163:164  a */\n      dup4\n        /* \"contracts/Lektion4/Calculator.sol\":163:168  a + b */\n      tag_36\n      swap2\n      swap1\n      tag_37\n      jump\t// in\n    tag_36:\n        /* \"contracts/Lektion4/Calculator.sol\":156:168  return a + b */\n      swap1\n      pop\n        /* \"contracts/Lektion4/Calculator.sol\":87:176  function _add(uint a, uint b) internal pure returns(uint) {... */\n      swap3\n      swap2\n      pop\n      pop\n      jump\t// out\n        /* \"#utility.yul\":88:205   */\n    tag_39:\n        /* \"#utility.yul\":197:198   */\n      0x00\n        /* \"#utility.yul\":194:195   */\n      0x00\n        /* \"#utility.yul\":187:199   */\n      revert\n        /* \"#utility.yul\":334:411   */\n    tag_41:\n        /* \"#utility.yul\":371:378   */\n      0x00\n        /* \"#utility.yul\":400:405   */\n      dup2\n        /* \"#utility.yul\":389:405   */\n      swap1\n      pop\n        /* \"#utility.yul\":334:411   */\n      swap2\n      swap1\n      pop\n      jump\t// out\n        /* \"#utility.yul\":417:539   */\n    tag_42:\n        /* \"#utility.yul\":490:514   */\n      tag_52\n        /* \"#utility.yul\":508:513   */\n      dup2\n        /* \"#utility.yul\":490:514   */\n      tag_41\n      jump\t// in\n    tag_52:\n        /* \"#utility.yul\":483:488   */\n      dup2\n        /* \"#utility.yul\":480:515   */\n      eq\n        /* \"#utility.yul\":470:533   */\n      tag_53\n      jumpi\n        /* \"#utility.yul\":529:530   */\n      0x00\n        /* \"#utility.yul\":526:527   */\n      0x00\n        /* \"#utility.yul\":519:531   */\n      revert\n        /* \"#utility.yul\":470:533   */\n    tag_53:\n        /* \"#utility.yul\":417:539   */\n      pop\n      jump\t// out\n        /* \"#utility.yul\":545:684   */\n    tag_43:\n        /* \"#utility.yul\":591:596   */\n      0x00\n        /* \"#utility.yul\":629:635   */\n      dup2\n        /* \"#utility.yul\":616:636   */\n      calldataload\n        /* \"#utility.yul\":607:636   */\n      swap1\n      pop\n        /* \"#utility.yul\":645:678   */\n      tag_55\n        /* \"#utility.yul\":672:677   */\n      dup2\n        /* \"#utility.yul\":645:678   */\n      tag_42\n      jump\t// in\n    tag_55:\n        /* \"#utility.yul\":545:684   */\n      swap3\n      swap2\n      pop\n      pop\n      jump\t// out\n        /* \"#utility.yul\":690:1164   */\n    tag_8:\n        /* \"#utility.yul\":758:764   */\n      0x00\n        /* \"#utility.yul\":766:772   */\n      0x00\n        /* \"#utility.yul\":815:817   */\n      0x40\n        /* \"#utility.yul\":803:812   */\n      dup4\n        /* \"#utility.yul\":794:801   */\n      dup6\n        /* \"#utility.yul\":790:813   */\n      sub\n        /* \"#utility.yul\":786:818   */\n      slt\n        /* \"#utility.yul\":783:902   */\n      iszero\n      tag_57\n      jumpi\n        /* \"#utility.yul\":821:900   */\n      tag_58\n      tag_39\n      jump\t// in\n    tag_58:\n        /* \"#utility.yul\":783:902   */\n    tag_57:\n        /* \"#utility.yul\":941:942   */\n      0x00\n        /* \"#utility.yul\":966:1019   */\n      tag_59\n        /* \"#utility.yul\":1011:1018   */\n      dup6\n        /* \"#utility.yul\":1002:1008   */\n      dup3\n        /* \"#utility.yul\":991:1000   */\n      dup7\n        /* \"#utility.yul\":987:1009   */\n      add\n        /* \"#utility.yul\":966:1019   */\n      tag_43\n      jump\t// in\n    tag_59:\n        /* \"#utility.yul\":956:1019   */\n      swap3\n      pop\n        /* \"#utility.yul\":912:1029   */\n      pop\n        /* \"#utility.yul\":1068:1070   */\n      0x20\n        /* \"#utility.yul\":1094:1147   */\n      tag_60\n        /* \"#utility.yul\":1139:1146   */\n      dup6\n        /* \"#utility.yul\":1130:1136   */\n      dup3\n        /* \"#utility.yul\":1119:1128   */\n      dup7\n        /* \"#utility.yul\":1115:1137   */\n      add\n        /* \"#utility.yul\":1094:1147   */\n      tag_43\n      jump\t// in\n    tag_60:\n        /* \"#utility.yul\":1084:1147   */\n      swap2\n      pop\n        /* \"#utility.yul\":1039:1157   */\n      pop\n        /* \"#utility.yul\":690:1164   */\n      swap3\n      pop\n      swap3\n      swap1\n      pop\n      jump\t// out\n        /* \"#utility.yul\":1170:1288   */\n    tag_44:\n        /* \"#utility.yul\":1257:1281   */\n      tag_62\n        /* \"#utility.yul\":1275:1280   */\n      dup2\n        /* \"#utility.yul\":1257:1281   */\n      tag_41\n      jump\t// in\n    tag_62:\n        /* \"#utility.yul\":1252:1255   */\n      dup3\n        /* \"#utility.yul\":1245:1282   */\n      mstore\n        /* \"#utility.yul\":1170:1288   */\n      pop\n      pop\n      jump\t// out\n        /* \"#utility.yul\":1294:1516   */\n    tag_11:\n        /* \"#utility.yul\":1387:1391   */\n      0x00\n        /* \"#utility.yul\":1425:1427   */\n      0x20\n        /* \"#utility.yul\":1414:1423   */\n      dup3\n        /* \"#utility.yul\":1410:1428   */\n      add\n        /* \"#utility.yul\":1402:1428   */\n      swap1\n      pop\n        /* \"#utility.yul\":1438:1509   */\n      tag_64\n        /* \"#utility.yul\":1506:1507   */\n      0x00\n        /* \"#utility.yul\":1495:1504   */\n      dup4\n        /* \"#utility.yul\":1491:1508   */\n      add\n        /* \"#utility.yul\":1482:1488   */\n      dup5\n        /* \"#utility.yul\":1438:1509   */\n      tag_44\n      jump\t// in\n    tag_64:\n        /* \"#utility.yul\":1294:1516   */\n      swap3\n      swap2\n      pop\n      pop\n      jump\t// out\n        /* \"#utility.yul\":1522:1702   */\n    tag_45:\n        /* \"#utility.yul\":1570:1647   */\n      0x4e487b7100000000000000000000000000000000000000000000000000000000\n        /* \"#utility.yul\":1567:1568   */\n      0x00\n        /* \"#utility.yul\":1560:1648   */\n      mstore\n        /* \"#utility.yul\":1667:1671   */\n      0x11\n        /* \"#utility.yul\":1664:1665   */\n      0x04\n        /* \"#utility.yul\":1657:1672   */\n      mstore\n        /* \"#utility.yul\":1691:1695   */\n      0x24\n        /* \"#utility.yul\":1688:1689   */\n      0x00\n        /* \"#utility.yul\":1681:1696   */\n      revert\n        /* \"#utility.yul\":1708:2118   */\n    tag_31:\n        /* \"#utility.yul\":1748:1755   */\n      0x00\n        /* \"#utility.yul\":1771:1791   */\n      tag_67\n        /* \"#utility.yul\":1789:1790   */\n      dup3\n        /* \"#utility.yul\":1771:1791   */\n      tag_41\n      jump\t// in\n    tag_67:\n        /* \"#utility.yul\":1766:1791   */\n      swap2\n      pop\n        /* \"#utility.yul\":1805:1825   */\n      tag_68\n        /* \"#utility.yul\":1823:1824   */\n      dup4\n        /* \"#utility.yul\":1805:1825   */\n      tag_41\n      jump\t// in\n    tag_68:\n        /* \"#utility.yul\":1800:1825   */\n      swap3\n      pop\n        /* \"#utility.yul\":1860:1861   */\n      dup3\n        /* \"#utility.yul\":1857:1858   */\n      dup3\n        /* \"#utility.yul\":1853:1862   */\n      mul\n        /* \"#utility.yul\":1882:1912   */\n      tag_69\n        /* \"#utility.yul\":1900:1911   */\n      dup2\n        /* \"#utility.yul\":1882:1912   */\n      tag_41\n      jump\t// in\n    tag_69:\n        /* \"#utility.yul\":1871:1912   */\n      swap2\n      pop\n        /* \"#utility.yul\":2061:2062   */\n      dup3\n        /* \"#utility.yul\":2052:2059   */\n      dup3\n        /* \"#utility.yul\":2048:2063   */\n      div\n        /* \"#utility.yul\":2045:2046   */\n      dup5\n        /* \"#utility.yul\":2042:2064   */\n      eq\n        /* \"#utility.yul\":2022:2023   */\n      dup4\n        /* \"#utility.yul\":2015:2024   */\n      iszero\n        /* \"#utility.yul\":1995:2078   */\n      or\n        /* \"#utility.yul\":1972:2111   */\n      tag_70\n      jumpi\n        /* \"#utility.yul\":2091:2109   */\n      tag_71\n      tag_45\n      jump\t// in\n    tag_71:\n        /* \"#utility.yul\":1972:2111   */\n    tag_70:\n        /* \"#utility.yul\":1756:2118   */\n      pop\n        /* \"#utility.yul\":1708:2118   */\n      swap3\n      swap2\n      pop\n      pop\n      jump\t// out\n        /* \"#utility.yul\":2124:2318   */\n    tag_34:\n        /* \"#utility.yul\":2164:2168   */\n      0x00\n        /* \"#utility.yul\":2184:2204   */\n      tag_73\n        /* \"#utility.yul\":2202:2203   */\n      dup3\n        /* \"#utility.yul\":2184:2204   */\n      tag_41\n      jump\t// in\n    tag_73:\n        /* \"#utility.yul\":2179:2204   */\n      swap2\n      pop\n        /* \"#utility.yul\":2218:2238   */\n      tag_74\n        /* \"#utility.yul\":2236:2237   */\n      dup4\n        /* \"#utility.yul\":2218:2238   */\n      tag_41\n      jump\t// in\n    tag_74:\n        /* \"#utility.yul\":2213:2238   */\n      swap3\n      pop\n        /* \"#utility.yul\":2262:2263   */\n      dup3\n        /* \"#utility.yul\":2259:2260   */\n      dup3\n        /* \"#utility.yul\":2255:2264   */\n      sub\n        /* \"#utility.yul\":2247:2264   */\n      swap1\n      pop\n        /* \"#utility.yul\":2286:2287   */\n      dup2\n        /* \"#utility.yul\":2280:2284   */\n      dup2\n        /* \"#utility.yul\":2277:2288   */\n      gt\n        /* \"#utility.yul\":2274:2311   */\n      iszero\n      tag_75\n      jumpi\n        /* \"#utility.yul\":2291:2309   */\n      tag_76\n      tag_45\n      jump\t// in\n    tag_76:\n        /* \"#utility.yul\":2274:2311   */\n    tag_75:\n        /* \"#utility.yul\":2124:2318   */\n      swap3\n      swap2\n      pop\n      pop\n      jump\t// out\n        /* \"#utility.yul\":2324:2515   */\n    tag_37:\n        /* \"#utility.yul\":2364:2367   */\n      0x00\n        /* \"#utility.yul\":2383:2403   */\n      tag_78\n        /* \"#utility.yul\":2401:2402   */\n      dup3\n        /* \"#utility.yul\":2383:2403   */\n      tag_41\n      jump\t// in\n    tag_78:\n        /* \"#utility.yul\":2378:2403   */\n      swap2\n      pop\n        /* \"#utility.yul\":2417:2437   */\n      tag_79\n        /* \"#utility.yul\":2435:2436   */\n      dup4\n        /* \"#utility.yul\":2417:2437   */\n      tag_41\n      jump\t// in\n    tag_79:\n        /* \"#utility.yul\":2412:2437   */\n      swap3\n      pop\n        /* \"#utility.yul\":2460:2461   */\n      dup3\n        /* \"#utility.yul\":2457:2458   */\n      dup3\n        /* \"#utility.yul\":2453:2462   */\n      add\n        /* \"#utility.yul\":2446:2462   */\n      swap1\n      pop\n        /* \"#utility.yul\":2481:2484   */\n      dup1\n        /* \"#utility.yul\":2478:2479   */\n      dup3\n        /* \"#utility.yul\":2475:2485   */\n      gt\n        /* \"#utility.yul\":2472:2508   */\n      iszero\n      tag_80\n      jumpi\n        /* \"#utility.yul\":2488:2506   */\n      tag_81\n      tag_45\n      jump\t// in\n    tag_81:\n        /* \"#utility.yul\":2472:2508   */\n    tag_80:\n        /* \"#utility.yul\":2324:2515   */\n      swap3\n      swap2\n      pop\n      pop\n      jump\t// out\n\n    auxdata: 0xa2646970667358221220e3d24838e0be7de2b191d4c05954f90d9f4a65bc2aea446d0130dcc429692bd364736f6c634300081f0033\n}\n",
				"bytecode": {
					"linkReferences": {},
					"object": "6080604052348015600e575f5ffd5b5061030d8061001c5f395ff3fe608060405234801561000f575f5ffd5b506004361061003f575f3560e01c8063165c4a16146100435780633ef5e44514610073578063771602f7146100a3575b5f5ffd5b61005d6004803603810190610058919061019d565b6100d3565b60405161006a91906101ea565b60405180910390f35b61008d6004803603810190610088919061019d565b6100ef565b60405161009a91906101ea565b60405180910390f35b6100bd60048036038101906100b8919061019d565b61010b565b6040516100ca91906101ea565b60405180910390f35b5f6100e7828461012790919063ffffffff16565b905092915050565b5f610103828461013c90919063ffffffff16565b905092915050565b5f61011f828461015190919063ffffffff16565b905092915050565b5f81836101349190610230565b905092915050565b5f81836101499190610271565b905092915050565b5f818361015e91906102a4565b905092915050565b5f5ffd5b5f819050919050565b61017c8161016a565b8114610186575f5ffd5b50565b5f8135905061019781610173565b92915050565b5f5f604083850312156101b3576101b2610166565b5b5f6101c085828601610189565b92505060206101d185828601610189565b9150509250929050565b6101e48161016a565b82525050565b5f6020820190506101fd5f8301846101db565b92915050565b7f4e487b71000000000000000000000000000000000000000000000000000000005f52601160045260245ffd5b5f61023a8261016a565b91506102458361016a565b92508282026102538161016a565b9150828204841483151761026a57610269610203565b5b5092915050565b5f61027b8261016a565b91506102868361016a565b925082820390508181111561029e5761029d610203565b5b92915050565b5f6102ae8261016a565b91506102b98361016a565b92508282019050808211156102d1576102d0610203565b5b9291505056fea2646970667358221220e3d24838e0be7de2b191d4c05954f90d9f4a65bc2aea446d0130dcc429692bd364736f6c634300081f0033",
					"opcodes": "PUSH1 0x80 PUSH1 0x40 MSTORE CALLVALUE DUP1 ISZERO PUSH1 0xE JUMPI PUSH0 PUSH0 REVERT JUMPDEST POP PUSH2 0x30D DUP1 PUSH2 0x1C PUSH0 CODECOPY PUSH0 RETURN INVALID PUSH1 0x80 PUSH1 0x40 MSTORE CALLVALUE DUP1 ISZERO PUSH2 0xF JUMPI PUSH0 PUSH0 REVERT JUMPDEST POP PUSH1 0x4 CALLDATASIZE LT PUSH2 0x3F JUMPI PUSH0 CALLDATALOAD PUSH1 0xE0 SHR DUP1 PUSH4 0x165C4A16 EQ PUSH2 0x43 JUMPI DUP1 PUSH4 0x3EF5E445 EQ PUSH2 0x73 JUMPI DUP1 PUSH4 0x771602F7 EQ PUSH2 0xA3 JUMPI JUMPDEST PUSH0 PUSH0 REVERT JUMPDEST PUSH2 0x5D PUSH1 0x4 DUP1 CALLDATASIZE SUB DUP2 ADD SWAP1 PUSH2 0x58 SWAP2 SWAP1 PUSH2 0x19D JUMP JUMPDEST PUSH2 0xD3 JUMP JUMPDEST PUSH1 0x40 MLOAD PUSH2 0x6A SWAP2 SWAP1 PUSH2 0x1EA JUMP JUMPDEST PUSH1 0x40 MLOAD DUP1 SWAP2 SUB SWAP1 RETURN JUMPDEST PUSH2 0x8D PUSH1 0x4 DUP1 CALLDATASIZE SUB DUP2 ADD SWAP1 PUSH2 0x88 SWAP2 SWAP1 PUSH2 0x19D JUMP JUMPDEST PUSH2 0xEF JUMP JUMPDEST PUSH1 0x40 MLOAD PUSH2 0x9A SWAP2 SWAP1 PUSH2 0x1EA JUMP JUMPDEST PUSH1 0x40 MLOAD DUP1 SWAP2 SUB SWAP1 RETURN JUMPDEST PUSH2 0xBD PUSH1 0x4 DUP1 CALLDATASIZE SUB DUP2 ADD SWAP1 PUSH2 0xB8 SWAP2 SWAP1 PUSH2 0x19D JUMP JUMPDEST PUSH2 0x10B JUMP JUMPDEST PUSH1 0x40 MLOAD PUSH2 0xCA SWAP2 SWAP1 PUSH2 0x1EA JUMP JUMPDEST PUSH1 0x40 MLOAD DUP1 SWAP2 SUB SWAP1 RETURN JUMPDEST PUSH0 PUSH2 0xE7 DUP3 DUP5 PUSH2 0x127 SWAP1 SWAP2 SWAP1 PUSH4 0xFFFFFFFF AND JUMP JUMPDEST SWAP1 POP SWAP3 SWAP2 POP POP JUMP JUMPDEST PUSH0 PUSH2 0x103 DUP3 DUP5 PUSH2 0x13C SWAP1 SWAP2 SWAP1 PUSH4 0xFFFFFFFF AND JUMP JUMPDEST SWAP1 POP SWAP3 SWAP2 POP POP JUMP JUMPDEST PUSH0 PUSH2 0x11F DUP3 DUP5 PUSH2 0x151 SWAP1 SWAP2 SWAP1 PUSH4 0xFFFFFFFF AND JUMP JUMPDEST SWAP1 POP SWAP3 SWAP2 POP POP JUMP JUMPDEST PUSH0 DUP2 DUP4 PUSH2 0x134 SWAP2 SWAP1 PUSH2 0x230 JUMP JUMPDEST SWAP1 POP SWAP3 SWAP2 POP POP JUMP JUMPDEST PUSH0 DUP2 DUP4 PUSH2 0x149 SWAP2 SWAP1 PUSH2 0x271 JUMP JUMPDEST SWAP1 POP SWAP3 SWAP2 POP POP JUMP JUMPDEST PUSH0 DUP2 DUP4 PUSH2 0x15E SWAP2 SWAP1 PUSH2 0x2A4 JUMP JUMPDEST SWAP1 POP SWAP3 SWAP2 POP POP JUMP JUMPDEST PUSH0 PUSH0 REVERT JUMPDEST PUSH0 DUP2 SWAP1 POP SWAP2 SWAP1 POP JUMP JUMPDEST PUSH2 0x17C DUP2 PUSH2 0x16A JUMP JUMPDEST DUP2 EQ PUSH2 0x186 JUMPI PUSH0 PUSH0 REVERT JUMPDEST POP JUMP JUMPDEST PUSH0 DUP2 CALLDATALOAD SWAP1 POP PUSH2 0x197 DUP2 PUSH2 0x173 JUMP JUMPDEST SWAP3 SWAP2 POP POP JUMP JUMPDEST PUSH0 PUSH0 PUSH1 0x40 DUP4 DUP6 SUB SLT ISZERO PUSH2 0x1B3 JUMPI PUSH2 0x1B2 PUSH2 0x166 JUMP JUMPDEST JUMPDEST PUSH0 PUSH2 0x1C0 DUP6 DUP3 DUP7 ADD PUSH2 0x189 JUMP JUMPDEST SWAP3 POP POP PUSH1 0x20 PUSH2 0x1D1 DUP6 DUP3 DUP7 ADD PUSH2 0x189 JUMP JUMPDEST SWAP2 POP POP SWAP3 POP SWAP3 SWAP1 POP JUMP JUMPDEST PUSH2 0x1E4 DUP2 PUSH2 0x16A JUMP JUMPDEST DUP3 MSTORE POP POP JUMP JUMPDEST PUSH0 PUSH1 0x20 DUP3 ADD SWAP1 POP PUSH2 0x1FD PUSH0 DUP4 ADD DUP5 PUSH2 0x1DB JUMP JUMPDEST SWAP3 SWAP2 POP POP JUMP JUMPDEST PUSH32 0x4E487B7100000000000000000000000000000000000000000000000000000000 PUSH0 MSTORE PUSH1 0x11 PUSH1 0x4 MSTORE PUSH1 0x24 PUSH0 REVERT JUMPDEST PUSH0 PUSH2 0x23A DUP3 PUSH2 0x16A JUMP JUMPDEST SWAP2 POP PUSH2 0x245 DUP4 PUSH2 0x16A JUMP JUMPDEST SWAP3 POP DUP3 DUP3 MUL PUSH2 0x253 DUP2 PUSH2 0x16A JUMP JUMPDEST SWAP2 POP DUP3 DUP3 DIV DUP5 EQ DUP4 ISZERO OR PUSH2 0x26A JUMPI PUSH2 0x269 PUSH2 0x203 JUMP JUMPDEST JUMPDEST POP SWAP3 SWAP2 POP POP JUMP JUMPDEST PUSH0 PUSH2 0x27B DUP3 PUSH2 0x16A JUMP JUMPDEST SWAP2 POP PUSH2 0x286 DUP4 PUSH2 0x16A JUMP JUMPDEST SWAP3 POP DUP3 DUP3 SUB SWAP1 POP DUP2 DUP2 GT ISZERO PUSH2 0x29E JUMPI PUSH2 0x29D PUSH2 0x203 JUMP JUMPDEST JUMPDEST SWAP3 SWAP2 POP POP JUMP JUMPDEST PUSH0 PUSH2 0x2AE DUP3 PUSH2 0x16A JUMP JUMPDEST SWAP2 POP PUSH2 0x2B9 DUP4 PUSH2 0x16A JUMP JUMPDEST SWAP3 POP DUP3 DUP3 ADD SWAP1 POP DUP1 DUP3 GT ISZERO PUSH2 0x2D1 JUMPI PUSH2 0x2D0 PUSH2 0x203 JUMP JUMPDEST JUMPDEST SWAP3 SWAP2 POP POP JUMP INVALID LOG2 PUSH5 0x6970667358 0x22 SLT KECCAK256 CALLF 0xD248 CODESIZE RJUMP 0xBE7D 0xE2 0xB1 SWAP2 0xD4 0xC0 MSIZE SLOAD EXTDELEGATECALL 0xD SWAP16 BLOBBASEFEE PUSH6 0xBC2AEA446D01 ADDRESS 0xDC 0xC4 0x29 PUSH10 0x2BD364736F6C63430008 0x1F STOP CALLER "
				},
				"gasEstimates": {
					"creation": {
						"codeDepositCost": "156200",
						"executionCost": "200",
						"totalCost": "156400"
					},
					"external": {
						"add(uint256,uint256)": "infinite",
						"multiply(uint256,uint256)": "infinite",
						"subtract(uint256,uint256)": "infinite"
					}
				},
				"methodIdentifiers": {
					"add(uint256,uint256)": "771602f7",
					"multiply(uint256,uint256)": "165c4a16",
					"subtract(uint256,uint256)": "3ef5e445"
				}
			},
			"storageLayout": {
				"storage": [],
				"types": null
			},
			"userdoc": {
				"kind": "user",
				"methods": {},
				"version": 1
			}
		}
	}
}