{
	"contracts/Lektion4/Wallet.sol": {
		"Wallet": {
			"abi": [
				{
					"anonymous": false,
					"inputs": [
						{
							"indexed": true,
							"internalType": "address",
							"name": "accountAddress",
							"type": "address"
						},
						{
							"indexed": false,
							"internalType": "uint256",
							"name": "amount",
							"type": "uint256"
						}
					],
					"name": "DepositMade",
					"type": "event"
				},
				{
					"anonymous": false,
					"inputs": [
						{
							"indexed": true,
							"internalType": "address",
							"name": "accountAddress",
							"type": "address"
						},
						{
							"indexed": false,
							"internalType": "uint256",
							"name": "amount",
							"type": "uint256"
						}
					],
					"name": "WithdrawalMade",
					"type": "event"
				},
				{
					"inputs": [],
					"name": "contractBalance",
					"outputs": [
						{
							"internalType": "uint256",
							"name": "",
							"type": "uint256"
						}
					],
					"stateMutability": "view",
					"type": "function"
				},
				{
					"inputs": [],
					"name": "deposit",
					"outputs": [],
					"stateMutability": "payable",
					"type": "function"
				},
				{
					"inputs": [
						{
							"internalType": "uint256",
							"name": "withdrawAmount",
							"type": "uint256"
						}
					],
					"name": "withdrawal",
					"outputs": [],
					"stateMutability": "nonpayable",
					"type": "function"
				}
			],
			"devdoc": {
				"kind": "dev",
				"methods": {},
				"version": 1
			},
			"evm": {
				"assembly": "    /* \"contracts/Lektion4/Wallet.sol\":60:1546  contract Wallet {... */\n  mstore(0x40, 0x80)\n  callvalue\n  dup1\n  iszero\n  tag_1\n  jumpi\n  revert(0x00, 0x00)\ntag_1:\n  pop\n  dataSize(sub_0)\n  dup1\n  dataOffset(sub_0)\n  0x00\n  codecopy\n  0x00\n  return\nstop\n\nsub_0: assembly {\n        /* \"contracts/Lektion4/Wallet.sol\":60:1546  contract Wallet {... */\n      mstore(0x40, 0x80)\n      jumpi(tag_1, lt(calldatasize, 0x04))\n      shr(0xe0, calldataload(0x00))\n      dup1\n      0x835fc6ca\n      eq\n      tag_2\n      jumpi\n      dup1\n      0x8b7afe2e\n      eq\n      tag_3\n      jumpi\n      dup1\n      0xd0e30db0\n      eq\n      tag_4\n      jumpi\n    tag_1:\n      revert(0x00, 0x00)\n        /* \"contracts/Lektion4/Wallet.sol\":956:1543  function withdrawal(uint withdrawAmount) public noReentrancy hasSufficientBalance(withdrawAmount) {... */\n    tag_2:\n      callvalue\n      dup1\n      iszero\n      tag_5\n      jumpi\n      revert(0x00, 0x00)\n    tag_5:\n      pop\n      tag_6\n      0x04\n      dup1\n      calldatasize\n      sub\n      dup2\n      add\n      swap1\n      tag_7\n      swap2\n      swap1\n      tag_8\n      jump\t// in\n    tag_7:\n      tag_9\n      jump\t// in\n    tag_6:\n      stop\n        /* \"contracts/Lektion4/Wallet.sol\":83:110  uint public contractBalance */\n    tag_3:\n      callvalue\n      dup1\n      iszero\n      tag_10\n      jumpi\n      revert(0x00, 0x00)\n    tag_10:\n      pop\n      tag_11\n      tag_12\n      jump\t// in\n    tag_11:\n      mload(0x40)\n      tag_13\n      swap2\n      swap1\n      tag_14\n      jump\t// in\n    tag_13:\n      mload(0x40)\n      dup1\n      swap2\n      sub\n      swap1\n      return\n        /* \"contracts/Lektion4/Wallet.sol\":709:948  function deposit() public payable {... */\n    tag_4:\n      tag_15\n      tag_16\n      jump\t// in\n    tag_15:\n      stop\n        /* \"contracts/Lektion4/Wallet.sol\":956:1543  function withdrawal(uint withdrawAmount) public noReentrancy hasSufficientBalance(withdrawAmount) {... */\n    tag_9:\n        /* \"contracts/Lektion4/Wallet.sol\":383:390  _locked */\n      0x02\n      0x00\n      swap1\n      sload\n      swap1\n      0x0100\n      exp\n      swap1\n      div\n      0xff\n      and\n        /* \"contracts/Lektion4/Wallet.sol\":382:390  !_locked */\n      iszero\n        /* \"contracts/Lektion4/Wallet.sol\":374:437  require(!_locked, \"Stop making reentrancy calls. Please hold!\") */\n      tag_18\n      jumpi\n      mload(0x40)\n      0x08c379a000000000000000000000000000000000000000000000000000000000\n      dup2\n      mstore\n      0x04\n      add\n      tag_19\n      swap1\n      tag_20\n      jump\t// in\n    tag_19:\n      mload(0x40)\n      dup1\n      swap2\n      sub\n      swap1\n      revert\n    tag_18:\n        /* \"contracts/Lektion4/Wallet.sol\":458:462  true */\n      0x01\n        /* \"contracts/Lektion4/Wallet.sol\":448:455  _locked */\n      0x02\n      0x00\n        /* \"contracts/Lektion4/Wallet.sol\":448:462  _locked = true */\n      0x0100\n      exp\n      dup2\n      sload\n      dup2\n      0xff\n      mul\n      not\n      and\n      swap1\n      dup4\n      iszero\n      iszero\n      mul\n      or\n      swap1\n      sstore\n      pop\n        /* \"contracts/Lektion4/Wallet.sol\":1038:1052  withdrawAmount */\n      dup1\n        /* \"contracts/Lektion4/Wallet.sol\":611:625  withdrawAmount */\n      dup1\n        /* \"contracts/Lektion4/Wallet.sol\":586:595  _balances */\n      0x01\n        /* \"contracts/Lektion4/Wallet.sol\":586:607  _balances[msg.sender] */\n      0x00\n        /* \"contracts/Lektion4/Wallet.sol\":596:606  msg.sender */\n      caller\n        /* \"contracts/Lektion4/Wallet.sol\":586:607  _balances[msg.sender] */\n      0xffffffffffffffffffffffffffffffffffffffff\n      and\n      0xffffffffffffffffffffffffffffffffffffffff\n      and\n      dup2\n      mstore\n      0x20\n      add\n      swap1\n      dup2\n      mstore\n      0x20\n      add\n      0x00\n      keccak256\n      sload\n        /* \"contracts/Lektion4/Wallet.sol\":586:625  _balances[msg.sender] >= withdrawAmount */\n      lt\n      iszero\n        /* \"contracts/Lektion4/Wallet.sol\":578:681  require(_balances[msg.sender] >= withdrawAmount, \"You have an insufficient balance, please try again!\") */\n      tag_22\n      jumpi\n      mload(0x40)\n      0x08c379a000000000000000000000000000000000000000000000000000000000\n      dup2\n      mstore\n      0x04\n      add\n      tag_23\n      swap1\n      tag_24\n      jump\t// in\n    tag_23:\n      mload(0x40)\n      dup1\n      swap2\n      sub\n      swap1\n      revert\n    tag_22:\n        /* \"contracts/Lektion4/Wallet.sol\":1085:1092  1 ether */\n      0x0de0b6b3a7640000\n        /* \"contracts/Lektion4/Wallet.sol\":1068:1082  withdrawAmount */\n      dup3\n        /* \"contracts/Lektion4/Wallet.sol\":1068:1092  withdrawAmount > 1 ether */\n      gt\n        /* \"contracts/Lektion4/Wallet.sol\":1065:1176  if(withdrawAmount > 1 ether) {... */\n      iszero\n      tag_26\n      jumpi\n        /* \"contracts/Lektion4/Wallet.sol\":1109:1164  revert(\"You cannot withdraw more than 1 ETH at a time\") */\n      mload(0x40)\n      0x08c379a000000000000000000000000000000000000000000000000000000000\n      dup2\n      mstore\n      0x04\n      add\n      tag_27\n      swap1\n      tag_28\n      jump\t// in\n    tag_27:\n      mload(0x40)\n      dup1\n      swap2\n      sub\n      swap1\n      revert\n        /* \"contracts/Lektion4/Wallet.sol\":1065:1176  if(withdrawAmount > 1 ether) {... */\n    tag_26:\n        /* \"contracts/Lektion4/Wallet.sol\":1213:1227  withdrawAmount */\n      dup2\n        /* \"contracts/Lektion4/Wallet.sol\":1188:1197  _balances */\n      0x01\n        /* \"contracts/Lektion4/Wallet.sol\":1188:1209  _balances[msg.sender] */\n      0x00\n        /* \"contracts/Lektion4/Wallet.sol\":1198:1208  msg.sender */\n      caller\n        /* \"contracts/Lektion4/Wallet.sol\":1188:1209  _balances[msg.sender] */\n      0xffffffffffffffffffffffffffffffffffffffff\n      and\n      0xffffffffffffffffffffffffffffffffffffffff\n      and\n      dup2\n      mstore\n      0x20\n      add\n      swap1\n      dup2\n      mstore\n      0x20\n      add\n      0x00\n      keccak256\n      0x00\n        /* \"contracts/Lektion4/Wallet.sol\":1188:1227  _balances[msg.sender] -= withdrawAmount */\n      dup3\n      dup3\n      sload\n      tag_29\n      swap2\n      swap1\n      tag_30\n      jump\t// in\n    tag_29:\n      swap3\n      pop\n      pop\n      dup2\n      swap1\n      sstore\n      pop\n        /* \"contracts/Lektion4/Wallet.sol\":1257:1271  withdrawAmount */\n      dup2\n        /* \"contracts/Lektion4/Wallet.sol\":1238:1253  contractBalance */\n      0x00\n      0x00\n        /* \"contracts/Lektion4/Wallet.sol\":1238:1271  contractBalance -= withdrawAmount */\n      dup3\n      dup3\n      sload\n      tag_31\n      swap2\n      swap1\n      tag_30\n      jump\t// in\n    tag_31:\n      swap3\n      pop\n      pop\n      dup2\n      swap1\n      sstore\n      pop\n        /* \"contracts/Lektion4/Wallet.sol\":1285:1297  bool success */\n      0x00\n        /* \"contracts/Lektion4/Wallet.sol\":1311:1321  msg.sender */\n      caller\n        /* \"contracts/Lektion4/Wallet.sol\":1303:1327  payable(msg.sender).call */\n      0xffffffffffffffffffffffffffffffffffffffff\n      and\n        /* \"contracts/Lektion4/Wallet.sol\":1335:1349  withdrawAmount */\n      dup4\n        /* \"contracts/Lektion4/Wallet.sol\":1303:1354  payable(msg.sender).call{value: withdrawAmount}(\"\") */\n      mload(0x40)\n      tag_32\n      swap1\n      tag_33\n      jump\t// in\n    tag_32:\n      0x00\n      mload(0x40)\n      dup1\n      dup4\n      sub\n      dup2\n      dup6\n      dup8\n      gas\n      call\n      swap3\n      pop\n      pop\n      pop\n      returndatasize\n      dup1\n      0x00\n      dup2\n      eq\n      tag_36\n      jumpi\n      mload(0x40)\n      swap2\n      pop\n      and(add(returndatasize, 0x3f), not(0x1f))\n      dup3\n      add\n      0x40\n      mstore\n      returndatasize\n      dup3\n      mstore\n      returndatasize\n      0x00\n      0x20\n      dup5\n      add\n      returndatacopy\n      jump(tag_35)\n    tag_36:\n      0x60\n      swap2\n      pop\n    tag_35:\n      pop\n        /* \"contracts/Lektion4/Wallet.sol\":1284:1354  (bool success, ) = payable(msg.sender).call{value: withdrawAmount}(\"\") */\n      pop\n      swap1\n      pop\n        /* \"contracts/Lektion4/Wallet.sol\":1373:1380  success */\n      dup1\n        /* \"contracts/Lektion4/Wallet.sol\":1365:1403  require(success, \"Transaction Failed\") */\n      tag_37\n      jumpi\n      mload(0x40)\n      0x08c379a000000000000000000000000000000000000000000000000000000000\n      dup2\n      mstore\n      0x04\n      add\n      tag_38\n      swap1\n      tag_39\n      jump\t// in\n    tag_38:\n      mload(0x40)\n      dup1\n      swap2\n      sub\n      swap1\n      revert\n    tag_37:\n        /* \"contracts/Lektion4/Wallet.sol\":1442:1463  address(this).balance */\n      selfbalance\n        /* \"contracts/Lektion4/Wallet.sol\":1423:1438  contractBalance */\n      sload(0x00)\n        /* \"contracts/Lektion4/Wallet.sol\":1423:1463  contractBalance == address(this).balance */\n      eq\n        /* \"contracts/Lektion4/Wallet.sol\":1416:1464  assert(contractBalance == address(this).balance) */\n      tag_40\n      jumpi\n      tag_41\n      tag_42\n      jump\t// in\n    tag_41:\n    tag_40:\n        /* \"contracts/Lektion4/Wallet.sol\":1497:1507  msg.sender */\n      caller\n        /* \"contracts/Lektion4/Wallet.sol\":1482:1524  WithdrawalMade(msg.sender, withdrawAmount) */\n      0xffffffffffffffffffffffffffffffffffffffff\n      and\n      0xbc158bb64f05d6383aea69bbb0b20c1bbf4b7a18f63359c5649b7c39e29d3884\n        /* \"contracts/Lektion4/Wallet.sol\":1509:1523  withdrawAmount */\n      dup5\n        /* \"contracts/Lektion4/Wallet.sol\":1482:1524  WithdrawalMade(msg.sender, withdrawAmount) */\n      mload(0x40)\n      tag_43\n      swap2\n      swap1\n      tag_14\n      jump\t// in\n    tag_43:\n      mload(0x40)\n      dup1\n      swap2\n      sub\n      swap1\n      log2\n        /* \"contracts/Lektion4/Wallet.sol\":1054:1543  {... */\n      pop\n        /* \"contracts/Lektion4/Wallet.sol\":473:474  _ */\n      pop\n        /* \"contracts/Lektion4/Wallet.sol\":495:500  false */\n      0x00\n        /* \"contracts/Lektion4/Wallet.sol\":485:492  _locked */\n      0x02\n      0x00\n        /* \"contracts/Lektion4/Wallet.sol\":485:500  _locked = false */\n      0x0100\n      exp\n      dup2\n      sload\n      dup2\n      0xff\n      mul\n      not\n      and\n      swap1\n      dup4\n      iszero\n      iszero\n      mul\n      or\n      swap1\n      sstore\n      pop\n        /* \"contracts/Lektion4/Wallet.sol\":956:1543  function withdrawal(uint withdrawAmount) public noReentrancy hasSufficientBalance(withdrawAmount) {... */\n      pop\n      jump\t// out\n        /* \"contracts/Lektion4/Wallet.sol\":83:110  uint public contractBalance */\n    tag_12:\n      sload(0x00)\n      dup2\n      jump\t// out\n        /* \"contracts/Lektion4/Wallet.sol\":709:948  function deposit() public payable {... */\n    tag_16:\n        /* \"contracts/Lektion4/Wallet.sol\":779:788  msg.value */\n      callvalue\n        /* \"contracts/Lektion4/Wallet.sol\":754:763  _balances */\n      0x01\n        /* \"contracts/Lektion4/Wallet.sol\":754:775  _balances[msg.sender] */\n      0x00\n        /* \"contracts/Lektion4/Wallet.sol\":764:774  msg.sender */\n      caller\n        /* \"contracts/Lektion4/Wallet.sol\":754:775  _balances[msg.sender] */\n      0xffffffffffffffffffffffffffffffffffffffff\n      and\n      0xffffffffffffffffffffffffffffffffffffffff\n      and\n      dup2\n      mstore\n      0x20\n      add\n      swap1\n      dup2\n      mstore\n      0x20\n      add\n      0x00\n      keccak256\n      0x00\n        /* \"contracts/Lektion4/Wallet.sol\":754:788  _balances[msg.sender] += msg.value */\n      dup3\n      dup3\n      sload\n      tag_45\n      swap2\n      swap1\n      tag_46\n      jump\t// in\n    tag_45:\n      swap3\n      pop\n      pop\n      dup2\n      swap1\n      sstore\n      pop\n        /* \"contracts/Lektion4/Wallet.sol\":818:827  msg.value */\n      callvalue\n        /* \"contracts/Lektion4/Wallet.sol\":799:814  contractBalance */\n      0x00\n      0x00\n        /* \"contracts/Lektion4/Wallet.sol\":799:827  contractBalance += msg.value */\n      dup3\n      dup3\n      sload\n      tag_47\n      swap2\n      swap1\n      tag_46\n      jump\t// in\n    tag_47:\n      swap3\n      pop\n      pop\n      dup2\n      swap1\n      sstore\n      pop\n        /* \"contracts/Lektion4/Wallet.sol\":866:887  address(this).balance */\n      selfbalance\n        /* \"contracts/Lektion4/Wallet.sol\":847:862  contractBalance */\n      sload(0x00)\n        /* \"contracts/Lektion4/Wallet.sol\":847:887  contractBalance == address(this).balance */\n      eq\n        /* \"contracts/Lektion4/Wallet.sol\":840:888  assert(contractBalance == address(this).balance) */\n      tag_48\n      jumpi\n      tag_49\n      tag_42\n      jump\t// in\n    tag_49:\n    tag_48:\n        /* \"contracts/Lektion4/Wallet.sol\":918:928  msg.sender */\n      caller\n        /* \"contracts/Lektion4/Wallet.sol\":906:940  DepositMade(msg.sender, msg.value) */\n      0xffffffffffffffffffffffffffffffffffffffff\n      and\n      0xd15c9547ea5c06670c0010ce19bc32d54682a4b3801ece7f3ab0c3f17106b4bb\n        /* \"contracts/Lektion4/Wallet.sol\":930:939  msg.value */\n      callvalue\n        /* \"contracts/Lektion4/Wallet.sol\":906:940  DepositMade(msg.sender, msg.value) */\n      mload(0x40)\n      tag_50\n      swap2\n      swap1\n      tag_14\n      jump\t// in\n    tag_50:\n      mload(0x40)\n      dup1\n      swap2\n      sub\n      swap1\n      log2\n        /* \"contracts/Lektion4/Wallet.sol\":709:948  function deposit() public payable {... */\n      jump\t// out\n        /* \"#utility.yul\":88:205   */\n    tag_52:\n        /* \"#utility.yul\":197:198   */\n      0x00\n        /* \"#utility.yul\":194:195   */\n      0x00\n        /* \"#utility.yul\":187:199   */\n      revert\n        /* \"#utility.yul\":334:411   */\n    tag_54:\n        /* \"#utility.yul\":371:378   */\n      0x00\n        /* \"#utility.yul\":400:405   */\n      dup2\n        /* \"#utility.yul\":389:405   */\n      swap1\n      pop\n        /* \"#utility.yul\":334:411   */\n      swap2\n      swap1\n      pop\n      jump\t// out\n        /* \"#utility.yul\":417:539   */\n    tag_55:\n        /* \"#utility.yul\":490:514   */\n      tag_77\n        /* \"#utility.yul\":508:513   */\n      dup2\n        /* \"#utility.yul\":490:514   */\n      tag_54\n      jump\t// in\n    tag_77:\n        /* \"#utility.yul\":483:488   */\n      dup2\n        /* \"#utility.yul\":480:515   */\n      eq\n        /* \"#utility.yul\":470:533   */\n      tag_78\n      jumpi\n        /* \"#utility.yul\":529:530   */\n      0x00\n        /* \"#utility.yul\":526:527   */\n      0x00\n        /* \"#utility.yul\":519:531   */\n      revert\n        /* \"#utility.yul\":470:533   */\n    tag_78:\n        /* \"#utility.yul\":417:539   */\n      pop\n      jump\t// out\n        /* \"#utility.yul\":545:684   */\n    tag_56:\n        /* \"#utility.yul\":591:596   */\n      0x00\n        /* \"#utility.yul\":629:635   */\n      dup2\n        /* \"#utility.yul\":616:636   */\n      calldataload\n        /* \"#utility.yul\":607:636   */\n      swap1\n      pop\n        /* \"#utility.yul\":645:678   */\n      tag_80\n        /* \"#utility.yul\":672:677   */\n      dup2\n        /* \"#utility.yul\":645:678   */\n      tag_55\n      jump\t// in\n    tag_80:\n        /* \"#utility.yul\":545:684   */\n      swap3\n      swap2\n      pop\n      pop\n      jump\t// out\n        /* \"#utility.yul\":690:1019   */\n    tag_8:\n        /* \"#utility.yul\":749:755   */\n      0x00\n        /* \"#utility.yul\":798:800   */\n      0x20\n        /* \"#utility.yul\":786:795   */\n      dup3\n        /* \"#utility.yul\":777:784   */\n      dup5\n        /* \"#utility.yul\":773:796   */\n      sub\n        /* \"#utility.yul\":769:801   */\n      slt\n        /* \"#utility.yul\":766:885   */\n      iszero\n      tag_82\n      jumpi\n        /* \"#utility.yul\":804:883   */\n      tag_83\n      tag_52\n      jump\t// in\n    tag_83:\n        /* \"#utility.yul\":766:885   */\n    tag_82:\n        /* \"#utility.yul\":924:925   */\n      0x00\n        /* \"#utility.yul\":949:1002   */\n      tag_84\n        /* \"#utility.yul\":994:1001   */\n      dup5\n        /* \"#utility.yul\":985:991   */\n      dup3\n        /* \"#utility.yul\":974:983   */\n      dup6\n        /* \"#utility.yul\":970:992   */\n      add\n        /* \"#utility.yul\":949:1002   */\n      tag_56\n      jump\t// in\n    tag_84:\n        /* \"#utility.yul\":939:1002   */\n      swap2\n      pop\n        /* \"#utility.yul\":895:1012   */\n      pop\n        /* \"#utility.yul\":690:1019   */\n      swap3\n      swap2\n      pop\n      pop\n      jump\t// out\n        /* \"#utility.yul\":1025:1143   */\n    tag_57:\n        /* \"#utility.yul\":1112:1136   */\n      tag_86\n        /* \"#utility.yul\":1130:1135   */\n      dup2\n        /* \"#utility.yul\":1112:1136   */\n      tag_54\n      jump\t// in\n    tag_86:\n        /* \"#utility.yul\":1107:1110   */\n      dup3\n        /* \"#utility.yul\":1100:1137   */\n      mstore\n        /* \"#utility.yul\":1025:1143   */\n      pop\n      pop\n      jump\t// out\n        /* \"#utility.yul\":1149:1371   */\n    tag_14:\n        /* \"#utility.yul\":1242:1246   */\n      0x00\n        /* \"#utility.yul\":1280:1282   */\n      0x20\n        /* \"#utility.yul\":1269:1278   */\n      dup3\n        /* \"#utility.yul\":1265:1283   */\n      add\n        /* \"#utility.yul\":1257:1283   */\n      swap1\n      pop\n        /* \"#utility.yul\":1293:1364   */\n      tag_88\n        /* \"#utility.yul\":1361:1362   */\n      0x00\n        /* \"#utility.yul\":1350:1359   */\n      dup4\n        /* \"#utility.yul\":1346:1363   */\n      add\n        /* \"#utility.yul\":1337:1343   */\n      dup5\n        /* \"#utility.yul\":1293:1364   */\n      tag_57\n      jump\t// in\n    tag_88:\n        /* \"#utility.yul\":1149:1371   */\n      swap3\n      swap2\n      pop\n      pop\n      jump\t// out\n        /* \"#utility.yul\":1377:1546   */\n    tag_58:\n        /* \"#utility.yul\":1461:1472   */\n      0x00\n        /* \"#utility.yul\":1495:1501   */\n      dup3\n        /* \"#utility.yul\":1490:1493   */\n      dup3\n        /* \"#utility.yul\":1483:1502   */\n      mstore\n        /* \"#utility.yul\":1535:1539   */\n      0x20\n        /* \"#utility.yul\":1530:1533   */\n      dup3\n        /* \"#utility.yul\":1526:1540   */\n      add\n        /* \"#utility.yul\":1511:1540   */\n      swap1\n      pop\n        /* \"#utility.yul\":1377:1546   */\n      swap3\n      swap2\n      pop\n      pop\n      jump\t// out\n        /* \"#utility.yul\":1552:1781   */\n    tag_59:\n        /* \"#utility.yul\":1692:1726   */\n      0x53746f70206d616b696e67207265656e7472616e63792063616c6c732e20506c\n        /* \"#utility.yul\":1688:1689   */\n      0x00\n        /* \"#utility.yul\":1680:1686   */\n      dup3\n        /* \"#utility.yul\":1676:1690   */\n      add\n        /* \"#utility.yul\":1669:1727   */\n      mstore\n        /* \"#utility.yul\":1761:1773   */\n      0x6561736520686f6c642100000000000000000000000000000000000000000000\n        /* \"#utility.yul\":1756:1758   */\n      0x20\n        /* \"#utility.yul\":1748:1754   */\n      dup3\n        /* \"#utility.yul\":1744:1759   */\n      add\n        /* \"#utility.yul\":1737:1774   */\n      mstore\n        /* \"#utility.yul\":1552:1781   */\n      pop\n      jump\t// out\n        /* \"#utility.yul\":1787:2153   */\n    tag_60:\n        /* \"#utility.yul\":1929:1932   */\n      0x00\n        /* \"#utility.yul\":1950:2017   */\n      tag_92\n        /* \"#utility.yul\":2014:2016   */\n      0x2a\n        /* \"#utility.yul\":2009:2012   */\n      dup4\n        /* \"#utility.yul\":1950:2017   */\n      tag_58\n      jump\t// in\n    tag_92:\n        /* \"#utility.yul\":1943:2017   */\n      swap2\n      pop\n        /* \"#utility.yul\":2026:2119   */\n      tag_93\n        /* \"#utility.yul\":2115:2118   */\n      dup3\n        /* \"#utility.yul\":2026:2119   */\n      tag_59\n      jump\t// in\n    tag_93:\n        /* \"#utility.yul\":2144:2146   */\n      0x40\n        /* \"#utility.yul\":2139:2142   */\n      dup3\n        /* \"#utility.yul\":2135:2147   */\n      add\n        /* \"#utility.yul\":2128:2147   */\n      swap1\n      pop\n        /* \"#utility.yul\":1787:2153   */\n      swap2\n      swap1\n      pop\n      jump\t// out\n        /* \"#utility.yul\":2159:2578   */\n    tag_20:\n        /* \"#utility.yul\":2325:2329   */\n      0x00\n        /* \"#utility.yul\":2363:2365   */\n      0x20\n        /* \"#utility.yul\":2352:2361   */\n      dup3\n        /* \"#utility.yul\":2348:2366   */\n      add\n        /* \"#utility.yul\":2340:2366   */\n      swap1\n      pop\n        /* \"#utility.yul\":2412:2421   */\n      dup2\n        /* \"#utility.yul\":2406:2410   */\n      dup2\n        /* \"#utility.yul\":2402:2422   */\n      sub\n        /* \"#utility.yul\":2398:2399   */\n      0x00\n        /* \"#utility.yul\":2387:2396   */\n      dup4\n        /* \"#utility.yul\":2383:2400   */\n      add\n        /* \"#utility.yul\":2376:2423   */\n      mstore\n        /* \"#utility.yul\":2440:2571   */\n      tag_95\n        /* \"#utility.yul\":2566:2570   */\n      dup2\n        /* \"#utility.yul\":2440:2571   */\n      tag_60\n      jump\t// in\n    tag_95:\n        /* \"#utility.yul\":2432:2571   */\n      swap1\n      pop\n        /* \"#utility.yul\":2159:2578   */\n      swap2\n      swap1\n      pop\n      jump\t// out\n        /* \"#utility.yul\":2584:2822   */\n    tag_61:\n        /* \"#utility.yul\":2724:2758   */\n      0x596f75206861766520616e20696e73756666696369656e742062616c616e6365\n        /* \"#utility.yul\":2720:2721   */\n      0x00\n        /* \"#utility.yul\":2712:2718   */\n      dup3\n        /* \"#utility.yul\":2708:2722   */\n      add\n        /* \"#utility.yul\":2701:2759   */\n      mstore\n        /* \"#utility.yul\":2793:2814   */\n      0x2c20706c656173652074727920616761696e2100000000000000000000000000\n        /* \"#utility.yul\":2788:2790   */\n      0x20\n        /* \"#utility.yul\":2780:2786   */\n      dup3\n        /* \"#utility.yul\":2776:2791   */\n      add\n        /* \"#utility.yul\":2769:2815   */\n      mstore\n        /* \"#utility.yul\":2584:2822   */\n      pop\n      jump\t// out\n        /* \"#utility.yul\":2828:3194   */\n    tag_62:\n        /* \"#utility.yul\":2970:2973   */\n      0x00\n        /* \"#utility.yul\":2991:3058   */\n      tag_98\n        /* \"#utility.yul\":3055:3057   */\n      0x33\n        /* \"#utility.yul\":3050:3053   */\n      dup4\n        /* \"#utility.yul\":2991:3058   */\n      tag_58\n      jump\t// in\n    tag_98:\n        /* \"#utility.yul\":2984:3058   */\n      swap2\n      pop\n        /* \"#utility.yul\":3067:3160   */\n      tag_99\n        /* \"#utility.yul\":3156:3159   */\n      dup3\n        /* \"#utility.yul\":3067:3160   */\n      tag_61\n      jump\t// in\n    tag_99:\n        /* \"#utility.yul\":3185:3187   */\n      0x40\n        /* \"#utility.yul\":3180:3183   */\n      dup3\n        /* \"#utility.yul\":3176:3188   */\n      add\n        /* \"#utility.yul\":3169:3188   */\n      swap1\n      pop\n        /* \"#utility.yul\":2828:3194   */\n      swap2\n      swap1\n      pop\n      jump\t// out\n        /* \"#utility.yul\":3200:3619   */\n    tag_24:\n        /* \"#utility.yul\":3366:3370   */\n      0x00\n        /* \"#utility.yul\":3404:3406   */\n      0x20\n        /* \"#utility.yul\":3393:3402   */\n      dup3\n        /* \"#utility.yul\":3389:3407   */\n      add\n        /* \"#utility.yul\":3381:3407   */\n      swap1\n      pop\n        /* \"#utility.yul\":3453:3462   */\n      dup2\n        /* \"#utility.yul\":3447:3451   */\n      dup2\n        /* \"#utility.yul\":3443:3463   */\n      sub\n        /* \"#utility.yul\":3439:3440   */\n      0x00\n        /* \"#utility.yul\":3428:3437   */\n      dup4\n        /* \"#utility.yul\":3424:3441   */\n      add\n        /* \"#utility.yul\":3417:3464   */\n      mstore\n        /* \"#utility.yul\":3481:3612   */\n      tag_101\n        /* \"#utility.yul\":3607:3611   */\n      dup2\n        /* \"#utility.yul\":3481:3612   */\n      tag_62\n      jump\t// in\n    tag_101:\n        /* \"#utility.yul\":3473:3612   */\n      swap1\n      pop\n        /* \"#utility.yul\":3200:3619   */\n      swap2\n      swap1\n      pop\n      jump\t// out\n        /* \"#utility.yul\":3625:3857   */\n    tag_63:\n        /* \"#utility.yul\":3765:3799   */\n      0x596f752063616e6e6f74207769746864726177206d6f7265207468616e203120\n        /* \"#utility.yul\":3761:3762   */\n      0x00\n        /* \"#utility.yul\":3753:3759   */\n      dup3\n        /* \"#utility.yul\":3749:3763   */\n      add\n        /* \"#utility.yul\":3742:3800   */\n      mstore\n        /* \"#utility.yul\":3834:3849   */\n      0x45544820617420612074696d6500000000000000000000000000000000000000\n        /* \"#utility.yul\":3829:3831   */\n      0x20\n        /* \"#utility.yul\":3821:3827   */\n      dup3\n        /* \"#utility.yul\":3817:3832   */\n      add\n        /* \"#utility.yul\":3810:3850   */\n      mstore\n        /* \"#utility.yul\":3625:3857   */\n      pop\n      jump\t// out\n        /* \"#utility.yul\":3863:4229   */\n    tag_64:\n        /* \"#utility.yul\":4005:4008   */\n      0x00\n        /* \"#utility.yul\":4026:4093   */\n      tag_104\n        /* \"#utility.yul\":4090:4092   */\n      0x2d\n        /* \"#utility.yul\":4085:4088   */\n      dup4\n        /* \"#utility.yul\":4026:4093   */\n      tag_58\n      jump\t// in\n    tag_104:\n        /* \"#utility.yul\":4019:4093   */\n      swap2\n      pop\n        /* \"#utility.yul\":4102:4195   */\n      tag_105\n        /* \"#utility.yul\":4191:4194   */\n      dup3\n        /* \"#utility.yul\":4102:4195   */\n      tag_63\n      jump\t// in\n    tag_105:\n        /* \"#utility.yul\":4220:4222   */\n      0x40\n        /* \"#utility.yul\":4215:4218   */\n      dup3\n        /* \"#utility.yul\":4211:4223   */\n      add\n        /* \"#utility.yul\":4204:4223   */\n      swap1\n      pop\n        /* \"#utility.yul\":3863:4229   */\n      swap2\n      swap1\n      pop\n      jump\t// out\n        /* \"#utility.yul\":4235:4654   */\n    tag_28:\n        /* \"#utility.yul\":4401:4405   */\n      0x00\n        /* \"#utility.yul\":4439:4441   */\n      0x20\n        /* \"#utility.yul\":4428:4437   */\n      dup3\n        /* \"#utility.yul\":4424:4442   */\n      add\n        /* \"#utility.yul\":4416:4442   */\n      swap1\n      pop\n        /* \"#utility.yul\":4488:4497   */\n      dup2\n        /* \"#utility.yul\":4482:4486   */\n      dup2\n        /* \"#utility.yul\":4478:4498   */\n      sub\n        /* \"#utility.yul\":4474:4475   */\n      0x00\n        /* \"#utility.yul\":4463:4472   */\n      dup4\n        /* \"#utility.yul\":4459:4476   */\n      add\n        /* \"#utility.yul\":4452:4499   */\n      mstore\n        /* \"#utility.yul\":4516:4647   */\n      tag_107\n        /* \"#utility.yul\":4642:4646   */\n      dup2\n        /* \"#utility.yul\":4516:4647   */\n      tag_64\n      jump\t// in\n    tag_107:\n        /* \"#utility.yul\":4508:4647   */\n      swap1\n      pop\n        /* \"#utility.yul\":4235:4654   */\n      swap2\n      swap1\n      pop\n      jump\t// out\n        /* \"#utility.yul\":4660:4840   */\n    tag_65:\n        /* \"#utility.yul\":4708:4785   */\n      0x4e487b7100000000000000000000000000000000000000000000000000000000\n        /* \"#utility.yul\":4705:4706   */\n      0x00\n        /* \"#utility.yul\":4698:4786   */\n      mstore\n        /* \"#utility.yul\":4805:4809   */\n      0x11\n        /* \"#utility.yul\":4802:4803   */\n      0x04\n        /* \"#utility.yul\":4795:4810   */\n      mstore\n        /* \"#utility.yul\":4829:4833   */\n      0x24\n        /* \"#utility.yul\":4826:4827   */\n      0x00\n        /* \"#utility.yul\":4819:4834   */\n      revert\n        /* \"#utility.yul\":4846:5040   */\n    tag_30:\n        /* \"#utility.yul\":4886:4890   */\n      0x00\n        /* \"#utility.yul\":4906:4926   */\n      tag_110\n        /* \"#utility.yul\":4924:4925   */\n      dup3\n        /* \"#utility.yul\":4906:4926   */\n      tag_54\n      jump\t// in\n    tag_110:\n        /* \"#utility.yul\":4901:4926   */\n      swap2\n      pop\n        /* \"#utility.yul\":4940:4960   */\n      tag_111\n        /* \"#utility.yul\":4958:4959   */\n      dup4\n        /* \"#utility.yul\":4940:4960   */\n      tag_54\n      jump\t// in\n    tag_111:\n        /* \"#utility.yul\":4935:4960   */\n      swap3\n      pop\n        /* \"#utility.yul\":4984:4985   */\n      dup3\n        /* \"#utility.yul\":4981:4982   */\n      dup3\n        /* \"#utility.yul\":4977:4986   */\n      sub\n        /* \"#utility.yul\":4969:4986   */\n      swap1\n      pop\n        /* \"#utility.yul\":5008:5009   */\n      dup2\n        /* \"#utility.yul\":5002:5006   */\n      dup2\n        /* \"#utility.yul\":4999:5010   */\n      gt\n        /* \"#utility.yul\":4996:5033   */\n      iszero\n      tag_112\n      jumpi\n        /* \"#utility.yul\":5013:5031   */\n      tag_113\n      tag_65\n      jump\t// in\n    tag_113:\n        /* \"#utility.yul\":4996:5033   */\n    tag_112:\n        /* \"#utility.yul\":4846:5040   */\n      swap3\n      swap2\n      pop\n      pop\n      jump\t// out\n        /* \"#utility.yul\":5046:5193   */\n    tag_66:\n        /* \"#utility.yul\":5147:5158   */\n      0x00\n        /* \"#utility.yul\":5184:5187   */\n      dup2\n        /* \"#utility.yul\":5169:5187   */\n      swap1\n      pop\n        /* \"#utility.yul\":5046:5193   */\n      swap3\n      swap2\n      pop\n      pop\n      jump\t// out\n        /* \"#utility.yul\":5199:5313   */\n    tag_67:\n      pop\n      jump\t// out\n        /* \"#utility.yul\":5319:5717   */\n    tag_68:\n        /* \"#utility.yul\":5478:5481   */\n      0x00\n        /* \"#utility.yul\":5499:5582   */\n      tag_117\n        /* \"#utility.yul\":5580:5581   */\n      0x00\n        /* \"#utility.yul\":5575:5578   */\n      dup4\n        /* \"#utility.yul\":5499:5582   */\n      tag_66\n      jump\t// in\n    tag_117:\n        /* \"#utility.yul\":5492:5582   */\n      swap2\n      pop\n        /* \"#utility.yul\":5591:5684   */\n      tag_118\n        /* \"#utility.yul\":5680:5683   */\n      dup3\n        /* \"#utility.yul\":5591:5684   */\n      tag_67\n      jump\t// in\n    tag_118:\n        /* \"#utility.yul\":5709:5710   */\n      0x00\n        /* \"#utility.yul\":5704:5707   */\n      dup3\n        /* \"#utility.yul\":5700:5711   */\n      add\n        /* \"#utility.yul\":5693:5711   */\n      swap1\n      pop\n        /* \"#utility.yul\":5319:5717   */\n      swap2\n      swap1\n      pop\n      jump\t// out\n        /* \"#utility.yul\":5723:6102   */\n    tag_33:\n        /* \"#utility.yul\":5907:5910   */\n      0x00\n        /* \"#utility.yul\":5929:6076   */\n      tag_120\n        /* \"#utility.yul\":6072:6075   */\n      dup3\n        /* \"#utility.yul\":5929:6076   */\n      tag_68\n      jump\t// in\n    tag_120:\n        /* \"#utility.yul\":5922:6076   */\n      swap2\n      pop\n        /* \"#utility.yul\":6093:6096   */\n      dup2\n        /* \"#utility.yul\":6086:6096   */\n      swap1\n      pop\n        /* \"#utility.yul\":5723:6102   */\n      swap2\n      swap1\n      pop\n      jump\t// out\n        /* \"#utility.yul\":6108:6276   */\n    tag_69:\n        /* \"#utility.yul\":6248:6268   */\n      0x5472616e73616374696f6e204661696c65640000000000000000000000000000\n        /* \"#utility.yul\":6244:6245   */\n      0x00\n        /* \"#utility.yul\":6236:6242   */\n      dup3\n        /* \"#utility.yul\":6232:6246   */\n      add\n        /* \"#utility.yul\":6225:6269   */\n      mstore\n        /* \"#utility.yul\":6108:6276   */\n      pop\n      jump\t// out\n        /* \"#utility.yul\":6282:6648   */\n    tag_70:\n        /* \"#utility.yul\":6424:6427   */\n      0x00\n        /* \"#utility.yul\":6445:6512   */\n      tag_123\n        /* \"#utility.yul\":6509:6511   */\n      0x12\n        /* \"#utility.yul\":6504:6507   */\n      dup4\n        /* \"#utility.yul\":6445:6512   */\n      tag_58\n      jump\t// in\n    tag_123:\n        /* \"#utility.yul\":6438:6512   */\n      swap2\n      pop\n        /* \"#utility.yul\":6521:6614   */\n      tag_124\n        /* \"#utility.yul\":6610:6613   */\n      dup3\n        /* \"#utility.yul\":6521:6614   */\n      tag_69\n      jump\t// in\n    tag_124:\n        /* \"#utility.yul\":6639:6641   */\n      0x20\n        /* \"#utility.yul\":6634:6637   */\n      dup3\n        /* \"#utility.yul\":6630:6642   */\n      add\n        /* \"#utility.yul\":6623:6642   */\n      swap1\n      pop\n        /* \"#utility.yul\":6282:6648   */\n      swap2\n      swap1\n      pop\n      jump\t// out\n        /* \"#utility.yul\":6654:7073   */\n    tag_39:\n        /* \"#utility.yul\":6820:6824   */\n      0x00\n        /* \"#utility.yul\":6858:6860   */\n      0x20\n        /* \"#utility.yul\":6847:6856   */\n      dup3\n        /* \"#utility.yul\":6843:6861   */\n      add\n        /* \"#utility.yul\":6835:6861   */\n      swap1\n      pop\n        /* \"#utility.yul\":6907:6916   */\n      dup2\n        /* \"#utility.yul\":6901:6905   */\n      dup2\n        /* \"#utility.yul\":6897:6917   */\n      sub\n        /* \"#utility.yul\":6893:6894   */\n      0x00\n        /* \"#utility.yul\":6882:6891   */\n      dup4\n        /* \"#utility.yul\":6878:6895   */\n      add\n        /* \"#utility.yul\":6871:6918   */\n      mstore\n        /* \"#utility.yul\":6935:7066   */\n      tag_126\n        /* \"#utility.yul\":7061:7065   */\n      dup2\n        /* \"#utility.yul\":6935:7066   */\n      tag_70\n      jump\t// in\n    tag_126:\n        /* \"#utility.yul\":6927:7066   */\n      swap1\n      pop\n        /* \"#utility.yul\":6654:7073   */\n      swap2\n      swap1\n      pop\n      jump\t// out\n        /* \"#utility.yul\":7079:7259   */\n    tag_42:\n        /* \"#utility.yul\":7127:7204   */\n      0x4e487b7100000000000000000000000000000000000000000000000000000000\n        /* \"#utility.yul\":7124:7125   */\n      0x00\n        /* \"#utility.yul\":7117:7205   */\n      mstore\n        /* \"#utility.yul\":7224:7228   */\n      0x01\n        /* \"#utility.yul\":7221:7222   */\n      0x04\n        /* \"#utility.yul\":7214:7229   */\n      mstore\n        /* \"#utility.yul\":7248:7252   */\n      0x24\n        /* \"#utility.yul\":7245:7246   */\n      0x00\n        /* \"#utility.yul\":7238:7253   */\n      revert\n        /* \"#utility.yul\":7265:7456   */\n    tag_46:\n        /* \"#utility.yul\":7305:7308   */\n      0x00\n        /* \"#utility.yul\":7324:7344   */\n      tag_129\n        /* \"#utility.yul\":7342:7343   */\n      dup3\n        /* \"#utility.yul\":7324:7344   */\n      tag_54\n      jump\t// in\n    tag_129:\n        /* \"#utility.yul\":7319:7344   */\n      swap2\n      pop\n        /* \"#utility.yul\":7358:7378   */\n      tag_130\n        /* \"#utility.yul\":7376:7377   */\n      dup4\n        /* \"#utility.yul\":7358:7378   */\n      tag_54\n      jump\t// in\n    tag_130:\n        /* \"#utility.yul\":7353:7378   */\n      swap3\n      pop\n        /* \"#utility.yul\":7401:7402   */\n      dup3\n        /* \"#utility.yul\":7398:7399   */\n      dup3\n        /* \"#utility.yul\":7394:7403   */\n      add\n        /* \"#utility.yul\":7387:7403   */\n      swap1\n      pop\n        /* \"#utility.yul\":7422:7425   */\n      dup1\n        /* \"#utility.yul\":7419:7420   */\n      dup3\n        /* \"#utility.yul\":7416:7426   */\n      gt\n        /* \"#utility.yul\":7413:7449   */\n      iszero\n      tag_131\n      jumpi\n        /* \"#utility.yul\":7429:7447   */\n      tag_132\n      tag_65\n      jump\t// in\n    tag_132:\n        /* \"#utility.yul\":7413:7449   */\n    tag_131:\n        /* \"#utility.yul\":7265:7456   */\n      swap3\n      swap2\n      pop\n      pop\n      jump\t// out\n\n    auxdata: 0xa2646970667358221220570fc500a1d0a48c0a6bcb734368acedbb550ba932fc0b218a2e54515a30397b64736f6c634300081f0033\n}\n",
				"bytecode": {
					"linkReferences": {},
					"object": "6080604052348015600e575f5ffd5b5061080a8061001c5f395ff3fe608060405260043610610033575f3560e01c8063835fc6ca146100375780638b7afe2e1461005f578063d0e30db014610089575b5f5ffd5b348015610042575f5ffd5b5061005d6004803603810190610058919061045e565b610093565b005b34801561006a575f5ffd5b50610073610357565b6040516100809190610498565b60405180910390f35b61009161035c565b005b60025f9054906101000a900460ff16156100e2576040517f08c379a00000000000000000000000000000000000000000000000000000000081526004016100d990610531565b60405180910390fd5b600160025f6101000a81548160ff021916908315150217905550808060015f3373ffffffffffffffffffffffffffffffffffffffff1673ffffffffffffffffffffffffffffffffffffffff1681526020019081526020015f2054101561017d576040517f08c379a0000000000000000000000000000000000000000000000000000000008152600401610174906105bf565b60405180910390fd5b670de0b6b3a76400008211156101c8576040517f08c379a00000000000000000000000000000000000000000000000000000000081526004016101bf9061064d565b60405180910390fd5b8160015f3373ffffffffffffffffffffffffffffffffffffffff1673ffffffffffffffffffffffffffffffffffffffff1681526020019081526020015f205f8282546102149190610698565b92505081905550815f5f82825461022b9190610698565b925050819055505f3373ffffffffffffffffffffffffffffffffffffffff1683604051610257906106f8565b5f6040518083038185875af1925050503d805f8114610291576040519150601f19603f3d011682016040523d82523d5f602084013e610296565b606091505b50509050806102da576040517f08c379a00000000000000000000000000000000000000000000000000000000081526004016102d190610756565b60405180910390fd5b475f54146102eb576102ea610774565b5b3373ffffffffffffffffffffffffffffffffffffffff167fbc158bb64f05d6383aea69bbb0b20c1bbf4b7a18f63359c5649b7c39e29d3884846040516103319190610498565b60405180910390a250505f60025f6101000a81548160ff02191690831515021790555050565b5f5481565b3460015f3373ffffffffffffffffffffffffffffffffffffffff1673ffffffffffffffffffffffffffffffffffffffff1681526020019081526020015f205f8282546103a891906107a1565b92505081905550345f5f8282546103bf91906107a1565b92505081905550475f54146103d7576103d6610774565b5b3373ffffffffffffffffffffffffffffffffffffffff167fd15c9547ea5c06670c0010ce19bc32d54682a4b3801ece7f3ab0c3f17106b4bb3460405161041d9190610498565b60405180910390a2565b5f5ffd5b5f819050919050565b61043d8161042b565b8114610447575f5ffd5b50565b5f8135905061045881610434565b92915050565b5f6020828403121561047357610472610427565b5b5f6104808482850161044a565b91505092915050565b6104928161042b565b82525050565b5f6020820190506104ab5f830184610489565b92915050565b5f82825260208201905092915050565b7f53746f70206d616b696e67207265656e7472616e63792063616c6c732e20506c5f8201527f6561736520686f6c642100000000000000000000000000000000000000000000602082015250565b5f61051b602a836104b1565b9150610526826104c1565b604082019050919050565b5f6020820190508181035f8301526105488161050f565b9050919050565b7f596f75206861766520616e20696e73756666696369656e742062616c616e63655f8201527f2c20706c656173652074727920616761696e2100000000000000000000000000602082015250565b5f6105a96033836104b1565b91506105b48261054f565b604082019050919050565b5f6020820190508181035f8301526105d68161059d565b9050919050565b7f596f752063616e6e6f74207769746864726177206d6f7265207468616e2031205f8201527f45544820617420612074696d6500000000000000000000000000000000000000602082015250565b5f610637602d836104b1565b9150610642826105dd565b604082019050919050565b5f6020820190508181035f8301526106648161062b565b9050919050565b7f4e487b71000000000000000000000000000000000000000000000000000000005f52601160045260245ffd5b5f6106a28261042b565b91506106ad8361042b565b92508282039050818111156106c5576106c461066b565b5b92915050565b5f81905092915050565b50565b5f6106e35f836106cb565b91506106ee826106d5565b5f82019050919050565b5f610702826106d8565b9150819050919050565b7f5472616e73616374696f6e204661696c656400000000000000000000000000005f82015250565b5f6107406012836104b1565b915061074b8261070c565b602082019050919050565b5f6020820190508181035f83015261076d81610734565b9050919050565b7f4e487b71000000000000000000000000000000000000000000000000000000005f52600160045260245ffd5b5f6107ab8261042b565b91506107b68361042b565b92508282019050808211156107ce576107cd61066b565b5b9291505056fea2646970667358221220570fc500a1d0a48c0a6bcb734368acedbb550ba932fc0b218a2e54515a30397b64736f6c634300081f0033",
					"opcodes": "PUSH1 0x80 PUSH1 0x40 MSTORE CALLVALUE DUP1 ISZERO PUSH1 0xE JUMPI PUSH0 PUSH0 REVERT JUMPDEST POP PUSH2 0x80A DUP1 PUSH2 0x1C PUSH0 CODECOPY PUSH0 RETURN INVALID PUSH1 0x80 PUSH1 0x40 MSTORE PUSH1 0x4 CALLDATASIZE LT PUSH2 0x33 JUMPI PUSH0 CALLDATALOAD PUSH1 0xE0 SHR DUP1 PUSH4 0x835FC6CA EQ PUSH2 0x37 JUMPI DUP1 PUSH4 0x8B7AFE2E EQ PUSH2 0x5F JUMPI DUP1 PUSH4 0xD0E30DB0 EQ PUSH2 0x89 JUMPI JUMPDEST PUSH0 PUSH0 REVERT JUMPDEST CALLVALUE DUP1 ISZERO PUSH2 0x42 JUMPI PUSH0 PUSH0 REVERT JUMPDEST POP PUSH2 0x5D PUSH1 0x4 DUP1 CALLDATASIZE SUB DUP2 ADD SWAP1 PUSH2 0x58 SWAP2 SWAP1 PUSH2 0x45E JUMP JUMPDEST PUSH2 0x93 JUMP JUMPDEST STOP JUMPDEST CALLVALUE DUP1 ISZERO PUSH2 0x6A JUMPI PUSH0 PUSH0 REVERT JUMPDEST POP PUSH2 0x73 PUSH2 0x357 JUMP JUMPDEST PUSH1 0x40 MLOAD PUSH2 0x80 SWAP2 SWAP1 PUSH2 0x498 JUMP JUMPDEST PUSH1 0x40 MLOAD DUP1 SWAP2 SUB SWAP1 RETURN JUMPDEST PUSH2 0x91 PUSH2 0x35C JUMP JUMPDEST STOP JUMPDEST PUSH1 0x2 PUSH0 SWAP1 SLOAD SWAP1 PUSH2 0x100 EXP SWAP1 DIV PUSH1 0xFF AND ISZERO PUSH2 0xE2 JUMPI PUSH1 0x40 MLOAD PUSH32 0x8C379A000000000000000000000000000000000000000000000000000000000 DUP2 MSTORE PUSH1 0x4 ADD PUSH2 0xD9 SWAP1 PUSH2 0x531 JUMP JUMPDEST PUSH1 0x40 MLOAD DUP1 SWAP2 SUB SWAP1 REVERT JUMPDEST PUSH1 0x1 PUSH1 0x2 PUSH0 PUSH2 0x100 EXP DUP2 SLOAD DUP2 PUSH1 0xFF MUL NOT AND SWAP1 DUP4 ISZERO ISZERO MUL OR SWAP1 SSTORE POP DUP1 DUP1 PUSH1 0x1 PUSH0 CALLER PUSH20 0xFFFFFFFFFFFFFFFFFFFFFFFFFFFFFFFFFFFFFFFF AND PUSH20 0xFFFFFFFFFFFFFFFFFFFFFFFFFFFFFFFFFFFFFFFF AND DUP2 MSTORE PUSH1 0x20 ADD SWAP1 DUP2 MSTORE PUSH1 0x20 ADD PUSH0 KECCAK256 SLOAD LT ISZERO PUSH2 0x17D JUMPI PUSH1 0x40 MLOAD PUSH32 0x8C379A000000000000000000000000000000000000000000000000000000000 DUP2 MSTORE PUSH1 0x4 ADD PUSH2 0x174 SWAP1 PUSH2 0x5BF JUMP JUMPDEST PUSH1 0x40 MLOAD DUP1 SWAP2 SUB SWAP1 REVERT JUMPDEST PUSH8 0xDE0B6B3A7640000 DUP3 GT ISZERO PUSH2 0x1C8 JUMPI PUSH1 0x40 MLOAD PUSH32 0x8C379A000000000000000000000000000000000000000000000000000000000 DUP2 MSTORE PUSH1 0x4 ADD PUSH2 0x1BF SWAP1 PUSH2 0x64D JUMP JUMPDEST PUSH1 0x40 MLOAD DUP1 SWAP2 SUB SWAP1 REVERT JUMPDEST DUP2 PUSH1 0x1 PUSH0 CALLER PUSH20 0xFFFFFFFFFFFFFFFFFFFFFFFFFFFFFFFFFFFFFFFF AND PUSH20 0xFFFFFFFFFFFFFFFFFFFFFFFFFFFFFFFFFFFFFFFF AND DUP2 MSTORE PUSH1 0x20 ADD SWAP1 DUP2 MSTORE PUSH1 0x20 ADD PUSH0 KECCAK256 PUSH0 DUP3 DUP3 SLOAD PUSH2 0x214 SWAP2 SWAP1 PUSH2 0x698 JUMP JUMPDEST SWAP3 POP POP DUP2 SWAP1 SSTORE POP DUP2 PUSH0 PUSH0 DUP3 DUP3 SLOAD PUSH2 0x22B SWAP2 SWAP1 PUSH2 0x698 JUMP JUMPDEST SWAP3 POP POP DUP2 SWAP1 SSTORE POP PUSH0 CALLER PUSH20 0xFFFFFFFFFFFFFFFFFFFFFFFFFFFFFFFFFFFFFFFF AND DUP4 PUSH1 0x40 MLOAD PUSH2 0x257 SWAP1 PUSH2 0x6F8 JUMP JUMPDEST PUSH0 PUSH1 0x40 MLOAD DUP1 DUP4 SUB DUP2 DUP6 DUP8 GAS CALL SWAP3 POP POP POP RETURNDATASIZE DUP1 PUSH0 DUP2 EQ PUSH2 0x291 JUMPI PUSH1 0x40 MLOAD SWAP2 POP PUSH1 0x1F NOT PUSH1 0x3F RETURNDATASIZE ADD AND DUP3 ADD PUSH1 0x40 MSTORE RETURNDATASIZE DUP3 MSTORE RETURNDATASIZE PUSH0 PUSH1 0x20 DUP5 ADD RETURNDATACOPY PUSH2 0x296 JUMP JUMPDEST PUSH1 0x60 SWAP2 POP JUMPDEST POP POP SWAP1 POP DUP1 PUSH2 0x2DA JUMPI PUSH1 0x40 MLOAD PUSH32 0x8C379A000000000000000000000000000000000000000000000000000000000 DUP2 MSTORE PUSH1 0x4 ADD PUSH2 0x2D1 SWAP1 PUSH2 0x756 JUMP JUMPDEST PUSH1 0x40 MLOAD DUP1 SWAP2 SUB SWAP1 REVERT JUMPDEST SELFBALANCE PUSH0 SLOAD EQ PUSH2 0x2EB JUMPI PUSH2 0x2EA PUSH2 0x774 JUMP JUMPDEST JUMPDEST CALLER PUSH20 0xFFFFFFFFFFFFFFFFFFFFFFFFFFFFFFFFFFFFFFFF AND PUSH32 0xBC158BB64F05D6383AEA69BBB0B20C1BBF4B7A18F63359C5649B7C39E29D3884 DUP5 PUSH1 0x40 MLOAD PUSH2 0x331 SWAP2 SWAP1 PUSH2 0x498 JUMP JUMPDEST PUSH1 0x40 MLOAD DUP1 SWAP2 SUB SWAP1 LOG2 POP POP PUSH0 PUSH1 0x2 PUSH0 PUSH2 0x100 EXP DUP2 SLOAD DUP2 PUSH1 0xFF MUL NOT AND SWAP1 DUP4 ISZERO ISZERO MUL OR SWAP1 SSTORE POP POP JUMP JUMPDEST PUSH0 SLOAD DUP2 JUMP JUMPDEST CALLVALUE PUSH1 0x1 PUSH0 CALLER PUSH20 0xFFFFFFFFFFFFFFFFFFFFFFFFFFFFFFFFFFFFFFFF AND PUSH20 0xFFFFFFFFFFFFFFFFFFFFFFFFFFFFFFFFFFFFFFFF AND DUP2 MSTORE PUSH1 0x20 ADD SWAP1 DUP2 MSTORE PUSH1 0x20 ADD PUSH0 KECCAK256 PUSH0 DUP3 DUP3 SLOAD PUSH2 0x3A8 SWAP2 SWAP1 PUSH2 0x7A1 JUMP JUMPDEST SWAP3 POP POP DUP2 SWAP1 SSTORE POP CALLVALUE PUSH0 PUSH0 DUP3 DUP3 SLOAD PUSH2 0x3BF SWAP2 SWAP1 PUSH2 0x7A1 JUMP JUMPDEST SWAP3 POP POP DUP2 SWAP1 SSTORE POP SELFBALANCE PUSH0 SLOAD EQ PUSH2 0x3D7 JUMPI PUSH2 0x3D6 PUSH2 0x774 JUMP JUMPDEST JUMPDEST CALLER PUSH20 0xFFFFFFFFFFFFFFFFFFFFFFFFFFFFFFFFFFFFFFFF AND PUSH32 0xD15C9547EA5C06670C0010CE19BC32D54682A4B3801ECE7F3AB0C3F17106B4BB CALLVALUE PUSH1 0x40 MLOAD PUSH2 0x41D SWAP2 SWAP1 PUSH2 0x498 JUMP JUMPDEST PUSH1 0x40 MLOAD DUP1 SWAP2 SUB SWAP1 LOG2 JUMP JUMPDEST PUSH0 PUSH0 REVERT JUMPDEST PUSH0 DUP2 SWAP1 POP SWAP2 SWAP1 POP JUMP JUMPDEST PUSH2 0x43D DUP2 PUSH2 0x42B JUMP JUMPDEST DUP2 EQ PUSH2 0x447 JUMPI PUSH0 PUSH0 REVERT JUMPDEST POP JUMP JUMPDEST PUSH0 DUP2 CALLDATALOAD SWAP1 POP PUSH2 0x458 DUP2 PUSH2 0x434 JUMP JUMPDEST SWAP3 SWAP2 POP POP JUMP JUMPDEST PUSH0 PUSH1 0x20 DUP3 DUP5 SUB SLT ISZERO PUSH2 0x473 JUMPI PUSH2 0x472 PUSH2 0x427 JUMP JUMPDEST JUMPDEST PUSH0 PUSH2 0x480 DUP5 DUP3 DUP6 ADD PUSH2 0x44A JUMP JUMPDEST SWAP2 POP POP SWAP3 SWAP2 POP POP JUMP JUMPDEST PUSH2 0x492 DUP2 PUSH2 0x42B JUMP JUMPDEST DUP3 MSTORE POP POP JUMP JUMPDEST PUSH0 PUSH1 0x20 DUP3 ADD SWAP1 POP PUSH2 0x4AB PUSH0 DUP4 ADD DUP5 PUSH2 0x489 JUMP JUMPDEST SWAP3 SWAP2 POP POP JUMP JUMPDEST PUSH0 DUP3 DUP3 MSTORE PUSH1 0x20 DUP3 ADD SWAP1 POP SWAP3 SWAP2 POP POP JUMP JUMPDEST PUSH32 0x53746F70206D616B696E67207265656E7472616E63792063616C6C732E20506C PUSH0 DUP3 ADD MSTORE PUSH32 0x6561736520686F6C642100000000000000000000000000000000000000000000 PUSH1 0x20 DUP3 ADD MSTORE POP JUMP JUMPDEST PUSH0 PUSH2 0x51B PUSH1 0x2A DUP4 PUSH2 0x4B1 JUMP JUMPDEST SWAP2 POP PUSH2 0x526 DUP3 PUSH2 0x4C1 JUMP JUMPDEST PUSH1 0x40 DUP3 ADD SWAP1 POP SWAP2 SWAP1 POP JUMP JUMPDEST PUSH0 PUSH1 0x20 DUP3 ADD SWAP1 POP DUP2 DUP2 SUB PUSH0 DUP4 ADD MSTORE PUSH2 0x548 DUP2 PUSH2 0x50F JUMP JUMPDEST SWAP1 POP SWAP2 SWAP1 POP JUMP JUMPDEST PUSH32 0x596F75206861766520616E20696E73756666696369656E742062616C616E6365 PUSH0 DUP3 ADD MSTORE PUSH32 0x2C20706C656173652074727920616761696E2100000000000000000000000000 PUSH1 0x20 DUP3 ADD MSTORE POP JUMP JUMPDEST PUSH0 PUSH2 0x5A9 PUSH1 0x33 DUP4 PUSH2 0x4B1 JUMP JUMPDEST SWAP2 POP PUSH2 0x5B4 DUP3 PUSH2 0x54F JUMP JUMPDEST PUSH1 0x40 DUP3 ADD SWAP1 POP SWAP2 SWAP1 POP JUMP JUMPDEST PUSH0 PUSH1 0x20 DUP3 ADD SWAP1 POP DUP2 DUP2 SUB PUSH0 DUP4 ADD MSTORE PUSH2 0x5D6 DUP2 PUSH2 0x59D JUMP JUMPDEST SWAP1 POP SWAP2 SWAP1 POP JUMP JUMPDEST PUSH32 0x596F752063616E6E6F74207769746864726177206D6F7265207468616E203120 PUSH0 DUP3 ADD MSTORE PUSH32 0x45544820617420612074696D6500000000000000000000000000000000000000 PUSH1 0x20 DUP3 ADD MSTORE POP JUMP JUMPDEST PUSH0 PUSH2 0x637 PUSH1 0x2D DUP4 PUSH2 0x4B1 JUMP JUMPDEST SWAP2 POP PUSH2 0x642 DUP3 PUSH2 0x5DD JUMP JUMPDEST PUSH1 0x40 DUP3 ADD SWAP1 POP SWAP2 SWAP1 POP JUMP JUMPDEST PUSH0 PUSH1 0x20 DUP3 ADD SWAP1 POP DUP2 DUP2 SUB PUSH0 DUP4 ADD MSTORE PUSH2 0x664 DUP2 PUSH2 0x62B JUMP JUMPDEST SWAP1 POP SWAP2 SWAP1 POP JUMP JUMPDEST PUSH32 0x4E487B7100000000000000000000000000000000000000000000000000000000 PUSH0 MSTORE PUSH1 0x11 PUSH1 0x4 MSTORE PUSH1 0x24 PUSH0 REVERT JUMPDEST PUSH0 PUSH2 0x6A2 DUP3 PUSH2 0x42B JUMP JUMPDEST SWAP2 POP PUSH2 0x6AD DUP4 PUSH2 0x42B JUMP JUMPDEST SWAP3 POP DUP3 DUP3 SUB SWAP1 POP DUP2 DUP2 GT ISZERO PUSH2 0x6C5 JUMPI PUSH2 0x6C4 PUSH2 0x66B JUMP JUMPDEST JUMPDEST SWAP3 SWAP2 POP POP JUMP JUMPDEST PUSH0 DUP2 SWAP1 POP SWAP3 SWAP2 POP POP JUMP JUMPDEST POP JUMP JUMPDEST PUSH0 PUSH2 0x6E3 PUSH0 DUP4 PUSH2 0x6CB JUMP JUMPDEST SWAP2 POP PUSH2 0x6EE DUP3 PUSH2 0x6D5 JUMP JUMPDEST PUSH0 DUP3 ADD SWAP1 POP SWAP2 SWAP1 POP JUMP JUMPDEST PUSH0 PUSH2 0x702 DUP3 PUSH2 0x6D8 JUMP JUMPDEST SWAP2 POP DUP2 SWAP1 POP SWAP2 SWAP1 POP JUMP JUMPDEST PUSH32 0x5472616E73616374696F6E204661696C65640000000000000000000000000000 PUSH0 DUP3 ADD MSTORE POP JUMP JUMPDEST PUSH0 PUSH2 0x740 PUSH1 0x12 DUP4 PUSH2 0x4B1 JUMP JUMPDEST SWAP2 POP PUSH2 0x74B DUP3 PUSH2 0x70C JUMP JUMPDEST PUSH1 0x20 DUP3 ADD SWAP1 POP SWAP2 SWAP1 POP JUMP JUMPDEST PUSH0 PUSH1 0x20 DUP3 ADD SWAP1 POP DUP2 DUP2 SUB PUSH0 DUP4 ADD MSTORE PUSH2 0x76D DUP2 PUSH2 0x734 JUMP JUMPDEST SWAP1 POP SWAP2 SWAP1 POP JUMP JUMPDEST PUSH32 0x4E487B7100000000000000000000000000000000000000000000000000000000 PUSH0 MSTORE PUSH1 0x1 PUSH1 0x4 MSTORE PUSH1 0x24 PUSH0 REVERT JUMPDEST PUSH0 PUSH2 0x7AB DUP3 PUSH2 0x42B JUMP JUMPDEST SWAP2 POP PUSH2 0x7B6 DUP4 PUSH2 0x42B JUMP JUMPDEST SWAP3 POP DUP3 DUP3 ADD SWAP1 POP DUP1 DUP3 GT ISZERO PUSH2 0x7CE JUMPI PUSH2 0x7CD PUSH2 0x66B JUMP JUMPDEST JUMPDEST SWAP3 SWAP2 POP POP JUMP INVALID LOG2 PUSH5 0x6970667358 0x22 SLT KECCAK256 JUMPI 0xF 0xC5 STOP LOG1 0xD0 LOG4 DUP13 EXP PUSH12 0xCB734368ACEDBB550BA932FC SIGNEXTEND 0x21 DUP11 0x2E SLOAD MLOAD GAS ADDRESS CODECOPY PUSH28 0x64736F6C634300081F00330000000000000000000000000000000000 "
				},
				"gasEstimates": {
					"creation": {
						"codeDepositCost": "411600",
						"executionCost": "447",
						"totalCost": "412047"
					},
					"external": {
						"contractBalance()": "2424",
						"deposit()": "infinite",
						"withdrawal(uint256)": "infinite"
					}
				},
				"methodIdentifiers": {
					"contractBalance()": "8b7afe2e",
					"deposit()": "d0e30db0",
					"withdrawal(uint256)": "835fc6ca"
				}
			},
			"storageLayout": {
				"storage": [
					{
						"astId": 3,
						"contract": "contracts/Lektion4/Wallet.sol:Wallet",
						"label": "contractBalance",
						"offset": 0,
						"slot": "0",
						"type": "t_uint256"
					},
					{
						"astId": 7,
						"contract": "contracts/Lektion4/Wallet.sol:Wallet",
						"label": "_balances",
						"offset": 0,
						"slot": "1",
						"type": "t_mapping(t_address,t_uint256)"
					},
					{
						"astId": 9,
						"contract": "contracts/Lektion4/Wallet.sol:Wallet",
						"label": "_locked",
						"offset": 0,
						"slot": "2",
						"type": "t_bool"
					}
				],
				"types": {
					"t_address": {
						"encoding": "inplace",
						"label": "address",
						"numberOfBytes": "20"
					},
					"t_bool": {
						"encoding": "inplace",
						"label": "bool",
						"numberOfBytes": "1"
					},
					"t_mapping(t_address,t_uint256)": {
						"encoding": "mapping",
						"key": "t_address",
						"label": "mapping(address => uint256)",
						"numberOfBytes": "32",
						"value": "t_uint256"
					},
					"t_uint256": {
						"encoding": "inplace",
						"label": "uint256",
						"numberOfBytes": "32"
					}
				}
			},
			"userdoc": {
				"kind": "user",
				"methods": {},
				"version": 1
			}
		}
	}
}