{
	"data": {
		"bytecode": {
			"linkReferences": {},
			"object": "60806040525f5f553480156011575f5ffd5b506102ed8061001f5f395ff3fe608060405234801561000f575f5ffd5b5060043610610055575f3560e01c806306661abd14610059578063b7f90f1214610077578063e5071b8e14610081578063fb7517441461008b578063fedb7022146100a7575b5f5ffd5b6100616100c3565b60405161006e9190610144565b60405180910390f35b61007f6100c8565b005b6100896100e0565b005b6100a560048036038101906100a0919061018b565b6100f8565b005b6100c160048036038101906100bc919061018b565b610112565b005b5f5481565b5f5f8154809291906100d9906101e3565b9190505550565b5f5f8154809291906100f19061020a565b9190505550565b805f5f8282546101089190610251565b9250508190555050565b805f5f8282546101229190610284565b9250508190555050565b5f819050919050565b61013e8161012c565b82525050565b5f6020820190506101575f830184610135565b92915050565b5f5ffd5b61016a8161012c565b8114610174575f5ffd5b50565b5f8135905061018581610161565b92915050565b5f602082840312156101a05761019f61015d565b5b5f6101ad84828501610177565b91505092915050565b7f4e487b71000000000000000000000000000000000000000000000000000000005f52601160045260245ffd5b5f6101ed8261012c565b91505f82036101ff576101fe6101b6565b5b600182039050919050565b5f6102148261012c565b91507fffffffffffffffffffffffffffffffffffffffffffffffffffffffffffffffff8203610246576102456101b6565b5b600182019050919050565b5f61025b8261012c565b91506102668361012c565b925082820190508082111561027e5761027d6101b6565b5b92915050565b5f61028e8261012c565b91506102998361012c565b92508282039050818111156102b1576102b06101b6565b5b9291505056fea2646970667358221220eea37834b92ed82ef58cbb469f6e9f18d0d2d9586961fc247bf1f519988f49e764736f6c634300081f0033",
			"opcodes": "PUSH1 0x80 PUSH1 0x40 MSTORE PUSH0 PUSH0 SSTORE CALLVALUE DUP1 ISZERO PUSH1 0x11 JUMPI PUSH0 PUSH0 REVERT JUMPDEST POP PUSH2 0x2ED DUP1 PUSH2 0x1F PUSH0 CODECOPY PUSH0 RETURN INVALID PUSH1 0x80 PUSH1 0x40 MSTORE CALLVALUE DUP1 ISZERO PUSH2 0xF JUMPI PUSH0 PUSH0 REVERT JUMPDEST POP PUSH1 0x4 CALLDATASIZE LT PUSH2 0x55 JUMPI PUSH0 CALLDATALOAD PUSH1 0xE0 SHR DUP1 PUSH4 0x6661ABD EQ PUSH2 0x59 JUMPI DUP1 PUSH4 0xB7F90F12 EQ PUSH2 0x77 JUMPI DUP1 PUSH4 0xE5071B8E EQ PUSH2 0x81 JUMPI DUP1 PUSH4 0xFB751744 EQ PUSH2 0x8B JUMPI DUP1 PUSH4 0xFEDB7022 EQ PUSH2 0xA7 JUMPI JUMPDEST PUSH0 PUSH0 REVERT JUMPDEST PUSH2 0x61 PUSH2 0xC3 JUMP JUMPDEST PUSH1 0x40 MLOAD PUSH2 0x6E SWAP2 SWAP1 PUSH2 0x144 JUMP JUMPDEST PUSH1 0x40 MLOAD DUP1 SWAP2 SUB SWAP1 RETURN JUMPDEST PUSH2 0x7F PUSH2 0xC8 JUMP JUMPDEST STOP JUMPDEST PUSH2 0x89 PUSH2 0xE0 JUMP JUMPDEST STOP JUMPDEST PUSH2 0xA5 PUSH1 0x4 DUP1 CALLDATASIZE SUB DUP2 ADD SWAP1 PUSH2 0xA0 SWAP2 SWAP1 PUSH2 0x18B JUMP JUMPDEST PUSH2 0xF8 JUMP JUMPDEST STOP JUMPDEST PUSH2 0xC1 PUSH1 0x4 DUP1 CALLDATASIZE SUB DUP2 ADD SWAP1 PUSH2 0xBC SWAP2 SWAP1 PUSH2 0x18B JUMP JUMPDEST PUSH2 0x112 JUMP JUMPDEST STOP JUMPDEST PUSH0 SLOAD DUP2 JUMP JUMPDEST PUSH0 PUSH0 DUP2 SLOAD DUP1 SWAP3 SWAP2 SWAP1 PUSH2 0xD9 SWAP1 PUSH2 0x1E3 JUMP JUMPDEST SWAP2 SWAP1 POP SSTORE POP JUMP JUMPDEST PUSH0 PUSH0 DUP2 SLOAD DUP1 SWAP3 SWAP2 SWAP1 PUSH2 0xF1 SWAP1 PUSH2 0x20A JUMP JUMPDEST SWAP2 SWAP1 POP SSTORE POP JUMP JUMPDEST DUP1 PUSH0 PUSH0 DUP3 DUP3 SLOAD PUSH2 0x108 SWAP2 SWAP1 PUSH2 0x251 JUMP JUMPDEST SWAP3 POP POP DUP2 SWAP1 SSTORE POP POP JUMP JUMPDEST DUP1 PUSH0 PUSH0 DUP3 DUP3 SLOAD PUSH2 0x122 SWAP2 SWAP1 PUSH2 0x284 JUMP JUMPDEST SWAP3 POP POP DUP2 SWAP1 SSTORE POP POP JUMP JUMPDEST PUSH0 DUP2 SWAP1 POP SWAP2 SWAP1 POP JUMP JUMPDEST PUSH2 0x13E DUP2 PUSH2 0x12C JUMP JUMPDEST DUP3 MSTORE POP POP JUMP JUMPDEST PUSH0 PUSH1 0x20 DUP3 ADD SWAP1 POP PUSH2 0x157 PUSH0 DUP4 ADD DUP5 PUSH2 0x135 JUMP JUMPDEST SWAP3 SWAP2 POP POP JUMP JUMPDEST PUSH0 PUSH0 REVERT JUMPDEST PUSH2 0x16A DUP2 PUSH2 0x12C JUMP JUMPDEST DUP2 EQ PUSH2 0x174 JUMPI PUSH0 PUSH0 REVERT JUMPDEST POP JUMP JUMPDEST PUSH0 DUP2 CALLDATALOAD SWAP1 POP PUSH2 0x185 DUP2 PUSH2 0x161 JUMP JUMPDEST SWAP3 SWAP2 POP POP JUMP JUMPDEST PUSH0 PUSH1 0x20 DUP3 DUP5 SUB SLT ISZERO PUSH2 0x1A0 JUMPI PUSH2 0x19F PUSH2 0x15D JUMP JUMPDEST JUMPDEST PUSH0 PUSH2 0x1AD DUP5 DUP3 DUP6 ADD PUSH2 0x177 JUMP JUMPDEST SWAP2 POP POP SWAP3 SWAP2 POP POP JUMP JUMPDEST PUSH32 0x4E487B7100000000000000000000000000000000000000000000000000000000 PUSH0 MSTORE PUSH1 0x11 PUSH1 0x4 MSTORE PUSH1 0x24 PUSH0 REVERT JUMPDEST PUSH0 PUSH2 0x1ED DUP3 PUSH2 0x12C JUMP JUMPDEST SWAP2 POP PUSH0 DUP3 SUB PUSH2 0x1FF JUMPI PUSH2 0x1FE PUSH2 0x1B6 JUMP JUMPDEST JUMPDEST PUSH1 0x1 DUP3 SUB SWAP1 POP SWAP2 SWAP1 POP JUMP JUMPDEST PUSH0 PUSH2 0x214 DUP3 PUSH2 0x12C JUMP JUMPDEST SWAP2 POP PUSH32 0xFFFFFFFFFFFFFFFFFFFFFFFFFFFFFFFFFFFFFFFFFFFFFFFFFFFFFFFFFFFFFFFF DUP3 SUB PUSH2 0x246 JUMPI PUSH2 0x245 PUSH2 0x1B6 JUMP JUMPDEST JUMPDEST PUSH1 0x1 DUP3 ADD SWAP1 POP SWAP2 SWAP1 POP JUMP JUMPDEST PUSH0 PUSH2 0x25B DUP3 PUSH2 0x12C JUMP JUMPDEST SWAP2 POP PUSH2 0x266 DUP4 PUSH2 0x12C JUMP JUMPDEST SWAP3 POP DUP3 DUP3 ADD SWAP1 POP DUP1 DUP3 GT ISZERO PUSH2 0x27E JUMPI PUSH2 0x27D PUSH2 0x1B6 JUMP JUMPDEST JUMPDEST SWAP3 SWAP2 POP POP JUMP JUMPDEST PUSH0 PUSH2 0x28E DUP3 PUSH2 0x12C JUMP JUMPDEST SWAP2 POP PUSH2 0x299 DUP4 PUSH2 0x12C JUMP JUMPDEST SWAP3 POP DUP3 DUP3 SUB SWAP1 POP DUP2 DUP2 GT ISZERO PUSH2 0x2B1 JUMPI PUSH2 0x2B0 PUSH2 0x1B6 JUMP JUMPDEST JUMPDEST SWAP3 SWAP2 POP POP JUMP INVALID LOG2 PUSH5 0x6970667358 0x22 SLT KECCAK256 RETURNCONTRACT 0xA3 PUSH25 0x34B92ED82EF58CBB469F6E9F18D0D2D9586961FC247BF1F519 SWAP9 DUP16 BLOBHASH SWAPN 0x64 PUSH20 0x6F6C634300081F00330000000000000000000000 "
		},
		"gasEstimates": {
			"creation": {
				"codeDepositCost": "149800",
				"executionCost": "5198",
				"totalCost": "154998"
			},
			"external": {
				"count()": "2402",
				"decrementByNumber(uint256)": "infinite",
				"decrementCount()": "24495",
				"incrementByNumber(uint256)": "infinite",
				"incrementCount()": "24518"
			}
		},
		"methodIdentifiers": {
			"count()": "06661abd",
			"decrementByNumber(uint256)": "fedb7022",
			"decrementCount()": "b7f90f12",
			"incrementByNumber(uint256)": "fb751744",
			"incrementCount()": "e5071b8e"
		}
	},
	"abi": [
		{
			"inputs": [],
			"name": "count",
			"outputs": [
				{
					"internalType": "uint256",
					"name": "",
					"type": "uint256"
				}
			],
			"stateMutability": "view",
			"type": "function"
		},
		{
			"inputs": [
				{
					"internalType": "uint256",
					"name": "number",
					"type": "uint256"
				}
			],
			"name": "decrementByNumber",
			"outputs": [],
			"stateMutability": "nonpayable",
			"type": "function"
		},
		{
			"inputs": [],
			"name": "decrementCount",
			"outputs": [],
			"stateMutability": "nonpayable",
			"type": "function"
		},
		{
			"inputs": [
				{
					"internalType": "uint256",
					"name": "number",
					"type": "uint256"
				}
			],
			"name": "incrementByNumber",
			"outputs": [],
			"stateMutability": "nonpayable",
			"type": "function"
		},
		{
			"inputs": [],
			"name": "incrementCount",
			"outputs": [],
			"stateMutability": "nonpayable",
			"type": "function"
		}
	]
}