{
	"data": {
		"bytecode": {
			"linkReferences": {},
			"object": "6080604052348015600e575f5ffd5b50610f598061001c5f395ff3fe608060405234801561000f575f5ffd5b5060043610610060575f3560e01c806368744046146100645780637325486c14610096578063b905ad78146100b2578063bec0d799146100d0578063cd80723a146100ec578063d5aa756414610108575b5f5ffd5b61007e60048036038101906100799190610708565b610124565b60405161008d939291906107bf565b60405180910390f35b6100b060048036038101906100ab9190610708565b610271565b005b6100ba6103bb565b6040516100c79190610811565b60405180910390f35b6100ea60048036038101906100e59190610708565b6103c6565b005b61010660048036038101906101019190610980565b610462565b005b610122600480360381019061011d9190610708565b6104fb565b005b5f8181548110610132575f80fd5b905f5260205f2090600302015f91509050805f01805461015190610a35565b80601f016020809104026020016040519081016040528092919081815260200182805461017d90610a35565b80156101c85780601f1061019f576101008083540402835291602001916101c8565b820191905f5260205f20905b8154815290600101906020018083116101ab57829003601f168201915b5050505050908060010180546101dd90610a35565b80601f016020809104026020016040519081016040528092919081815260200182805461020990610a35565b80156102545780601f1061022b57610100808354040283529160200191610254565b820191905f5260205f20905b81548152906001019060200180831161023757829003601f168201915b505050505090806002015f9054906101000a900461ffff16905083565b5f8054905081106102b7576040517f08c379a00000000000000000000000000000000000000000000000000000000081526004016102ae90610aaf565b60405180910390fd5b5f60015f805490506102c99190610afa565b815481106102da576102d9610b2d565b5b905f5260205f2090600302015f82815481106102f9576102f8610b2d565b5b905f5260205f2090600302015f8201815f0190816103179190610d0f565b506001820181600101908161032c9190610d0f565b50600282015f9054906101000a900461ffff16816002015f6101000a81548161ffff021916908361ffff1602179055509050505f8054806103705761036f610df4565b5b600190038181905f5260205f2090600302015f5f82015f610391919061066c565b600182015f6103a0919061066c565b600282015f6101000a81549061ffff02191690555050905550565b5f5f80549050905090565b5f80549050811061040c576040517f08c379a000000000000000000000000000000000000000000000000000000000815260040161040390610aaf565b60405180910390fd5b5f818154811061041f5761041e610b2d565b5b905f5260205f2090600302015f5f82015f61043a919061066c565b600182015f610449919061066c565b600282015f6101000a81549061ffff0219169055505050565b5f60405180606001604052808581526020018481526020018361ffff16815250908060018154018082558091505060019003905f5260205f2090600302015f909190919091505f820151815f0190816104bb9190610e21565b5060208201518160010190816104d19190610e21565b506040820151816002015f6101000a81548161ffff021916908361ffff1602179055505050505050565b5f805490508110610541576040517f08c379a000000000000000000000000000000000000000000000000000000000815260040161053890610aaf565b60405180910390fd5b5f8190505b60015f805490506105579190610afa565b81101561060f575f60018261056c9190610ef0565b8154811061057d5761057c610b2d565b5b905f5260205f2090600302015f828154811061059c5761059b610b2d565b5b905f5260205f2090600302015f8201815f0190816105ba9190610d0f565b50600182018160010190816105cf9190610d0f565b50600282015f9054906101000a900461ffff16816002015f6101000a81548161ffff021916908361ffff1602179055509050508080600101915050610546565b505f80548061062157610620610df4565b5b600190038181905f5260205f2090600302015f5f82015f610642919061066c565b600182015f610651919061066c565b600282015f6101000a81549061ffff02191690555050905550565b50805461067890610a35565b5f825580601f1061068957506106a6565b601f0160209004905f5260205f20908101906106a591906106a9565b5b50565b5b808211156106c0575f815f9055506001016106aa565b5090565b5f604051905090565b5f5ffd5b5f5ffd5b5f819050919050565b6106e7816106d5565b81146106f1575f5ffd5b50565b5f81359050610702816106de565b92915050565b5f6020828403121561071d5761071c6106cd565b5b5f61072a848285016106f4565b91505092915050565b5f81519050919050565b5f82825260208201905092915050565b8281835e5f83830152505050565b5f601f19601f8301169050919050565b5f61077582610733565b61077f818561073d565b935061078f81856020860161074d565b6107988161075b565b840191505092915050565b5f61ffff82169050919050565b6107b9816107a3565b82525050565b5f6060820190508181035f8301526107d7818661076b565b905081810360208301526107eb818561076b565b90506107fa60408301846107b0565b949350505050565b61080b816106d5565b82525050565b5f6020820190506108245f830184610802565b92915050565b5f5ffd5b5f5ffd5b7f4e487b71000000000000000000000000000000000000000000000000000000005f52604160045260245ffd5b6108688261075b565b810181811067ffffffffffffffff8211171561088757610886610832565b5b80604052505050565b5f6108996106c4565b90506108a5828261085f565b919050565b5f67ffffffffffffffff8211156108c4576108c3610832565b5b6108cd8261075b565b9050602081019050919050565b828183375f83830152505050565b5f6108fa6108f5846108aa565b610890565b9050828152602081018484840111156109165761091561082e565b5b6109218482856108da565b509392505050565b5f82601f83011261093d5761093c61082a565b5b813561094d8482602086016108e8565b91505092915050565b61095f816107a3565b8114610969575f5ffd5b50565b5f8135905061097a81610956565b92915050565b5f5f5f60608486031215610997576109966106cd565b5b5f84013567ffffffffffffffff8111156109b4576109b36106d1565b5b6109c086828701610929565b935050602084013567ffffffffffffffff8111156109e1576109e06106d1565b5b6109ed86828701610929565b92505060406109fe8682870161096c565b9150509250925092565b7f4e487b71000000000000000000000000000000000000000000000000000000005f52602260045260245ffd5b5f6002820490506001821680610a4c57607f821691505b602082108103610a5f57610a5e610a08565b5b50919050565b7f5468697320626f6f6b20646f6573206e6f7420657869737400000000000000005f82015250565b5f610a9960188361073d565b9150610aa482610a65565b602082019050919050565b5f6020820190508181035f830152610ac681610a8d565b9050919050565b7f4e487b71000000000000000000000000000000000000000000000000000000005f52601160045260245ffd5b5f610b04826106d5565b9150610b0f836106d5565b9250828203905081811115610b2757610b26610acd565b5b92915050565b7f4e487b71000000000000000000000000000000000000000000000000000000005f52603260045260245ffd5b5f81549050610b6881610a35565b9050919050565b5f819050815f5260205f209050919050565b5f6020601f8301049050919050565b5f82821b905092915050565b5f60088302610bcb7fffffffffffffffffffffffffffffffffffffffffffffffffffffffffffffffff82610b90565b610bd58683610b90565b95508019841693508086168417925050509392505050565b5f819050919050565b5f610c10610c0b610c06846106d5565b610bed565b6106d5565b9050919050565b5f819050919050565b610c2983610bf6565b610c3d610c3582610c17565b848454610b9c565b825550505050565b5f5f905090565b610c54610c45565b610c5f818484610c20565b505050565b5b81811015610c8257610c775f82610c4c565b600181019050610c65565b5050565b601f821115610cc757610c9881610b6f565b610ca184610b81565b81016020851015610cb0578190505b610cc4610cbc85610b81565b830182610c64565b50505b505050565b5f82821c905092915050565b5f610ce75f1984600802610ccc565b1980831691505092915050565b5f610cff8383610cd8565b9150826002028217905092915050565b818103610d1d575050610df2565b610d2682610b5a565b67ffffffffffffffff811115610d3f57610d3e610832565b5b610d498254610a35565b610d54828285610c86565b5f601f831160018114610d81575f8415610d6f578287015490505b610d798582610cf4565b865550610deb565b601f198416610d8f87610b6f565b9650610d9a86610b6f565b5f5b82811015610dc157848901548255600182019150600185019450602081019050610d9c565b86831015610dde5784890154610dda601f891682610cd8565b8355505b6001600288020188555050505b5050505050505b565b7f4e487b71000000000000000000000000000000000000000000000000000000005f52603160045260245ffd5b610e2a82610733565b67ffffffffffffffff811115610e4357610e42610832565b5b610e4d8254610a35565b610e58828285610c86565b5f60209050601f831160018114610e89575f8415610e77578287015190505b610e818582610cf4565b865550610ee8565b601f198416610e9786610b6f565b5f5b82811015610ebe57848901518255600182019150602085019450602081019050610e99565b86831015610edb5784890151610ed7601f891682610cd8565b8355505b6001600288020188555050505b505050505050565b5f610efa826106d5565b9150610f05836106d5565b9250828201905080821115610f1d57610f1c610acd565b5b9291505056fea2646970667358221220f0910f6d805b4cf152281e1ce7fd36a292d7b893728880df9fdaee54c78b2c1164736f6c634300081f0033",
			"opcodes": "PUSH1 0x80 PUSH1 0x40 MSTORE CALLVALUE DUP1 ISZERO PUSH1 0xE JUMPI PUSH0 PUSH0 REVERT JUMPDEST POP PUSH2 0xF59 DUP1 PUSH2 0x1C PUSH0 CODECOPY PUSH0 RETURN INVALID PUSH1 0x80 PUSH1 0x40 MSTORE CALLVALUE DUP1 ISZERO PUSH2 0xF JUMPI PUSH0 PUSH0 REVERT JUMPDEST POP PUSH1 0x4 CALLDATASIZE LT PUSH2 0x60 JUMPI PUSH0 CALLDATALOAD PUSH1 0xE0 SHR DUP1 PUSH4 0x68744046 EQ PUSH2 0x64 JUMPI DUP1 PUSH4 0x7325486C EQ PUSH2 0x96 JUMPI DUP1 PUSH4 0xB905AD78 EQ PUSH2 0xB2 JUMPI DUP1 PUSH4 0xBEC0D799 EQ PUSH2 0xD0 JUMPI DUP1 PUSH4 0xCD80723A EQ PUSH2 0xEC JUMPI DUP1 PUSH4 0xD5AA7564 EQ PUSH2 0x108 JUMPI JUMPDEST PUSH0 PUSH0 REVERT JUMPDEST PUSH2 0x7E PUSH1 0x4 DUP1 CALLDATASIZE SUB DUP2 ADD SWAP1 PUSH2 0x79 SWAP2 SWAP1 PUSH2 0x708 JUMP JUMPDEST PUSH2 0x124 JUMP JUMPDEST PUSH1 0x40 MLOAD PUSH2 0x8D SWAP4 SWAP3 SWAP2 SWAP1 PUSH2 0x7BF JUMP JUMPDEST PUSH1 0x40 MLOAD DUP1 SWAP2 SUB SWAP1 RETURN JUMPDEST PUSH2 0xB0 PUSH1 0x4 DUP1 CALLDATASIZE SUB DUP2 ADD SWAP1 PUSH2 0xAB SWAP2 SWAP1 PUSH2 0x708 JUMP JUMPDEST PUSH2 0x271 JUMP JUMPDEST STOP JUMPDEST PUSH2 0xBA PUSH2 0x3BB JUMP JUMPDEST PUSH1 0x40 MLOAD PUSH2 0xC7 SWAP2 SWAP1 PUSH2 0x811 JUMP JUMPDEST PUSH1 0x40 MLOAD DUP1 SWAP2 SUB SWAP1 RETURN JUMPDEST PUSH2 0xEA PUSH1 0x4 DUP1 CALLDATASIZE SUB DUP2 ADD SWAP1 PUSH2 0xE5 SWAP2 SWAP1 PUSH2 0x708 JUMP JUMPDEST PUSH2 0x3C6 JUMP JUMPDEST STOP JUMPDEST PUSH2 0x106 PUSH1 0x4 DUP1 CALLDATASIZE SUB DUP2 ADD SWAP1 PUSH2 0x101 SWAP2 SWAP1 PUSH2 0x980 JUMP JUMPDEST PUSH2 0x462 JUMP JUMPDEST STOP JUMPDEST PUSH2 0x122 PUSH1 0x4 DUP1 CALLDATASIZE SUB DUP2 ADD SWAP1 PUSH2 0x11D SWAP2 SWAP1 PUSH2 0x708 JUMP JUMPDEST PUSH2 0x4FB JUMP JUMPDEST STOP JUMPDEST PUSH0 DUP2 DUP2 SLOAD DUP2 LT PUSH2 0x132 JUMPI PUSH0 DUP1 REVERT JUMPDEST SWAP1 PUSH0 MSTORE PUSH1 0x20 PUSH0 KECCAK256 SWAP1 PUSH1 0x3 MUL ADD PUSH0 SWAP2 POP SWAP1 POP DUP1 PUSH0 ADD DUP1 SLOAD PUSH2 0x151 SWAP1 PUSH2 0xA35 JUMP JUMPDEST DUP1 PUSH1 0x1F ADD PUSH1 0x20 DUP1 SWAP2 DIV MUL PUSH1 0x20 ADD PUSH1 0x40 MLOAD SWAP1 DUP2 ADD PUSH1 0x40 MSTORE DUP1 SWAP3 SWAP2 SWAP1 DUP2 DUP2 MSTORE PUSH1 0x20 ADD DUP3 DUP1 SLOAD PUSH2 0x17D SWAP1 PUSH2 0xA35 JUMP JUMPDEST DUP1 ISZERO PUSH2 0x1C8 JUMPI DUP1 PUSH1 0x1F LT PUSH2 0x19F JUMPI PUSH2 0x100 DUP1 DUP4 SLOAD DIV MUL DUP4 MSTORE SWAP2 PUSH1 0x20 ADD SWAP2 PUSH2 0x1C8 JUMP JUMPDEST DUP3 ADD SWAP2 SWAP1 PUSH0 MSTORE PUSH1 0x20 PUSH0 KECCAK256 SWAP1 JUMPDEST DUP2 SLOAD DUP2 MSTORE SWAP1 PUSH1 0x1 ADD SWAP1 PUSH1 0x20 ADD DUP1 DUP4 GT PUSH2 0x1AB JUMPI DUP3 SWAP1 SUB PUSH1 0x1F AND DUP3 ADD SWAP2 JUMPDEST POP POP POP POP POP SWAP1 DUP1 PUSH1 0x1 ADD DUP1 SLOAD PUSH2 0x1DD SWAP1 PUSH2 0xA35 JUMP JUMPDEST DUP1 PUSH1 0x1F ADD PUSH1 0x20 DUP1 SWAP2 DIV MUL PUSH1 0x20 ADD PUSH1 0x40 MLOAD SWAP1 DUP2 ADD PUSH1 0x40 MSTORE DUP1 SWAP3 SWAP2 SWAP1 DUP2 DUP2 MSTORE PUSH1 0x20 ADD DUP3 DUP1 SLOAD PUSH2 0x209 SWAP1 PUSH2 0xA35 JUMP JUMPDEST DUP1 ISZERO PUSH2 0x254 JUMPI DUP1 PUSH1 0x1F LT PUSH2 0x22B JUMPI PUSH2 0x100 DUP1 DUP4 SLOAD DIV MUL DUP4 MSTORE SWAP2 PUSH1 0x20 ADD SWAP2 PUSH2 0x254 JUMP JUMPDEST DUP3 ADD SWAP2 SWAP1 PUSH0 MSTORE PUSH1 0x20 PUSH0 KECCAK256 SWAP1 JUMPDEST DUP2 SLOAD DUP2 MSTORE SWAP1 PUSH1 0x1 ADD SWAP1 PUSH1 0x20 ADD DUP1 DUP4 GT PUSH2 0x237 JUMPI DUP3 SWAP1 SUB PUSH1 0x1F AND DUP3 ADD SWAP2 JUMPDEST POP POP POP POP POP SWAP1 DUP1 PUSH1 0x2 ADD PUSH0 SWAP1 SLOAD SWAP1 PUSH2 0x100 EXP SWAP1 DIV PUSH2 0xFFFF AND SWAP1 POP DUP4 JUMP JUMPDEST PUSH0 DUP1 SLOAD SWAP1 POP DUP2 LT PUSH2 0x2B7 JUMPI PUSH1 0x40 MLOAD PUSH32 0x8C379A000000000000000000000000000000000000000000000000000000000 DUP2 MSTORE PUSH1 0x4 ADD PUSH2 0x2AE SWAP1 PUSH2 0xAAF JUMP JUMPDEST PUSH1 0x40 MLOAD DUP1 SWAP2 SUB SWAP1 REVERT JUMPDEST PUSH0 PUSH1 0x1 PUSH0 DUP1 SLOAD SWAP1 POP PUSH2 0x2C9 SWAP2 SWAP1 PUSH2 0xAFA JUMP JUMPDEST DUP2 SLOAD DUP2 LT PUSH2 0x2DA JUMPI PUSH2 0x2D9 PUSH2 0xB2D JUMP JUMPDEST JUMPDEST SWAP1 PUSH0 MSTORE PUSH1 0x20 PUSH0 KECCAK256 SWAP1 PUSH1 0x3 MUL ADD PUSH0 DUP3 DUP2 SLOAD DUP2 LT PUSH2 0x2F9 JUMPI PUSH2 0x2F8 PUSH2 0xB2D JUMP JUMPDEST JUMPDEST SWAP1 PUSH0 MSTORE PUSH1 0x20 PUSH0 KECCAK256 SWAP1 PUSH1 0x3 MUL ADD PUSH0 DUP3 ADD DUP2 PUSH0 ADD SWAP1 DUP2 PUSH2 0x317 SWAP2 SWAP1 PUSH2 0xD0F JUMP JUMPDEST POP PUSH1 0x1 DUP3 ADD DUP2 PUSH1 0x1 ADD SWAP1 DUP2 PUSH2 0x32C SWAP2 SWAP1 PUSH2 0xD0F JUMP JUMPDEST POP PUSH1 0x2 DUP3 ADD PUSH0 SWAP1 SLOAD SWAP1 PUSH2 0x100 EXP SWAP1 DIV PUSH2 0xFFFF AND DUP2 PUSH1 0x2 ADD PUSH0 PUSH2 0x100 EXP DUP2 SLOAD DUP2 PUSH2 0xFFFF MUL NOT AND SWAP1 DUP4 PUSH2 0xFFFF AND MUL OR SWAP1 SSTORE POP SWAP1 POP POP PUSH0 DUP1 SLOAD DUP1 PUSH2 0x370 JUMPI PUSH2 0x36F PUSH2 0xDF4 JUMP JUMPDEST JUMPDEST PUSH1 0x1 SWAP1 SUB DUP2 DUP2 SWAP1 PUSH0 MSTORE PUSH1 0x20 PUSH0 KECCAK256 SWAP1 PUSH1 0x3 MUL ADD PUSH0 PUSH0 DUP3 ADD PUSH0 PUSH2 0x391 SWAP2 SWAP1 PUSH2 0x66C JUMP JUMPDEST PUSH1 0x1 DUP3 ADD PUSH0 PUSH2 0x3A0 SWAP2 SWAP1 PUSH2 0x66C JUMP JUMPDEST PUSH1 0x2 DUP3 ADD PUSH0 PUSH2 0x100 EXP DUP2 SLOAD SWAP1 PUSH2 0xFFFF MUL NOT AND SWAP1 SSTORE POP POP SWAP1 SSTORE POP JUMP JUMPDEST PUSH0 PUSH0 DUP1 SLOAD SWAP1 POP SWAP1 POP SWAP1 JUMP JUMPDEST PUSH0 DUP1 SLOAD SWAP1 POP DUP2 LT PUSH2 0x40C JUMPI PUSH1 0x40 MLOAD PUSH32 0x8C379A000000000000000000000000000000000000000000000000000000000 DUP2 MSTORE PUSH1 0x4 ADD PUSH2 0x403 SWAP1 PUSH2 0xAAF JUMP JUMPDEST PUSH1 0x40 MLOAD DUP1 SWAP2 SUB SWAP1 REVERT JUMPDEST PUSH0 DUP2 DUP2 SLOAD DUP2 LT PUSH2 0x41F JUMPI PUSH2 0x41E PUSH2 0xB2D JUMP JUMPDEST JUMPDEST SWAP1 PUSH0 MSTORE PUSH1 0x20 PUSH0 KECCAK256 SWAP1 PUSH1 0x3 MUL ADD PUSH0 PUSH0 DUP3 ADD PUSH0 PUSH2 0x43A SWAP2 SWAP1 PUSH2 0x66C JUMP JUMPDEST PUSH1 0x1 DUP3 ADD PUSH0 PUSH2 0x449 SWAP2 SWAP1 PUSH2 0x66C JUMP JUMPDEST PUSH1 0x2 DUP3 ADD PUSH0 PUSH2 0x100 EXP DUP2 SLOAD SWAP1 PUSH2 0xFFFF MUL NOT AND SWAP1 SSTORE POP POP POP JUMP JUMPDEST PUSH0 PUSH1 0x40 MLOAD DUP1 PUSH1 0x60 ADD PUSH1 0x40 MSTORE DUP1 DUP6 DUP2 MSTORE PUSH1 0x20 ADD DUP5 DUP2 MSTORE PUSH1 0x20 ADD DUP4 PUSH2 0xFFFF AND DUP2 MSTORE POP SWAP1 DUP1 PUSH1 0x1 DUP2 SLOAD ADD DUP1 DUP3 SSTORE DUP1 SWAP2 POP POP PUSH1 0x1 SWAP1 SUB SWAP1 PUSH0 MSTORE PUSH1 0x20 PUSH0 KECCAK256 SWAP1 PUSH1 0x3 MUL ADD PUSH0 SWAP1 SWAP2 SWAP1 SWAP2 SWAP1 SWAP2 POP PUSH0 DUP3 ADD MLOAD DUP2 PUSH0 ADD SWAP1 DUP2 PUSH2 0x4BB SWAP2 SWAP1 PUSH2 0xE21 JUMP JUMPDEST POP PUSH1 0x20 DUP3 ADD MLOAD DUP2 PUSH1 0x1 ADD SWAP1 DUP2 PUSH2 0x4D1 SWAP2 SWAP1 PUSH2 0xE21 JUMP JUMPDEST POP PUSH1 0x40 DUP3 ADD MLOAD DUP2 PUSH1 0x2 ADD PUSH0 PUSH2 0x100 EXP DUP2 SLOAD DUP2 PUSH2 0xFFFF MUL NOT AND SWAP1 DUP4 PUSH2 0xFFFF AND MUL OR SWAP1 SSTORE POP POP POP POP POP POP JUMP JUMPDEST PUSH0 DUP1 SLOAD SWAP1 POP DUP2 LT PUSH2 0x541 JUMPI PUSH1 0x40 MLOAD PUSH32 0x8C379A000000000000000000000000000000000000000000000000000000000 DUP2 MSTORE PUSH1 0x4 ADD PUSH2 0x538 SWAP1 PUSH2 0xAAF JUMP JUMPDEST PUSH1 0x40 MLOAD DUP1 SWAP2 SUB SWAP1 REVERT JUMPDEST PUSH0 DUP2 SWAP1 POP JUMPDEST PUSH1 0x1 PUSH0 DUP1 SLOAD SWAP1 POP PUSH2 0x557 SWAP2 SWAP1 PUSH2 0xAFA JUMP JUMPDEST DUP2 LT ISZERO PUSH2 0x60F JUMPI PUSH0 PUSH1 0x1 DUP3 PUSH2 0x56C SWAP2 SWAP1 PUSH2 0xEF0 JUMP JUMPDEST DUP2 SLOAD DUP2 LT PUSH2 0x57D JUMPI PUSH2 0x57C PUSH2 0xB2D JUMP JUMPDEST JUMPDEST SWAP1 PUSH0 MSTORE PUSH1 0x20 PUSH0 KECCAK256 SWAP1 PUSH1 0x3 MUL ADD PUSH0 DUP3 DUP2 SLOAD DUP2 LT PUSH2 0x59C JUMPI PUSH2 0x59B PUSH2 0xB2D JUMP JUMPDEST JUMPDEST SWAP1 PUSH0 MSTORE PUSH1 0x20 PUSH0 KECCAK256 SWAP1 PUSH1 0x3 MUL ADD PUSH0 DUP3 ADD DUP2 PUSH0 ADD SWAP1 DUP2 PUSH2 0x5BA SWAP2 SWAP1 PUSH2 0xD0F JUMP JUMPDEST POP PUSH1 0x1 DUP3 ADD DUP2 PUSH1 0x1 ADD SWAP1 DUP2 PUSH2 0x5CF SWAP2 SWAP1 PUSH2 0xD0F JUMP JUMPDEST POP PUSH1 0x2 DUP3 ADD PUSH0 SWAP1 SLOAD SWAP1 PUSH2 0x100 EXP SWAP1 DIV PUSH2 0xFFFF AND DUP2 PUSH1 0x2 ADD PUSH0 PUSH2 0x100 EXP DUP2 SLOAD DUP2 PUSH2 0xFFFF MUL NOT AND SWAP1 DUP4 PUSH2 0xFFFF AND MUL OR SWAP1 SSTORE POP SWAP1 POP POP DUP1 DUP1 PUSH1 0x1 ADD SWAP2 POP POP PUSH2 0x546 JUMP JUMPDEST POP PUSH0 DUP1 SLOAD DUP1 PUSH2 0x621 JUMPI PUSH2 0x620 PUSH2 0xDF4 JUMP JUMPDEST JUMPDEST PUSH1 0x1 SWAP1 SUB DUP2 DUP2 SWAP1 PUSH0 MSTORE PUSH1 0x20 PUSH0 KECCAK256 SWAP1 PUSH1 0x3 MUL ADD PUSH0 PUSH0 DUP3 ADD PUSH0 PUSH2 0x642 SWAP2 SWAP1 PUSH2 0x66C JUMP JUMPDEST PUSH1 0x1 DUP3 ADD PUSH0 PUSH2 0x651 SWAP2 SWAP1 PUSH2 0x66C JUMP JUMPDEST PUSH1 0x2 DUP3 ADD PUSH0 PUSH2 0x100 EXP DUP2 SLOAD SWAP1 PUSH2 0xFFFF MUL NOT AND SWAP1 SSTORE POP POP SWAP1 SSTORE POP JUMP JUMPDEST POP DUP1 SLOAD PUSH2 0x678 SWAP1 PUSH2 0xA35 JUMP JUMPDEST PUSH0 DUP3 SSTORE DUP1 PUSH1 0x1F LT PUSH2 0x689 JUMPI POP PUSH2 0x6A6 JUMP JUMPDEST PUSH1 0x1F ADD PUSH1 0x20 SWAP1 DIV SWAP1 PUSH0 MSTORE PUSH1 0x20 PUSH0 KECCAK256 SWAP1 DUP2 ADD SWAP1 PUSH2 0x6A5 SWAP2 SWAP1 PUSH2 0x6A9 JUMP JUMPDEST JUMPDEST POP JUMP JUMPDEST JUMPDEST DUP1 DUP3 GT ISZERO PUSH2 0x6C0 JUMPI PUSH0 DUP2 PUSH0 SWAP1 SSTORE POP PUSH1 0x1 ADD PUSH2 0x6AA JUMP JUMPDEST POP SWAP1 JUMP JUMPDEST PUSH0 PUSH1 0x40 MLOAD SWAP1 POP SWAP1 JUMP JUMPDEST PUSH0 PUSH0 REVERT JUMPDEST PUSH0 PUSH0 REVERT JUMPDEST PUSH0 DUP2 SWAP1 POP SWAP2 SWAP1 POP JUMP JUMPDEST PUSH2 0x6E7 DUP2 PUSH2 0x6D5 JUMP JUMPDEST DUP2 EQ PUSH2 0x6F1 JUMPI PUSH0 PUSH0 REVERT JUMPDEST POP JUMP JUMPDEST PUSH0 DUP2 CALLDATALOAD SWAP1 POP PUSH2 0x702 DUP2 PUSH2 0x6DE JUMP JUMPDEST SWAP3 SWAP2 POP POP JUMP JUMPDEST PUSH0 PUSH1 0x20 DUP3 DUP5 SUB SLT ISZERO PUSH2 0x71D JUMPI PUSH2 0x71C PUSH2 0x6CD JUMP JUMPDEST JUMPDEST PUSH0 PUSH2 0x72A DUP5 DUP3 DUP6 ADD PUSH2 0x6F4 JUMP JUMPDEST SWAP2 POP POP SWAP3 SWAP2 POP POP JUMP JUMPDEST PUSH0 DUP2 MLOAD SWAP1 POP SWAP2 SWAP1 POP JUMP JUMPDEST PUSH0 DUP3 DUP3 MSTORE PUSH1 0x20 DUP3 ADD SWAP1 POP SWAP3 SWAP2 POP POP JUMP JUMPDEST DUP3 DUP2 DUP4 MCOPY PUSH0 DUP4 DUP4 ADD MSTORE POP POP POP JUMP JUMPDEST PUSH0 PUSH1 0x1F NOT PUSH1 0x1F DUP4 ADD AND SWAP1 POP SWAP2 SWAP1 POP JUMP JUMPDEST PUSH0 PUSH2 0x775 DUP3 PUSH2 0x733 JUMP JUMPDEST PUSH2 0x77F DUP2 DUP6 PUSH2 0x73D JUMP JUMPDEST SWAP4 POP PUSH2 0x78F DUP2 DUP6 PUSH1 0x20 DUP7 ADD PUSH2 0x74D JUMP JUMPDEST PUSH2 0x798 DUP2 PUSH2 0x75B JUMP JUMPDEST DUP5 ADD SWAP2 POP POP SWAP3 SWAP2 POP POP JUMP JUMPDEST PUSH0 PUSH2 0xFFFF DUP3 AND SWAP1 POP SWAP2 SWAP1 POP JUMP JUMPDEST PUSH2 0x7B9 DUP2 PUSH2 0x7A3 JUMP JUMPDEST DUP3 MSTORE POP POP JUMP JUMPDEST PUSH0 PUSH1 0x60 DUP3 ADD SWAP1 POP DUP2 DUP2 SUB PUSH0 DUP4 ADD MSTORE PUSH2 0x7D7 DUP2 DUP7 PUSH2 0x76B JUMP JUMPDEST SWAP1 POP DUP2 DUP2 SUB PUSH1 0x20 DUP4 ADD MSTORE PUSH2 0x7EB DUP2 DUP6 PUSH2 0x76B JUMP JUMPDEST SWAP1 POP PUSH2 0x7FA PUSH1 0x40 DUP4 ADD DUP5 PUSH2 0x7B0 JUMP JUMPDEST SWAP5 SWAP4 POP POP POP POP JUMP JUMPDEST PUSH2 0x80B DUP2 PUSH2 0x6D5 JUMP JUMPDEST DUP3 MSTORE POP POP JUMP JUMPDEST PUSH0 PUSH1 0x20 DUP3 ADD SWAP1 POP PUSH2 0x824 PUSH0 DUP4 ADD DUP5 PUSH2 0x802 JUMP JUMPDEST SWAP3 SWAP2 POP POP JUMP JUMPDEST PUSH0 PUSH0 REVERT JUMPDEST PUSH0 PUSH0 REVERT JUMPDEST PUSH32 0x4E487B7100000000000000000000000000000000000000000000000000000000 PUSH0 MSTORE PUSH1 0x41 PUSH1 0x4 MSTORE PUSH1 0x24 PUSH0 REVERT JUMPDEST PUSH2 0x868 DUP3 PUSH2 0x75B JUMP JUMPDEST DUP2 ADD DUP2 DUP2 LT PUSH8 0xFFFFFFFFFFFFFFFF DUP3 GT OR ISZERO PUSH2 0x887 JUMPI PUSH2 0x886 PUSH2 0x832 JUMP JUMPDEST JUMPDEST DUP1 PUSH1 0x40 MSTORE POP POP POP JUMP JUMPDEST PUSH0 PUSH2 0x899 PUSH2 0x6C4 JUMP JUMPDEST SWAP1 POP PUSH2 0x8A5 DUP3 DUP3 PUSH2 0x85F JUMP JUMPDEST SWAP2 SWAP1 POP JUMP JUMPDEST PUSH0 PUSH8 0xFFFFFFFFFFFFFFFF DUP3 GT ISZERO PUSH2 0x8C4 JUMPI PUSH2 0x8C3 PUSH2 0x832 JUMP JUMPDEST JUMPDEST PUSH2 0x8CD DUP3 PUSH2 0x75B JUMP JUMPDEST SWAP1 POP PUSH1 0x20 DUP2 ADD SWAP1 POP SWAP2 SWAP1 POP JUMP JUMPDEST DUP3 DUP2 DUP4 CALLDATACOPY PUSH0 DUP4 DUP4 ADD MSTORE POP POP POP JUMP JUMPDEST PUSH0 PUSH2 0x8FA PUSH2 0x8F5 DUP5 PUSH2 0x8AA JUMP JUMPDEST PUSH2 0x890 JUMP JUMPDEST SWAP1 POP DUP3 DUP2 MSTORE PUSH1 0x20 DUP2 ADD DUP5 DUP5 DUP5 ADD GT ISZERO PUSH2 0x916 JUMPI PUSH2 0x915 PUSH2 0x82E JUMP JUMPDEST JUMPDEST PUSH2 0x921 DUP5 DUP3 DUP6 PUSH2 0x8DA JUMP JUMPDEST POP SWAP4 SWAP3 POP POP POP JUMP JUMPDEST PUSH0 DUP3 PUSH1 0x1F DUP4 ADD SLT PUSH2 0x93D JUMPI PUSH2 0x93C PUSH2 0x82A JUMP JUMPDEST JUMPDEST DUP2 CALLDATALOAD PUSH2 0x94D DUP5 DUP3 PUSH1 0x20 DUP7 ADD PUSH2 0x8E8 JUMP JUMPDEST SWAP2 POP POP SWAP3 SWAP2 POP POP JUMP JUMPDEST PUSH2 0x95F DUP2 PUSH2 0x7A3 JUMP JUMPDEST DUP2 EQ PUSH2 0x969 JUMPI PUSH0 PUSH0 REVERT JUMPDEST POP JUMP JUMPDEST PUSH0 DUP2 CALLDATALOAD SWAP1 POP PUSH2 0x97A DUP2 PUSH2 0x956 JUMP JUMPDEST SWAP3 SWAP2 POP POP JUMP JUMPDEST PUSH0 PUSH0 PUSH0 PUSH1 0x60 DUP5 DUP7 SUB SLT ISZERO PUSH2 0x997 JUMPI PUSH2 0x996 PUSH2 0x6CD JUMP JUMPDEST JUMPDEST PUSH0 DUP5 ADD CALLDATALOAD PUSH8 0xFFFFFFFFFFFFFFFF DUP2 GT ISZERO PUSH2 0x9B4 JUMPI PUSH2 0x9B3 PUSH2 0x6D1 JUMP JUMPDEST JUMPDEST PUSH2 0x9C0 DUP7 DUP3 DUP8 ADD PUSH2 0x929 JUMP JUMPDEST SWAP4 POP POP PUSH1 0x20 DUP5 ADD CALLDATALOAD PUSH8 0xFFFFFFFFFFFFFFFF DUP2 GT ISZERO PUSH2 0x9E1 JUMPI PUSH2 0x9E0 PUSH2 0x6D1 JUMP JUMPDEST JUMPDEST PUSH2 0x9ED DUP7 DUP3 DUP8 ADD PUSH2 0x929 JUMP JUMPDEST SWAP3 POP POP PUSH1 0x40 PUSH2 0x9FE DUP7 DUP3 DUP8 ADD PUSH2 0x96C JUMP JUMPDEST SWAP2 POP POP SWAP3 POP SWAP3 POP SWAP3 JUMP JUMPDEST PUSH32 0x4E487B7100000000000000000000000000000000000000000000000000000000 PUSH0 MSTORE PUSH1 0x22 PUSH1 0x4 MSTORE PUSH1 0x24 PUSH0 REVERT JUMPDEST PUSH0 PUSH1 0x2 DUP3 DIV SWAP1 POP PUSH1 0x1 DUP3 AND DUP1 PUSH2 0xA4C JUMPI PUSH1 0x7F DUP3 AND SWAP2 POP JUMPDEST PUSH1 0x20 DUP3 LT DUP2 SUB PUSH2 0xA5F JUMPI PUSH2 0xA5E PUSH2 0xA08 JUMP JUMPDEST JUMPDEST POP SWAP2 SWAP1 POP JUMP JUMPDEST PUSH32 0x5468697320626F6F6B20646F6573206E6F742065786973740000000000000000 PUSH0 DUP3 ADD MSTORE POP JUMP JUMPDEST PUSH0 PUSH2 0xA99 PUSH1 0x18 DUP4 PUSH2 0x73D JUMP JUMPDEST SWAP2 POP PUSH2 0xAA4 DUP3 PUSH2 0xA65 JUMP JUMPDEST PUSH1 0x20 DUP3 ADD SWAP1 POP SWAP2 SWAP1 POP JUMP JUMPDEST PUSH0 PUSH1 0x20 DUP3 ADD SWAP1 POP DUP2 DUP2 SUB PUSH0 DUP4 ADD MSTORE PUSH2 0xAC6 DUP2 PUSH2 0xA8D JUMP JUMPDEST SWAP1 POP SWAP2 SWAP1 POP JUMP JUMPDEST PUSH32 0x4E487B7100000000000000000000000000000000000000000000000000000000 PUSH0 MSTORE PUSH1 0x11 PUSH1 0x4 MSTORE PUSH1 0x24 PUSH0 REVERT JUMPDEST PUSH0 PUSH2 0xB04 DUP3 PUSH2 0x6D5 JUMP JUMPDEST SWAP2 POP PUSH2 0xB0F DUP4 PUSH2 0x6D5 JUMP JUMPDEST SWAP3 POP DUP3 DUP3 SUB SWAP1 POP DUP2 DUP2 GT ISZERO PUSH2 0xB27 JUMPI PUSH2 0xB26 PUSH2 0xACD JUMP JUMPDEST JUMPDEST SWAP3 SWAP2 POP POP JUMP JUMPDEST PUSH32 0x4E487B7100000000000000000000000000000000000000000000000000000000 PUSH0 MSTORE PUSH1 0x32 PUSH1 0x4 MSTORE PUSH1 0x24 PUSH0 REVERT JUMPDEST PUSH0 DUP2 SLOAD SWAP1 POP PUSH2 0xB68 DUP2 PUSH2 0xA35 JUMP JUMPDEST SWAP1 POP SWAP2 SWAP1 POP JUMP JUMPDEST PUSH0 DUP2 SWAP1 POP DUP2 PUSH0 MSTORE PUSH1 0x20 PUSH0 KECCAK256 SWAP1 POP SWAP2 SWAP1 POP JUMP JUMPDEST PUSH0 PUSH1 0x20 PUSH1 0x1F DUP4 ADD DIV SWAP1 POP SWAP2 SWAP1 POP JUMP JUMPDEST PUSH0 DUP3 DUP3 SHL SWAP1 POP SWAP3 SWAP2 POP POP JUMP JUMPDEST PUSH0 PUSH1 0x8 DUP4 MUL PUSH2 0xBCB PUSH32 0xFFFFFFFFFFFFFFFFFFFFFFFFFFFFFFFFFFFFFFFFFFFFFFFFFFFFFFFFFFFFFFFF DUP3 PUSH2 0xB90 JUMP JUMPDEST PUSH2 0xBD5 DUP7 DUP4 PUSH2 0xB90 JUMP JUMPDEST SWAP6 POP DUP1 NOT DUP5 AND SWAP4 POP DUP1 DUP7 AND DUP5 OR SWAP3 POP POP POP SWAP4 SWAP3 POP POP POP JUMP JUMPDEST PUSH0 DUP2 SWAP1 POP SWAP2 SWAP1 POP JUMP JUMPDEST PUSH0 PUSH2 0xC10 PUSH2 0xC0B PUSH2 0xC06 DUP5 PUSH2 0x6D5 JUMP JUMPDEST PUSH2 0xBED JUMP JUMPDEST PUSH2 0x6D5 JUMP JUMPDEST SWAP1 POP SWAP2 SWAP1 POP JUMP JUMPDEST PUSH0 DUP2 SWAP1 POP SWAP2 SWAP1 POP JUMP JUMPDEST PUSH2 0xC29 DUP4 PUSH2 0xBF6 JUMP JUMPDEST PUSH2 0xC3D PUSH2 0xC35 DUP3 PUSH2 0xC17 JUMP JUMPDEST DUP5 DUP5 SLOAD PUSH2 0xB9C JUMP JUMPDEST DUP3 SSTORE POP POP POP POP JUMP JUMPDEST PUSH0 PUSH0 SWAP1 POP SWAP1 JUMP JUMPDEST PUSH2 0xC54 PUSH2 0xC45 JUMP JUMPDEST PUSH2 0xC5F DUP2 DUP5 DUP5 PUSH2 0xC20 JUMP JUMPDEST POP POP POP JUMP JUMPDEST JUMPDEST DUP2 DUP2 LT ISZERO PUSH2 0xC82 JUMPI PUSH2 0xC77 PUSH0 DUP3 PUSH2 0xC4C JUMP JUMPDEST PUSH1 0x1 DUP2 ADD SWAP1 POP PUSH2 0xC65 JUMP JUMPDEST POP POP JUMP JUMPDEST PUSH1 0x1F DUP3 GT ISZERO PUSH2 0xCC7 JUMPI PUSH2 0xC98 DUP2 PUSH2 0xB6F JUMP JUMPDEST PUSH2 0xCA1 DUP5 PUSH2 0xB81 JUMP JUMPDEST DUP2 ADD PUSH1 0x20 DUP6 LT ISZERO PUSH2 0xCB0 JUMPI DUP2 SWAP1 POP JUMPDEST PUSH2 0xCC4 PUSH2 0xCBC DUP6 PUSH2 0xB81 JUMP JUMPDEST DUP4 ADD DUP3 PUSH2 0xC64 JUMP JUMPDEST POP POP JUMPDEST POP POP POP JUMP JUMPDEST PUSH0 DUP3 DUP3 SHR SWAP1 POP SWAP3 SWAP2 POP POP JUMP JUMPDEST PUSH0 PUSH2 0xCE7 PUSH0 NOT DUP5 PUSH1 0x8 MUL PUSH2 0xCCC JUMP JUMPDEST NOT DUP1 DUP4 AND SWAP2 POP POP SWAP3 SWAP2 POP POP JUMP JUMPDEST PUSH0 PUSH2 0xCFF DUP4 DUP4 PUSH2 0xCD8 JUMP JUMPDEST SWAP2 POP DUP3 PUSH1 0x2 MUL DUP3 OR SWAP1 POP SWAP3 SWAP2 POP POP JUMP JUMPDEST DUP2 DUP2 SUB PUSH2 0xD1D JUMPI POP POP PUSH2 0xDF2 JUMP JUMPDEST PUSH2 0xD26 DUP3 PUSH2 0xB5A JUMP JUMPDEST PUSH8 0xFFFFFFFFFFFFFFFF DUP2 GT ISZERO PUSH2 0xD3F JUMPI PUSH2 0xD3E PUSH2 0x832 JUMP JUMPDEST JUMPDEST PUSH2 0xD49 DUP3 SLOAD PUSH2 0xA35 JUMP JUMPDEST PUSH2 0xD54 DUP3 DUP3 DUP6 PUSH2 0xC86 JUMP JUMPDEST PUSH0 PUSH1 0x1F DUP4 GT PUSH1 0x1 DUP2 EQ PUSH2 0xD81 JUMPI PUSH0 DUP5 ISZERO PUSH2 0xD6F JUMPI DUP3 DUP8 ADD SLOAD SWAP1 POP JUMPDEST PUSH2 0xD79 DUP6 DUP3 PUSH2 0xCF4 JUMP JUMPDEST DUP7 SSTORE POP PUSH2 0xDEB JUMP JUMPDEST PUSH1 0x1F NOT DUP5 AND PUSH2 0xD8F DUP8 PUSH2 0xB6F JUMP JUMPDEST SWAP7 POP PUSH2 0xD9A DUP7 PUSH2 0xB6F JUMP JUMPDEST PUSH0 JUMPDEST DUP3 DUP2 LT ISZERO PUSH2 0xDC1 JUMPI DUP5 DUP10 ADD SLOAD DUP3 SSTORE PUSH1 0x1 DUP3 ADD SWAP2 POP PUSH1 0x1 DUP6 ADD SWAP5 POP PUSH1 0x20 DUP2 ADD SWAP1 POP PUSH2 0xD9C JUMP JUMPDEST DUP7 DUP4 LT ISZERO PUSH2 0xDDE JUMPI DUP5 DUP10 ADD SLOAD PUSH2 0xDDA PUSH1 0x1F DUP10 AND DUP3 PUSH2 0xCD8 JUMP JUMPDEST DUP4 SSTORE POP JUMPDEST PUSH1 0x1 PUSH1 0x2 DUP9 MUL ADD DUP9 SSTORE POP POP POP JUMPDEST POP POP POP POP POP POP JUMPDEST JUMP JUMPDEST PUSH32 0x4E487B7100000000000000000000000000000000000000000000000000000000 PUSH0 MSTORE PUSH1 0x31 PUSH1 0x4 MSTORE PUSH1 0x24 PUSH0 REVERT JUMPDEST PUSH2 0xE2A DUP3 PUSH2 0x733 JUMP JUMPDEST PUSH8 0xFFFFFFFFFFFFFFFF DUP2 GT ISZERO PUSH2 0xE43 JUMPI PUSH2 0xE42 PUSH2 0x832 JUMP JUMPDEST JUMPDEST PUSH2 0xE4D DUP3 SLOAD PUSH2 0xA35 JUMP JUMPDEST PUSH2 0xE58 DUP3 DUP3 DUP6 PUSH2 0xC86 JUMP JUMPDEST PUSH0 PUSH1 0x20 SWAP1 POP PUSH1 0x1F DUP4 GT PUSH1 0x1 DUP2 EQ PUSH2 0xE89 JUMPI PUSH0 DUP5 ISZERO PUSH2 0xE77 JUMPI DUP3 DUP8 ADD MLOAD SWAP1 POP JUMPDEST PUSH2 0xE81 DUP6 DUP3 PUSH2 0xCF4 JUMP JUMPDEST DUP7 SSTORE POP PUSH2 0xEE8 JUMP JUMPDEST PUSH1 0x1F NOT DUP5 AND PUSH2 0xE97 DUP7 PUSH2 0xB6F JUMP JUMPDEST PUSH0 JUMPDEST DUP3 DUP2 LT ISZERO PUSH2 0xEBE JUMPI DUP5 DUP10 ADD MLOAD DUP3 SSTORE PUSH1 0x1 DUP3 ADD SWAP2 POP PUSH1 0x20 DUP6 ADD SWAP5 POP PUSH1 0x20 DUP2 ADD SWAP1 POP PUSH2 0xE99 JUMP JUMPDEST DUP7 DUP4 LT ISZERO PUSH2 0xEDB JUMPI DUP5 DUP10 ADD MLOAD PUSH2 0xED7 PUSH1 0x1F DUP10 AND DUP3 PUSH2 0xCD8 JUMP JUMPDEST DUP4 SSTORE POP JUMPDEST PUSH1 0x1 PUSH1 0x2 DUP9 MUL ADD DUP9 SSTORE POP POP POP JUMPDEST POP POP POP POP POP POP JUMP JUMPDEST PUSH0 PUSH2 0xEFA DUP3 PUSH2 0x6D5 JUMP JUMPDEST SWAP2 POP PUSH2 0xF05 DUP4 PUSH2 0x6D5 JUMP JUMPDEST SWAP3 POP DUP3 DUP3 ADD SWAP1 POP DUP1 DUP3 GT ISZERO PUSH2 0xF1D JUMPI PUSH2 0xF1C PUSH2 0xACD JUMP JUMPDEST JUMPDEST SWAP3 SWAP2 POP POP JUMP INVALID LOG2 PUSH5 0x6970667358 0x22 SLT KECCAK256 CREATE SWAP2 0xF PUSH14 0x805B4CF152281E1CE7FD36A292D7 0xB8 SWAP4 PUSH19 0x8880DF9FDAEE54C78B2C1164736F6C63430008 0x1F STOP CALLER "
		},
		"gasEstimates": {
			"creation": {
				"codeDepositCost": "785800",
				"executionCost": "816",
				"totalCost": "786616"
			},
			"external": {
				"addBook(string,string,uint16)": "infinite",
				"bookCount()": "2461",
				"books(uint256)": "infinite",
				"removeBook(uint256)": "infinite",
				"removeBookIndex(uint256)": "infinite",
				"removeBookKeepOrder(uint256)": "infinite"
			}
		},
		"methodIdentifiers": {
			"addBook(string,string,uint16)": "cd80723a",
			"bookCount()": "b905ad78",
			"books(uint256)": "68744046",
			"removeBook(uint256)": "bec0d799",
			"removeBookIndex(uint256)": "7325486c",
			"removeBookKeepOrder(uint256)": "d5aa7564"
		}
	},
	"abi": [
		{
			"inputs": [
				{
					"internalType": "string",
					"name": "bookTitle",
					"type": "string"
				},
				{
					"internalType": "string",
					"name": "bookAuthor",
					"type": "string"
				},
				{
					"internalType": "uint16",
					"name": "bookYear",
					"type": "uint16"
				}
			],
			"name": "addBook",
			"outputs": [],
			"stateMutability": "nonpayable",
			"type": "function"
		},
		{
			"inputs": [],
			"name": "bookCount",
			"outputs": [
				{
					"internalType": "uint256",
					"name": "",
					"type": "uint256"
				}
			],
			"stateMutability": "view",
			"type": "function"
		},
		{
			"inputs": [
				{
					"internalType": "uint256",
					"name": "",
					"type": "uint256"
				}
			],
			"name": "books",
			"outputs": [
				{
					"internalType": "string",
					"name": "title",
					"type": "string"
				},
				{
					"internalType": "string",
					"name": "author",
					"type": "string"
				},
				{
					"internalType": "uint16",
					"name": "year",
					"type": "uint16"
				}
			],
			"stateMutability": "view",
			"type": "function"
		},
		{
			"inputs": [
				{
					"internalType": "uint256",
					"name": "index",
					"type": "uint256"
				}
			],
			"name": "removeBook",
			"outputs": [],
			"stateMutability": "nonpayable",
			"type": "function"
		},
		{
			"inputs": [
				{
					"internalType": "uint256",
					"name": "index",
					"type": "uint256"
				}
			],
			"name": "removeBookIndex",
			"outputs": [],
			"stateMutability": "nonpayable",
			"type": "function"
		},
		{
			"inputs": [
				{
					"internalType": "uint256",
					"name": "index",
					"type": "uint256"
				}
			],
			"name": "removeBookKeepOrder",
			"outputs": [],
			"stateMutability": "nonpayable",
			"type": "function"
		}
	]
}